:020000040800F2
:1000000090530020090300080B2C0008D326000899
:10001000092C00085F0600081932000800000000E3
:10002000000000000000000000000000490200087D
:100030000D07000800000000A50200088D2D000833
:1000400023030008230300082303000823030008F8
:1000500023030008230300082303000823030008E8
:1000600023030008230300082303000823030008D8
:10007000790600082303000885060008230300080A
:1000800023030008230300082303000823030008B8
:100090006106000823030008230300082303000867
:1000A000230300084D2E0008230300082303000843
:1000B0002303000823030008230300082303000888
:1000C0002303000823030008230300082303000878
:1000D0002303000823030008230300080D3200084F
:1000E0002303000823030008230300082303000858
:1000F0002303000823030008230300082303000848
:100100002303000823030008592E000823030008D6
:100110002303000823030008230300082303000827
:100120002303000823030008230300082303000817
:100130002303000823030008230300082303000807
:100140006D060008230300082303000823030008AA
:1001500023030008230300082303000823030008E7
:1001600023030008230300082303000823030008D7
:1001700023030008230300082303000800000000F5
:10018000230300082303000800F002F800F04CF8F5
:100190000AA090E8000C82448344AAF10107DA45E2
:1001A00001D100F041F8AFF2090EBAE80F0013F0E8
:1001B000010F18BFFB1A43F0010318472454000035
:1001C000445400000A4410F8014B14F00F0508BF16
:1001D00010F8015B240908BF10F8014B6D1E05D013
:1001E00010F8013B6D1E01F8013BF9D1641E03D0EC
:1001F000641E01F8015BFBD19142E4D3704700001B
:100200000023002400250026103A28BF78C1FBD81F
:10021000520728BF30C148BF0B6070471FB505F0BB
:1002200037F91FBD10B510BD00F0E4F91146FFF716
:10023000F5FF03F029FC00F002FA03B4FFF7F2FF28
:1002400003BC00F005FA00002C4B19680868B0E800
:10025000F04F80F30988BFF36F8F4FF0000080F3F9
:10026000118870470000000008480068006880F3AB
:1002700008884FF0000080F3148862B661B6BFF3BF
:100280004F8FBFF36F8F00DF00BF00BF08ED00E0AE
:10029000DFF80C00016841F470010160704700BF95
:1002A00088ED00E0EFF30980BFF36F8F134B1A68FE
:1002B0001EF0100F08BF20ED108A20E9F04F1060EB
:1002C00009B44FF0500080F31188BFF34F8FBFF394
:1002D0006F8F04F059FB4FF0000080F3118809BCC8
:1002E00019680868B0E8F04F1EF0100F08BFB0ECB6
:1002F000108A80F30988BFF36F8F70472C000020AD
:10030000EFF305807047000009488047094800471F
:10031000FEE7FEE7FEE7FEE7FEE7FEE7FEE7FEE7B5
:10032000FEE7FEE704480549054A064B7047000012
:100330003D2E000889010008904D002090530020B8
:10034000904F0020904F002053EA020C00F069808B
:100350002DE9F04B4FF00006002B1FBFB3FA83F5D9
:1003600003FA05F424FA05F65E4012BF1643B2FA0A
:1003700082F502FA05F4C5F120051EBF22FA05FC3C
:1003800044EA0C04203556EA044C4FEA144418BFE2
:10039000641C4FF000084FF00009904271EB030C11
:1003A00039D3002919BFB1FA81F701FA07F6B0FA7B
:1003B00080F700FA07F6C7F120071EBF20FA07FCF6
:1003C00046EA0C062037B6FBF4FCA7EB0507103F06
:1003D00007F01F0BCBF120060CFA0BFB2CFA06F6EC
:1003E00044BFB3460026202FA4BF5E464FF0000B4B
:1003F0005BEA060C08BF4FF0010B19EB0B09ABFBD6
:10040000027C48EB0608C01B06FB02CC0BFB03CCAE
:1004100071EB0C01C1E70B46024641464846BDE878
:10042000F08B13B54FF000004FF00001AFF30080E8
:10043000BDE81C407047032A40F2308010F0030CE6
:1004400000F0158011F8013BBCF1020F624498BF27
:1004500011F801CB00F8013B38BF11F8013BA2F1C4
:10046000040298BF00F801CB38BF00F8013B11F03F
:10047000030300F06280083AC0F0088051F8043BA2
:10048000083A51F804CBA0E80810F5E7121D5CBF4C
:1004900051F8043B40F8043BAFF30080D20724BF7F
:1004A00011F8013B11F801CB48BF11F8012B24BF13
:1004B00000F8013B00F801CB48BF00F8012B704762
:1004C00002F0FF0343EA032242EA024200F069B865
:1004D0004FF0000200B5134694469646203922BFDD
:1004E000A0E80C50A0E80C50B1F12001BFF4F7AF28
:1004F000090728BFA0E80C5048BF0CC05DF804EB0A
:10050000890028BF40F8042B08BF704748BF20F877
:10051000022B11F0804F18BF00F8012B7047704775
:100520007047704710B500F05DF8006810BD10B559
:10053000044600F057F8046010BD10B5203AC0F032
:100540000B80B1E81850203AA0E81850B1E81850D4
:10055000A0E81850BFF4F5AF5FEA027C24BFB1E811
:100560001850A0E8185044BF18C918C0BDE8104082
:100570005FEA827C24BF51F8043B40F8043B08BF8B
:100580007047D20728BF31F8023B48BF11F8012B52
:1005900028BF20F8023B48BF00F8012B70474FF0FE
:1005A00000020429C0F0128010F0030C3FF492AF57
:1005B000CCF1040CBCF1020F18BF00F8012BA8BF4E
:1005C00020F8022BA1EB0C01FFF784BF5FEAC17C8E
:1005D00024BF00F8012B00F8012B48BF00F8012BC5
:1005E0007047000000487047304D002000487047B9
:1005F000304D00207546FFF7F9FFAE46050069460D
:10060000534620F00700854618B020B5FFF78AFE54
:10061000BDE820404FF000064FF000074FF0000803
:100620004FF0000B21F00701AC46ACE8C009ACE884
:10063000C009ACE8C009ACE8C0098D46704710B5E8
:100640000446AFF300802046BDE81040FFF7F5BD3B
:1006500001491820ABBEFEE7260002007047FEE706
:10066000014800F0D1B800002C010020014800F042
:10067000CBB8000054010020014800F065BB000029
:10068000B8020020014800F05FBB00001803002002
:1006900001681823CAB2103AB2FBF3F2054B6FF3AC
:1006A0000901032A9B5CC36500D9091D81650846C1
:1006B000704700007455000810B5014600208B6992
:1006C0008A6A4FF0C07453B1B3F5005F15D072B1B0
:1006D000012A0CD0022A0AD0032A09D104E01AB157
:1006E000012A06D0022A03D1C96AC90100D5012016
:1006F00010BDC96AA142FAD010BD002AF7D0012A64
:10070000F2D0022AF3D0032AF3D010BD704772B69C
:10071000FEE7704770B590F82040012C05D0022C00
:1007200003D0416A41F4802128E0046809B32469B8
:10073000A40720D04FF4D874056804EB01142D5998
:1007400015F00405956005682D591AD0ED0855601F
:1007500005682C5904F00204D4604FF4DA7405687B
:1007600004EB01142E5906F00F06082E0CD30825B1
:100770000DE0E468DCE7416A41F4001141620120C8
:1007800070BD6D0D1560E3E72D5905F00F0515617E
:1007900005682D59C5F30725956105682C59240C6A
:1007A00054614FF4DC72046802EB0112A4581C700F
:1007B0000468A458240A5C700468A458240C9C7033
:1007C0000468A258120EDA704FF4DE72046802EB6D
:1007D0000112A4581C710468A458240A5C710468AE
:1007E000A458240C9C710468A258120EDA71006897
:1007F00029B1016941F020010161002070BDC1688B
:1008000041F02001C160F8E72DE9F05F054600687E
:1008100000244669D0F804908768D0F80CB0D0F86E
:1008200010A0D0F81880F10748D0F90714D00121A2
:100830008160B80703D5284600F024FA0CE0780759
:1008400002D54FF4006407E0380702D54FF4805416
:1008500002E0284600F015FAF80516D529684FF48D
:1008600080708860B80503D5284600F00DFA0CE0CA
:10087000780502D544F4005407E0380502D544F465
:10088000804402E0284600F0FEF9F80316D52968F6
:100890004FF480308860B80303D5284600F0F6F99D
:1008A0000CE0780302D544F4004407E0380302D595
:1008B00044F4803402E0284600F0E7F9300707D519
:1008C0005FEACB6004D52968102044F40074C86046
:1008D00070074FF0080707D55FEA0B7004D528684A
:1008E000C760284600F09AF9B00706D52868C068A6
:1008F000800702D0284600F093F9700607D55FEA1A
:10090000CA6004D52968102044F480640861B006E8
:1009100007D55FEA0A7004D528680761284600F009
:10092000ADF9F00606D528680069800702D0284690
:1009300000F0A5F9B00308D55FEAC96005D52968BC
:1009400010204860284600F09BF9F00307D55FEAC5
:10095000097004D528684760284600F098F93004EB
:1009600046D55FEA497040D5F00504D55FEAC87006
:1009700001D044F00104B00504D55FEA887001D5C8
:1009800044F00204700504D55FEA487001D544F0D4
:100990000404300529D518F0700F26D008F0700037
:1009A000402815D006DC102809D020280AD030288D
:1009B00016D10AE050280ED0602811D10EE044F084
:1009C00008040DE044F010040AE044F0200407E0BD
:1009D00044F0400404E044F0800401E044F48074F6
:1009E0002868816921F070018161296804204860CC
:1009F000002C05D0686A204368622846FFF789FE0C
:100A0000BDE8F09F70B5040003D094F8200010B149
:100A100004E0012070BD204600F082F820680168E3
:100A200041F00101016000F0C7FB0546052604E026
:100A300000F0C2FB401B0A2811D820684068C0079C
:100A4000F6D02068016821F00201016000F0B4FBDB
:100A500005460BE000F0B0FB401B0A2806D9606A8F
:100A600040F40030606284F82060D2E7206840687B
:100A70008007EFD4207E0128206801683DD021F056
:100A800080010160607E01282068016838D021F073
:100A900040010160A07E01282068016833D021F068
:100AA00020010160E07E0128206801682ED041F01D
:100AB00010010160207F01282068016829D021F001
:100AC00008010160607F01282068016824D021F0BE
:100AD00004010160D4E902010843D4E9041211437E
:100AE00008436168491E08432168C86100206062AC
:100AF000012084F82000002070BD41F08001C0E793
:100B000041F04001C5E741F02001CAE721F01001A2
:100B1000CFE741F00801D4E741F00401D9E7000034
:100B2000F0B587B0044614216846FFF7D1FC364B78
:100B30003648DFF8D0E01968D4F800C0334A0325FE
:100B40000226092710300024491CF44522D11960DF
:100B5000012907D1016841F000710160006800F0CF
:100B600000700590106840F0080010601068CDE932
:100B7000005600F00800CDE9047069462448CDE92C
:100B8000024500F01BFA00220521142000F0ACFB06
:100B9000142033E0DFF87CE0F44531D1D0F800C018
:100BA0004CF0806CC0F800C0D0F800C001290CF0F7
:100BB000806CCDF814C0196007D1016841F0007154
:100BC0000160006800F000700590106840F00200BD
:100BD0001060106802AB00F0020005904FF4405026
:100BE000CDE9000683E8B00069460B4800F0E6F95D
:100BF00000220521402000F077FB402000F066FB3A
:100C000007B0F0BD006400401800002030380240FA
:100C1000000C0240006800400004024070470000E1
:100C200000B58BB001AB03AA0021FFF773FD039859
:100C3000A0F2012006281AD80E49C0B200EB8002AB
:100C400008700D4901EB420031F812300381BDF804
:100C500004305BBA21F81230BDF8061049BA418061
:100C6000BDF8081049BA81809DF80A1081710BB057
:100C700000BD0000F8000020B84C0020704770470D
:100C800070477047704770477047704770477047AC
:100C90002DE9F0410446876D00F08EFA064694F87F
:100CA00035000025022806D08020606584F8345085
:100CB0000120BDE8F0812068016821F01601016083
:100CC0002068416921F080014161206C08B9A06C65
:100CD00020B12068016821F00801016020680168E6
:100CE00021F0010101600CE000F066FA801B05288C
:100CF00007D920206065032084F8350084F834503B
:100D0000D7E720680068C007EED194F85C103F2058
:100D10008840B860012084F8350084F83450002001
:100D2000C7E790F83510022903D0802141650120E2
:100D30007047052180F835100068016821F0010135
:100D400001600020704700002DE9F84304464FF091
:100D50000009CDF8009063484FF41651A56D006866
:100D6000B0FBF1F72E6894F85C10082000FA01F14E
:100D700031420FD021680A6852070BD50A6822F069
:100D800004020A6094F85C108840A860606D40F02E
:100D90000100606594F85C104FF0010808FA01F05A
:100DA000304208D021684969090604D5A860606D01
:100DB00040F00200606594F85C10042088403042E6
:100DC00008D021680968890704D5A860606D40F0E3
:100DD0000400606594F85C1010208840304218D000
:100DE00021680968090714D5A860206801684903CB
:100DF00004D50068000308D5A16C07E00168C905A7
:100E000003D4016821F008010160216C09B120467A
:100E1000884794F85C1020208840304231D0216807
:100E20000968C9062DD5A86094F835000528206802
:100E3000016806D0490347D5006800031DD4616CE2
:100E40001CE021F0160101602068416921F0800159
:100E50004161206C08B9A06C20B12068016821F0C4
:100E60000801016094F85C103F208840A86084F875
:100E7000358084F83490216D1FE0E16B09B1204684
:100E80008847606D00282BD0606DC00714D0052006
:100E900084F835002068016821F0010101600098A4
:100EA000401C0090B84203D820680068C007F6D103
:100EB00084F8358084F83490E16C002910D001B0BA
:100EC0002046BDE8F04308470168C905D5D401684C
:100ED00021F01001016084F8358084F83490CCE76B
:100EE000BDE8F883280000202DE9F041044600F019
:100EF00063F906465CB1022084F83500002584F8C9
:100F000034502068016821F0010101600DE00120EA
:100F1000BDE8F08100F050F9801B052805D920209C
:100F20006065032084F83500F2E720680068C00798
:100F3000F0D12268116820480140D4E90103184328
:100F4000D4E903363343184363691843A36918434C
:100F5000E3691843236A18430843616A042903D1EB
:100F6000D4E90B1319430843106020684069666A8E
:100F700020F0070130460E43012704280CD1A06A57
:100F80000643E06A40B12046FFF796FB20B14020BF
:100F9000606584F83570BAE7206846612046FFF73F
:100FA00077FB94F85C203F2191408160656584F86F
:100FB00035700020ACE700003F8010F02DE9F84FBD
:100FC000DFF8BCA10022012503264FF00F090AF12A
:100FD000040BAAF1040E00BF0B6805FA02F42340CB
:100FE000A34270D10F7907F00307012F01D0022F20
:100FF00016D187684FEA420806FA08FC27EA0C0770
:10100000D1F80CC00CFA08FC4CEA070CC0F808C078
:101010004768A7430C79C4F3001494403C434460F0
:101020000C79E443A4070AD0C4684FEA420C06FADC
:101030000CF7BC438F6807FA0CF72743C7600C799D
:1010400004F00304022C12D1D40800EB840CDCF869
:1010500020405707FF0E09FA07F824EA0804D1F8E0
:10106000108008FA07F848EA0408CCF820800468E1
:101070004FEA420C06FA0CF7BC430F7907F003075E
:1010800007FA0CF7274307604C6814F4403F70D010
:101090003C4C276847F480472760246822F0030708
:1010A00004F480440094384C07EB040CDCF8084846
:1010B00097074FEA177809FA08F7BC43334FB8424D
:1010C00002D1002724E054E0314FB84201D101277A
:1010D0001EE0304FB84201D1022719E02E4FB8422E
:1010E00001D1032714E02D4FB84201D104270FE0AE
:1010F0002B4FB84201D105270AE02A4FB84201D14F
:10110000062705E0284FB84201D1072700E008274D
:1011100007FA08F72743CCF80878DAF80040574672
:10112000D1F804C09C435FEACC2C00D51C433C6042
:10113000DBF800405F46D1F804C09C435FEA8C2C8A
:1011400000D51C433C60DEF800407746D1F804C06F
:101150009C435FEA8C3C00D51C433C60084F083F31
:101160003C68D1F804C09C435FEACC3C00D51C43EA
:101170003C60521C102AFFF42FAFBDE8F88F00002E
:10118000083C014044380240003001400000024069
:101190000004024000080240000C0240001002401F
:1011A0000014024000180240001C02400AB1816194
:1011B00070470904FBE700000148806870470000A1
:1011C0001C00002002488168027811448160704749
:1011D0001C0000200B4810B5016841F4007101604B
:1011E000016841F480610160016841F4807101602F
:1011F000032000F099F80F2000F006F800F04AF8FC
:10120000002010BD003C024030B505461C4887B0A8
:101210000024016841F001010160006806A900F0A6
:101220000100009001A800F02BF900F059F91549D0
:101230004000B0FBF1F11548134A491E026040F22C
:10124000E732C0E90324C0E90114846100F08EFE96
:10125000040012D10D4800F0D5FE04000DD1192074
:1012600000F034F8102D07D200222946192000F092
:101270003BF80748056000E0012407B0204630BD78
:101280004438024040420F00000001407803002033
:10129000200000200C4882B0016841F480410160C8
:1012A000006800F4804000900748001F016841F08A
:1012B000805101600068002200F0805000900F21F2
:1012C000901E02B000F010B844380240002809DB3C
:1012D00000F01F02012191404009800000F1E02050
:1012E000C0F8001170470000F0B40E4B1B680C46AC
:1012F000C3F30223C3F10705042D00D90425191DEA
:10130000072901D2002300E0DB1E012606FA05F1C1
:10131000491E214099409E40761E16403143F0BC44
:1013200001F08EBF0CED00E0064900F007020868EE
:101330004FF6FF03184040EA0220034A10430860BA
:10134000704700000CED00E00000FA052DE9F047C1
:101350000E46050065D0DFF81481D8F80000F7B21A
:1013600000F00700B04207D288F80070D8F80000FB
:1013700000F00700B04254D128683D4C810712D5D7
:10138000400703D5206840F4E0502060287800072B
:1013900003D5206840F4604020602068A96820F0F0
:1013A000F000084320602878C0072DD030496868D5
:1013B0000839012812D0022813D0032811D0096857
:1013C000890700292DDA216821F0030101432160FA
:1013D000FFF7F2FE814641F2883A0EE00968890380
:1013E000EFE709688901ECE7FFF7E6FEA0EB0901EA
:1013F000514502D90320BDE8F0872068696800F0F4
:101400000C00B0EB810FEFD1D8F80010404601F08E
:101410000701B14207D90770006800F00700B04229
:1014200001D00120E7E72878400705D52068E96862
:1014300020F4E050084320602878000706D5206893
:10144000296920F4604040EAC100206000F058F8AB
:101450002168084AC1F30311515CC840064908607D
:1014600006480068FFF7D0FE0020C4E7003C0240B9
:10147000083802407C550008280000202000002089
:101480000F2202600C4A136803F0030343601368E1
:1014900003F0F0038360136803F4E053C360126841
:1014A0004FF4E05303EAD20202610448006800F0FE
:1014B000070008607047000008380240003C024006
:1014C0000448054900680968044AC1F38221515C57
:1014D000C840704728000020083802408C5500089A
:1014E0000448054900680968044AC1F34231515C67
:1014F000C840704728000020083802408C5500087A
:10150000154810B5006810F00C02144813D01449A7
:10151000042A0FD0082A0ED10F4C241F22682368FA
:1015200002F03F025B0207D52068C0F38810A0FBE1
:10153000010106E0084610BD2168C1F38811A1FB36
:1015400000010023FEF700FF2168C1F30141491C9F
:101550004900B0FBF1F010BD083802400024F4004F
:10156000001BB7002DE9F84F04006ED02078DFF89B
:101570004C93C007A9F104054AD009F104000168A1
:10158000C1F38101012908D00068C0F3810002285D
:101590000AD1D9F80000400206D52868800337D563
:1015A00060680028E1D033E06068B0F5803F10D07B
:1015B000B0F5A02F286810D020F48030286028686B
:1015C00020F4802028606068A8B1FFF7F5FD06468A
:1015D0000DE0286840F48030F4E740F48020286073
:1015E000F7E700BFFFF7E8FD801B642873D8286881
:1015F0008003F7D50CE0FFF7DFFD064605E000BFEE
:10160000FFF7DAFD801B6428F0D828688003F7D440
:101610002078DFF8AC8280074FF0000A3ED5A7485B
:10162000001D016811F00C0F08D00068C0F38100A4
:1016300002280BD1D9F80000400207D4286880079F
:1016400016D5E068012800D112E033E1E068B8B1B6
:101650000120C8F80000FFF7AFFD064605E000BF17
:10166000FFF7AAFD801B0228C0D828688007F7D59D
:101670002868216920F0F80040EAC10028600DE0E8
:10168000C8F800A0FFF798FD064604E0FFF794FDB8
:10169000801B02281FD828688007F7D4207800070D
:1016A00022D5864F87486169703771B10121016089
:1016B000FFF782FD064604E0FFF77EFD801B02284F
:1016C00009D838688007F7D50EE0C0F800A0FFF70A
:1016D00073FD064605E082E0FFF76EFD801B0228E1
:1016E0007DD838688007F7D42078400768D5DFF8C0
:1016F000CCB100270BF13C0BDBF80000C0000BD491
:10170000DBF8001041F08051CBF80010DBF800004E
:10171000012700F0805000906B4E3068C00510D457
:10172000306840F480703060FFF746FD009005E0BF
:10173000FFF742FD0099401A022850D83068C005D2
:10174000F6D55E4EA0686C3601280FD005283068AB
:1017500010D020F001003060306820F004003060CC
:10176000A068B8B1FFF728FD00900FE0306840F0A6
:101770000100F4E740F004003060F7E7FFF71CFDDC
:101780000099411A41F28830814266D8306880075A
:10179000F4D50EE0FFF710FD009007E0FFF70CFD19
:1017A0000099411A41F28830814256D8306880074A
:1017B000F4D42FB1DBF8001021F08051CBF80010E9
:1017C000A069C8B33D49091D0968C1F38101022917
:1017D0004AD00228504607D0C8F8600000E03CE03C
:1017E000FFF7EAFC04463BE04746C8F86000FFF715
:1017F000E3FC064605E000BFFFF7DEFC801B022885
:101800002BD828688001F7D4D4E907010843A16ADE
:101810002E4A490802EB0141626A41EA82110843FB
:1018200094F82C1040EA0161C9F8001001203866D4
:10183000FFF7C2FC044606E03EE000BFFFF7BCFC39
:10184000001B022809D828688001F7D534E000BFC2
:10185000FFF7B2FC001B022802D90320BDE8F88F75
:1018600028688001F4D427E00128F7D0D9F80000D7
:10187000E26900F4800191421CD1226A00F03F012C
:10188000914217D147F6C071626A0140B1EB821FE5
:1018900010D1A26A4FF0FF3300F4403103EB520243
:1018A000B1EB024F06D194F82C1000F07060B0EB51
:1018B000016F01D00120D1E70020CFE704380240BA
:1018C00000004742800E4742007000400000FFFFCA
:1018D00090F85100704770B5040009D0606A002587
:1018E00040B125616561A56294F8510040B10CE0FA
:1018F000012070BD6068B0F5827FF4D0E561F2E749
:1019000084F85050204600F045F8022084F8510039
:101910002068016821F040010160A088218900F45D
:10192000827001F404410843A18901F40061084375
:10193000217C01F002010843217D01F001010843EF
:10194000218B01F400710843217F01F03801084325
:1019500094F8201001F080010843218D01F400511A
:10196000084321680860A069042101EA104094F846
:10197000241001F010010843216848602068C16903
:1019800021F40061C1616565012084F851000020E7
:1019900070BD0000F0B587B0044614216846FEF71C
:1019A00097FD1C492068884232D11B4800240168F9
:1019B00041F480510160006800F4805005901648A1
:1019C0001438016841F002010160016801F0020170
:1019D0000591016841F0010101600068022500F0F5
:1019E000010005901820CDE9000502AA032605276D
:1019F00082E8D00069460948FFF7E0FA8020CDE987
:101A0000000502AA694682E8D0000548FFF7D6FA29
:101A100007B0F0BD003001404438024000040240ED
:101A2000000002402DE9F84F044690F85100984616
:101A300016460F460025012801D0022598E060686F
:101A40004FF0040BB0F5827F01D1A068F8B194F893
:101A50005000012826D04FF0010984F85090FFF77C
:101A6000ABFB8246002F7FD0002E7DD084F851B092
:101A700000206065A763A687E6872063A086E086CE
:101A800020646064A068B0F5004F0DD016E084F8C3
:101A900051B013460A462046CDF8008000F024F9E4
:101AA000BDE8F88F0220FBE72068016821F04001C3
:101AB00001602068016821F48041016020680168AC
:101AC000490603D4016841F040010160E068D8B1E3
:101AD0003BE020688168C90709D0007BA16B0870D2
:101AE000A06B401CA063E08F401EE0870CE0FFF776
:101AF00063FBA0EB0A01414503D3B8F1FF3F03D0DC
:101B000006E0B8F1000F03D0E08F0028E1D11FE01C
:101B100003252BE020688168C90709D0C068A16B44
:101B20000880A06B801CA063E08F401EE0870CE063
:101B3000FFF742FBA0EB0A01414503D3B8F1FF3F99
:101B400003D0E5E7B8F1000FE2D0E08F0028E1D143
:101B500052464146204601F059F808B12020606500
:101B6000606D00E000E008B1012501E084F85190CB
:101B7000002084F85000284692E72DE9F84F0446EB
:101B800090F850000026984615468A4601280CD049
:101B9000012784F85070FFF70FFB814694F851003D
:101BA000B346012804D002269AE00220BDE8F88F4F
:101BB000BAF1000F6FD0002D6DD0032084F85100D2
:101BC000C4F854B0C4F830A0A586E586C4F838B08F
:101BD000A4F83CB0A4F83EB0C4F844B0C4F840B097
:101BE000A068B0F5004F09D12068016821F04001DC
:101BF00001602068016841F480410160206801684B
:101C0000490603D4016841F040010160E068B0F585
:101C1000006F606803D058B3012D29D049E008B1A6
:101C2000012D1FD1206B21680088C86006E0206864
:101C30008168890709D5216B0988C160206B801CE8
:101C40002063E08E401EE0860CE0FFF7B5FAA0EBC3
:101C50000901414503D3B8F1FF3F03D006E0B8F1D5
:101C6000000F03D0E08E0028E1D125E0032635E007
:101C7000206B21680078087306E020688168890776
:101C80000AD5216B09780173206B401C2063E08E1C
:101C9000401EE0860DE01FE0FFF78EFAA0EB090181
:101CA000414503D3B8F1FF3F03D0DFE7B8F1000FA0
:101CB000DCD0E08E0028E0D14A464146204600F0C4
:101CC000D3FF08B120206065A06818B92068C168FA
:101CD00080680090606D08B1012601E084F85170C1
:101CE00084F850B0304661E72DE9FF4F81B00446DB
:101CF00090F8500000260E9F1D4693464FF00109B4
:101D000001280FD04FF0010A84F850A0FFF754FAD1
:101D1000804694F85100616801280DD0B1F5827FAA
:101D200008D103E0022005B0BDE8F08FA16809B931
:101D3000042801D00226C9E00298002865D0BBF132
:101D4000000FFBD0002DF9D094F85100042802D0E8
:101D5000052084F8510000206065C4F838B0E5879C
:101D6000A58702992163E586A586206460642068C2
:101D70000168490603D4016841F040010160E06850
:101D8000B0F5006F606803D0F0B3012D47D081E05B
:101D900008B1012D3CD1206B21680088C860206B00
:101DA000801C2063E08E401EE08631E02068816860
:101DB00089070FD5E18E69B1B9F1010F0AD1216B05
:101DC0000988C160206B801C2063E08E401EE08685
:101DD0004FF0000920688168C9070CD0E18F51B12C
:101DE000C068A16B0880A06B801CA063E08F401EC0
:101DF000E0874FF00109FFF7DFF9A0EB0800B842D8
:101E000006D3781C04D001E009E05BE003265BE028
:101E1000E08E0028CAD1E08F0028C7D140E0206BB7
:101E2000216800780873206B401C2063E08E401E00
:101E3000E0862FE02068816889070FD5E18E69B1BF
:101E4000B9F1010F0AD1216B09780173206B401C95
:101E50002063E08E401EE0864FF000092068816814
:101E6000C9070CD0E18F51B1C068A16B0870A06B9D
:101E7000401CA063E08F401EE0874FF00109FFF790
:101E80009BF9A0EB0800B84202D3781C02D0BAE755
:101E9000002FB8D0E08E0028CCD1E08F0028C9D127
:101EA00042463946204600F0DFFE18B101262020C8
:101EB00060650BE0A06818B92068C1688068009070
:101EC000606D08B1012601E084F851A0002084F87B
:101ED0005000304627E770477047000070B590F813
:101EE0003C20012A32D0012480F83C40022280F8B4
:101EF0003D2003685A689D6822F070060A683243E4
:101F00005A60134B02689A4214D0B2F1804F11D03C
:101F1000104B9A420ED0104B9A420BD00F4B9A4264
:101F200008D00F4B9A4205D00E4B9A4202D00E4B6E
:101F30009A4204D1496825F080031943916080F8E2
:101F40003D40002180F83C10084670BD022070BD65
:101F5000000001400004004000080040000C004068
:101F600000040140004001400018004010B504008A
:101F700003D094F83D0010B107E0012010BD00200F
:101F800084F83C00204600F01FF8022084F83D0051
:101F9000211D206800F066FF012084F8460084F8C7
:101FA0003E0084F83F0084F8400084F8410084F843
:101FB000420084F8430084F8440084F8450084F823
:101FC0003D00002010BD000008B500680B498842A4
:101FD00012D10B48016841F008010160006800223D
:101FE00000F00800009005213220FFF77DF9BDE8E0
:101FF00008403220FFF76AB908BD0000000C00401D
:102000004038024090F83D10012901D0012070476E
:10201000022180F83D100168CA6842F00102CA60DE
:1020200000681149884214D0B0F1804F11D00F4997
:1020300088420ED00E4988420BD00E49884208D003
:102040000D49884205D00D49884202D00C4988428A
:1020500004D1816801F00701062903D0016841F02D
:1020600001010160002070470000014000040040B1
:1020700000080040000C0040000401400040014006
:102080000018004070B5044690F83C000025012877
:1020900017D0012684F83C60022084F83D002068B7
:1020A000826822F0770222F47F428260086850281A
:1020B00038D00DDC20284FD005DC90B3102811D18A
:1020C0004AE0022070BD302846D040280AD13BE0CB
:1020D00060282FD070280DD0B0F5805F03D0B0F508
:1020E000005F12D0012584F83D60002084F83C0098
:1020F000284670BDCB68D1E90121206800F01EFFA1
:102100002068816841F0770109E0CB68D1E90121BD
:10211000206800F013FF2068816841F480418160ED
:10212000E1E719E0CA684968206800F019FF50210A
:10213000206806E0CA684968206800F022FF602134
:10214000206800F005FFCEE7CA684968206800F003
:1021500007FF40212068F4E7226801461046F0E7B7
:1021600070472DE9F04104460068C66805694FF0E4
:102170000007A90713D5B10711D5F91E0161012088
:102180002077206880698007204602D0FFF7E8FFAB
:1021900004E000F07EF8204600F07CF8277768071E
:1021A00016D5700714D521686FF00400086102206D
:1021B00020772068806910F4407F204602D0FFF726
:1021C000CFFF04E000F065F8204600F063F82777C1
:1021D000280715D5300713D521686FF0080008616E
:1021E000042020772068C0698007204602D0FFF7CE
:1021F000B7FF04E000F04DF8204600F04BF82777D9
:10220000E80616D5F00614D521686FF010000861B5
:10221000082020772068C06910F4407F204602D053
:10222000FFF79EFF04E000F034F8204600F032F89B
:102230002777E80708D0F00706D021686FF0010083
:102240000861204600F028F8280608D5300606D593
:1022500021686FF0800008612046FFF73CFE6806A9
:1022600008D5700606D521686FF040000861204649
:1022700000F01CF8A8060AD5B00608D521686FF052
:10228000200008612046BDE8F041FFF725BEBDE80B
:10229000F08170477047000000680349884201D10F
:1022A000FEF790BF70470000000001407047704784
:1022B00070470000F8B5016804460868CA684B69B1
:1022C00010F00F0F4FF0000559D003F0010602F493
:1022D0009077374365D0C10705D0D10503D5616C30
:1022E00041F001016164410705D5D90703D0616C54
:1022F00041F002016164810705D5D90703D0616C03
:1023000041F004016164010707D502F02001314367
:1023100003D0616C41F008016164616C00293AD01E
:10232000800604D5900602D5204600F06BFE20689A
:102330004069616CC0F38010090700D460B3204687
:1023400000F039FE20684069400621D5206814302D
:1023500050E8001F21F0400140E80012002AF5D1AA
:10236000E06BA8B16E490165E06BFEF7DAFC00286E
:1023700011D0E06B016D01B0BDE8F0400847830665
:102380000FD593060DD52046BDE8F84000F03ABEC3
:102390002046FFF78DFFF8BD2046FFF789FF6564F3
:1023A000F8BD266B2023012E7DD1C6067BD5D6062F
:1023B00079D508684868009048694FF002064006E1
:1023C00041D5E16B086840680004000CE8D0A28D9C
:1023D0008242E5D9E085C869B0F5807F2DD02068BC
:1023E0000C3050E8001F21F4807140E80012002AF0
:1023F000F5D12068143050E8001F21F0010140E8B9
:102400000012002AF5D12068143050E8001F21F096
:10241000400140E80012002AF5D184F842302563DB
:1024200020680C3050E8001F21F0100140E8001235
:10243000002AF5D1E06BFEF72BFC6663A08DE18DE1
:10244000401A81B22AE0A08DE18D401A81B2E08D60
:102450000028A5D00029A3D022680C3252E8000F32
:1024600020F4907042E80007002FF5D12068143066
:1024700050E8002F22F0010240E80027002FF5D19C
:1024800084F84230256320680C3050E8002F22F099
:10249000100240E80023002BF5D166632046FFF7C9
:1024A00006FFF8BDFFE705062BD5150629D594F8DC
:1024B00041002128F5D1A068B0F5805F01D12069E5
:1024C000B0B1206A411C2162216800784860E08C2C
:1024D000401E0004000CE084E3D12068C16821F0B4
:1024E0008001C1602068C16841F04001C160D8E747
:1024F000206A0088C0F308004860206A801C2062BF
:10250000E5E74006CDD55006CBD5CA68204622F077
:102510004002CA6084F8413000F0DAF8C1E70000F8
:10252000A72F000870B5040004D094F841000025DE
:1025300010B106E0012070BD84F84050204600F044
:1025400023F8242084F841002068C16821F4005158
:10255000C160204600F0B8FD2068016921F4904177
:1025600001612068416921F02A0141612068C16848
:1025700041F40051C1606564202084F8410084F872
:1025800042006563002070BD2DE9F04387B0064628
:1025900014216846FDF79CFF3149306888425BD1C1
:1025A00030480024016841F480210160006800F493
:1025B000802005902B481038016841F0040101602B
:1025C0000068694600F0040005904FF440600090F8
:1025D0000220CDE901040320039007200490224843
:1025E000FEF7ECFC224D21484FF000672860C5E95A
:1025F00001744FF48068C5E903484FF480796C6139
:10260000C5E906492C6228466C62FEF76DFC08B1EC
:10261000FEF77DF8F563AE63154D14486035303034
:10262000E5E802074020A5E81101114845F81449E2
:102630006030C5E906492C626C62FEF755FC08B1B2
:10264000FEF765F8B563002205212720AE63FEF78B
:102650004BFE2720FEF73AFE07B0BDE8F0830000EE
:102660000048004040380240000802402860024014
:10267000B802002090F84230202B01D00220704791
:1026800021B11AB10023036300F0A4BD01207047FB
:1026900010B500680C49884214D10C4801780F2904
:1026A00001D1007E38B101220849BDE8104001F196
:1026B0003200FFF7DFBF05490448223901F0FDF978
:1026C0001922F1E710BD0000004800403E02002042
:1026D0007047FEE70F4810B50D49016003214160C6
:1026E00000214FF400228160C0E903124FF4401230
:1026F0004261017641768176C17601774177FEF7B6
:1027000081F9002803D0BDE81040FEF700B810BDE5
:10271000006400402C0100200F4810B50D490160F5
:102720000321416000214FF420228160C0E903129F
:102730004FF400124261017641768176C1760177CD
:102740004177FEF75FF9002803D0BDE81040FDF7A0
:10275000DEBF10BD00680040540100200D4808B5E0
:10276000016841F4001101600068002200F40010CB
:10277000009005210C20FEF7B7FD0C20FEF7A6FD0A
:10278000002205210E20FEF7AFFDBDE808400E2017
:10279000FEF79CBD3038024010B5154A002115489F
:1027A00001F058FA144C124A0021206024321348D8
:1027B00001F050FA0E4A606048320021104801F0E2
:1027C00049FA0B4AA0606C3200210E4801F042FA2F
:1027D000074AE060903200210B4801F03BFA044ABE
:1027E0002061B4320021094801F034FA606110BD63
:1027F0009C5400080139000800000020113900082D
:10280000093900084D3A000809360008813A0008E5
:10281000F0B587B014216846FDF75AFE244800241D
:10282000016841F002010160016801F002010591B7
:10283000016841F001010160016801F001010591A9
:10284000016841F008010160016801F0080105918B
:10285000016841F004010160016801F00401059183
:10286000016841F0800101600068124E00F08000B4
:102870000590002210213046FEF798FC0E4F0022F2
:1028800001213846FEF792FC102000900125CDE989
:102890000154694630460394FEF790FB0095CDE95C
:1028A0000154694638460394FEF788FB07B0F0BD33
:1028B000303802400000024000040240104810B5C9
:1028C0000E4901604FF48271416000218160C16056
:1028D0004FF400720161C0E905123822C0E90721F6
:1028E000416281620A21C162FEF7F5FF002803D030
:1028F000BDE81040FDF70BBF10BD000000300140E7
:102900007C01002010B586B0002416480094019484
:102910000294039404941249059401605321C0E980
:1029200001146321C0E903148461FFF71FFB08B1A0
:10293000FDF7EDFE4FF48050009069460948FFF71F
:10294000A1FB08B1FDF7E3FE049404A90548059432
:10295000FFF7C4FA002801D0FDF7D9FE06B010BD7C
:10296000000C0040D40100200D4810B50B49016057
:102970000C49416000214FF480628160C0E903127C
:102980000C22C0E90521C161FFF7CCFD002803D06E
:10299000BDE81040FDF7BBBE10BD00000048004080
:1029A0007002002040420F00F5EEC01AB0EE413A2E
:1029B000F0EE603AB0EE404AF1EE10FA00B58E4A01
:1029C000034609D1B5EEC02AF1EE10FA04D1F5EEB6
:1029D000C02AF1EE10FA73D021EEA10A02EE020A2B
:1029E00002EEA20A01F036F821EE801A62EE004AE9
:1029F00062EE801A92ED030AD2ED050A92ED042AE6
:102A000092ED025A60EE200A92ED020A40EE420A6E
:102A100092ED020A92ED032A60EE022A92ED040A78
:102A200092ED052A40EE022A92ED022AB6EE000A45
:102A300012EE050A92ED052A92ED055A02EE050AFC
:102A400024EE802A01EEE22A61EEA01A41EE401A3D
:102A500021EE220A04EEE00AD2ED010AF5EEC00AE8
:102A6000F1EE10FA2DDDD2ED010A92ED061A60EEBC
:102A7000822ADFED620A02EEA01A82ED061A92EDBA
:102A8000011A61EE212A92ED071A02EEA01A82EDD8
:102A9000071A92ED011A61EE002A92ED081A02EE71
:102AA000A01A82ED081AD2ED060A34EE204AD2EDC1
:102AB000070A73EEA03AD2ED080A33EE203A08E096
:102AC00013E0DFED4F0AC2ED060AC2ED070AC2EDC0
:102AD000080AD2ED000A00EE824AD2ED000A40EE6A
:102AE000A13AD2ED000A00EE803A9FED461AD2EDEF
:102AF000031A92ED042A24EE010A63EE810A23EE02
:102B0000011AD2ED053A21EEC03AD2ED022A02EEC8
:102B1000603A03EEC13AD2ED023A33EE233A82ED47
:102B2000023A22EE803AD2ED053A02EE013A03EE85
:102B3000E03AD2ED033A33EE233A82ED033A22EE45
:102B4000A03AD2ED053A01EEC13A22EE811A01EE29
:102B5000A01A03EE803AD2ED043A02EE401A33EEA8
:102B6000233A82ED043A92ED050A31EE000A82ED35
:102B7000050A92ED020AD2ED020A92ED031A20EE46
:102B8000200AD2ED030A00EE810AD2ED040A92ED8A
:102B9000041A00EE810AD2ED050A92ED051A00EE44
:102BA000810A00F057FFD2ED020A60EE800AC2ED02
:102BB000020AD2ED030A60EE800AC2ED030AD2EDEA
:102BC000040A60EE800AC2ED040AD2ED050A20EE86
:102BD000800A82ED050A92ED020A83ED000A92ED69
:102BE000030A83ED010A92ED040A83ED020A92EDD5
:102BF000050A83ED030A00BDD40000200000003B5D
:102C0000000000000000803AFEE7FEE7F8B5044649
:102C100040684FF48273984221D1A0684FF48065D8
:102C2000B0F5004F01D0A8420AD12068066826F00E
:102C3000400606606068984211D1A068A8420ED094
:102C400000920B4600228021204600F043F8002825
:102C500004D0606D40F0200060650320F8BD009254
:102C60000B4600220121EFE7F8B515460E460B464C
:102C7000009204460122022100F02CF8A0B913486A
:102C800013490068B0FBF1F04FF47A7148430090AB
:102C90006068B0F5827F0DD1334600228021204646
:102CA000009500F017F870B1606D40F0200060658D
:102CB0000320F8BD009830B1401E00902068806865
:102CC000C0430006F6D50020F8BD00002800002013
:102CD00000366E012DE9F8431E46914688460446AB
:102CE000089DFEF769FA401B351AFEF765FA07469C
:102CF00025480068C0F3CB30684338E0701C37D0FB
:102D0000FEF75AFAC01BA84203D215B1009860B36F
:102D10002CE02068416821F0E00141606068B0F576
:102D2000827F0BD1A068B0F5004F02D0B0F5806F64
:102D300004D12068016821F040010160A06AB0F56B
:102D4000005F09D12068016821F40051016020680A
:102D5000016841F400510160012084F85100002015
:102D600084F850000320BDE8F8830025401E009041
:102D70002068816838EA010004D000214945BDD1AE
:102D80000020F0E70121F9E72800002010B54FF0FE
:102D9000E020006902F070F9012803D0BDE810407E
:102DA00001F09EBE10BD000030B593B030216846E2
:102DB000FDF78EFB14210CA8FDF78AFB1D480025AA
:102DC000016841F080510160006800F0805011906E
:102DD0001948016841F4804101600068022400F450
:102DE00080401190012003901020049000940694DC
:102DF0000820CDE90750A820CDE9090404200B9054
:102E00006846FEF7AFFB08B172B6FEE70CA90F20CB
:102E100081E831004FF4A0500F904FF48050109093
:102E200005210CA8FEF792FA002801D072B6FEE741
:102E300013B030BD403802400070004002480168C5
:102E400041F470010160704788ED00E00148FFF730
:102E500088B90000780300200148FFF782B900001C
:102E6000D4010020F0B50268294C2A4D2A4E2B4F80
:102E70002B4B4FF0804CA04209D0604507D0A842B0
:102E800005D0B04203D0B84201D0984204D122F01C
:102E9000700E4A6842EA0E02A0421BD0604519D06B
:102EA000A84217D0B04215D0B84213D0984211D0E2
:102EB0001C4DA8420ED01C4DA8420BD01B4DA84261
:102EC00008D01B4DA84205D01A4DA84202D01A4D79
:102ED000A84203D122F44075CA682A434D6922F002
:102EE00080022A4302608A68C2620A688262A04243
:102EF00001D0984201D10969016301214161016951
:102F0000C90703D0016921F001010161F0BD000092
:102F1000000001400004004000080040000C004098
:102F200000040140004001400044014000480140CD
:102F300000180040001C00400020004010B58468CC
:102F400042EA032224F47F440A432243826010BDF4
:102F5000826822F070020A4342F0070181607047E4
:102F600010B5036A046A24F001040462846924F041
:102F7000F00444EA021423F00A020A438461026264
:102F800010BD10B5036A046A24F010040462846959
:102F900023F0A00324F4704444EA023243EA01110E
:102FA0008261016210BD10B5806B0021C185C184B2
:102FB000FFF77EF910BD01680C3151E8002F22F4B3
:102FC000907241E80023002BF5D10168143151E8DB
:102FD000002F22F0010241E80023002BF5D1016B04
:102FE000012909D101680C3151E8002F22F01002AB
:102FF00041E80023002BF5D1202180F84210002168
:103000000163704708B590F84210222901D00220D0
:1030100008BD82684FF480539A4201D1016921B101
:10302000816A9A421BD04AB10AE00268816A5268FA
:10303000C2F308020A80816A891C08E0026972B141
:103040000268526802F07F020A70816A491C81623C
:10305000C18D491E0904090CC18503D01BE002681B
:103060005268F1E70168CA6822F02002CA6001686C
:10307000CA6822F48072CA6001684A6922F00102BB
:103080004A61202180F8421000214163026B012A2D
:1030900003D0FFF7FDFA002008BD016301680C3181
:1030A00051E8002F22F0100241E80023002BF5D157
:1030B00001680A68D20602D50A6849680091818DC4
:1030C000FFF7F5F8E7E7000070B50446006801690E
:1030D000E26821F44051114301612169A068E2696D
:1030E00008436169114308432168CA6849F20C63C7
:1030F0009A430243CA6020684169A26921F4407181
:103100001143416131492068884202D030498842E8
:1031100002D1FEF7E5F901E0FEF7D2F9E2690023FA
:10312000192164253226B2F5004F626828D0A0FB31
:103130000101930F9200FDF707F90146B0FBF5F08E
:103140006FF01802504301EB800006EB0010B0FB5B
:10315000F5F000F0F002B1FBF5F002EB0012B1FB6C
:10316000F5F06FF01803584301EB800006EB0010F8
:10317000B0FBF5F000F00F0021681044886070BDCE
:10318000A0FB010192185B41FDF7DEF80146B0FBA0
:10319000F5F00201B1FBF5F06FF01803584301EBB5
:1031A000800006EBC000B0FBF5F000F0F80002EB89
:1031B0004002B1FBF5F0584301EB800006EBC00084
:1031C000B0FBF5F000F00700D6E70000001001406A
:1031D0000014014081628285C28500214164222160
:1031E00080F84210016921B10168CA6842F4807216
:1031F000CA6001684A6942F001024A610068C16818
:1032000041F02001C1600020704700000148FFF735
:1032100051B8000070020020FEE74100080218BF0C
:1032200004200A0E18BF40F001004FF07F4232EA3E
:10323000010108BF40F00200012808BF05207047C7
:103240000907090E002804DB00F1E02080F80014D3
:10325000704700F00F0000F1E02080F8141D704767
:1032600010B54FF00E402DED028BB0EE408A18EEF7
:10327000104A00EB4400B0F1506F4AD84FF0FC40C8
:10328000B0EB440F22D2B0EEC80AF7EE000A30EEDF
:10329000C00AF6EE000A60EE208A18EE900A01F0ED
:1032A0006DF901EE100A14F0004F1DBFDFED2D0A7D
:1032B0009FED2D0AB1EE411ADFED2C0A08BF9FEDFC
:1032C0002C0AF8EE001A21EE218A05E0DFED290A2A
:1032D00068EE088AB0EE600A9FED271ADFED271A24
:1032E00030EE080A48EE811A9FED251A08EEA11A61
:1032F000DFED241A48EE811A9FED231A08EEA11A79
:1033000068EE281ABDEC028B01EE810A30EE200A2D
:1033100010BD4FF0E440B0EB440F0CD918EE100A8A
:10332000FFF77BFF042808BF00F066F9B0EE480AFB
:10333000BDEC028B10BD4FF07F40B0EB440F07D2C5
:10334000B0EE480ABDEC028BBDE8104000F046B973
:103350000120FDF7ECF8BDEC028BBDE8104000F059
:1033600043B900000000C9BF22AAFDB90000C93F4F
:1033700022AAFD390000000024FE1C3DC78AD83C6B
:103380001E67383D1B93993DAFAA2A3E10EE100AE6
:1033900010B510EE901A4FF0684202EB40032DED8D
:1033A000028BB3F1654F3CBF02EB4102B2F1654FB6
:1033B0007CD200BFC0F3C753C1F3C7529A1A1B2A6D
:1033C00009DD10F0004F14BF9FED6E0A9FED6E0AED
:1033D000BDEC028B10BD12F11A0F1BDA11F0004F79
:1033E00009D010F0004F0CBF9FED680A9FED680AEE
:1033F000BDEC028B10BD80EE208A18EE100AFFF79C
:103400000CFF042808BF00F0F7F8B0EE480ABDEC46
:10341000028B10BD4200B2EB410F37D910F0004FC4
:1034200019BFDFED5C1A9FED5C1ADFED5C1A9FEDB2
:103430005C1AB0EE602A0A46F1EE400A80F00041C4
:10344000B0EE420A10460A1A5200B2F1807F34D21E
:10345000484010F0004FDFED532A9FED533A1DBF57
:10346000BEEE002A71EEE21A31EE431AB6EE002AE1
:1034700004BF71EEA21A31EE031AF0EE402A42EEBA
:10348000602A40EE020A82EEA02A18E011F0004FF6
:1034900004BF9FED461AF0EE411AD4D010F0004F51
:1034A0001CBFDFED431A9FED431A00E026E004BF86
:1034B000DFED411A9FED411AC5E780EE202A22EE8A
:1034C000020ADFED3F0ADFED3F2ABDEC028B40EE42
:1034D000202ADFED3D0A40EE220ADFED3C2A40EED5
:1034E000202ADFED3B0A40EE220A22EE000A00EE1F
:1034F000201A31EE020A30EE210A10BD4FF07F4251
:10350000B2EB400F28BFB2EB410F05D2BDEC028BEE
:10351000BDE8104000F065B840EA01035B0008BF59
:1035200041F0FF410BD0B2EB400F08BFB2EB410FAF
:1035300008D120F0804000EE100A21F0804100EE1A
:10354000901A37E7B2EB400F12BF5FEA410240F03A
:10355000FF4001F000413FF42DAF4A0092EA4003E2
:103560003FF528AF002AACBF9FED1A1A9FED1A1A3B
:1035700020EE010A60EE810A10EE100A10EE901A99
:1035800018E70000DB0FC9BFDB0FC93FDB0F494065
:10359000DB0F49C00000C9BF22AAFDB90000C93F26
:1035A00022AAFD390060ED3EC30ACE3700000000BC
:1035B000000049C022AA7DBA0000494022AA7D3AF3
:1035C0002DAD65BD8FB8D53D0FB511BE61C84C3E60
:1035D000A8AAAABE0000804F0000802F30EE000A8B
:1035E000704730EE200A7047DFED020A80EEA00A35
:1035F00070470000000000009FED020A20EE000A64
:103600007047000000000010B54E00221021304627
:10361000FDF7CCFDB34C7E204FF47A7560702B46DD
:103620000122611CB048FEF7A8FAAF48FEF750F936
:103630000328FAD0AB49B62767702B460122491CF4
:10364000A948FEF79AFAA848FEF742F90328FAD0EB
:10365000012000F0C3FA012210213046FDF7A6FD3B
:10366000002210213046FDF7A1FD7D209D496070AC
:103670002B460122491C9C48FEF77FFA9A48FEF728
:1036800027F90328FAD00420964960702B460122BE
:10369000491C9548FEF771FA9348FEF719F903287B
:1036A000FAD0012000F09AFA012210213046FDF7ED
:1036B0007DFDDFF838A2002201215046FDF776FD9E
:1036C0001420884960702B460122491C8648FEF769
:1036D00054FA8548FEF7FCF80328FAD08149677050
:1036E0002B460122491C8048FEF747FA7E48FEF728
:1036F000EFF80328FAD01E2000F070FA01221146DC
:103700005046FDF753FD7A48FEF77CFCDFF8E49164
:10371000B346A846002210215F465846FDF746FDF5
:10372000922070496070454643460122491C6E480C
:10373000FEF723FA6C48FEF7CBF80328FAD0694964
:103740002B460122891C6848FEF76CF96648FEF793
:10375000BFF80428FAD0A8460026624D267010351E
:10376000604943460122891C5F48FEF75BF95E48C9
:10377000FEF7AEF80428FAD02078A1782954401C2E
:10378000C0B220700628EBD3012210213846FDF785
:103790000DFD68782978000200B2084300EE100A97
:1037A000544F0022F8EEC00A94ED010A0C3F60EE7F
:1037B000800AC7ED000AE878A978000200B2084341
:1037C00000EE900AF8EEE00A60EE800AC7ED010A0A
:1037D00068792979000200B2084300EE900A0121BD
:1037E0005046F8EEE00A20EE800A87ED020AFDF767
:1037F000DDFC80203B49607043460122491C3A4869
:10380000FEF7BBF93848FEF763F80328FAD02670B4
:103810004646344933460122891C3348FEF702F9F3
:103820003148FEF755F80428FAD02078A1782954B9
:10383000401CC0B220700828EBD30122114650462C
:10384000FDF7B4FC28780F2828D1E878A978000281
:1038500000B2084300EE100AF8EEC00A94ED020A26
:1038600060EE800AC9ED000A69792A79090209B275
:10387000114300EE901AF8EEE00A60EE800AC9EDFE
:10388000010AE979AA79090209B2114300EE901AF6
:10389000F8EEE00A20EE800A89ED020A114899ED5F
:1038A000021AD9ED010A99ED000A1830D7EC031A73
:1038B000FFF77AF80F4D0B480C352B1D1A1D2946C2
:1038C000183000F03FF895ED000ADFED0B0A20EE0E
:1038D000200ADFED0A0A80EE201A84ED031A19E7A8
:1038E00000000240AC0000207C01002000040240E7
:1038F000D4010020A04C002000003443DB0F4940DD
:10390000012000F06BF9FBE7012000F067F9FBE70D
:103910000A4D0B4C01F066FD2A886988A888531867
:10392000C61A2680561A064403446680891AA38064
:103930000844E080052000F051F9EBE72401002065
:103940001C0100202DE9F0411D462DED028BB7EE44
:10395000008A90ED000A90ED011AF0EE008A60EE08
:10396000001AF0EE480A16460F4641EE011A0446C8
:1039700051EEA80AD0ED031A20EE210AD0ED021A6A
:1039800001EE210A20EE280AFFF700FD87ED000A6C
:1039900094ED010AD4ED030A94ED021A20EE200AF8
:1039A000D4ED000A00EEC10AF8EE000A20EE200A6B
:1039B000FFF756FC86ED000A94ED001A94ED030A19
:1039C000F0EE480A61EE011A40EE001A51EEA80A24
:1039D000D4ED011A21EE211AD4ED021A01EE801A5B
:1039E00021EE280AFFF7D2FC85ED000ABDEC028B20
:1039F000BDE8F08170B5144A002040F2EE235189F1
:103A00004FF4F97540F2E24461B1994201D20320CA
:103A100008E0A1F2EF26AE4201D8022002E0A14266
:103A200000D90120918919B1994203D20C3070BD9F
:103A3000002070BDA1F2EF22AA4201D8083070BD6B
:103A4000A142FCD9001D70BD1C020020012000F025
:103A5000C5F8FBE710EE100AF6EE000A074960EE23
:103A6000200AA1EB600000EE100A20EE801AF7EEAB
:103A7000080A41EE400A20EE800A7047DF59375F9E
:103A8000012000F0ABF8FBE7FDF7A4FBFFF78CF992
:103A9000FEF7BEFEFEF762FEFEF71CFEFEF73CFEE2
:103AA000FEF70CFFFEF72EFFFEF75EFF00F0A4F816
:103AB000FEF772FE00F0B2F8FEE7C27D1AB10020F8
:103AC00081F820007047012281F820204278837815
:103AD00042EA0322C2F30A020A808278C378D2083B
:103AE00042EA4312C2F30A024A80C2780379920979
:103AF00042EA8302437942EA8322C2F30A028A80BD
:103B000042798379520842EAC312C2F30A02CA8098
:103B10008279C379120942EA0312C2F30A020A81C6
:103B2000C279037AD20942EA4302437A42EA432243
:103B3000C2F30A024A81427A837A920842EA8312E5
:103B4000C2F30A028A81827AC37A520942EAC30224
:103B5000CA81027B437B42EA0322C2F30A020A8241
:103B6000427B837BD20842EA4312C2F30A024A82B2
:103B7000827BC37B920942EA8302037C42EA83226E
:103B8000C2F30A028A82027C437C520842EAC312D0
:103B9000C2F30A02CA82427C837C120942EA0312FF
:103BA000C2F30A020A83827CC37CD20942EA43023E
:103BB000037D42EA4322C2F30A024A83027D437D27
:103BC000920842EA8312C2F30A028A83427D807D10
:103BD000520942EAC000C8830120704710B5EFF3D4
:103BE000058111B16FF0050403E0002408B100F075
:103BF00017FE204610BD0000EFF3058010B16FF0F6
:103C0000050070470448016811B14FF0FF3070475C
:103C100001210160002070477C00002010B5EFF307
:103C2000058010B16FF0050010BD0848016801293A
:103C300002D04FF0FF3010BD054A002182F8141D5C
:103C40000221016000F054FE002010BD7C00002025
:103C50000BE000E02DE9FF414FEA01034FF00005C2
:103C6000EFF30581039549BB40B380271821002459
:103C70004AB3166806B1344696691EB13146761EBF
:103C8000382E02D21679F60703D0002004B0BDE822
:103C9000F081566906B1B708D2F808C0BCF1000F30
:103CA0000DD0D5685C2D18D312693AB136B18DE8C4
:103CB00006103A46214601F0B4F903900DE0D668AB
:103CC0005EB912694AB903AACDE90012BAB2214617
:103CD00001F07AF9012800D003950398D6E7000097
:103CE0002DE9F041134C0F460546E6682068001D9B
:103CF00000F063FC681C07D137B12168BDE8F041D2
:103D00000D48091D00F0A8BC20683544B542456047
:103D1000216805D2A06BBDE8F041091D00F084BC0C
:103D2000606B091D00F080FCA06A854200D2A5628C
:103D3000BDE8F0812C000020B00800202DE9F04102
:103D4000054600F095FC2D4CA068401CA060206842
:103D50002B4F10B1606930B32BE02560A0680128BB
:103D600027D1002606EB860007EB800000F04EFC12
:103D7000761C382EF6D3234800F048FC2148143036
:103D800000F044FC1F48283000F040FC1D483C3047
:103D900000F03CFC1B48503000F038FC19486063D0
:103DA0001430A06305E02068E96AC06A884200D840
:103DB0002560606A401C60626864E86A2169884224
:103DC00000D9206100EB800007EB8000291D00F086
:103DD00043FC00F06DFC606900280CD02068E96AA3
:103DE000C06A884207D208494FF080500860BFF38C
:103DF0004F8FBFF36F8FBDE8F08100002C000020D3
:103E0000000400206008002004ED00E038B500F058
:103E10002FFC104C2068C8B90F4800F0F7FB0E4883
:103E2000143000F0F3FB0C48E060143020610A4BC2
:103E30000020F03B009003F1500210210A2000F016
:103E400065FE206010B105A100F0B4FCBDE838406B
:103E500000F02EBC68000020B4090020546D72519F
:103E60000000000030B4026C0B46002A0BD0C16881
:103E70001144C1608468A14201D30168C16030BCB3
:103E80001846FCF7D8BA30BC70472DE9F041856B75
:103E9000174604460026026C82B1C7B1E068FCF701
:103EA000CAFAE168206C091AE1602268914202D2E4
:103EB000A168081AE060022F16D017E02068A8B9A0
:103EC000A06801F051F906460020A0600EE060688D
:103ED000FCF7B1FA216C606808446060A168884210
:103EE00004D32068606001E005B16D1E6D1CA56300
:103EF0003046BDE8F08110B5044690F8590058B13D
:103F000001280CD002280FD0502080F31188BFF375
:103F10004F8FBFF36F8FFEE7206B00F0DDFB204675
:103F2000BDE8104000F0D8BB10BD000010484FF4B1
:103F30007051420706D0C01D0D4920F00700411AFC
:103F4000C1F570510B4A00230144C2E9000308394E
:103F5000183A21F0070111604B600B600B1AC0E9A1
:103F6000001393604FF000405360506170470000B1
:103F70009410002098000020144E154CA6F29C4787
:103F80004FF08058DFF84C9012E000BF00F070FB5B
:103F9000F068C568281D00F010FBA068401EA060F6
:103FA0006068401E606000F083FB2846FFF7A3FFB7
:103FB00060680028EAD138680128F9D9C9F800807A
:103FC000BFF34F8FBFF36F8FF2E700009C08002014
:103FD0002C00002004ED00E070B51D46049C51B19A
:103FE000C4F80020C4E90F010121204600F0C2FD01
:103FF00084F84C5070BD2460F4E700002DE9F05FB8
:104000008846DDE90B941546834691009A460A9E40
:10401000A522206BFCF754FA6FF00301206B01EB33
:104020008501084420F00707780707D0502080F367
:104030001188BFF34F8FBFF36F8FFEE70025B8F1F4
:10404000000F0FD05FF00000221818F8001082F85F
:10405000341018F8001011B1401C1028F4D384F863
:10406000435001E084F83450382E00D33726E662FE
:10407000C4E91365201D00F0D4FA04F1180000F023
:10408000D0FA2461C6F138006462A061656584F8E5
:10409000585052465946384600F05AFA2060B9F155
:1040A000000F01D0C9F80040BDE8F09F30B51149BC
:1040B00000E011460A688242FBD34B685C188442D8
:1040C00003D1406818444860084643681C1894426D
:1040D00009D1084C183C2468A24209D052681A44FD
:1040E00042600A6812680260814200D0086030BDF8
:1040F0000460F9E79800002070B5002441600B4D82
:104100000061914206D8D11A8269914206D2011DFE
:10411000286907E09A4203D2994201D3012403E0BF
:10412000011DE86800F080FA204670BD680000209C
:1041300010B5044600F09CFAA06B28B15FF00004B3
:1041400000F0B6FA204610BD0124F9E730B589B079
:104150003C4D6EE00498002806DADDE90601059A78
:1041600090470498002864DB069C606910B1201D0C
:1041700000F023FA03A800F0D7F8024604980A28B2
:1041800057D2DFE800F00505052D334A05052D332C
:1041900094F8280040F0010084F828000599A069EF
:1041A000059B01442046FFF7A7FF68B3216A20461C
:1041B000884794F8280040073BD5002000900598D8
:1041C000A169002342181946204601F0D7F8D8B952
:1041D000502080F31188BFF34F8FBFF36F8FFEE73E
:1041E00014F8280F20F00100207022E094F8280035
:1041F00040F0010084F828000598A06128B18118DA
:1042000013462046FFF778FF13E0502080F3118813
:10421000BFF34F8FBFF36F8FFEE794F8280081073D
:1042200003D4204600F058FA03E020F0010084F89F
:104230002800002204A9286800F0F0FD002889D198
:1042400009B030BD680000202DE9FC410F4605464D
:1042500000F092FB01A800F067F80446019818B13D
:1042600000F0FAFFBDE8FC81254EAFB1306900686F
:10427000D0B30027291B3A46306800F0AFFA00F0AF
:10428000EBFF0028EED11F494FF080500860BFF3CC
:104290004F8FBFF36F8FE5E7A542EBD800F0DCFF4F
:1042A000F0682746C068C468201D00F086F994F8BD
:1042B0002800410719D5A0692B4641193A462046E6
:1042C000FFF71AFFA8B100200346014600902A46D6
:1042D000204601F053F860B9502080F31188BFF3F5
:1042E0004F8FBFF36F8FFEE707E020F0010084F8E7
:1042F0002800216A20468847B4E70127BAE7000072
:104300006800002004ED00E00648416B096829B10F
:10431000416BC968C9684968816270474FF0FF31D5
:10432000FAE700002C00002070B5054600F0B2FE50
:10433000064E0446B068844203D200F009F801201A
:1043400000E0002028602046B46070BD68000020B6
:10435000F8B5194D20E0C068C4680668201D00F05B
:104360002CF9216A2046884794F82800400713D585
:10437000A0693044B04206D924616060211DE8681C
:1043800000F052F908E00020034601460090324652
:10439000204600F0F3FF38B1E86801680029DAD15F
:1043A0002969C5E90310F8BD502080F31188BFF3D7
:1043B0004F8FBFF36F8FFEE768000020084840680A
:1043C000401C4FF0500080F3118804D0BFF34F8F92
:1043D000BFF36F8FFEE7BFF34F8FBFF36F8FFEE723
:1043E000A0000020074CE068016841B1C0680021CE
:1043F000D0F80000FFF728FFFFF7A8FEF3E7012140
:104400000020F7E7680000202DE9F041044600F0A5
:104410002FF994F9455004F1240609E0606A48B187
:10442000304600F0E1FE08B100F028FA6D1E6DB2D2
:10443000002DF3DC4FF0FF3684F8456000F038F9CA
:1044400000F016F994F9445004F1100709E02069CE
:1044500048B1384600F0C8FE08B100F00FFA6D1EF2
:104460006DB2002DF3DC84F84460BDE8F04100F04B
:104470001FB900002DE9F0410546002700F07CFA45
:10448000324E306808B9FFF751FD706905424ED1D0
:10449000C5B3083568070ED005F00700C0F1080065
:1044A0000544680707D0502080F31188BFF34F8F71
:1044B000BFF36F8FFEE72DB37068854237D823486E
:1044C000183001460C6801E020460C466168A9429C
:1044D00002D221680029F7D131688C4227D00768C1
:1044E0002168016060680837411B10290FD96019E5
:1044F000420708D0502080F31188BFF34F8FBFF3DD
:104500006F8FFEE713E041606560FFF7CFFD6168E4
:104510007068401A7060B268904200D2B0607069F2
:1045200001430020C4E90001F068401CF06000F085
:1045300093FE780707D0502080F31188BFF34F8F88
:10454000BFF36F8FFEE73846BDE8F08180000020A2
:1045500010B5031F4FF080741C601B1F21F0010178
:104560001960191F044B0B6014390A60091F6FF0A2
:10457000020244380A6010BDBD43000810B500EEC9
:10458000100A2DED028BB1EEC08A18EE100A20F051
:104590000040C0F1FF40C00F0AD010EE100A20F01A
:1045A0000040C0F1FF40C00F04BF0120FBF7BFFF78
:1045B00018EE100ABDEC028B10BDD0E90132016982
:1045C0009A60D0E901235A604A68824201D1826828
:1045D0004A60002202610868401E0860086870474F
:1045E000034B036003F15C0008608020106070479B
:1045F000DC090020044B036003F15C0008604FF409
:104600008070106070470000380C002000F1080135
:104610004FF0FF32C0E90112C16001610021016069
:10462000704700210161704730B50B685A1C02D0F9
:1046300000F1080202E0026904E02246546825689D
:104640009D42FAD953684B6099608A605160086155
:104650000168491C016030BD42684A6093688B6004
:1046600093685960916008610168491C0160704756
:10467000502080F31188BFF34F8FBFF36F8F0A492B
:104680004868401C486001280CD10848006810F0B8
:10469000FF0F07D0502080F31188BFF34F8FBFF377
:1046A0006F8FFEE770470000A000002004ED00E0DF
:1046B0000849486828B1401E486001D180F311883C
:1046C0007047502080F31188BFF34F8FBFF36F8F77
:1046D000FEE70000A000002070B500282AD0164D8B
:1046E000A0F1080460686969084207D1502080F38E
:1046F0001188BFF34F8FBFF36F8FFEE722683AB187
:10470000502080F31188BFF34F8FBFF36F8FFEE708
:104710008843606000F030F9606869680844686048
:104720002046FFF7C3FC2869401C2861BDE87040A3
:1047300000F092BD70BD0000800000204FF0E0202E
:1047400000210161816105494FF47A720968B1FB6A
:10475000F2F1491E416107210161704728000020E4
:1047600010B5FBF7CDFD114910280ED300F1E02064
:1047700090F8F0030A78904207D2502080F3118815
:10478000BFF34F8FBFF36F8FFEE70948006889685A
:1047900000F4E060884207D9502080F31188BFF30D
:1047A0004F8FBFF36F8FFEE710BD0000A000002009
:1047B0000CED00E010B5084B002200BF53F832406A
:1047C0001CB1521C082AF9D310BD43F8321003EB78
:1047D000C201486010BD0000C003002070B515463E
:1047E0000E460446FFF744FF94F944100020491C8C
:1047F00001D184F8440094F94510491C01D184F892
:104800004500FFF755FFA06B28B92A46314604F151
:10481000240000F051F82046BDE87040FFF7F4BDD9
:1048200010B5020014D00F48006B38B1502080F34F
:104830001188BFF34F8FBFF36F8FFEE700F09CF836
:1048400000211046FFF74CFA00F006FD002807D1C2
:1048500005494FF080500860BFF34F8FBFF36F8F53
:1048600010BD00002C00002004ED00E002490A6A9F
:104870000260C968416070472C0000200149012096
:10488000C86170472C00002010B50C4650B1094992
:1048900009681831FFF7C8FE2046BDE81040012125
:1048A000FFF71EBA502080F31188BFF34F8FBFF37C
:1048B0006F8FFEE72C00002070B514460D4668B1DE
:1048C0000A4909681831FFF7C7FE0CB14FF0FF35F0
:1048D00021462846BDE87040FFF702BA502080F319
:1048E0001188BFF34F8FBFF36F8FFEE72C000020BE
:1048F00030B587B00024039405AA04A903A8049442
:10490000FFF76EFEDDE903010094CDE901100023FD
:1049100015A11748059A00F084FB164D0028E8629F
:104920001FD000F0FBFC012809D0401C19D15020F9
:1049300080F31188BFF34F8FBFF36F8FFEE75020D6
:1049400080F31188BFF34F8FBFF36F8F4FF0FF30AD
:10495000A86201206861EC6007B0BDE8304000F05B
:1049600045B807B030BD000049444C450000000088
:10497000793F00082C0000200248016B491C0163AC
:10498000704700002C000020164810B5016B11B1D3
:104990000121C16110BD0021C1610169124A01E01C
:1049A000B9B1491E01EB810352F82330002BF7D037
:1049B00001EB810302EB830202F1080453685B6898
:1049C0005360A34201D15B685360DA680260016101
:1049D00010BD502080F31188BFF34F8FBFF36F8F4E
:1049E000FEE700002C000020000400201CB5374822
:1049F0000168374A914207D1502080F31188BFF3F4
:104A00004F8FBFF36F8FFEE700683149491E884220
:104A100007D1502080F31188BFF34F8FBFF36F8F02
:104A2000FEE72C4908780190FF20087008788DF87F
:104A300000009DF800009DF8002000F0F00090427A
:104A400007D0502080F31188BFF34F8FBFF36F8FD3
:104A5000FEE79DF80000204C00F050002070072079
:104A6000A06005E09DF8002052008DF80020401E57
:104A70009DF800201206F5D4A060032807D050202E
:104A800080F31188BFF34F8FBFF36F8FFEE74FF4B2
:104A90004070A060019808700C482030016841F413
:104AA00070010160016841F070410160FFF746FE4E
:104AB00000206060FBF7ECFB0848016841F04041D2
:104AC0000160FBF7D1FB00201CBD000000ED00E001
:104AD00071C20F4100E400E0A000002034EF00E0CC
:104AE00010B5502080F31188BFF34F8FBFF36F8F45
:104AF00000F0D6FA18B104494FF080500860002049
:104B000080F3118810BD000004ED00E038B5049D6D
:104B100018B153B1CAB181B120E0502080F311889F
:104B2000BFF34F8FBFF36F8FFEE7502080F31188E4
:104B3000BFF34F8FBFF36F8FFEE7502080F31188D4
:104B4000BFF34F8FBFF36F8FFEE739B1502080F373
:104B50001188BFF34F8FBFF36F8FFEE750241C46C1
:104B6000012384F846302B460094FFF735FA20469F
:104B700038BD000070B50D46040025D0FFF778FD64
:104B8000D4E90F20216802FB0011A1600021A1637C
:104B9000216861600A46D4E90F01401E00FB012133
:104BA000E16021464FF0FF3001F8440F487004F1F6
:104BB00010008DB1FFF72AFD04F12400FFF726FD58
:104BC000FFF776FD012070BD502080F31188BFF300
:104BD0004F8FBFF36F8FFEE721690029F0D000F0FF
:104BE00003FB0028ECD004494FF080500860BFF36D
:104BF0004F8FBFF36F8FE3E704ED00E02DE9FF4730
:104C000082B01D468A464FF00008040003D0BAF176
:104C1000000F08D011E0502080F31188BFF34F8FB0
:104C2000BFF36F8FFEE7206C38B1502080F31188FE
:104C3000BFF34F8FBFF36F8FFEE7022D0AD1E06BFA
:104C4000012807D0502080F31188BFF34F8FBFF3A6
:104C50006F8FFEE700F010FA3F4F4FF000094FF062
:104C6000805648B9049838B1502080F31188BFF3BA
:104C70004F8FBFF36F8FFEE7FFF7FAFCA06BE16B7E
:104C8000884207D3022D05D00498D0B1B8F1000FA7
:104C90001AD01EE02A4651462046FFF7F6F8616A10
:104CA00019B104F1240000F09FFA20B13E60BFF377
:104CB0004F8FBFF36F8FFFF7FBFC012006B0BDE8FD
:104CC000F087FFF7F5FC22E06846FFF7CFFD4FF0D5
:104CD0000108FFF7EDFCFFF74FFEFFF7C9FC94F961
:104CE0004400401C01D184F8449094F94500401CD4
:104CF00001D184F84590FFF7DBFC04A9684600F079
:104D000029F930B12046FFF77FFB00F0A5FA00201B
:104D1000D4E7FFF7ADFCA06BE16B884213D1FFF73E
:104D2000C7FC04F110000499FFF7AEFD2046FFF721
:104D30006BFB00F091FA00289ED13E60BFF34F8FCD
:104D4000BFF36F8F98E7FFF7B3FC2046FFF75CFBDC
:104D500000F082FA90E7000004ED00E02DE9F04752
:104D60001F4690468946040003D0B9F1000F08D0D1
:104D700011E0502080F31188BFF34F8FBFF36F8F86
:104D8000FEE7206C38B1502080F31188BFF34F8FBD
:104D9000BFF36F8FFEE7022F0AD1E06B012807D027
:104DA000502080F31188BFF34F8FBFF36F8FFEE762
:104DB000FFF7D6FC5020EFF3118680F31188BFF384
:104DC0004F8FBFF36F8FA06BE16B884206D3022F2A
:104DD00004D0002086F31188BDE8F08794F945508F
:104DE000A06B3A4649462046FFF74FF8681C04D0AE
:104DF0006D1C84F845500120ECE7606A0028FAD069
:104E000004F1240000F0F0F90028F4D0B8F1000F0C
:104E1000F1D00121C8F80010EDE700002DE9F747B7
:104E2000002683B08A46040003D0BAF1000F08D0F0
:104E300011E0502080F31188BFF34F8FBFF36F8FC5
:104E4000FEE7206C38B1502080F31188BFF34F8FFC
:104E5000BFF36F8FFEE700F00FF9DFF8F4804FF03B
:104E600000094FF0805748B9059838B1502080F3B9
:104E70001188BFF34F8FBFF36F8FFEE7FFF7F8FB8B
:104E8000A56BC5B151462046FEF7ECFF6D1EA5632C
:104E9000206950B104F1100000F0A6F928B1C8F85B
:104EA0000070BFF34F8FBFF36F8FFFF701FC01203E
:104EB00006B0BDE8F087059808B11EB106E0FFF71F
:104EC000F7FB27E06846FFF7D1FC0126FFF7F0FB70
:104ED000FFF752FDFFF7CCFB94F94400401C01D1D1
:104EE00084F8449094F94500401C01D184F8459021
:104EF000FFF7DEFB05A9684600F02CF800282046E5
:104F00000AD0FFF781FA00F0A7F92046FFF710F961
:104F10000028B3D00020CBE7FFF70AF990B104F1E5
:104F200024000599FFF7B0FC2046FFF76DFA00F06A
:104F300093F90028A2D1C8F80070BFF34F8FBFF3D8
:104F40006F8F9BE72046FFF75FFA00F085F995E742
:104F500004ED00E02DE9F0410C46050011D0C4B18C
:104F6000FFF786FB174BDA686E682068911B471CB9
:104F700017D02F681B6A9F4219D0964217D8012478
:104F800010E0502080F31188BFF34F8FBFF36F8F75
:104F9000FEE7502080F31188BFF34F8FBFF36F8F70
:104FA000FEE70024FFF784FB2046BDE8F08188423D
:104FB00005D9401A20602846FFF758FCF1E7002089
:104FC0002060DCE72C0000202DE9FF5F8346DDE94F
:104FD0000E87994616468A469000FFF74BFA050061
:104FE0001CD05C20FFF746FA040014D00020256393
:104FF00084F85900CDE90240CDE900874B4632469E
:1050000051465846FEF7FAFF2046FEF797FE01206C
:1050100004B0BDE8F09F2846FFF75EFB4FF0FF307D
:10502000F6E7F0B585B0DDE90B640A9DA6B1DCB109
:105030005C2700972663022684F85960002604AF97
:10504000CDE90246CDE90057FEF7D8FF2046FEF72E
:1050500075FE049805B0F0BD502080F31188BFF3B1
:105060004F8FBFF36F8FFEE7502080F31188BFF39F
:105070004F8FBFF36F8FFEE70548416919B1006B91
:1050800018B10020704701207047022070470000CF
:105090002C0000200148C068704700002C00002050
:1050A0002DE9F0412E4C0027206B28B1A069401C4F
:1050B000A0613846BDE8F081E668761CE66013D151
:1050C000606B006838B1502080F31188BFF34F8FB8
:1050D000BFF36F8FFEE7606BA16B6163A063206A13
:1050E000401C2062FFF710F9A06ADFF87880864242
:1050F00009D3606B0068A0B1606BC068C568686860
:10510000864211D2A0622068C06A00EB800158F884
:105110002100012800D90127E0690028C9D0012712
:10512000C7E74FF0FF30EDE7281DFFF746FAA86A02
:1051300018B105F11800FFF740FAE86A21698842C2
:1051400000D9206100EB800108EB8100291DFFF7E9
:1051500083FAE86A2168C96A8842CAD30127C8E786
:105160002C0000200004002070B504004FF0000166
:1051700033D01B4D2868844207D0502080F311881B
:10518000BFF34F8FBFF36F8FFEE7206D38B1401E26
:105190002065E36CE26A9A421FD040B11DE05020C6
:1051A00080F31188BFF34F8FBFF36F8FFEE7201D91
:1051B000FFF703FAE06CE062C0F13800A061E06A3A
:1051C0002969884200D92861064900EB800001EB7B
:1051D0008000211DFFF740FA0121084670BD000044
:1051E0002C0000200004002070B5C068C46854B1D1
:1051F00004F118000646FFF7E0F9144D286B50B192
:105200003146134815E0502080F31188BFF34F8FCB
:10521000BFF36F8FFEE7201DFFF7CFF9E06A296922
:10522000884200D928610B4900EB800001EB800027
:10523000211DFFF711FAE06A2968C96A884202D97C
:105240000120E86170BD002070BD00002C0000202E
:1052500088080020000400202DE9F0472C4D002490
:105260002746286B38B1FFF703FA286B401E2863E6
:10527000286B40B146E0502080F31188BFF34F8F78
:10528000BFF36F8FFEE7A968224E0120D1B3A6F5C8
:10529000916980463068E0B1F068C46804F1180094
:1052A000FFF78BF9201DFFF788F9E06A296988422A
:1052B00000D9286100EB800109EB8100211DFFF777
:1052C000CBF9E06A2968C96A8842E3D3C5F81C8033
:1052D000E0E70CB1FFF718F8AC694CB14FEA0806EB
:1052E000FFF7DEFE00B1EE61641EF9D10020A86177
:1052F000E86938B10849012738070860BFF34F8FC4
:10530000BFF36F8FFFF7D4F93846BDE8F087000090
:105310002C0000208808002004ED00E010B586B0C5
:10532000FEF774FD114C2068B8B100200390049082
:1053300005AA04A903A8FFF75DF9DDE9032102200E
:105340008DE8070000230AA10B48059AFFF769FEC4
:10535000606010B106B0012010BD502080F31188AC
:10536000BFF34F8FBFF36F8FFEE700006800002090
:10537000546D722053766300E54300082DE9FF4128
:105380001E46134602000A9D4FF0000016D0144C32
:105390002768002F0FD0CDE900130292062917DAF3
:1053A000FFF76AFE02284FF000030FD00022694683
:1053B0002068FFF723FC04B0BDE8F081502080F3A3
:1053C0001188BFF34F8FBFF36F8FFEE72A46EEE7DA
:1053D0000023324669463846FFF7C0FCEBE7000081
:1053E0006800002070B528490025284C0888A0F2E4
:1053F000F632A0F58060152A01D3208000E02580D8
:105400004FF425735A42984201DD238002E0904216
:1054100000DA22804888A0F2F636A0F58060152ECA
:1054200001D3608000E06580984201DD638002E086
:10543000904200DA6280C888A0F2F631A0F5806060
:10544000152901D3A08000E0A580984201DDA3804A
:1054500002E0904200DAA2802088C0EBC0002080E9
:105460006088C0EBC0006080A08800EB4000800036
:10547000A080FEF7BFFAFEF7BDFA8008032802D12C
:1054800025806580A58070BD1C02002024010020BD
:105490004FF04070E1EE100A70470000D45500084C
:1054A00000000000000000000000000000000000FC
:1054B00000020000180000000000000000000000D2
:1054C000C8550008000000000000000000000000B7
:1054D00000000000000200000800000000000000C2
:1054E00000000000B85500080000000000000000A7
:1054F00000000000000000000002000008000000A2
:105500000000000000000000AC5500080000000092
:105510000000000000000000000000000002000089
:10552000080000000000000000000000A055000876
:10553000000000000000000000000000000000006B
:105540000002000008000000000000000000000051
:10555000945500080000000000000000000000005A
:105560000000000000020000080000000000000031
:1055700000000000000610160006101600000000D3
:1055800000000000010203040607080900000000F3
:10559000010203046C65645F7461736B00000000BA
:1055A000626D695F7461736B0000000067696D6212
:1055B000616C5F7461736B00636861737369735FBF
:1055C0007461736B00000000646275735F746173D3
:1055D0006B00000063616E5F72785F7461736B00D3
:1055E00000560008000000202C010000C401000843
:1055F000245600082C01002064520000000200081C
:10560000011D42019210037A24F495AAAAAAAAF9CC
:10561000E7416B3A58A08B3AF3803F73803F034DCC
:04562000803F0000C7
:040000050800018965
:00000001FF
