:020000040800F2
:10000000289500206102000879600008C94B0008AB
:1000100075600008710A0008B99600080000000029
:10002000000000000000000000000000A101000826
:100030005F16000800000000FD010008818D000827
:100040007B0200087B0200087B0200087B0200089C
:100050007B0200087B020008611600087B02000892
:100060007B0200086B160008751600087B0200086A
:10007000050D00087B0200087B0200087B020008D7
:100080007B0200087B0200087B0200087B0200085C
:10009000750A00087B0200087B0200087F16000832
:1000A0007B020008C58E00087B0200087B02000866
:1000B0007B0200087B0200087B0200087B0200082C
:1000C0007B0200087B0200087B0200087B0200081C
:1000D0007B020008F19400087B0200089595000857
:1000E0007B0200087B0200087B0200087B020008FC
:1000F0007B0200087B0200087B0200087B020008EC
:100100007B0200087B0200087B0200087B020008DB
:100110007B0200087B0200087B020008DD8E0008DD
:100120007B0200087B020008150D00087B02000816
:100130007B0200087B0200087B0200087B020008AB
:10014000850A00087B0200087B0200087B02000889
:100150007B0200087B0200087B0200087B0200088B
:100160007B0200087B0200087B0200087B0200087B
:100170007B0200087B0200087B02000800000000F0
:100180007B0200087B020008DFF810D000F0ACF919
:1001900000480047E5AF0008AFF300802895002035
:1001A0002C4B19680868B0E8F04F80F30988BFF35A
:1001B0006F8F4FF0000080F311887047000000003F
:1001C00008480068006880F308884FF0000080F35A
:1001D000148862B661B6BFF34F8FBFF36F8F00DF35
:1001E00000BF00BF08ED00E0DFF80C00016841F43B
:1001F00070010160704700BF88ED00E0EFF30980F7
:10020000BFF36F8F134B1A681EF0100F08BF20ED5D
:10021000108A20E9F04F106009B44FF0500080F3CD
:100220001188BFF34F8FBFF36F8F0CF05FF84FF063
:10023000000080F3118809BC19680868B0E8F04F25
:100240001EF0100F08BFB0EC108A80F30988BFF3CE
:100250006F8F704728020020EFF305807047000081
:100260000648804706480047FEE7FEE7FEE7FEE750
:10027000FEE7FEE7FEE7FEE7FEE7FEE7618E000829
:10028000890100082DE9F05F0546002092469B4653
:1002900088460646814640241BE02846414647469C
:1002A000224600F089F853465A46C01A914110D3AD
:1002B00011461846224600F070F82D1A67EB010827
:1002C0004F4622460120002100F067F817EB000995
:1002D0004E41201EA4F10104DFDC484631462A4687
:1002E0004346BDE8F09F40EA01039B0703D009E0C5
:1002F00008C9121F08C0042AFAD203E011F8013B12
:1003000000F8013B521EF9D27047D2B201E000F86A
:10031000012B491EFBD270470022F6E710B51346A9
:100320000A4604461946FFF7F0FF204610BD421C5E
:1003300010F8011B0029FBD1801A704700F0004221
:1003400030F000400AD0C10D01F56071C0F3160015
:1003500042EA0151C208400711437047002001469C
:10036000704701F0004330B421F0004150EA01022F
:1003700006D00A0DA2F56072C1F31301002A02DC57
:1003800030BC00207047440F44EAC104C100E018AB
:1003900030BC00EBC25000F01FB8202A04DB203A2A
:1003A00000FA02F1002070479140C2F1200320FAC8
:1003B00003F3194390407047202A04DB203A21FAC6
:1003C00002F00021704721FA02F3D040C2F120026E
:1003D00091400843194670470029A8BF7047401C48
:1003E000490008BF20F00100704710B4B0FA80FC4B
:1003F00000FA0CF050EA010404BF10BC704749B188
:10040000CCF1200421FA04F411FA0CF118BF0121F7
:1004100021430843A3EB0C01CB1D4FEA00614FEAD7
:10042000102042BF002010BC704700EBC3501044A6
:100430000029A4BF10BC7047401C490008BF20F031
:10044000010010BC70472DE9F04D00231A461B1A1D
:100450008A4103DB00200146BDE8F08DC1F30A525A
:10046000C1F3130141F480154FF0000BD10702D105
:1004700000186D41521E0027044640F2FF11384615
:1004800001EB620A3E468046024600204FF480118E
:10049000FFF792FFC2197141BB1846EB0100B4EBA4
:1004A000030C75EB000C04D3E41A65EB000517464A
:1004B0000E46241908F101006D4180463428E3DD21
:1004C000F91946EB0600091BA84103D24FF0FF3291
:1004D000134601E0002213461BEB070046EB0A51CE
:1004E000BDE8F04D00F012B8064C074D06E0E0689C
:1004F00040F0010394E8070098471034AC42F6D36B
:10050000FFF746FEECD200080CD3000810B5141E0D
:1005100073F1000408DA401C41F1000192185B41BC
:100520001A4301D120F0010010BD2DE9F04D924693
:100530009B4611B1B1FA81F202E0B0FA80F22032AA
:100540009046FFF72AFF04460F4640EA0A0041EAB8
:100550000B0153465A46084313D0114653EA010093
:1005600019D0C8F140025046FFF726FF05460E4657
:10057000504659464246FFF710FF084305D0012078
:1005800004E020463946BDE8F08D0020054346EAE8
:10059000E0762C4337430A986305E40AA0EB080091
:1005A0000022FD0A44EA47540A3002D500200146E1
:1005B000E9E7010510196941DDE9084500196941BC
:1005C000BDE8F04DA2E770B58C1810F8015B15F08E
:1005D000070301D110F8013B2A1106D110F8012BB5
:1005E00003E010F8016B01F8016B5B1EF9D12B07DA
:1005F00005D40023521E0DD401F8013BFAE710F890
:10060000013BCB1A921C03E013F8015B01F8015B7C
:10061000521EF9D5A142D8D3002070BDB7EE000A12
:1006200080ED000A9FED060A80ED010A9FED040AA5
:1006300080ED020A9FED020A80ED030A7047000078
:10064000000000002DE9F0412DED028B0746B0EED1
:10065000408A0C4615461E46D6ED024AB0EE644A64
:10066000D6ED014AF0EE643AD6ED004AB0EE643AB7
:10067000D5ED024AF0EE642AD5ED014AB0EE642AC7
:10068000D5ED004AF0EE641AD4ED024AB0EE641AD9
:10069000D4ED014AF0EE640AD4ED004AB0EE640AEB
:1006A000384605F093F8BDEC028BBDE8F081000000
:1006B00010B501221021024802F064FB10BD0000B9
:1006C0000000024010B500221021024802F05AFB3F
:1006D00010BD0000000002407047000010B501226C
:1006E0001146024802F04EFB10BD0000000402401B
:1006F00010B500220121024802F044FB10BD0000A9
:100700000004024010B543781B021BB20478234357
:1007100000EE103AB8EEC01A1C4BD3ED001A21EED1
:10072000211A81ED001AC3781B021BB2847823437F
:1007300000EE103AB8EEC01A144BD3ED001A21EEB9
:10074000211A81ED011A43791B021BB2047923435C
:1007500000EE103AB8EEC01A0C4BD3ED001A21EEA1
:10076000211A81ED021A037A1B04C47943EA042397
:100770008479234300EE903AB8EE601ADFED041A54
:1007800021EE211A82ED001A10BD0000B4010020F4
:1007900000401C42704710B5044620460AF040FD58
:1007A00010BD10B50446204609F0F8FD10BD00004C
:1007B0004278120212B203781A4300EE102AF8EEC1
:1007C000C00A144A92ED001A60EE810AC1ED000AD7
:1007D000C278120212B283781A4300EE102AF8EEA1
:1007E000C00A0C4A92ED001A60EE810AC1ED010ABE
:1007F0004279120212B203791A4300EE102AF8EE7F
:10080000C00A044A92ED001A60EE810AC1ED020AA4
:1008100070470000B801002010B50024FFF75CFF0E
:10082000FFF7B8FF09F082FA10B144F0800402E04B
:1008300009F0E2F9044309F071FC10B144F04004FE
:1008400002E009F0F1FB0443204610BD2DE9FC4114
:1008500005460E461746002000900190FFF732FF34
:10086000922000F0D1F806226946122000F0ACF880
:10087000FFF71EFF9DF80100000200B29DF8001076
:1008800040EA010400EE104AB8EEC00A4C48D0ED30
:10089000000A20EE200A86ED000A9DF803000002FF
:1008A00000B29DF8021040EA010400EE104AB8EED2
:1008B000C00A4348D0ED000A20EE200A86ED010A66
:1008C0009DF80500000200B29DF8041040EA010402
:1008D00000EE104AB8EEC00A3948D0ED000A20EE0A
:1008E000200A86ED020AFFF703FF0822694600206E
:1008F00000F06AF8FFF7F2FE9DF800000F2838D1EB
:100900009DF80300000200B29DF8021040EA0104C5
:1009100000EE104AB8EEC00A2A48D0ED000A20EED8
:10092000200A85ED000A9DF80500000200B29DF83E
:10093000041040EA010400EE104AB8EEC00A214853
:10094000D0ED000A20EE200A85ED010A9DF807008F
:10095000000200B29DF8061040EA010400EE104AC1
:10096000B8EEC00A1748D0ED000A20EE200A85ED47
:10097000020AFFF7A7FEA22000F046F8022269460D
:10098000222000F021F8FFF793FE9DF80000C00040
:100990009DF8011040EA6114B4F5806F02DBA4F504
:1009A000006004B200EE104AF8EEC00AB4EE001A7D
:1009B000B3EE070A00EE810A87ED000ABDE8FC816C
:1009C000B4010020B801002070B506460C4615465B
:1009D00046F0800000F018F806E0552000F014F80A
:1009E0002070641C681EC5B2002DF6D170BD70B5B4
:1009F00004460D4644F0800000F006F8552000F053
:100A000003F8287070BD000001B582B04FF47A7011
:100A1000012301AA02A90090024803F07BF89DF887
:100A200004000EBDF409002010B502461378DB0067
:100A3000547843EA6410B0F5806F02DBA0F50063E0
:100A400018B200EE100AF8EEC00AB4EE001AB3EEC7
:100A5000070A00EE810A81ED000A10BD70B5054657
:100A60000C462846FFF7D0FF2046FFF7CDFF70BDAC
:100A700000BFFEE710B5024800F0FAFF10BD00000D
:100A80005009002010B5024800F0F2FF10BD000030
:100A900078090020F8B507460C4615461E464FF467
:100AA00000700D49086000208860C8600820086157
:100AB000380A0A4908704F70200A8870CC70280ADA
:100AC00008714D71300A8871CE716B460A46024931
:100AD000034800F0ECFDF8BD38120020E8010020CA
:100AE00050090020F8B507460C4615461E4640F250
:100AF000FF100D49086000208860C8600820086168
:100B0000380A0A4908704F70200A8870CC70280A89
:100B100008714D71300A8871CE716B460A460249E0
:100B2000034800F0C4FDF8BD20120020E0010020C1
:100B3000500900202DE9F04387B080460D469146CC
:100B40001E460195002002900390049005960F48E0
:100B5000006820F001000D490860002707E07F1CB5
:100B6000B7F5FA7F03DD002007B0BDE8F083084841
:100B700000F065FF0028F2D002234A4601A9404652
:100B800000F095FD04462046EEE7000008640040B2
:100B90005009002010B504460823034A21460348A3
:100BA000FFF7C8FF10BD00000B0200205009002015
:100BB0002DE9F04F2DED068B81B083468A46B0EECD
:100BC00040AAF0EE608AB0EE419AF0EE619AB0EE83
:100BD000428AB1EE000AB4EEC08AF1EE10FA03DDEB
:100BE000B1EE000AB0EE408A1020B2EE091AFAEE19
:100BF000090AB0EE4A0A09F0F9FB84B20C209FED15
:100C0000321ADFED320AB0EE680A09F0EFFB85B266
:100C10000C209FED2F1ADFED2F0AB0EE490A09F0E4
:100C2000E5FB86B20C20B1EE041ADFED2A0AB0EE25
:100C3000690A09F0DBFB87B20C20B3EE021AFBEE67
:100C4000020AB0EE480A09F0D1FB1FFA80F82248E8
:100C5000C0F800A0002020498860C8600820086112
:100C600020121E4908704C70C5F3071088702807C1
:100C7000000E40EA2620C8700E71C7F307104871B5
:100C80003807000E40EA2820887181F807804FF06D
:100C9000000909E009F10109B9F5FA7F04DD01B0A5
:100CA000BDEC068BBDE8F08F0D4800F0C8FE0028B3
:100CB000F0D06B46094A0849094800F0F8FC0020CA
:100CC0000849087000BFEAE700003442000034C25F
:100CD0000000FA430000000050120020F001002044
:100CE00050090020F801002010B504460823034AEB
:100CF00021460348FFF71EFF10BD0000FB01002046
:100D00005009002010B5024801F04AFD10BD000056
:100D10006C0D002010B5FE48C06C0068FD4988428B
:100D200076D9FC4854380068F949C96C0968FA4A10
:100D3000914201D1202169E0F549C96C0968F54A61
:100D4000483A914201D1202160E0F149C96C09681B
:100D5000F14A6032914201D1202157E0EC49C96C3F
:100D60000968EC4A1832914201D120214EE0E8494D
:100D7000C96C0968E84A1832914201D1C91445E0AA
:100D8000E349C96C0968E34A303A914201D1C91478
:100D90003CE0DF49C96C0968DF4A7832914201D1F1
:100DA000C91433E0DA49C96C0968DA4A3032914231
:100DB00001D1C9142AE0D649C96C0968D64A303233
:100DC000914202D14FF4001120E0D149C96C096869
:100DD000D04A183A914202D14FF4001116E0CC49A2
:100DE000C96C0968CC4A9032914202D14FF400118B
:100DF0000CE0C749C96C0968C64A4832914203D120
:100E00004FF4001102E003E04FF00061084070E190
:100E1000BF48C06C0068C049A831884276D9BD4837
:100E200058380068BA49C96C0968BB4A914201D177
:100E3000202169E0B649C96C0968B64A483A91422E
:100E400001D1202160E0B249C96C0968B24A603220
:100E5000914201D1202157E0AD49C96C0968AD4AE2
:100E60001832914201D120214EE0A949C96C09688C
:100E7000A94A1832914201D1C91445E0A449C96C6C
:100E80000968A44A303A914201D1C9143CE0A04912
:100E9000C96C0968A04A7832914201D1C91433E083
:100EA0009B49C96C09689B4A3032914201D1C914EF
:100EB0002AE09749C96C0968974A3032914202D1B9
:100EC0004FF4001120E09249C96C0968914A183A20
:100ED000914202D14FF4001116E08D49C96C0968A6
:100EE0008D4A9032914202D14FF400110CE08849B2
:100EF000C96C0968874A4832914203D14FF4001106
:100F000002E003E04FF000610840F2E08048C06C6E
:100F1000006881494831884276D97F481038406856
:100F20007B49C96C09687C4A914201D1202169E062
:100F30007749C96C0968774A483A914201D1202122
:100F400060E07349C96C0968734A6032914201D10B
:100F5000202157E06E49C96C09686E4A18329142E7
:100F600001D120214EE06A49C96C09686A4A1832E9
:100F7000914201D1C91445E06549C96C0968654AC7
:100F8000303A914201D1C9143CE06149C96C096809
:100F9000614A7832914201D1C91433E05C49C96C8D
:100FA00009685C4A3032914201D1C9142AE058499B
:100FB000C96C0968584A3032914202D14FF400118D
:100FC00020E05349C96C0968524A183A914202D14B
:100FD0004FF4001116E04E49C96C09684E4A903230
:100FE000914202D14FF400110CE04949C96C0968E3
:100FF000484A4832914203D14FF4001102E003E025
:101000004FF00061084074E04348103800684049E0
:10101000C96C0968404A914201D1202168E03C49ED
:10102000C96C09683B4A483A914201D120215FE0EE
:101030003749C96C0968384A6032914201D1202190
:1010400056E03349C96C0968324A1832914201D1DD
:1010500020214DE02E49C96C09682F4A183291426F
:1010600001D1C91444E02A49C96C0968294A303AB7
:10107000914201D1C9143BE02549C96C0968264A4F
:101080007832914201D1C91432E02149C96C096812
:10109000204A3032914201D1C91429E01C49C96C5F
:1010A00009681D4A3032914202D14FF400111FE00D
:1010B0001749C96C0968174A183A914202D14FF48E
:1010C000001115E01249C96C0968134A9032914227
:1010D00002D14FF400110BE00D49C96C09680D4AAB
:1010E0004832914202D14FF4001101E04FF000610B
:1010F000084000286FD00648C06C00680549884247
:101100007BD90348C06C00680349884208D105E0D8
:10111000F40900205864024010600240202068E07A
:10112000FE48C06C0068FE49884201D1202060E082
:10113000FA48C06C0068FB49884201D1202058E081
:10114000F648C06C0068F6496031884201D1202021
:101150004FE0F248C06C0068F2494839884201D13A
:10116000C01446E0ED48C06C0068ED491831884273
:1011700001D1C0143DE0E948C06C0068E94918316C
:10118000884201D1C01434E0E448C06C0068E449EE
:101190007831884201D1C0142BE0E048C06C00686F
:1011A000E0493039884202D14FF4001021E0DB4899
:1011B000C06C0068DA493031884202D14FF4001027
:1011C00017E0D648C06C0068D6493031884204D157
:1011D0004FF400100DE0DFE10FE0D048C06C006874
:1011E000CF499031884202D14FF4001001E04FF016
:1011F0000060CB49091F08606AE1C848C06C0068FC
:10120000C8494831884274D9C448C06C0068C5498F
:101210006039884201D1202066E0C048C06C006877
:10122000BF49884201D120205EE0BC48C06C006804
:10123000BC49884201D1202056E0B848C06C006803
:10124000B7496031884201D120204DE0B348C06CDD
:101250000068B4494839884201D1C01444E0AF481D
:10126000C06C0068AE491831884201D1C0143BE01F
:10127000AA48C06C0068AB491831884201D1C0143B
:1012800032E0A648C06C0068A5497831884201D197
:10129000C01429E0A148C06C0068A24930398842D6
:1012A00002D14FF400101FE09C48C06C00689C49BC
:1012B0003031884202D14FF4001015E09748C06CDD
:1012C000006898493031884202D14FF400100BE099
:1012D0009248C06C006892499031884202D14FF424
:1012E000001001E04FF000608D4908390860EFE020
:1012F000FFE78A48C06C00688A491839884274D967
:101300008648C06C006887496039884201D1202036
:1013100066E08248C06C00688149884201D1202083
:101320005EE07E48C06C00687E49884201D1202082
:1013300056E07A48C06C006879496031884201D132
:1013400020204DE07548C06C0068764948398842D5
:1013500001D1C01444E07148C06C00687049183174
:10136000884201D1C0143BE06C48C06C00686D49F4
:101370001831884201D1C01432E06848C06C00685E
:1013800067497831884201D1C01429E06348C06CB4
:10139000006864493039884202D14FF400101FE0E0
:1013A0005E48C06C00685E493031884202D14FF41B
:1013B000001015E05948C06C00685A493031884225
:1013C00002D14FF400100BE05448C06C006854493F
:1013D0009031884202D14FF4001001E04FF00060DC
:1013E00050497039C86073E0FFE74C48C06C006832
:1013F0004C496039884201D1202066E04748C06CE2
:1014000000684749884201D120205EE04348C06C13
:1014100000684449884201D1202056E03F48C06C12
:1014200000683F496031884201D120204DE03B48AF
:10143000C06C00683B494839884201D1C01444E07F
:101440003648C06C006836491831884201D1C01452
:101450003BE03248C06C006832491831884201D103
:10146000C01432E02D48C06C00682D4978318842A4
:1014700001D1C01429E02948C06C006829493039DD
:10148000884202D14FF400101FE02448C06C00686D
:1014900023493031884202D14FF4001015E01F4833
:1014A000C06C00681F493031884202D14FF40010EF
:1014B0000BE01A48C06C006819499031884202D18B
:1014C0004FF4001001E04FF0006016497039886059
:1014D0001548007800F0020078B11348007820F039
:1014E0000200114908700846007840F004000870B6
:1014F000012211460D4801F045FC0D48007800F02E
:101500000200E0B10A48007820F0020008490870A3
:101510000846007840F0040008700BE0F409002051
:101520001064024070600240DC00002000040240B1
:10153000DD00002001221021184801F023FC18488A
:10154000007800F0020078B11548007820F0020021
:10155000134908700846007840F004000870012222
:1015600010210E4801F00EFC09F0D6F90D48007864
:1015700000F0040080B10B48007820F00400094915
:1015800008700846007840F00800087006480068B7
:1015900040F001000449086010BD00000000024056
:1015A000DE000020DC000020103C014001680A4BF6
:1015B000CAB2103AA3FB02321209084B9B5CC36506
:1015C000032A04D96FF30901091D816502E06FF355
:1015D00009018165806D7047ABAAAAAA9ED2000856
:1015E000014600208A6A8B69002B0FD0B3F5005F9B
:1015F0001DD08AB3012A30D0022A2ED0032A04D16A
:10160000C96A11F0807F00D0012070471AB1012A09
:1016100007D0022AF9D1C96A11F0807FF5D00120E4
:101620007047C96AB1F1C07FFAD1012070475AB141
:10163000012A0BD0022A07D0032AF7D1C96AB1F1D7
:10164000C07FF3D10120704701207047C96A11F0B3
:10165000807FFAD001207047FFE701207047704774
:1016600010B5012001F06CFA10BD10B5082001F092
:1016700067FA10BD10B5102001F062FA10BD10B568
:10168000202001F05DFA10BD704790F82020012A5B
:1016900007D0022A05D0416A41F48021416201202D
:1016A000704700684269114341610020704770B47F
:1016B00090F82040D0F800C0DCF808C0012C08D019
:1016C000022C06D0416A41F48021416270BC0120A5
:1016D00070470CF080640CF000652C4302D11CF0C4
:1016E000805F55D0CCF3016C012404FA0CF41C602B
:1016F0008B684FF4C0749BB1CD6804EB0C162B4380
:101700004D6843EAC5030568AB514FF4C2730668E0
:1017100003EB0C130D69F550097D012909D00DE08B
:101720000D88CB6804EB0C1643EA45530568AB51B2
:10173000EBE70168CD5845F48075CD501179D37928
:10174000557941EA036193791B0443EA0523194360
:101750004FF4C675036805EB0C1559511178D37811
:1017600041EA0361937852781B0443EA0222114351
:101770004FF4C473026803EB0C13D150016804EBFF
:101780000C100A5842F001020A5070BC0020704749
:10179000416A41F40011416270BC012070470000B1
:1017A00090F82020012A07D0022A05D0416A41F48E
:1017B00080214162012070474248D0F8002242F067
:1017C0000102C0F80022D0F8002222F47C52C0F8B6
:1017D0000022D0F800224B6A42EA0322C0F800221D
:1017E0000A7D012302F01F0203FA02F2D0F81C3234
:1017F0009343C0F81C32CB69D3B9D0F80C32934371
:10180000C0F80C32B1F80CC04B686CF31F43D1F830
:1018100014C000EBCC0CCCF84032B1F808C00B6817
:101820006CF31F43D1F814C000EBCC0CCCF844325D
:10183000CB69012B1AD1D0F80C321343C0F80C320B
:10184000B1F800C04B686CF31F43D1F814C000EB33
:10185000CC0CCCF84032B1F808C0CB686CF31F4315
:10186000D1F814C000EBCC0CCCF844328B697BB1BE
:10187000D0F804321343C0F804320B6973B1D0F8C6
:1018800014321343C0F81432096A01290CD010E055
:10189000D0F804329343C0F80432EEE7D0F81432A3
:1018A0009343C0F81432EFE7D0F81C121143C0F88C
:1018B0001C12D0F8001221F00101C0F80012002023
:1018C0007047000000640040704730B490F820C0BA
:1018D000BCF1010F09D0BCF1020F06D0416A41F4FE
:1018E0008021416230BC0120704739B1D0F800C07E
:1018F000DCF810C01CF0030F33D006E0D0F800C0B5
:10190000DCF80CC01CF0030F24D04FF4D87C046822
:101910000CEB011C54F80C4004F0040494603CB33C
:10192000046854F80C40E4085460046854F80CC08F
:101930000CF0020CC2F80CC04FF4DA7C04680CEB1B
:10194000011C54F80C5005F00F05082D16D308247F
:10195000146118E0416A41F40011416230BC012079
:101960007047416A41F40011416230BC0120704768
:10197000046854F80C40640D1460D6E754F80C4029
:1019800004F00F041461046854F80C40C4F30724F5
:101990009461046854F80CC04FEA1C4CC2F814C09F
:1019A0004FF4DC72D0F800C002EB01125CF802C008
:1019B00083F800C0D0F800C05CF802C04FEA1C2CCD
:1019C00083F801C0D0F800C05CF802C04FEA1C4C9C
:1019D00083F802C0D0F800C05CF80220120EDA7062
:1019E0004FF4DE72D0F800C002EB01125CF802C0C6
:1019F00083F804C0D0F800C05CF802C04FEA1C2C89
:101A000083F805C0D0F800C05CF802C04FEA1C4C57
:101A100083F806C0D0F800C05CF80220120EDA711C
:101A200039B10068016941F02001016130BC00203A
:101A300070470068C16841F02001C160F6E70246C6
:101A4000002092F82010012901D002290FD111683D
:101A50008A6812F0806F00D001208A6812F0006F4F
:101A600000D0401C896811F0805F00D0401C704796
:101A70002DE9F05F0546002428684669D0F80490F7
:101A80008768D0F80CA0D0F810B0D0F8188016F005
:101A9000010F54D017F0010F17D00121816017F00A
:101AA000020F03D0284600F011FE0EE017F0040FDD
:101AB00002D04FF4006408E017F0080F02D04FF492
:101AC000805402E0284600F000FE17F4807F19D011
:101AD00029684FF48070886017F4007F03D028468F
:101AE00000F0F6FD0EE017F4806F02D044F40054CD
:101AF00008E017F4006F02D044F4804402E0284666
:101B000000F0E5FD17F4803F19D029684FF48030CC
:101B1000886017F4003F03D0284600F0DBFD0EE09C
:101B200017F4802F02D044F4004408E017F4002F8B
:101B300002D044F4803402E0284600F0CAFD16F0DA
:101B4000080F07D01AF0100F04D044F4007429686D
:101B50001020C86016F0040F4FF0080707D01AF0E5
:101B6000080F04D02868C760284600F0FFF916F077
:101B7000020F07D02868C06810F0030F02D0284673
:101B800000F0F6F916F0400F07D01BF0100F04D04C
:101B900044F4806429681020086116F0200F07D0F3
:101BA0001BF0080F04D028680761284600F058FD94
:101BB00016F0100F07D02868006910F0030F02D04C
:101BC000284600F04EFD16F4003F08D019F0100F23
:101BD00005D0296810204860284600F043FD16F41F
:101BE000803F07D019F0080F04D0286847602846C6
:101BF00000F071FD16F4004F4AD019F0040F44D0E4
:101C000016F4807F04D018F0010F01D044F00104D5
:101C100016F4007F04D018F0020F01D044F0020443
:101C200016F4806F04D018F0040F01D044F00404BF
:101C300016F4006F29D018F0700F26D008F070004D
:101C4000402815D006DC102809D020280AD03028DA
:101C500016D10AE050280ED0602811D10EE044F0D1
:101C600008040DE044F010040AE044F0200407E00A
:101C700044F0400404E044F0800401E044F4807443
:101C80002868816921F07001816129680420486019
:101C9000002C05D0686A204368622846FFF714FECE
:101CA000BDE8F09F70B50446002C03D094F82000E6
:101CB00010B104E0012070BD204600F0A7F82068B4
:101CC000016841F00101016001F064F805462068F7
:101CD00040684FF0050610F0010F11D101F05AF8DD
:101CE000401B0A2807D9606A40F40030606284F81B
:101CF0002060012070BD2068406810F0010FEDD019
:101D00002068016821F00201016001F043F80546F6
:101D10002068406810F0020F11D001F03BF8401B22
:101D20000A2807D9606A40F40030606284F82060B5
:101D3000012070BD2068406810F0020FEDD1207EB8
:101D400001283FD02068016821F080010160607E99
:101D500001283DD02068016821F040010160A07E8B
:101D600001283BD02068016821F020010160E07E5D
:101D7000012839D02068016841F010010160207FFE
:101D8000012837D02068016821F008010160607FD8
:101D9000012835D02068016821F004010160E16864
:101DA000A068626908432169114308436168491EBC
:101DB00008432168C86100206062012084F8200087
:101DC000002070BD2068016841F080010160BEE71D
:101DD0002068016841F040010160C0E720680168A7
:101DE00041F020010160C2E72068016821F0100184
:101DF0000160C4E72068016841F008010160C6E79E
:101E00002068016841F004010160C8E710B586B0A0
:101E10000446142101A8FEF77FFA4E492068884243
:101E200041D14D480068401C4B4908600846006895
:101E300001280FD100BF002000904848006840F002
:101E40000070464908600846006800F00070009085
:101E500000BF00BF00BF002000904048103800685D
:101E600040F008003D49103908600846006800F05D
:101E70000800009000BF00BF0320019002200290E4
:101E800000200390032004900920059001A9344804
:101E900000F062FE00220521142001F06FF91420E9
:101EA00001F05EF954E02F492068884250D100BF0C
:101EB000002000902948006840F0806027490860B1
:101EC0000846006800F08060009000BF00BF224814
:101ED0000068401C204908600846006801280FD1AE
:101EE00000BF002000901D48006840F000701B49B2
:101EF00008600846006800F00070009000BF00BF56
:101F000000BF0020009015481038006840F0020023
:101F10001249103908600846006800F0020000907D
:101F200000BF00BF602001900220029000200390BB
:101F3000032004900920059001A90B4800F00CFE35
:101F400000220521402001F019F9402001F008F994
:101F500006B010BD006400401C0000204038024064
:101F6000000C02400068004000040240704700007E
:101F700010B58AB0044608AB01AA00212046FFF73D
:101F8000A4FC0198A0F20120072851D2DFE800F05C
:101F90000405060708090A0000BF00BF00BF00BF14
:101FA00000BF00BF0198401EF9490870084600783C
:101FB00000EB8000F74931F8100000B2F4490978CD
:101FC00001EB8101F34A02EB410108819DF82100F8
:101FD0009DF8201040EA0120ED49097801EB8101CC
:101FE00022F811009DF823009DF8221040EA0120FC
:101FF00000B2E749097801EB810102EB4101488019
:102000009DF825009DF8241040EA012000B2E04927
:10201000097801EB810102EB410188809DF82600DF
:10202000DB49097801EB810102EB4101887100BFB6
:1020300000BF9DF8200092287DD024DC32287BD080
:1020400010DC042879D006DC01282CD0022875D0B9
:10205000032874D129E1192872D0302871D0312891
:10206000F7D119E281286DD006DC33286BD03428F3
:102070006AD08028EDD1D2E2882866D0902865D039
:102080009128E6D143E29438152858D2DFE800F0D1
:10209000FD5757575757FCFBFAF95757F8F7F6F51E
:1020A000F4F3F2F1F0009DF822009DF8211040EACF
:1020B000012000EE100AB8EEC00AB74880ED000A11
:1020C0009DF8230000019DF8241040EA211000EE45
:1020D000100AB8EEC00AB04880ED010A9DF825004C
:1020E0009DF8241001F00F0140EA012000EE100AD3
:1020F000B8EEC00AA84880ED020A014691ED000A38
:10210000BDEEC00A10EE100A1021F2EE090ABAEE76
:10211000090A09F041FEA04880ED030A014691ED4D
:10212000010ABDEEC00A10EE100A0C21DFED9B0A79
:102130009FED9B0A0BE0FEE1AFE139E133E084E281
:10214000E6E1A8E16DE2BBE1BBE169E2CCE109F0C7
:1021500023FE914880ED040A014691ED020ABDEE8E
:10216000C00A10EE100A0C21F3EE020ABBEE020ABE
:1021700009F012FE884880ED050A9DF8260000EE61
:10218000100AB8EE400A844880ED060A9DF8270040
:1021900000EE100AB8EE400A7F4880ED070A0120E1
:1021A0008049087052E29DF822009DF8211040EA13
:1021B000012000EE100AB8EEC00A7B4880ED000A4C
:1021C0009DF8230000019DF8241040EA211000EE44
:1021D000100AB8EEC00A744880ED010A9DF8250087
:1021E0009DF8241001F00F0140EA012000EE100AD2
:1021F000B8EEC00A6C4880ED020A014691ED000A73
:10220000BDEEC00A10EE100A1021F2EE090ABAEE75
:10221000090A09F0C1FD644880ED030A014691ED09
:10222000010ABDEEC00A10EE100A0C21DFED5B0AB8
:102230009FED5B0A09F0B0FD5B4880ED040A0146A2
:1022400091ED020ABDEEC00A10EE100A0C21F3EE69
:10225000020ABBEE020A09F09FFD534880ED050A11
:102260009DF8260000EE100AB8EE400A4E480DE038
:10227000A3E1A1E19FE19DE19BE199E197E195E176
:10228000D0E1B3E191E17DE17BE167E180ED060A18
:102290009DF8270000EE100AB8EE400A424880ED93
:1022A000070A01203F490870D0E19DF822009DF8FF
:1022B000211040EA012000EE100AB8EEC00A3B48A7
:1022C00080ED000A9DF8230000019DF8241040EAEB
:1022D000211000EE100AB8EEC00A344880ED010A61
:1022E0009DF825009DF8241001F00F0140EA01201F
:1022F00000EE100AB8EEC00A2C4880ED020A014632
:1023000091ED000ABDEEC00A10EE100A1021F2EEA7
:10231000090ABAEE090A09F03FFD244880ED030AD4
:10232000014691ED010ABDEEC00A10EE100A0C2123
:10233000DFED1A0A9FED1A0A09F02EFD1B4880ED09
:10234000040A014691ED020ABDEEC00A10EE100A21
:102350000C21F3EE020ABBEE020A09F01DFD134840
:1023600080ED050A9DF8260000EE100AB8EE400A3E
:102370000E4880ED060A9DF8270000EE100AB8EE20
:10238000400A0A4880ED070A0120064908705DE10D
:10239000FA010020D8110020681200200000344209
:1023A000000034C2F801002088120020A81200208A
:1023B0009DF822009DF8211040EA012000EE100A4D
:1023C000B8EEC00AA34880ED000A9DF82300000182
:1023D0009DF8241040EA211000EE100AB8EEC00A61
:1023E0009C4880ED010A9DF825009DF8241001F01D
:1023F0000F0140EA012000EE100AB8EEC00A95482D
:1024000080ED020A014691ED000ABDEEC00A10EE11
:10241000100A1021F2EE090ABAEE090A09F0BCFC12
:102420008C4880ED030A014691ED010ABDEEC00A19
:1024300010EE100A0C215FED270A1FED270A09F0A4
:10244000ABFC844880ED040A014691ED020ABDEE22
:10245000C00A10EE100A0C21F3EE020ABBEE020ACB
:1024600009F09AFC7B4880ED050A9DF8260000EEF5
:10247000100AB8EE400A774880ED060A9DF827005A
:1024800000EE100AB8EE400A724880ED070A0120FB
:1024900071490870DAE000BF00BF0198A0F2411056
:1024A00030B101280AD108A96C4808F077F805E096
:1024B00008A96A48403008F071F800BF00BFC5E0C5
:1024C00000BF0198A0F2411030B101280AD108A93B
:1024D000624808F047F805E008A96048403008F075
:1024E00041F800BF00BFB1E00198A0F2411030B147
:1024F00001280AD108A9594808F040F805E008A9C0
:102500005648403008F03AF800BF00BF9EE000BFD8
:102510000198A0F2411030B101280AD108A94F4812
:1025200008F09BF805E008A94C48403008F095F801
:1025300000BF00BF8AE00198A0F2411030B101282D
:102540000AD108A9454808F08EF805E008A94348D3
:10255000403008F088F800BF00BF77E00198A0F293
:10256000411030B101280AD108A93C4808F095F87B
:1025700005E008A93948403008F08FF800BF00BFD7
:1025800064E000BF0198A0F2411030B101280AD1E7
:1025900008A9324807F0BEFF05E008A92F484030DF
:1025A00007F0B8FF00BF00BF50E000BF00BF00BF92
:1025B00000BF00BF00BF00BF00BF0198A0F24110E4
:1025C00048B1012810D108A9244807F0F5FF0120DF
:1025D0002149087008E008A92048403007F0ECFFC6
:1025E00001201D49087000BF00BF2FE00198A0F234
:1025F000411048B1012810D108A9184808F016F870
:1026000001201549087008E008A91448403008F076
:102610000DF801201049087000BF00BF16E000BF90
:1026200000BF13E00198A0F2411030B101280AD197
:1026300008A90A4807F07BFF05E008A907484030D1
:1026400007F075FF00BF00BF00E000BF00BF0AB089
:1026500010BD0000C8120020F80100205811002011
:1026600070477047704770B5044694F82000012801
:1026700005D0606A40F400206062012070BD022035
:1026800084F820002068016821F00101016000F059
:1026900081FB05462068406810F0010F12D000F061
:1026A00079FB401B0A2808D9606A40F40030606258
:1026B000052084F82000012070BD2068406810F0DB
:1026C000010FECD10020606270BD70477047704709
:1026D00070477047704770472DE9F0410446A66D7A
:1026E00000F058FB054694F835000027022806D074
:1026F0008020606584F834700120BDE8F081206896
:10270000016821F0160101602068416921F0800113
:102710004161206C08B9A06C20B12068016821F0EB
:10272000080101602068016821F001010160206852
:10273000006810F0010F12D000F02CFB401B0528A0
:1027400008D920206065032084F8350084F83470AF
:10275000BDE8F0812068006810F0010FECD194F81A
:102760005C003F2101FA00F0B060012084F83500E0
:1027700084F834700020BDE8F08190F8351002290B
:1027800003D08021416501207047052180F8351074
:102790000068016821F0010101600020704700001D
:1027A0002DE9F84304464FF00008CDF80080764844
:1027B0004FF416510068B0FBF1F7A56D2E6894F840
:1027C0005C00082101FA00F0304211D02068026854
:1027D00012F0040F0CD0026822F00402026094F898
:1027E0005C0001FA00F0A860606D40F001006065D7
:1027F00094F85C004FF0010909FA00F0304209D06A
:102800002168496911F0800F04D0A860606D40F024
:102810000200606594F85C1004208840304209D0C2
:102820002168096811F0020F04D0A860606D40F0C3
:102830000400606594F85C1010208840304224D079
:102840002168096811F0080F1FD0A860206801688E
:1028500011F4802F0DD0006810F4002F04D0A16C6B
:1028600099B12046884710E0216C71B12046884715
:102870000BE0016811F4807F03D1016821F00801A9
:102880000160216C09B12046884794F85C10202033
:102890008840304251D02168096811F0100F4CD0A7
:1028A000A86094F8350005280DD02068016811F45F
:1028B000802F32D0006810F4002F29D0E16B59B37B
:1028C0002046884739E02068016821F01601016040
:1028D0002068416921F080014161206C08B9A06C39
:1028E00020B12068016821F00801016094F85C00C3
:1028F0003F2101FA00F0A86084F8359084F8348014
:10290000216D00293ED001B02046BDE8F0430847C4
:10291000616C09B1204688470FE0016811F4807F9F
:1029200007D1016821F01001016084F8359084F826
:102930003480E16B09B120468847606D002821D0C2
:10294000606D10F0010F15D0052084F83500206867
:10295000016821F0010101600098401C0090B8421C
:1029600004D82068006810F0010FF5D184F8359084
:1029700084F83480E16C002904D001B02046BDE821
:10298000F0430847BDE8F883280000202DE9F04116
:10299000044600F0FFF90546DCB1022084F835005A
:1029A000002684F834602068016821F0010101608C
:1029B0002068006810F0010F13D000F0EBF9401B05
:1029C000052809D920206065032084F83500BDE87A
:1029D000F0810120BDE8F0812068006810F0010F4F
:1029E000EBD121680868234A1040A3686268D4F8D4
:1029F00010C01A43E36843EA0C031A4363691A439D
:102A0000A3691A43E3691A43236A1A431043626AAB
:102A1000042A03D1236BE26A1A431043086020683A
:102A2000406920F00701606A40EA01050127042897
:102A30000ED1A06A0543E06A50B12046FEF7D0FDF2
:102A400030B14020606584F835700120BDE8F08128
:102A5000206845612046FEF7A9FD94F85C103F22EE
:102A600002FA01F18160666584F835700020BDE8E6
:102A7000F08100003F8010F010B50446102C12D1F8
:102A80002748007840F00100254908702548007863
:102A900040F00100234908702348007800283ED008
:102AA00007F03AFF3BE0202C0BD12048007840F0A3
:102AB00001001E4908701C48007880B307F02CFF05
:102AC0002DE0082C16D11A48007840F00100184972
:102AD00008700846007800F001000870F8B1084658
:102AE000007820F0010008700846007840F00200ED
:102AF000087014E0012C12D109F0DEFF01280ED07D
:102B00000C490D48006809F00BFB0A48006830B119
:102B100020070A490860BFF34F8FBFF36F8F10BDC6
:102B2000DD000020DE000020E0000020DC000020AE
:102B3000DF000020F00000203C00002004ED00E059
:102B400010B504490A68024202D00860FFF794FFFA
:102B500010BD0000143C01402DE9F84F0022DFF8C1
:102B600018A2DFF810924FF0010E03274FF00F0864
:102B7000AAF1040B0EFA02FC0B6803EA0C0363458E
:102B80007DD10C7904F00304012C01D0022C14D166
:102B90008568540007FA04F6B543CE6806FA04F4D3
:102BA0002C438460446824EA0C0C0C79C4F30014B0
:102BB000944044EA0C0CC0F804C0D1F804C037EAD1
:102BC0000C0C0CD0C4684FEA420C07FA0CF5AC436D
:102BD0008D6805FA0CFC4CEA040CC0F80CC091F8A6
:102BE00004C00CF0030CBCF1020F12D14FEAD20C5E
:102BF00000EB8C04256A4FEA427C4FEADC6C08FA51
:102C00000CF6B5430E6906FA0CFC4CEA050CC4F848
:102C100020C004684FEA420C07FA0CF5AC430D796A
:102C200005F0030505FA0CFC4CEA040CC0F800C0E2
:102C3000D1F804C01CF4403F7DD0D9F800C04CF45A
:102C4000804CC9F800C0D9F800C00CF4804CCDF815
:102C500000C022F0030C0CF1804505F59835D5F83D
:102C600008C89407240F08FA04F62CEA0606A0F117
:102C7000804CBCF5003C64D0A0F1804C00E05AE0F0
:102C8000BCF5013C60D0A0F1804CBCF5023C5ED0AC
:102C9000A0F1804CBCF5033C5CD0A0F1804CBCF5AD
:102CA000043C5AD0A0F1804CBCF5053C58D0A0F1B2
:102CB000804CBCF5063C56D0A0F1804CBCF5073CDE
:102CC00054D04FF0080C0CFA04FC4CEA060CC5F882
:102CD00008C8DAF800C02CEA030C4C6814F4801F12
:102CE00001D04CEA030CCAF800C0244CD4F800C050
:102CF0002CEA030C4D6815F4001F01D04CEA030CBC
:102D0000C4F800C0DBF800C02CEA030C4C6814F4D3
:102D1000003F01D04CEA030CCBF800C0184CD4F8AB
:102D200000C02CEA030C4D6815F4803F01D04CEA3A
:102D3000030CC4F800C0521C102AFFF41BAFBDE8FE
:102D4000F88F4FF0000CBEE74FF0010CBBE74FF0DF
:102D5000020CB8E74FF0030CB5E74FF0040CB2E7F4
:102D60004FF0050CAFE74FF0060CACE74FF0070C47
:102D7000A9E7000044380240083C01400C3C0140F7
:102D8000003C0140002A01D0816170470904816143
:102D90007047000001488068704700001C02002056
:102DA00070B50446002C04D094F83D00002510B105
:102DB00006E0012070BD84F83C50204600F0C6F8C3
:102DC000242084F83D002068016821F001010160A1
:102DD0002068016841F4004101602068016821F425
:102DE0000041016000F0F2FA544B6168994203D847
:102DF0005349884203D304E05249884201D201205A
:102E000070BD5149B0FBF1F12268D2F804C02CF03A
:102E10003F0C4CEA010CC2F804C062689A4201D827
:102E20004A1C07E04FF4967251434FF47A72B1FB9B
:102E3000F2F14A1C2168D1F820C02CF03F0C42EA84
:102E40000C020A626168994210D84900401EB0FB2A
:102E5000F1F2521CC2F30B02042A01D2042026E034
:102E6000B0FBF1F0401CC0F30B0020E0A268002A88
:102E700050D001EBC10303EB0113A0F1010CBCFB2B
:102E8000F3F35B1C43F480431B051B0D4AD0002A5F
:102E90004AD001EBC10202EB0111401EB0FBF1F080
:102EA000401CC0F30B0040F4804040F40040216817
:102EB000CA6922F0FF0222F44F421043C861216A1E
:102EC000E06901432068026822F0C00211430160FA
:102ED000E168206901432068826822F0FF0222F441
:102EE000034211438160A169606901432068C2689F
:102EF00022F0FF021143C1602068016841F0010126
:102F000001602564202084F83D00256384F83E504C
:102F1000002070BD01EB4103A0F1010CBCFBF3F3F9
:102F20005B1CB1E70120C2E701EB4101401EB0FB91
:102F3000F1F0401CC0F30B00B7E70000A0860100D1
:102F400080841E0000093D0040420F0010B586B08D
:102F50000446142101A8FDF7DFF92A4920688842B8
:102F60004DD100BF002000902748006840F00400C9
:102F7000254908600846006800F00400009000BF82
:102F800000BF00BF002000900846006840F001002C
:102F900008600846006800F00100009000BF00BF14
:102FA0004815019012200290012003900320049004
:102FB0000420059001A91548FFF7CEFD4FF480705D
:102FC000019012200290012003900320049004201D
:102FD000059001A90E48FFF7BFFD00BF002000903B
:102FE00009481030006840F40000074910310860BB
:102FF0000846006800F40000009000BF00BF06B063
:1030000010BD0000005C0040303802400008024063
:1030100000000240024881680278114481607047D4
:103020001C02002010B50B48016841F400710160DA
:10303000016841F480610160016841F480710160C0
:10304000032000F0CFF80F2000F006F800F05EF843
:10305000002010BD003C02402DE9F04188B004463C
:103060000027B84600BF002001902348006840F0C8
:103070002000214908600846006800F02000019007
:1030800000BF00BF02A903A800F07CF9069F1FB98A
:1030900000F09CF9054602E000F098F94500174859
:1030A000B5FBF0F0A0F1010815481649086040F2A0
:1030B000E7311448C160C0F80480002101618160DB
:1030C000816100F0B0FE064696B90E4800F08AFF16
:1030D00006466EB9372000F043F8102C07D20022C4
:1030E0002146372000F04AF80748046000E0012636
:1030F000304608B0BDE8F0814038024040420F0041
:1031000000140040CC0D00202002002008B500BFB4
:10311000002000901148006840F480400F4908608A
:103120000846006800F48040009000BF00BF00BF68
:1031300000200090081F006840F08050091F0860C0
:103140000846006800F08050009000BF00BF0022D9
:103150000F21901E00F012F808BD00004438024014
:1031600000280ADB00F01F01012202FA01F14009E8
:10317000800000F1E020C0F80011704710B4184B37
:103180001B68C3F30223C3F1070CBCF1040F01D980
:103190004FF0040C1C1D072C01D2002300E0DB1EA5
:1031A000012404FA0CFCACF1010C0CEA0101994079
:1031B00004FA03F35B1E1A401143002806DB00F1FA
:1031C000E020090180F8001410BC704700F00F00E7
:1031D00000F1E020090180F8141D10BC70470000C8
:1031E0000CED00E000F00700064A11684FF6FF03FF
:1031F000194041EA002040F0FD7040F0806010600E
:10320000704700000CED00E02DE9F04704460D4644
:10321000002C13D0DFF85491D9F80000EFB200F081
:103220000700A8420DD289F80070D9F8000000F01C
:103230000700A84205D00120BDE8F0870120BDE8C5
:10324000F08720684A4E10F0020F14D010F0040FDF
:1032500003D0306840F4E0503060207810F0080F60
:1032600003D0306840F4604030603068A16820F0DE
:10327000F00008433060207810F0010F3ED0606805
:103280003C49012808D002280DD003280BD009683A
:1032900011F0020F28D00AE0096811F4003F06D1AE
:1032A0000120BDE8F087096811F0007F19D031686E
:1032B00021F0030108433060FFF76CFD8046306861
:1032C000616800F00C00B0EB810F17D041F2883A32
:1032D000FFF760FDA0EB0800504508D90320BDE8CA
:1032E000F0870120BDE8F0870120BDE8F087306855
:1032F000616800F00C00B0EB810FE9D1D9F8000053
:1033000000F00700A8420AD989F80070D9F8000037
:1033100000F00700A84202D00120BDE8F087207825
:1033200010F0040F05D03068E16820F4E050084345
:103330003060207810F0080F06D03068216920F442
:10334000604040EAC100306000F060F831680A4A2D
:10335000C1F30311515CC84008490860084800687F
:10336000FFF77AFE0020BDE8F0870000003C024035
:10337000083802400038024004D20008280000202B
:10338000200200200F2202600B4A136803F003039F
:103390004360136803F0F0038360136803F4E053A1
:1033A000C360126802F46042D208026103480068F8
:1033B00000F007000860704708380240003C0240F7
:1033C00001480068704700002800002000B5FFF7A2
:1033D000F7FF04490968044AC1F38221515CC840DF
:1033E00000BD00000838024014D2000800B5FFF705
:1033F000E7FF04490968044AC1F34231515CC840FF
:1034000000BD00000838024014D2000810B517486B
:10341000006810F00C01164816D0164B042912D083
:10342000082911D1144C216801F03F02216811F4E0
:10343000800F0AD02068C0F38810A0FB030100238E
:10344000FCF720FF09E0184610BD21680023C1F3F6
:103450008811A1FB0001FCF715FF2168C1F30141B0
:10346000491C4900B0FBF1F010BD000008380240D3
:103470000024F400001BB700043802402DE9F84F87
:103480000446002C12D02078FB4E10F0010FA6F15C
:10349000040563D0301D016801F00C0104290CD033
:1034A000006800F00C00082803D010E00120BDE8FF
:1034B000F88F306810F4800F09D0286810F4003FAE
:1034C0004CD06068002849D10120BDE8F88F6068C1
:1034D000B0F5803F14D0B0F5A02F16D0286820F4A6
:1034E00080302860286820F480202860606810B34D
:1034F000FFF750FC0746286810F4003F0ED02DE07F
:10350000286840F480302860F0E7286840F4802084
:103510002860286840F480302860E7E7FFF73AFC2D
:10352000C01B642802D90320BDE8F88F286810F476
:10353000003FF3D012E0FFF72DFC0746286810F497
:10354000003F0BD0FFF726FCC01B642802D90320E4
:10355000BDE8F88F286810F4003FF3D12078C74FFA
:1035600010F0020F4FF0000957D0C548016811F064
:103570000C0F14D0006800F00C00082803D130684C
:1035800010F4800F0BD0E06880B301203860FFF7A3
:1035900001FC8046286810F0020F12D01EE0286857
:1035A00010F0020F05D0E068012802D00120BDE82C
:1035B000F88F2868216920F0F80040EAC1002860EF
:1035C0002BE0FFF7E7FBA0EB0800022802D903205D
:1035D000BDE8F88F286810F0020FF2D02868216942
:1035E00020F0F80040EAC100286016E0FFE7C7F8C5
:1035F0000090FFF7CFFB8046286810F0020F0CD038
:10360000FFF7C8FBA0EB0800022802D90320BDE8A1
:10361000F88F286810F0020FF2D1207810F0080F10
:1036200035D09848DFF860A26169C1B1012101601D
:10363000FFF7B0FB8046DAF8000010F0020F26D149
:10364000FFF7A8FBA0EB0800022802D90320BDE881
:10365000F88FDAF8000010F0020FF1D017E0C0F890
:103660000090FFF797FB8046DAF8000010F0020F99
:103670000DD0FFF78FFBA0EB0800022802D9032032
:10368000BDE8F88FDAF8000010F0020FF1D12078D1
:1036900010F0040F71D04FF000087C48006810F063
:1036A000805F0AD17948016841F08051016000686B
:1036B00000F0805000904FF00108DFF8D4B1DBF843
:1036C000000010F4807F1BD1DBF8000040F4807014
:1036D000CBF80000FFF75EFB8246DBF8000010F439
:1036E000807F0DD1FFF756FBA0EB0A00022802D91C
:1036F0000320BDE8F88FDBF8000010F4807FF1D0E4
:10370000A068DFF890B1012818D005281DD0DBF89B
:10371000000020F00100CBF80000DBF8000020F0F2
:103720000400CBF80000A06840B3FFF733FB8246EB
:10373000DBF8000010F0020F14D03EE0DBF80000D0
:1037400040F00100CBF80000EDE7DBF8000040F0AE
:103750000400CBF80000DBF8000040F00100CBF8DB
:103760000000E0E7FFF716FBA0EB0A0141F288300A
:10377000814204D90320BDE8F88F26E005E0DBF89C
:10378000000010F0020FEDD017E0FFF703FB8246B8
:10379000DBF8000010F0020F0FD0FFF7FBFAA0EBF0
:1037A0000A0141F28830814202D90320BDE8F88F36
:1037B000DBF8000010F0020FEFD1B8F1010F04D1D7
:1037C0003248016821F080510160A069F0B32C49B2
:1037D00009684FF0FF3801F00C01082966D0022873
:1037E00010D0C7F86090FFF7D5FA0446286810F0AB
:1037F000007F2BD0FFF7CEFA001B022851D90320FF
:10380000BDE8F88FC7F86090FFF7C4FA81462868D2
:1038100010F0007F0CD0FFF7BDFAA0EB09000228E2
:1038200002D90320BDE8F88F286810F0007FF2D19C
:10383000216AE069A26A0843616A08EB52028901C1
:1038400041EA0241084394F82C1000E055E040EAB8
:103850000160306001203866FFF79CFA0446286852
:1038600010F0007F49D1FFF795FA001B022813D909
:103870000320BDE8F88F00000438024000004742F2
:1038800008380240800E47427438024040380240F7
:103890000070004070380240286810F0007FE2D0CD
:1038A0002BE0286810F0007FA4D126E0012822D068
:1038B0003068E26900F4800191421AD1226A00F076
:1038C0003F01914215D147F6C071626A0140B1EBE8
:1038D000821F0ED1A26A00F4403108EB5202B1EB14
:1038E000024F06D194F82C1000F07060B0EB016F1D
:1038F00003D00120BDE70120BBE70020B9E770B588
:103900000446002C09D0606A002540B1256165613C
:10391000A56294F8510040B10CE0012070BD6068D0
:10392000B0F5827FF4D0E561F2E784F8505020468C
:1039300000F044F8022084F851002068016821F06A
:1039400040010160A088218900F4827001F40441E3
:103950000843A18901F400610843217C01F00201C0
:103960000843217D01F001010843218B01F400711E
:103970000843217F01F03801084394F8201001F03A
:1039800080010843218D01F400510843216808603B
:10399000A169042000EA114094F8241001F01001FC
:1039A0000143206841602068C16921F40061C16160
:1039B0006565012084F85100002070BD10B586B007
:1039C0000446142101A8FCF7A7FC4B492068884253
:1039D0007ED100BF002000904848006840F480502D
:1039E000464908600846006800F48050009000BF17
:1039F00000BF00BF0020009040481438006840F02D
:103A000002003E49143908600846006800F00200D0
:103A1000009000BF00BF00BF002000900846006873
:103A200040F0010008600846006800F001000090C6
:103A300000BF00BF182001900220029001200390D7
:103A4000032004900520059001A92D48FFF784F874
:103A50008020019002200290012003900320049016
:103A60000520059001A92748FFF776F82648274941
:103A700008604FF0C0604860002124488160C16048
:103A80004FF480610161002141618161C1614FF4A6
:103A90004031016200214162FEF778FF08B1FDF775
:103AA000F3FD00BF1948E064846300BF1648183076
:103AB000174908604FF0C060486040211448816099
:103AC0000021C1604FF4806101610021416100E08B
:103AD00010E08161C1614FF4003101620021416257
:103AE000FEF754FF08B1FDF7CFFD00BF0848A06402
:103AF000846300BF06B010BD00300140443802406E
:103B00000004024000000240406402404C0A0020D1
:103B1000AC0A00202DE9F84F04460A9E8A469346D7
:103B200098460125002794F8500001280ED0012066
:103B300084F85000FFF72EF9814694F8510061682F
:103B400001280DD0B1F5827F07D102E00220BDE847
:103B5000F88FA16809B9042802D0022700F0DBB869
:103B6000BAF1000F22D0BBF1000F1FD05FEA0800AE
:103B70001CD094F85100042802D0052084F851008C
:103B800000206065C4F838B0A4F83E80A4F83C80FA
:103B9000C4F830A0A4F83680A4F8348020646064AF
:103BA0002068016811F0400F02D005E00127B2E063
:103BB000016841F040010160E068B0F5006F06D097
:103BC000606800284CD0B8F1010F49D081E06068EE
:103BD00010B1B8F1010F3CD1206B21680088C8609A
:103BE000206B801C2063E08E401EE08631E0206860
:103BF000816811F0020F0DD0E18E59B1012D09D16C
:103C0000216B0988C160206B801C2063E08E401E00
:103C1000E08600252068816811F0010F0BD0E18F4C
:103C200049B1C068A16B0880A06B801CA063E08FC5
:103C3000401EE0870125FFF7ADF8A0EB0900B04278
:103C400007D3B6F1FF3F04D00327012084F85100C9
:103C500061E0E08E0028CAD1E08F0028C7D13EE0A5
:103C6000206B216800780873206B401C2063E08E75
:103C7000401EE0862DE02068816811F0020F0DD013
:103C8000E18E59B1012D09D1216B09780173206BA7
:103C9000401C2063E08E401EE0860025206881687D
:103CA00011F0010F0BD0E18F49B1C068A16B087012
:103CB000A06B401CA063E08F401EE0870125FFF74A
:103CC00069F8A0EB0900B04202D3B6F1FF3F10D172
:103CD0007EB1E08E0028CED1E08F0028CBD14A46BD
:103CE0003146204604F09EFF40B101272020606548
:103CF00011E00327012084F851000CE0A06818B9F6
:103D00002068C16880680090606D08B1012702E0FA
:103D1000012084F85100002084F850003846BDE8A6
:103D2000F88F7047704790F83C20012A2CD0012270
:103D300080F83C20CA680023D1F808C022F4407201
:103D400042EA0C02D1F804C022F4806242EA0C027A
:103D5000D1F800C022F4006242EA0C02D1F810C08F
:103D600022F4805242EA0C02D1F814C022F400522C
:103D700042EA0C02C96922F480421143026851648C
:103D800080F83C30002070470220704730B490F833
:103D90003C20012A44D0012480F83C40022280F8D3
:103DA0003D200268D2F804C093682CF0700C0D68B6
:103DB00045EA0C0CC2F804C00268A2F1804CBCF5C4
:103DC000803C20D0B2F1804F1DD0A2F1804CBCF5D8
:103DD000806C18D0A2F1804CBCF5006C13D0A2F11D
:103DE000804CBCF5406C0ED0A2F1804CBCF5823CFE
:103DF00009D0A2F1804CBCF5A03C04D0A2F1804CCB
:103E0000BCF5C05C04D123F080034968194391607C
:103E100080F83D40002180F83C1030BC0020704705
:103E200030BC0220704710B50446002C03D094F833
:103E30003D0010B107E0012010BD002084F83C00D7
:103E4000204600F01FF8022084F83D00211D206864
:103E500005F04CF8012084F8460084F83E0084F810
:103E60003F0084F8400084F8410084F8420084F860
:103E7000430084F8440084F8450084F83D000020A5
:103E800010BD000038B5044631492068884218D179
:103E900000BF002000902F48006840F001002D492D
:103EA00008600846006800F00100009000BF00BFF5
:103EB00000220F211920FFF761F91920FFF750F9AF
:103EC00045E025492068884211D100BF00200090BC
:103ED0002048001F006840F008001E49091F0860C4
:103EE0000846006800F00800009000BF2FE01B4962
:103EF000206888420FD100BF00200090154800685C
:103F000040F00200134908600846006800F0020013
:103F1000009000BF1BE012492068884217D100BF03
:103F2000002000900B48006840F400300949086008
:103F30000846006800F40030009000BF00BF002277
:103F40000F211920FFF71AF91920FFF709F938BDD9
:103F50000000014044380240000C004000040140D1
:103F60000044014090F83D10012901D00120704724
:103F7000022180F83D100068A0F18041B1F5803148
:103F800026D0B0F1804F23D0A0F18041B1F58061FF
:103F90001ED0A0F18041B1F5006119D0A0F180419F
:103FA000B1F5406114D0A0F18041B1F582310FD05C
:103FB000A0F18041B1F5A0310AD0A0F18041B1F566
:103FC000C05105D0016841F0010101600020704737
:103FD000816801F007010629F8D0016841F001016C
:103FE0000160F3E790F83D10012901D001207047EE
:103FF000022180F83D100168CA6842F00102CA60DF
:104000000068A0F18041B1F5803126D0B0F1804F39
:1040100023D0A0F18041B1F580611ED0A0F1804194
:10402000B1F5006119D0A0F18041B1F5406114D023
:10403000A0F18041B1F582310FD0A0F18041B1F5FE
:10404000A0310AD0A0F18041B1F5C05105D001687E
:1040500041F00101016000207047816801F0070113
:104060000629F8D0016841F001010160F3E770B55D
:104070000446002594F83C00012818D0012684F855
:104080003C60022084F83D002068826822F07702BC
:1040900022F47F4282600868502839D00EDC202844
:1040A00054D006DC002851D0102811D14EE0022057
:1040B00070BD30284AD040280AD13DE0602831D078
:1040C00070280DD0B0F5805F03D0B0F5005F13D03D
:1040D000012584F83D60002084F83C00284670BD2E
:1040E000CB684A688968206804F081FF206881688D
:1040F00041F077018160ECE7CB684A688968206805
:1041000004F075FF2068816841F480418160E0E738
:10411000CA684968206805F059F85021206804F001
:1041200071FFD6E7CA684968206805F062F8602127
:10413000206804F067FFCCE7CA684968206805F08A
:1041400045F84021206804F05DFFC2E7226801467F
:10415000104604F057FFBCE770472DE9F0410446D4
:104160002068C56806694FF0000716F0020F16D0E8
:1041700015F0020F13D0F91E01610120207720688D
:10418000806910F0030F03D02046FFF7E5FF05E03C
:10419000204600F06FF9204600F008FA277716F065
:1041A000040F18D015F0040F15D021686FF004002B
:1041B0000861022020772068806910F4407F03D0D6
:1041C0002046FFF7C9FF05E0204600F053F92046DE
:1041D00000F0ECF9277716F0080F18D015F0080F4B
:1041E00015D021686FF0080008610420207720684E
:1041F000C06910F0030F03D02046FFF7ADFF05E0C4
:10420000204600F037F9204600F0D0F9277716F065
:10421000100F18D015F0100F15D021686FF0100096
:104220000861082020772068C06910F4407F03D01F
:104230002046FFF791FF05E0204600F01BF92046DD
:1042400000F0B4F9277716F0010F09D015F0010F2F
:1042500006D021686FF001000861204600F016FAD0
:1042600016F0800F09D015F0800F06D021686FF08E
:10427000800008612046FFF754FD16F0400F09D07A
:1042800015F0400F06D021686FF04000086120460D
:1042900000F008FA16F0200F0BD015F0200F08D010
:1042A00021686FF0200008612046BDE8F041FFF76B
:1042B00039BDBDE8F081000010B586B00446142178
:1042C00001A8FCF729F85F49206888423BD100BF6C
:1042D000002000905C48006840F001005A490860E6
:1042E0000846006800F00100009000BF00BF00BF5A
:1042F000002000900846006840F010000860084662
:10430000006800F01000009000BF00BF4FF4406054
:10431000019002200290002003900490012005905B
:1043200001A94A48FEF718FC4FF4206001900220D2
:1043300002900020039004900120059001A94448B8
:10434000FEF70AFC7CE04349206888422DD100BF7B
:10435000002000903C48006840F080003A49086026
:104360000846006800F08000009000BF00BF4FF4D6
:10437000E05001900220029001200390022004905E
:10438000059001A93448FEF7E7FB3448FFF7EAFD42
:104390000021324800F00CF90421304800F008F9FF
:1043A00008212E4800F004F94AE02D49206888428F
:1043B0001DD100BF002000902348006840F48070A9
:1043C000214908600846006800F48070009000BF32
:1043D00000BFC020019002200290002003900490B2
:1043E0000320059001A91F48FEF7B6FB28E01E49EF
:1043F0002068884224D100BF002000901248006845
:1044000040F02000104908600846006800F02000D5
:10441000009000BF00BF40200190022002900120C8
:104420000390022004900320059001A90F48FEF795
:1044300093FB0F48FFF796FD00210D4800F0B8F8F8
:1044400006B010BD000001403038024000000240BC
:1044500000100240000C0040001C0240540B0020E1
:1044600000040140002002400044014000140240CA
:10447000E40B0020704770B504460D46002694F802
:104480003C0001280FD0012084F83C006AB1042AC6
:104490001FD0082A32D00C2A44D00126002084F8EC
:1044A0003C00304670BD022070BD2946206804F0F3
:1044B000B1FD2068816941F008018161206881694E
:1044C00021F004018161206881692A6911438161B9
:1044D000E4E72946206804F0D5FD2068816941F4AD
:1044E000006181612068816921F4806181612068B7
:1044F00081692A6941EA02218161CFE72946206862
:1045000004F0FCFD2068C16941F00801C161206828
:10451000C16921F00401C1612068C1692A691143A0
:10452000C161BBE72946206804F024FE2068C16908
:1045300041F40061C1612068C16921F48061C161F9
:104540002068C1692A6941EA0221C161A6E710B564
:104550000446002C03D094F83D0010B107E0012080
:1045600010BD002084F83C00204600F01EF8022018
:1045700084F83D00211D206804F0B8FC012084F877
:10458000460084F83E0084F83F0084F8400084F838
:10459000410084F8420084F8430084F8440084F821
:1045A000450084F83D00002010BD704770470000B2
:1045B00010B50446002909D004290AD008290BD0D7
:1045C00094F8410001280AD0012010BD94F83E0063
:1045D000F8E794F83F00F5E794F84000F2E702208E
:1045E000D9B3042947D0082948D084F841000122D2
:1045F000206804F0EDFC234A20682349904201D052
:10460000884203D1436C43F40043436420689042E2
:1046100024D0B0F1804F21D0A0F18042B2F5806269
:104620001CD0A0F18042B2F5006217D0A0F1804208
:10463000B2F5406212D0884210D0A0F18041B1F5AD
:10464000A0310BD0A0F18041B1F5C05106D0016876
:1046500041F001010160002010BD09E0816801F016
:1046600007010629F7D0016841F001010160F2E776
:1046700084F83E00BBE784F83F00B8E784F84000C8
:10468000B5E70000000001400004014010B50446F9
:1046900003492068884201D1FEF7BCFC10BD000030
:1046A00000140040704770477047000038B504465A
:1046B0002068056805F0100038B3E08D002824DD7F
:1046C00000BF0020009020680068009020684068CB
:1046D000009000BF00BF2068C06820F02000216863
:1046E000C8602068C06820F480702168C8602068B5
:1046F000406920F001002168486120200B4981F8C1
:104700004200204600F05EFA0FE005F0100060B1B4
:10471000E08D50B900BF0020009020680068009034
:1047200020684068009000BF00BF38BDDC0C00204E
:10473000F8B5044622681068D168536900F00F0C80
:10474000BCF1000F0AD110F0200F07D011F0200F9C
:1047500004D02046BDE8F84004F09BBD0025BCF124
:10476000000F75D003F0010C01F490765CEA0606A8
:104770006ED010F0010F06D011F4807F03D0626C70
:1047800042F00102626410F0040F06D013F0010F32
:1047900003D0626C42F00202626410F0020F06D095
:1047A00013F0010F03D0626C42F00402626410F057
:1047B000080F08D001F0200252EA0C0203D0626C0C
:1047C00042F008026264626C002A35D010F0200FBB
:1047D00005D011F0200F02D0204604F05AFD2068C9
:1047E0004069C0F38010616C11F0080F00D148B32C
:1047F000204604F01AFD2068406910F0400F1CD0DC
:104800002068143050E8001F21F0400140E80012F9
:10481000002AF5D1E06B60B15E490165E06BFDF700
:10482000ACFF002808D0E06B016D01B0BDE8F0409E
:1048300008472046FFF738FFF8BD2046FFF734FF52
:10484000F8BD05E0FFE72046FFF72EFF6564F8BDE1
:10485000236B012B7ED110F0100F7BD011F0100FC5
:1048600078D010685068009050694FF0200310F025
:10487000400F4FF0020644D0E16B0868406880B2F8
:104880000028E4D0A28D8242E1D9E085C869B0F564
:10489000807F2DD020680C3050E8001F21F48071FB
:1048A00040E80012002AF5D12068143050E8001FBB
:1048B00021F0010140E80012002AF5D120681430EF
:1048C00050E8001F21F0400140E80012002AF5D115
:1048D00084F84230256320680C3050E8001F21F036
:1048E000100140E80012002AF5D1E06BFDF7F4FE5C
:1048F0006663A08DE18D401A81B22046FFF7D3FE9A
:10490000F8BDA08DE18D401A81B2E08D0028F7D06E
:104910000029F5D020680C3050E8002F22F4907266
:1049200040E8002CBCF1000FF4D12068143050E8AE
:10493000002F22F0010240E8002CBCF1000FF4D15E
:1049400084F84230256320680C3050E8002F22F0B4
:10495000100200E008E040E80023002BF3D166637A
:104960002046FFF7A0FEF8BD10F0800F07D011F031
:10497000800F04D02046BDE8F84004F089BD10F057
:10498000400FF0D011F0400FEDD02046BDE8F840C8
:1049900004F072BC1B92000870B50446002C04D0D1
:1049A00094F84100002510B106E0012070BD84F8A4
:1049B0004050204600F024F8242084F8410020686C
:1049C000C16821F40051C160204604F0C7FC206892
:1049D000016921F4904101612068416921F02A01B7
:1049E00041612068C16841F40051C16065642020C4
:1049F00084F8410084F842006563002070BD000027
:104A000010B586B00446142101A8FBF785FC5E4969
:104A10002068884256D100BF002000905B480068A3
:104A200040F01000594908600846006800F0100086
:104A3000009000BF00BF00BF002000905348143812
:104A4000006840F0020051491439086008460068C7
:104A500000F00200009000BF00BF00BF00200090E7
:104A60000846006840F0010008600846006800F051
:104A70000100009000BF00BF802001900220029042
:104A800000200390032004900720059001A94048CE
:104A9000FEF762F84FF400700190022002900020AF
:104AA0000390032004900720059001A93948FEF7E0
:104AB00053F8002205212520FEF760FB2520FEF794
:104AC0004FFB5EE03449206888425AD100BF002085
:104AD00000902E48001F006840F480202B49091FD9
:104AE00008600846006800F48020009000BF00BF06
:104AF00000BF0020009025481438006840F00400F2
:104B00002249143908600846006800F0040000904B
:104B100000BF00BF4FF440600190022002900020CF
:104B20000390032004900720059001A91B48FEF77D
:104B300013F81B481B4908604FF0006048600021D3
:104B400018488160C1604FF48061016100214161BA
:104B50008161C1614FF40031016200214162FDF7C2
:104B600015FF08B1FCF790FD00BF0E48E0638463B9
:104B700000BF002205212720FEF700FB2720FEF7BB
:104B8000EFFA06B010BD00000010014044380240AA
:104B900000040240000002400048004000080240BB
:104BA000286002406C0D002090F84230202B01D08C
:104BB0000220704721B11AB10023036304F04CBCFA
:104BC000012070477047704700BFFEE770B504468C
:104BD0000D461646308888B9184890ED000A1848E6
:104BE00080ED000A154890ED010A154880ED010A94
:104BF000124890ED020A124880ED020A324611492D
:104C00000F4805F0C9FD0E4890ED000A85ED000A39
:104C100090ED010A85ED010A90ED020A85ED020A88
:104C2000B7EE000A84ED000AB7EE000A84ED010A2F
:104C3000B7EE000A84ED020A70BD0000200E0020CD
:104C4000880000203C0F002008B5072006F0E8FA95
:104C500002E0642006F0E4FAFBF7DEFD0028F8D15C
:104C6000BE4AA2F10C01101DFBF7F0FDBC48BB4B86
:104C7000103BBC4ABC490090BC4805F0B7FDDFEDD5
:104C8000BC0A9FEDBC0ABC4A0021BC4801F0EEFA08
:104C9000B34A121DB1490C39B948FBF7BFFCB24801
:104CA00090ED000AB74880ED000AB74880ED000A91
:104CB000B64880ED000AAC4890ED010AB14880ED9D
:104CC000010AB14880ED010AB04880ED010AA6480A
:104CD00090ED020AAB4880ED020AAB4880ED020A73
:104CE000AA4880ED020A002006F0D6FA044607F032
:104CF0009DFEA74908601021A648C161FEF7FFFD8F
:104D000008B1FCF7C1FC0822A349A44803F0CAFE7D
:104D10000120A3490870A34890ED000AB5EEC00A2F
:104D2000F1EE10FA03D101209F49087002E0002043
:104D30009D49087011E100BF4FF0FF31012007F0DD
:104D400045F80128F8D19948007800F0080018B318
:104D50009648007820F00800944908707F49091DA2
:104D60008D48401CFBF724FD9148008800EE100A96
:104D7000B8EE400ADFED8F0AB4EEE00AF1EE10FA69
:104D800002DD0020884908708748007820B1884AF1
:104D900089498A48FFF71AFF8948007800F0040023
:104DA00060B18748007820F00400854908706B4A9C
:104DB0001032A2F11C018348FBF7A4FC8248007862
:104DC00000F0040088B18048007820F004007E499B
:104DD000087062497D48FBF727FE60481038D0ED27
:104DE000040AB0EE600A05F071FE5D485B4B103BB3
:104DF0005C4A5D4900905D4805F0F8FC624890ED22
:104E0000000A624880ED000A5E4890ED000A5E48A4
:104E100080ED000A90ED000A6D48D0ED000A20EE0A
:104E2000200A5A48D0ED000A694890ED011A00EEB8
:104E3000810A4D48D0ED000A654890ED021A00EE57
:104E4000810A504880ED000A4F4890ED010A4F4812
:104E500080ED010A4B4890ED010A4B4880ED010AB4
:104E600090ED010A5A48D0ED000A20EE200A47488A
:104E7000D0ED010A564890ED011A00EE810A3A4839
:104E8000D0ED010A524890ED021A00EE810A3D4829
:104E900080ED010A3C4890ED020A3C4880ED020A90
:104EA000384890ED020A384880ED020A90ED020A77
:104EB0004748D0ED000A20EE200A3448D0ED020A1F
:104EC000434890ED011A00EE810A2748D0ED020A0E
:104ED0003F4890ED021A00EE810A2A4880ED020A4E
:104EE00090ED010A2848D0ED010A30EE600A3948F9
:104EF000D0ED000A30EE200A80ED000A194B214A5D
:104F00001A499FED350A1E48FBF79CFB334B1A1FCD
:104F1000111F1B4805F083FA3048083890ED000A4D
:104F2000DFED2F0A20EE200A2E4880ED000A2B48E4
:104F3000083890ED010ADFED2A0A20EE200A294800
:104F400080ED010A2548083890ED020ADFED240AB9
:104F500020EE200A234880ED020AECE6840E0020B1
:104F6000980E0020540F0020480F00203C0F002016
:104F70000080894500A08C451CD20008A80E0020A6
:104F8000F00E0020300F0020240F0020180F00200A
:104F90003C000020F40900204000002048000020D0
:104FA000E000002088000020E1000020DC0000205C
:104FB000E200002000409C46380E00202C0E00200D
:104FC000DD000020160E0020DE0000205B00002027
:104FD00028D20008E80000206F12833A080F002052
:104FE000333365420C0F002010B50E480E4908609F
:104FF0000320486000210C488160C1604FF41021FB
:1050000001614FF400114161002101764176817602
:10501000C17601774177FCF745FE08B1FCF734FB18
:1050200010BD0000006400405009002010B50E487B
:105030000E4908600320486000210C488160C1606F
:105040004FF4102101614FF40011416100210176FC
:1050500041768176C17601774177FCF723FE08B16E
:10506000FCF712FB10BD000000680040780900202A
:1050700008B500BF002000901A48006840F4800086
:10508000184908600846006800F48000009000BFDE
:1050900000BF00BF002000900846006840F40010E8
:1050A00008600846006800F40010009000BF00BFD0
:1050B000002205210C20FEF761F80C20FEF750F8C5
:1050C000002205213A20FEF759F83A20FEF748F869
:1050D000002205213B20FEF751F83B20FEF740F867
:1050E00008BD00003038024000B5B1B01C222A498A
:1050F0002AA8FBF7F8F800212AA806F09EF827490D
:1051000008601C2224491C3123A8FBF7ECF800217D
:1051100023A806F092F8224908601C221E49383163
:105120001CA8FBF7E0F800211CA806F086F81D4932
:1051300008601C221849543115A8FBF7D4F8002147
:1051400015A806F07AF8184908601C221249703137
:105150000EA8FBF7C8F800210EA806F06EF8134958
:1051600008601C220C498C3107A8FBF7BCF8002111
:1051700007A806F062F80E4908601C220649A8310B
:105180006846FBF7B0F80021684606F056F8094972
:10519000086031B000BD000040D1000808000020C8
:1051A0000C00002010000020140000201800002037
:1051B000000000200400002000B587B0142102A8E0
:1051C000FBF7AAF800BF002001907548006840F086
:1051D0000200734908600846006800F00200019070
:1051E00000BF00BF00BF002001900846006840F0EB
:1051F000010008600846006800F00100019000BF4F
:1052000000BF00BF002001900846006840F0080081
:1052100008600846006800F00800019000BF00BF69
:1052200000BF002001900846006840F004000860BC
:105230000846006800F00400019000BF00BF00BFF6
:10524000002001900846006840F48070086008461D
:10525000006800F48070019000BF00BF00BF002014
:1052600001900846006840F0800008600846006829
:1052700000F08000019000BF00BF00BF002001903F
:105280000846006840F0400008600846006800F0EA
:105290004000019000BF00BF00BF00200190084601
:1052A000006840F0200008600846006800F0200018
:1052B000019000BF00BF00BF0020019008460068B9
:1052C00040F0100008600846006800F010000190EF
:1052D00000BF00BF012240213248FDF753FD0122EB
:1052E00010213148FDF74EFD012211462F48FDF7F0
:1052F00049FD40200290012003900490059002A9EE
:105300002848FDF729FC092002904FF4041003906F
:105310000120049002A92348FDF71EFC10200290F2
:105320000120039004900220059002A91E48FDF779
:1053300013FC302002904FF40410039001200490DD
:1053400002A91B48FDF708FC01200290039004907D
:105350000220059002A91548FDF7FEFB0022062158
:105360000846FDF70BFF0620FDF7FAFE0022052197
:105370000920FDF703FF0920FDF7F2FE00220521B9
:105380000A20FDF7FBFE0A20FDF7EAFE00220521B8
:105390001720FDF7F3FE1720FDF7E2FE07B000BD72
:1053A0003038024000180240000002400004024071
:1053B0000008024010B50B480B4908600B484860D4
:1053C000002109488160C1604FF4804101610021E2
:1053D00041618161C1610162FDF7E2FC08B1FCF746
:1053E00053F910BD005C0040A0090020801A06009F
:1053F00010B50F480F4908604FF4827048600021D3
:105400000C488160C16002210161012141614902B2
:1054100081613821C16100210162416281620A21FA
:10542000C162FEF76CFA08B1FCF72EF910BD00005E
:1054300000300140F409002000B587B01C21684607
:10544000FAF76AFF154816490860002048600021F5
:105450001348816041F28731C1600021016181619F
:10546000FEF7E1FC08B1FCF70FF90D48FFF76FF804
:1054700008B1FCF709F9602000900020019002902B
:105480000490002269460648FEF7F5FF08B1FCF7D4
:10549000FBF80348FEF710FF07B000BD00440140D1
:1054A000E40B002000B595B00020119012901390ED
:1054B00014900F9010901C2108A8FAF72DFF2021BE
:1054C0006846FAF729FF374837490860A72048603F
:1054D00000213548816040F2E731C160002101615F
:1054E00041618161FEF79FFC08B1FCF7CDF84FF4F4
:1054F0008050119011A92C48FEF7B9FD08B1FCF7B6
:10550000C3F82948FFF723F808B1FCF7BDF80020DD
:105510000F9010900FA92448FEF738FC08B1FCF753
:10552000B3F860200890002009900A900B900C902E
:105530000D900E90002208A91B48FEF79CFF08B1B1
:10554000FCF7A2F8042208A91748FEF794FF08B157
:10555000FCF79AF8082208A91348FEF78CFF08B157
:10556000FCF792F80C2208A90F48FEF784FF08B157
:10557000FCF78AF8002000900190029003900490BC
:105580004FF4005005900020079069460648FEF74A
:10559000CAFB08B1FCF778F80348FEF78DFE15B09A
:1055A00000BD0000000001400C0B002000B58DB0D4
:1055B000002009900A900B900C90079008901C21F5
:1055C0006846FAF7A9FE2848284908600020486084
:1055D0000021264881604FF6FF71C1600021016102
:1055E0008161FEF720FC08B1FCF74EF84FF48050C3
:1055F000099009A91D48FEF73AFD08B1FCF744F8E7
:105600001A48FEF7A4FF08B1FCF73EF80020079007
:10561000089007A91548FEF7B9FB08B1FCF734F864
:1056200060200090002001900290049000226946C2
:105630000E48FEF720FF08B1FCF726F80422694661
:105640000A48FEF718FF08B1FCF71EF80822694661
:105650000648FEF710FF08B1FCF716F80348FEF7FE
:105660002BFE0DB000BD0000000C0040540B0020CC
:1056700000B595B0002011901290139014900F90E7
:1056800010901C2108A8FAF747FE20216846FAF777
:1056900043FE2F482F49086040F28F604860002188
:1056A0002C48816040F2CF71C160002101614161ED
:1056B0008161FEF7B8FB08B1FBF7E6FF4FF48050BD
:1056C000119011A92348FEF7D2FC08B1FBF7DCFFCB
:1056D0002048FEF73CFF08B1FBF7D6FF00200F90F3
:1056E00010900FA91B48FEF751FB08B1FBF7CCFF48
:1056F00060200890002009900A900B900C900D906B
:105700000E90042208A91348FEF7B5FE08B1FBF776
:10571000BBFF082208A90F48FEF7ADFE08B1FBF752
:10572000B3FF0020009001900290039004904FF48A
:10573000005005900020079069460648FEF7F3FAEE
:1057400008B1FBF7A1FF0348FEF7B6FD15B000BD99
:10575000000401409C0B002010B50B480B49086069
:105760004FF4E1304860002108488160C160016168
:105770000C21416100218161C161FFF70DF908B180
:10578000FBF782FF10BD000000100140DC0C002080
:1057900010B50B480B4908600B48486000210948C8
:1057A0008160C1604FF4806101610C214161002181
:1057B0008161C161FFF7F0F808B1FBF765FF10BD2B
:1057C00000480040240D0020A086010010B52DEDFA
:1057D000108B98B00446B0EE40AAF0EE60AAB0EE8E
:1057E00041BAF0EE61CAF0EE42BAB0EE62CAF0EE33
:1057F000439AB0EE638AF0EE448AF5EEC09AF1EE79
:1058000010FA1CD1B5EEC08AF1EE10FA17D1F5EE00
:10581000C08AF1EE10FA12D1F0EE4C2AB0EE6B2AEB
:10582000F0EE6C1AB0EE4B1AF0EE6A0AB0EE4A0ACD
:10583000204600F0A1FA18B0BDEC108B10BDF5EEBB
:10584000C0CAF1EE10FA09D1F5EEC0BAF1EE10FAC5
:1058500004D1B5EEC0CAF1EE10FA7CD06CEEAC0A01
:105860004BEEAB0A4CEE0C0AB0EE600A05F080F984
:10587000B0EE409A2CEE890AF0EE40CA2BEE890A6F
:10588000F0EE40BA2CEE090AB0EE40CA69EEA90A61
:1058900048EE080A48EEA80AB0EE600A05F068F97A
:1058A000B0EE409A29EE890AF0EE409A28EE090AF5
:1058B000B0EE408A28EE890AF0EE408A94ED000AA4
:1058C00020EE000A8DED170A94ED000AD4ED010ACE
:1058D00020EE20EA94ED000AD4ED020A20EE20DA50
:1058E00094ED000AD4ED030A20EE200A8DED160A8D
:1058F00094ED010A20EE000A8DED150A94ED010ADF
:10590000D4ED020A20EE200A8DED140A94ED010A6E
:10591000D4ED030A60EE20DA94ED020A60EE00EAAC
:1059200094ED020AD4ED030A20EE20FA94ED030A66
:1059300060EE00FAB6EE000A30EE6E0A30EE6F0A44
:1059400020EE291A9DED140ADDED160A70EE600AAC
:10595000B0EE410A00E060E108EE200A7DEE8D0A1B
:1059600008EEA00AF0EE000A20EE200A8DED130AE0
:105970009DED140ADDED160A30EE200A60EE290ACC
:105980009DED150AB6EE001A31EE400A30EE6F1AA0
:10599000B0EE600A08EE010A7FEE4E0A08EEA00A99
:1059A000F0EE000A20EE200A8DED120A9DED130A9A
:1059B00060EE000A9DED120A40EE000A10EE901A09
:1059C0000846FAF7BBFCCDE900019DED000B04F0A1
:1059D00075F88DED020B9DED020B51EC100BFAF7F3
:1059E000C0FC11903DEECD0A20EE290A7FEE0E0A92
:1059F00008EE200ADDED150AB6EE001A71EE600A17
:105A000070EEEE0A08EEA00AF0EE000A20EE200A80
:105A10008DED100A3DEECD0A8DED0F0A3EEE0F0A18
:105A20008DED0E0A9DED170AF6EE000A30EE600AC3
:105A300030EE2F0A8DED0D0AB6EE000A30EE6E0A3A
:105A400070EE6F0A9DED110A20EE800A3DEECD1A30
:105A5000DDED100A00EE810A8DED0C0A9DED140AB1
:105A6000DDED160A70EE600A9DED110A20EE800A47
:105A70003EEE0F1ADDED100A00EE810A8DED0B0AE5
:105A80007DEE2D0A9DED110A20EE801A9DED150A7E
:105A9000F6EE000A30EEC00A70EE6E1ADDED100A66
:105AA000B0EE410A00EEA10A8DED0A0A9DED0D0A45
:105AB0006BEE800A9DED0E0A4CEE400A9DED0A0A3F
:105AC00028EE001A9DED0B0A08EEC01A30EE810A8E
:105AD0008DED090A9DED0F0A6CEE000A9DED0D0A91
