:020000040800F2
:10000000D008002051020008D3380008E934000865
:10001000D1380008651B0008013F000800000000FF
:10002000000000000000000000000000593A000835
:10003000671B000800000000D53800085B3A000884
:100040006B0200086B0200086B0200086B020008DC
:100050006B0200086B0200086B0200086B020008CC
:100060006B0200086B0200086B0200086B020008BC
:100070006B0200086B0200086B0200086B020008AC
:100080006B0200086B0200086B0200086B0200089C
:100090006B0200086B0200086B0200086B0200088C
:1000A0006B0200086B0200086B0200086B0200087C
:1000B000053B00086B0200086B0200086B02000899
:1000C0006B0200086B0200086B0200086B0200085C
:1000D0006B0200086B020008F53E00086B02000886
:1000E0006B0200086B0200086B0200086B0200083C
:1000F0006B0200086B0200086B0200086B0200082C
:100100006B0200086B0200086B0200086B0200081B
:100110006B0200086B0200086B0200086B0200080B
:100120006B0200086B0200086B0200086B020008FB
:100130006B0200086B0200086B0200086B020008EB
:100140006B0200086B0200086B0200086B020008DB
:100150006B0200086B0200086B0200086B020008CB
:100160006B0200086B0200086B0200086B020008BB
:100170006B0200086B0200086B0200080000000020
:100180006B0200086B02000800F002F800F051F862
:100190000AA090E8000C82448344AAF10107DA45E2
:1001A00001D100F046F8AFF2090EBAE80F0013F0E3
:1001B000010F18BFFB1A43F001031847B8450000B0
:1001C000D8450000103A24BF78C878C1FAD8520741
:1001D00024BF30C830C144BF04680C6070470000C1
:1001E0000023002400250026103A28BF78C1FBD840
:1001F000520728BF30C148BF0B607047662904F022
:100200005B82002070471FB504F051FA9DE803009F
:1002100000F0B6FE00F04AFB04000020002104F0CC
:10022000B9F9E06000F05EFC1FBD10B500F0C3FC42
:1002300010BD00F02BFD1146FFF7E5FF04F0EAF8D2
:1002400000F030FE03B4FFF7F0FF03BC01F02AF822
:100250000948804709480047FEE7FEE7FEE7FEE75A
:10026000FEE7FEE7FEE7FEE7FEE7FEE70448054996
:10027000054A064B70470000F53A0008890100085E
:10028000D0020020D0080020D0040020D00400209C
:1002900053EA020C00F069802DE9F04B4FF00006A4
:1002A000002B1FBFB3FA83F503FA05F424FA05F611
:1002B0005E4012BF1643B2FA82F502FA05F4C5F1A8
:1002C00020051EBF22FA05FC44EA0C04203556EA3C
:1002D000044C4FEA144418BF641C4FF000084FF060
:1002E0000009904271EB030C39D3002919BFB1FA10
:1002F00081F701FA07F6B0FA80F700FA07F6C7F1BE
:1003000020071EBF20FA07FC46EA0C062037B6FB82
:10031000F4FCA7EB0507103F07F01F0BCBF12006FD
:100320000CFA0BFB2CFA06F644BFB3460026202F2E
:10033000A4BF5E464FF0000B5BEA060C08BF4FF00F
:10034000010B19EB0B09ABFB027C48EB0608C01B49
:1003500006FB02CC0BFB03CC71EB0C01C1E70B4697
:10036000024641464846BDE8F08B13B54FF0000009
:100370004FF00001AFF30080BDE81C407047000063
:100380000FB4044910B503AA029800F07DFA10BC1E
:100390005DF814FBC40100202DE9F0410E4604462F
:1003A000002020622046E168884730B3252805D028
:1003B000D4E901219047206A401CF2E7E168204619
:1003C00000278847050018D0A5F14100192802D858
:1003D00020354FF400673246294620462760FFF754
:1003E0000DFF40B1012804D0F61D26F0070608369F
:1003F000D8E7361DD6E72846DAE7206ABDE8F0815F
:100400004FF0000200B5134694469646203922BFAD
:10041000A0E80C50A0E80C50B1F12001BFF4F7AFF8
:10042000090728BFA0E80C5048BF0CC05DF804EBDA
:10043000890028BF40F8042B08BF704748BF20F848
:10044000022B11F0804F18BF00F8012B7047704746
:100450007047704710B500F02DFA006810BD10B558
:10046000044600F027FA046010BD70472DE9FF4FE5
:100470000C461E464FF0FF378BB0D2E90001DDF885
:1004800060800A908A46C1F30A5505B93D460021AD
:1004900008464FF00000BAF1000F00F4400005DA02
:1004A00000EB80004FF4400101EA50004FEA905900
:1004B000B9F1010F00DDB9460A9850EA4A000ED0A2
:1004C00044F61050A5F2FF3545432F14B8F1000F44
:1004D0001ED07542291E1EDDC9F100021CE0B8F1D4
:1004E000010F4FF0000001D0302103E0F24305E09E
:1004F0002154401CB042FBDB304600220021215435
:100500000B99C1F80880C1E900200FB0BDE8F08F59
:10051000BD1B6D1CDEE74A4600DA694206A800F002
:100520006BFA06AB93E8070003AB83E8070050467D
:100530000A9900F04FFF8DE80700A0F500501F3822
:1005400000900398002D0ADD42F21F014A4608443C
:10055000002303A90390684601F0B8F909E0A0F56B
:1005600000504A461F38002303A90390684601F053
:10057000C2F98DE807000004000C03D04FF0FF30F3
:10058000410800E01046B8F1000F03D000220092AD
:1005900015461EE0751E05D400F090F93032625504
:1005A0006D1EF9D5B3460122084302D000227F1CFC
:1005B00004E02078302801D100227F1E002A09970C
:1005C00084D01DE0112D07DA00F078F93032625541
:1005D0006D1C50EA0102F5D1084302D00098C8B161
:1005E0000EE00021681E05E0235C625C6354225427
:1005F000401E491C8142F7DBAB46A81B401E0990F8
:10060000002004F80B000B98099AC0F80880C0E994
:10061000002B7AE711264FF0000857E72DE9F04F3D
:1006200088460446D21D22F0070191B0D1E90001AD
:10063000CDE90A0103F065FC02460B98C00F01D01A
:100640002D2007E02068810701D52B2002E0202122
:1006500001EAC000032A099001D0072A05DB0346FE
:100660004146204600F088F90BE12078800601D54C
:10067000E06900E00620B8F1650F814606D0B8F1C8
:10068000660F18D0B8F1670F70D131E00020B9F1D2
:10069000110F009001DB112301E009F101030AAA07
:1006A00001A90CA8FFF7E2FEDDE90C70002609F1B4
:1006B0000105834647E001204B4600904FF000477C
:1006C0000AAA01A90CA8FFF7D1FEDDE90DB00C992B
:1006D0005D46002610B909F101000D18B9EB0500BF
:1006E00003D4C0F1FF3609F10105A5EB09002BE0A9
:1006F000B9F1010F01DA4FF001090020B9F1110F32
:100700000090484601DD112300E003460AAA01A932
:100710000CA8FFF7ABFEDDE90C704D4600268346C2
:10072000207800070AD4AB4500DA5D4601A8012D08
:1007300004DD411911F8011C302907D04F4502DAB8
:1007400017F1040F04DA012082460FE06D1EEEE778
:10075000002F02DCED1B3E4403E0781CA84200DDC4
:100760007D1CB81B00F1010A4FF0004720780007FC
:1007700003D4AA4501DB4FF0FF3A0021B7F1004F47
:100780000DF143088DF8431024D002202B23002FB5
:1007900001DA7F422D230A21021EA0F1010000DCB4
:1007A0005FB197FBF1FC97FBF1F201FB1C7C174654
:1007B0000CF1300C08F801CDEEE7A8F10100037050
:1007C0002188090501D5452100E06521A0F1010836
:1007D00000F8011C09980FA9A1EB0807FF1D00B143
:1007E0000120411901EBEA70A1693844081A401E42
:1007F000A0612078C00602D42046AFF3008009989B
:1008000028B1D4E901219047206A401C2062207859
:10081000C00622D52046AFF300801EE0002E04DB88
:10082000B34502DD01A8805D00E03020D4E901215C
:100830009047206A401C2062761CAAF101005FEA02
:10084000000A0AD100F032F8C0680168405CD4E9BF
:1008500001219047206A401C2062281EA5F1010555
:10086000DCDC07E0D4E9012118F8010B9047206A8D
:10087000401C2062381EA7F10107F3DC2046AFF3CD
:100880000080032011B041E6074B70B50D467B4454
:1008900000F05FF80446284600F020F910B14FF050
:1008A000FF3070BD204670BD8F3A00000048704791
:1008B0008C020020004870476C02002030B5B0F177
:1008C0000A024FEA900E71F100034EEA817EB0EB0E
:1008D0000E0061EB91014FEA101E4EEA017E10EB13
:1008E0000E0041EB11114FEA102E4EEA016E10EB93
:1008F0000E0041EB11214FEA104E4EEA014E10EB73
:100900000E0041EB1141401841F100014FEAD000C7
:1009100040EA41704FEAD10110EB80054FEA8104B3
:1009200044EA907444EB01046D1944EB0404521B37
:10093000A3414FF0000348BF0A3200D530BD401C30
:1009400041F1000130BD000001694A1C02610878D4
:10095000704700B58FB0CDE90131002105910549FF
:100960007944CDE9031011466846FFF715FD0FB035
:1009700000BD0000E5FFFFFF2DE9F0411F460446E2
:1009800003260168072A01F4006004DB08B116A5FC
:1009900005E016A503E008B115A500E015A521F0B6
:1009A00010002060A069C01EA0610FB1401EA061B0
:1009B0002046AFF300804FB1D4E90121384690477B
:1009C000206A401C2062C01C206206E0206AFAE710
:1009D000D4E9012115F8010B9047761EF8D2204684
:1009E000AFF30080BDE8F0814E414E006E616E00B5
:1009F000494E4600696E66002DE9F047814616466D
:100A00008AB0354878440DC88DE80D0032487844E6
:100A1000801C03AC0DC884E80D0041F69B300844EF
:100A2000372190FBF1F290FBF1F5A5F1800501FB78
:100A300012041B3C02D56442012000E00020DFF8D4
:100A400098A080460027FA44AAF1BE0A0EE0E0070B
:100A50000AD03246684607EB470101230AEB8101C1
:100A600000F049FF8DE8070064107F1C002CEED1D8
:100A7000194F7F44AE3F19E0E80715D007EB04108B
:100A80000DF1180A90E80E008AE80E00C068F042E6
:100A900001D1981908903246012306A903A800F055
:100AA0002AFF03AB83E807006D10641C002DE3D11F
:100AB0004FF0010332466946B8F1000F03A802D097
:100AC00000F004FF01E000F016FFC9E90001C9F8D9
:100AD00008200AB0BDE8F087483D0000007B00F028
:100AE0008000704710B542485421FFF789FC414807
:100AF0005421FFF785FC40485421FFF781FC3F4912
:100B00003B483C4A3F4B08603D490A603A491960FE
:100B1000531C0365481C1065012008653B48344A96
:100B200039A1784400F022F920B9384878440A38CD
:100B300000F0C1F937482F4A35A1784400F016F982
:100B400020B9344878440A3800F0B5F932482A4AC6
:100B50002FA1784400F00AF920B92F4878440A38C8
:100B600000F0A9F940232248DC000021224600F0D1
:100B7000D9F820B125487844543800F09CF91D4834
:100B800022464023002100F0CDF820B121487844CE
:100B9000543800F090F9184822461023002100F044
:100BA000C1F8002806D01C487844BDE810405638EB
:100BB00000F081B910BD104870B5006D20F001043F
:100BC0000B4800F049F90B4800F046F90A4800F0DC
:100BD00043F909E0206D20F00105204600F03CF9C2
:100BE000204600F078F82C46002CF3D170BD0000B0
:100BF00070010020C40100201802002058000020CD
:100C00005C0000206000002072000000423C0000F8
:100C1000770000002E3C00001A3C00000EB5CDE924
:100C2000000100F01FFB029069460120ABBE0EBD23
:100C300008B5694600900220ABBE08BD1FB58DE81F
:100C4000070069460520ABBE04B010BD1FB58DE896
:100C50000F0069460620ABBEF6E708B5694600906E
:100C60000920ABBE08BD1CB5CDE9000169460A20CC
:100C7000ABBE1CBD704708B5694600900C20ABBEEA
:100C800008BD0000004870476C0200207546FFF761
:100C9000F9FFAE4605006946534620F00700854639
:100CA00018B020B5FFF7E2FABDE820404FF000068B
:100CB0004FF000074FF000084FF0000B21F0070144
:100CC000AC46ACE8C009ACE8C009ACE8C009ACE887
:100CD000C0098D46704770B50446051F00F034F911
:100CE0000068002C14BF446870BD002C18BFAC42D3
:100CF0003CBF20466468F8D301680A18AA4218BFAE
:100D0000456003D12A6805461144016028684119ED
:100D1000A1421CBF6C6070BD6168696021680844B5
:100D2000286070BD70B5C468A50713D0650211D4E2
:100D3000B2F5807F09D0B2F5007F06D0B2F5806FA2
:100D400008D1012300F1240106E05D1E6FF07F460B
:100D5000B54201D3012070BD0161C361416024F43B
:100D600070611143C160002070BD00002DE9F041A9
:100D70000C4607461646104600F06EF82078611CB7
:100D800061280AD0722802D077283CD102E00125E0
:100D9000002405E00225042402E0082448F20205AC
:100DA00011F8010B2B2806D0622809D011F8010C8C
:100DB00074280AD00BE045F0030544F00204EFE785
:100DC00045F0040544F00104EAE744F01004384615
:100DD0002146FFF723FF411C15D0002131617160CE
:100DE0004FF40071F560F1617061200704D5304661
:100DF0000222002100F022F9306D40F00100306540
:100E00003046BDE8F0810020FBE72DE9F0410D46BA
:100E10000646104C206DC10704D0410804D020F0D4
:100E20000104F7E722460EE0542000F0D8F807004E
:100E30000ED0206D47F0010108435421206538464B
:100E4000FFF7DEFA3A4629463046BDE8F0418DE725
:100E50000020D6E7700100202DE9F04704464FF04E
:100E600000094FF0FF37C568D4E90486A80707D00A
:100E7000204600F093F93046FFF7DAFE002802DA48
:100E80003846BDE8F087280502D54046FFF723FF26
:100E90004C212046FFF7B4FA206D20F001002065B8
:100EA0004846EEE710B50446AFF300802046BDE8A3
:100EB0001040FFF7C7B910B500F0BAF9BDE810400F
:100EC00000F0B0B94FF0013C50F8042B51F8043B4E
:100ED0009A4221D1A2EB0C03934313EACC1317D10E
:100EE00050F8042B51F8043B9A4215D1A2EB0C03A5
:100EF000934313EACC130BD150F8042B51F8043B65
:100F00009A4209D1A2EB0C03934313EACC13DBD032
:100F10004FF00000704700BFD01A01BAB1FA81F15A
:100F200001F0180122FA01F0CB40C1F12001DBB23F
:100F3000C0B2C01A2CFA01F3D11A914311EAC311BD
:100F4000E6D17047704700000048704774020020E7
:100F5000704770477047704738B504460A4600200E
:100F60006946AFF30080002808BF38BD02460099EB
:100F7000204600F0A4F9012038BD012000F0F3B9AB
:100F8000F8B5AFF30080054600200C46102000BFE6
:100F90000646A819A0420DD9324669460020AFF393
:100FA0000080070008BF00F0DEF90098A04218BFDB
:100FB0000546C419FFF7C8FF05600746F01D20F07D
:100FC00007004619284600F073F9B44208BFF8BD7F
:100FD000A21B31463868BDE8F84000F070B970B522
:100FE0000646FFF7B1FF056806F10B0020F0070485
:100FF000B4429CBF002070BD2B466A68BAB110682D
:10100000A04210D304F1080188423CBF50685860E8
:1010100007D35168101941601168091B01605860BD
:101020001460101D70BD13465268002AE7D1214696
:101030002846FFF791FF0028DED170BD2DE9F04171
:10104000044616460D464769007B80072ED0384679
:10105000FFF703FE50BB3EB3012E02D0022E25D176
:1010600004E0204600F045F905441DE03846FFF74E
:1010700002FEE168002841F01001E16005DA204637
:1010800000F058F80120BDE8F081C9030BD5626873
:10109000E16A914200D81146A26911442269891A75
:1010A000814200DD08460544002D01DA0220EAE70E
:1010B000E16A6068E268814206D29103E06203D58A
:1010C00022F4003141F01002A6690027AE4213DC81
:1010D000E16A814201D90B4600E0034603EB060CAE
:1010E0002369ACEB030CAC4506DD814201D98C468B
:1010F00000E084469C4505D1A760276042F02000AF
:10110000A5620DE0AD1BE669AE1B8142A66000D969
:101110000846C01A281A20605819606022F0200082
:1011200003490840E060002084F84870ABE7000005
:10113000BFCFD7FFC16821F4001141F08001C16029
:1011400000218160016070472DE9F0478146144617
:101150000E464FF0FF383248D5685769054209D02E
:101160003846A169FFF77FFD002811DB2C48C043FA
:101170000540E5602B46324649463846FFF75EFD9E
:10118000A16920F00042B21A11440028A16103D0E5
:101190002046FFF7CFFF4046BDE8F08770B5044614
:1011A0000569C06A6168884200D80846E16821F490
:1011B0002011E160C90312D5A84208D02246411B84
:1011C0002846FFF7C1FF10B14FF0FF3070BD00207F
:1011D000E562C4E90150E06820F48030E06000205E
:1011E00070BD10B50446C06820F02000E060A16A20
:1011F000A06988420DD02046FFF7D0FFE06820F4B8
:10120000405040F01000E060A06AA0612069E062F8
:10121000606044F24001E0688843E06010BD000077
:1012200010000200002801D000F03CB87047000018
:1012300010B5014602A000F07DF8012010BD0000AD
:1012400053494752545245443A2052656469726585
:1012500063743A2063616E2774206F70656E3A2064
:101260000000000010B5431C02E010F8011B71B132
:101270008107FAD14FF0013202C88C1A8C4314EA6C
:10128000C211F9D0C01A0A0603D0C01E10BDC01A80
:1012900010BD0A0401D0801E10BD0902FCD0401E02
:1012A00010BD000001491820ABBEFEE72600020079
:1012B00000210160C0E9011070471020704703460B
:1012C00040688C46002818BF88423CBF03464068EF
:1012D000F8D318681844884207D00CF1030020F0B6
:1012E0000700001D411A521A0146081D0A60FFF747
:1012F000F2BC10B50146C268900703D0900607D52E
:10130000886A0AE0FFF7D6FA01210160881E10BD45
:101310008B69486818440B69C01A91F848301BB1B2
:1013200091F84910401A10BD1103FCD50028FADDD0
:10133000401E10BD70B505460C460A2000E06D1C2D
:1013400000F018F835B128780028F8D102E0641CC4
:1013500000F010F814B120780028F8D1BDE87040F2
:101360000A2000F007B810B500F00CF8BDE81040F6
:10137000FFF758BF08B569468DF800000320ABBEE3
:1013800008BD000010B5012805D0002103A0FFF71B
:10139000D1FF012010BD09A1F8E7000053494752D1
:1013A000544D454D3A204F7574206F662068656135
:1013B00070206D656D6F7279000000003A204865FD
:1013C0006170206D656D6F727920636F72727570D8
:1013D000746564005FEA400C08BF91F0000F4FEAAB
:1013E0008C234FEAC12243EA51514FEA1C5018BFE7
:1013F00000F5F0404FEA300018BF41F000415FEACD
:101400006C5C00F02980BCF1FF3F08BF40F08040D9
:101410007047130C06BF12044FF0100C4FF0000C75
:10142000130E04BF12020CF1080C130F04BF1201BB
:101430000CF1040C930F04BF92000CF1020CD30FBB
:1014400004BF52000CF1010C11464FF00002A0F154
:101450001F00A0EB0C00704711F0004F08BF704751
:1014600031F000413FF4D5AF0B0C06BF09044FF03B
:10147000100C4FF0000C0B0E04BF09020CF1080C0D
:101480000B0F04BF09010CF1040C8B0F04BF890082
:101490000CF1020CCB0F04BF49000CF1010CCCF194
:1014A0002003A0EB0C0022FA03F302FA0CF241EA4B
:1014B000030100F10100704720F07F4C80EA030037
:1014C00023F07F47ACEB070303F57C5300F00040AB
:1014D00003F1FF032DE980494FEA154B09B44FEAA8
:1014E000144325EA0B4E24EA03480FF2042606EBC8
:1014F000132749083E785FEA320203FB0667C7F507
:10150000000707FB06F64FEA54374FEAD64606F1C6
:10151000020607FB066CCCF1005C4FEA1C472CEA84
:10152000074C07FB06F40CFB06F504EB15464FEAE7
:10153000961634BF00204FF000404FEAD13706FB2B
:1015400007FC4FEA1C4C0CFB0BF7D21B03FB0CF700
:1015500061EB07010CFB0EF7B0EB074072EB174293
:101560000CFB08F734BFA2EB0742B2EB074261EB7A
:1015700017414FEA0C444FEA910706FB07FC4FEA7C
:101580001C4C0CFB0BF7B0EBC74072EB573203FB64
:101590000CF734BFA2EBC742B2EBC74261EB573145
:1015A0000CFB0EF7B0EBC70072EB57720CFB08F7A1
:1015B00034BFA2EBC702B2EBC70261EB5771039FC6
:1015C0004FEA816141EA921104EBCC044FEAD13732
:1015D0004FEA826206FB07FC42EA90124FEA806003
:1015E0004FEA1C4C0CFB0BF7D21B03FB0CF761EB17
:1015F00007010CFB0EF7B0EB074072EB17420CFB38
:1016000008F734BFA2EB0742B2EB074261EB174188
:101610004FEA8C554FEA910704EB9C2406FB07FC2C
:101620004FEA1C4C0CFB0BF7B0EBC74072EB573288
:1016300003FB0CF734BFA2EBC742B2EBC74261EB2E
:1016400057310CFB0EF7B0EBC70072EB57720CFB77
:1016500008F734BFA2EBC702B2EBC70261EB5771C8
:1016600015EB4C254FEA816141EA92114FEA826203
:101670004FEAD13742EA901206FB07FC44F100041E
:101680004FEA80604FEA1C4C0CFB0BF7D21B03FBAC
:101690000CF761EB07010CFB0EF7B0EB074072EBA8
:1016A00017420CFB08F734BFA2EB0742B2EB07422C
:1016B00061EB174115EB1C154FEA813141EA92416C
:1016C0004FEA823242EA90424FEA80304FEA0C768B
:1016D00044F1000448EA03434EEA0B484FF0000E81
:1016E000B2EB080C71EB030724BF624639464EEBA0
:1016F0000E0E4FF0000B0018524149414BEB0B0B03
:10170000B2EB080C71EB03077BF1000B24BF6246C0
:1017100039464EEB0E0E4FF0000B00185241494176
:101720004BEB0B0BB2EB080C71EB03077BF1000BDF
:1017300024BF624639464EEB0E0E51EA020718BF2F
:1017400046F0010616EB0E7655F1000254F1000149
:1017500003D5BDE88901BDE80088BDE88901BDE881
:101760000048B619524141EB0101A3F10103704752
:1017700080807F7E7D7C7B7A7978777676757473CE
:10178000727171706F6E6E6D6C6C6B6A6A6968688D
:10179000676666656464636362616160605F5F5E23
:1017A0005E5D5D5C5C5B5B5A5A5959585857575699
:1017B00056555555545453535252525151505050FE
:1017C0004F4F4F4E4E4D4D4D4C4C4C4B4B4B4A4A50
:1017D0004A49494948484847474747464646454594
:1017E00045444444444343434342424242414141CD
:1017F000002B9C4630D477002BD01CB54FEA37071E
:1018000003B44FF010004FF01001BAF1000F06D0F2
:10181000BCF1000FDCBF40F0080040F008014FF0C1
:1018200000000FBCBDE810400BF1010BBBF1010F34
:1018300008BF5FEA170722BF12F1010211F101018F
:101840004FF0004143F1000300F0004043EA000084
:101850007047F9D35708D0E746EA064613F1400F20
:101860004FEA16461FDD13F1200FDFBF16430A466D
:10187000002120335B42BED0C3F1200746EA064672
:1018800002FA07F74FEA164646EA0706C3F12007B1
:1018900022FA03F201FA07F721FA03F14FF00003ED
:1018A00042EA0702A7E746EA020646EA06464FEA88
:1018B000164646EA0106BCBF46EA0646360C4FF01D
:1018C00000034FF000024FF0000194E72DE9804C37
:1018D0009A46934670B491E8380007C831EA400C44
:1018E00048BF34EA430C03D5FFF7E6FDFFF780FF5E
:1018F000F0BCBDE8008C2DE9804C9A46934670B44C
:1019000091E8380007C810F0804F08BF13F0804FEF
:1019100003D100F005F8FFF76BFFF0BCBDE8008CC9
:1019200020F07F4780EA030023F07F4C07EB0C0395
:10193000A3F57C5300F00040A3F1FE0392F0000FEA
:1019400000F0B38095F0000F00F077802DE9014999
:101950004FEA11404FEA144621EA004800FB06FC1A
:1019600024EA064708FB06F607FB08F800FB07F722
:1019700018EB06484CEB164C4FEA124B18EB074895
:101980004FEA15464CEB174022EA0B4E0BFB06FCC8
:1019900025EA06470EFB06F607FB0EFE0BFB07F7D4
:1019A0001EEB064E4CEB164C4FF000061EEB074E9E
:1019B0004CEB174B18EB0B0840F1000018EB0E0B2B
:1019C00058EB000840F100008F1A4FF000013CBFB7
:1019D000C943661B14BFB5EB040C00213CBFC943CF
:1019E000F61B4FEA17444EEA8E0E27EA04454FEAEB
:1019F0001C4704FB07622CEA074C05FB07F70CFBAE
:101A000005F604FB0CFC16EB074642EB174216EBFF
:101A10000C4642EB1C421BEB060658EB020241410E
:101A200046EA9E0601D5BDE80189B619524141EB4F
:101A30000101A3F10103BDE801894FEA14454FEA12
:101A4000114724EA054621EA074C05FB07F406FB8B
:101A500007F70CFB06F105FB0CFC11EB074144EB0F
:101A600017444FEA124711EB0C4144EB1C4422EAA5
:101A7000074C05FB07F206FB07F70CFB06F605FB18
:101A80000CFC16EB074642EB174216EB0C4642EBFA
:101A90001C456A1854F1000148BF7047B6195241FD
:101AA00041EB0101A3F10103704795F0000F37D01E
:101AB0004FEA11424FEA144721EA024624EA074C52
:101AC00002FB07F106FB07F70CFB06F402FB0CFC1C
:101AD00014EB074441EB17414FEA154714EB0C4454
:101AE00041EB1C4125EA074C02FB07F506FB07F713
:101AF0000CFB06F602FB0CFC16EB074645EB174504
:101B000016EB0C4645EB1C42121951F1000148BF7F
:101B10007047B619524141EB0101A3F1010370472F
:101B20004FEA14454FEA114724EA054621EA074CDB
:101B300005FB07F106FB07F70CFB06F24FF000066A
:101B400005FB0CFC12EB074241EB174112EB0C4278
:101B500051EB1C4148BF7047921841EB0101A3F1C2
:101B600001037047FEE7704772B6FEE72DE9F041CA
:101B70000446876D00F066F9064694F835000025A6
:101B8000022806D08020606584F834500120BDE82A
:101B9000F0812068016821F0160101602068416928
:101BA00021F080014161206C08B9A06C20B120684F
:101BB000016821F0080101602068016821F001013D
:101BC00001600CE000F03EF9801B052807D92020B9
:101BD0006065032084F8350084F83450D7E7206826
:101BE0000068C007EED194F85C103F208840B860D0
:101BF000012084F8350084F834500020C7E790F8BD
:101C00003510022903D0802141650120704705214C
:101C100080F835100068016821F0010101600020A2
:101C20007047000070B5044600F00CF90546601CD2
:101C300002D004480078044400F004F9401BA0429C
:101C4000FAD370BD240000202DE9F84FDFF8BCA1C5
:101C50000022012503264FF00F090AF1040BAAF117
:101C6000040E00BF0B6805FA02F42340A34270D1B2
:101C70000F7907F00307012F01D0022F16D18768D3
:101C80004FEA420806FA08FC27EA0C07D1F80CC014
:101C90000CFA08FC4CEA070CC0F808C04768A743D8
:101CA0000C79C4F3001494403C4344600C79E44341
:101CB000A4070AD0C4684FEA420C06FA0CF7BC43EA
:101CC0008F6807FA0CF72743C7600C7904F0030408
:101CD000022C12D1D40800EB840CDCF8204057070A
:101CE000FF0E09FA07F824EA0804D1F8108008FA70
:101CF00007F848EA0408CCF8208004684FEA420C50
:101D000006FA0CF7BC430F7907F0030707FA0CF744
:101D1000274307604C6814F4403F70D03C4C276860
:101D200047F480472760246822F0030704F48044C6
:101D30000094384C07EB040CDCF8084897074FEA8E
:101D4000177809FA08F7BC43334FB84202D100278D
:101D500024E054E0314FB84201D101271EE0304F5A
:101D6000B84201D1022719E02E4FB84201D1032712
:101D700014E02D4FB84201D104270FE02B4FB84299
:101D800001D105270AE02A4FB84201D1062705E014
:101D9000284FB84201D1072700E0082707FA08F7C3
:101DA0002743CCF80878DAF800405746D1F804C049
:101DB0009C435FEACC2C00D51C433C60DBF8004020
:101DC0005F46D1F804C09C435FEA8C2C00D51C43CD
:101DD0003C60DEF800407746D1F804C09C435FEADF
:101DE0008C3C00D51C433C60084F083F3C68D1F850
:101DF00004C09C435FEACC3C00D51C433C60521CB1
:101E0000102AFFF42FAFBDE8F88F0000083C014016
:101E1000443802400030014000000240000402400B
:101E200000080240000C0240001002400014024072
:101E300000180240001C02400AB181617047090489
:101E4000FBE7000001488068704700002400002084
:101E500002488168027811448160704724000020A4
:101E60000B4810B5016841F400710160016841F44C
:101E700080610160016841F480710160032000F01D
:101E80006FF80F2000F006F800F024F8002010BDD5
:101E9000003C024070B50D4D04464FF47A7128782D
:101EA000B1FBF0F00A490968B1FBF0F000F00FFE59
:101EB00048B9102C07D200222146501E00F030F8FD
:101EC00000206C6070BD012070BD00002400002067
:101ED000300000200A4808B5016841F480410160E3
:101EE000006800F4804000900548001F016841F040
:101EF00080510160006800F08050009008BD000033
:101F000044380240002809DB00F01F020121914003
:101F10004009800000F1E020C0F800117047000087
:101F2000F0B40E4B1B680C46C3F30223C3F1070544
:101F3000042D00D90425191D072901D2002300E032
:101F4000DB1E012606FA05F1491E214099409E40FC
:101F5000761E16403143F0BC01F0FEBF0CED00E0F0
:101F6000064900F0070208684FF6FF03184040EAF0
:101F70000220034A10430860704700000CED00E0A7
:101F80000000FA052DE9F0470E46050065D0DFF8A0
:101F90001481D8F80000F7B200F00700B04207D271
:101FA00088F80070D8F8000000F00700B04254D163
:101FB00028683D4C810712D5400703D5206840F4BE
:101FC000E05020602878000703D5206840F4604086
:101FD00020602068A96820F0F0000843206028787D
:101FE000C0072DD0304968680839012812D002286E
:101FF00013D0032811D00968890700292DDA216838
:1020000021F0030101432160FFF71CFF814641F2EB
:10201000883A0EE009688903EFE709688901ECE76F
:10202000FFF710FFA0EB0901514502D90320BDE8DD
:10203000F0872068696800F00C00B0EB810FEFD1E9
:10204000D8F80010404601F00701B14207D90770E7
:10205000006800F00700B04201D00120E7E72878CF
:10206000400705D52068E96820F4E0500843206067
:102070002878000706D52068296920F4604040EAE6
:10208000C100206000F038F82168084AC1F303114C
:10209000515CC8400649086006480068FFF7FAFE30
:1020A0000020C4E7003C024008380240BC4600085B
:1020B0003000002028000020044805490068096815
:1020C000044AC1F38221515CC840704730000020AF
:1020D00008380240CC4600080448054900680968F1
:1020E000044AC1F34231515CC840704730000020BF
:1020F00008380240CC460008154810B5006810F0BA
:102100000C02144813D01449042A0FD0082A0ED107
:102110000F4C241F2268236802F03F025B0207D5A0
:102120002068C0F38810A0FB010106E0084610BD3E
:102130002168C1F38811A1FB00010023FEF7A8F874
:102140002168C1F30141491C4900B0FBF1F010BD09
:10215000083802400024F400001BB7002DE9F84FB6
:1021600004006ED02078DFF84C93C007A9F1040575
:102170004AD009F104000168C1F38101012908D0A6
:102180000068C0F3810002280AD1D9F8000040029B
:1021900006D52868800337D560680028E1D033E091
:1021A0006068B0F5803F10D0B0F5A02F286810D03F
:1021B00020F480302860286820F48020286060683F
:1021C000A8B1FFF73FFE06460DE0286840F48030D6
:1021D000F4E740F480202860F7E700BFFFF732FE05
:1021E000801B642873D828688003F7D50CE0FFF7BC
:1021F00029FE064605E000BFFFF724FE801B642889
:10220000F0D828688003F7D42078DFF8AC82800704
:102210004FF0000A3ED5A748001D016811F00C0FD1
:1022200008D00068C0F3810002280BD1D9F8000063
:10223000400207D42868800716D5E068012800D13D
:1022400012E033E1E068B8B10120C8F80000FFF700
:10225000F9FD064605E000BFFFF7F4FD801B0228EC
:10226000C0D828688007F7D52868216920F0F800D1
:1022700040EAC10028600DE0C8F800A0FFF7E2FDC9
:10228000064604E0FFF7DEFD801B02281FD8286801
:102290008007F7D42078000722D5864F87486169E8
:1022A000703771B101210160FFF7CCFD064604E0F3
:1022B000FFF7C8FD801B022809D838688007F7D5CA
:1022C0000EE0C0F800A0FFF7BDFD064605E082E085
:1022D000FFF7B8FD801B02287DD838688007F7D447
:1022E0002078400768D5DFF8CCB100270BF13C0B14
:1022F000DBF80000C0000BD4DBF8001041F0805187
:10230000CBF80010DBF80000012700F080500090AF
:102310006B4E3068C00510D4306840F48070306077
:10232000FFF790FD009005E0FFF78CFD0099401A43
:10233000022850D83068C005F6D55E4EA0686C36CD
:1023400001280FD00528306810D020F0010030603F
:10235000306820F004003060A068B8B1FFF772FD6B
:1023600000900FE0306840F00100F4E740F0040016
:102370003060F7E7FFF766FD0099411A41F28830B7
:10238000814266D830688007F4D50EE0FFF75AFD29
:10239000009007E0FFF756FD0099411A41F288309E
:1023A000814256D830688007F4D42FB1DBF8001092
:1023B00021F08051CBF80010A069C8B33D49091D38
:1023C0000968C1F3810102294AD00228504607D08A
:1023D000C8F8600000E03CE0FFF734FD04463BE055
:1023E0004746C8F86000FFF72DFD064605E000BF30
:1023F000FFF728FD801B02282BD828688001F7D41E
:10240000D4E907010843A16A2E4A490802EB0141B9
:10241000626A41EA8211084394F82C1040EA016193
:10242000C9F8001001203866FFF70CFD044606E0ED
:102430003EE000BFFFF706FD001B022809D8286810
:102440008001F7D534E000BFFFF7FCFC001B022839
:1024500002D90320BDE8F88F28688001F4D427E072
:102460000128F7D0D9F80000E26900F48001914218
:102470001CD1226A00F03F01914217D147F6C0718A
:10248000626A0140B1EB821F10D1A26A4FF0FF33A4
:1024900000F4403103EB5202B1EB024F06D194F845
:1024A0002C1000F07060B0EB016F01D00120D1E77B
:1024B0000020CFE70438024000004742800E474228
:1024C000007000400000FFFF90F85100704770B5A9
:1024D000040009D0606A002540B125616561A562EC
:1024E00094F8510040B10CE0012070BD6068B0F577
:1024F000827FF4D0E561F2E784F85050204600F086
:1025000045F8022084F851002068016821F040015C
:102510000160A088218900F4827001F4044108431D
:10252000A18901F400610843217C01F00201084304
:10253000217D01F001010843218B01F40071084362
:10254000217F01F03801084394F8201001F0800148
:102550000843218D01F40051084321680860A069F7
:10256000042101EA104094F8241001F010010843FE
:10257000216848602068C16921F40061C161656516
:10258000012084F85100002070BD0000F0B587B034
:10259000044614216846FDF733FF1C492068884231
:1025A00032D11B480024016841F480510160006869
:1025B00000F48050059016481438016841F002017B
:1025C0000160016801F002010591016841F001011B
:1025D00001600068022500F0010005901820CDE997
:1025E000000502AA0326052782E8D00069460948AB
:1025F000FFF72AFB8020CDE9000502AA694682E8A0
:10260000D0000548FFF720FB07B0F0BD00300140C7
:102610004438024000040240000002402DE9F84F17
:10262000044690F85100984616460F4600250128AA
:1026300001D0022598E060684FF0040BB0F5827F6E
:1026400001D1A068F8B194F85000012826D04FF0CD
:10265000010984F85090FFF7F5FB8246002F7FD0E8
:10266000002E7DD084F851B000206065A763A68756
:10267000E6872063A086E08620646064A068B0F5E9
:10268000004F0DD016E084F851B013460A4620469C
:10269000CDF8008000F024F9BDE8F88F0220FBE7B8
:1026A0002068016821F0400101602068016821F480
:1026B0008041016020680168490603D4016841F047
:1026C00040010160E068D8B13BE020688168C9073B
:1026D00009D0007BA16B0870A06B401CA063E08F49
:1026E000401EE0870CE0FFF7ADFBA0EB0A0141457F
:1026F00003D3B8F1FF3F03D006E0B8F1000F03D0D9
:10270000E08F0028E1D11FE003252BE020688168DD
:10271000C90709D0C068A16B0880A06B801CA063AA
:10272000E08F401EE0870CE0FFF78CFBA0EB0A0176
:10273000414503D3B8F1FF3F03D0E5E7B8F1000FFF
:10274000E2D0E08F0028E1D152464146204601F018
:10275000C2F808B120206065606D00E000E008B1BB
:10276000012501E084F85190002084F850002846AB
:1027700092E72DE9F84F044690F85000002698465D
:1027800015468A4601280CD0012784F85070FFF7BF
:1027900059FB814694F85100B346012804D0022623
:1027A0009AE00220BDE8F88FBAF1000F6FD0002D3B
:1027B0006DD0032084F85100C4F854B0C4F830A0A0
:1027C000A586E586C4F838B0A4F83CB0A4F83EB0BD
:1027D000C4F844B0C4F840B0A068B0F5004F09D1C7
:1027E0002068016821F0400101602068016841F41F
:1027F0008041016020680168490603D4016841F006
:1028000040010160E068B0F5006F606803D058B324
:10281000012D29D049E008B1012D1FD1206B21687D
:102820000088C86006E020688168890709D5216BA7
:102830000988C160206B801C2063E08E401EE0860A
:102840000CE0FFF7FFFAA0EB0901414503D3B8F113
:10285000FF3F03D006E0B8F1000F03D0E08E002860
:10286000E1D125E0032635E0206B2168007808736C
:1028700006E02068816889070AD5216B0978017311
:10288000206B401C2063E08E401EE0860DE01FE0C0
:10289000FFF7D8FAA0EB0901414503D3B8F1FF3F98
:1028A00003D0DFE7B8F1000FDCD0E08E0028E0D1E4
:1028B0004A464146204601F03DF808B120206065B7
:1028C000A06818B92068C16880680090606D08B180
:1028D000012601E084F8517084F850B0304661E779
:1028E0002DE9FF4F81B0044690F8500000260E9F5E
:1028F0001D4693464FF0010901280FD04FF0010A01
:1029000084F850A0FFF79EFA804694F85100616861
:1029100001280DD0B1F5827F08D103E0022005B077
:10292000BDE8F08FA16809B9042801D00226C9E0EA
:102930000298002865D0BBF1000FFBD0002DF9D024
:1029400094F85100042802D0052084F8510000209A
:102950006065C4F838B0E587A58702992163E586EC
:10296000A5862064606420680168490603D4016874
:1029700041F040010160E068B0F5006F606803D08D
:10298000F0B3012D47D081E008B1012D3CD1206B7F
:1029900021680088C860206B801C2063E08E401E88
:1029A000E08631E02068816889070FD5E18E69B142
:1029B000B9F1010F0AD1216B0988C160206B801C1D
:1029C0002063E08E401EE0864FF000092068816899
:1029D000C9070CD0E18F51B1C068A16B0880A06B12
:1029E000801CA063E08F401EE0874FF00109FFF7D5
:1029F00029FAA0EB0800B84206D3781C04D001E005
:102A000009E05BE003265BE0E08E0028CAD1E08F9E
:102A10000028C7D140E0206B216800780873206B44
:102A2000401C2063E08E401EE0862FE02068816815
:102A300089070FD5E18E69B1B9F1010F0AD1216B78
:102A400009780173206B401C2063E08E401EE086F5
:102A50004FF0000920688168C9070CD0E18F51B19F
:102A6000C068A16B0870A06B401CA063E08F401E83
:102A7000E0874FF00109FFF7E5F9A0EB0800B84245
:102A800002D3781C02D0BAE7002FB8D0E08E00281D
:102A9000CCD1E08F0028C9D142463946204600F00B
:102AA00049FF18B10126202060650BE0A06818B925
:102AB0002068C16880680090606D08B1012601E05F
:102AC00084F851A0002084F85000304627E710B564
:102AD000401EB0F1807F01D3012010BD4FF0E024F3
:102AE00060610F21601701F037FA0020A061072014
:102AF0002061002010BD70477047000070B590F84D
:102B00003C20012A32D0012480F83C40022280F887
:102B10003D2003685A689D6822F070060A683243B7
:102B20005A60134B02689A4214D0B2F1804F11D010
:102B3000104B9A420ED0104B9A420BD00F4B9A4238
:102B400008D00F4B9A4205D00E4B9A4202D00E4B42
:102B50009A4204D1496825F080031943916080F8B6
:102B60003D40002180F83C10084670BD022070BD39
:102B7000000001400004004000080040000C00403C
:102B800000040140004001400018004010B504005E
:102B900003D094F83D0010B107E0012010BD0020E3
:102BA00084F83C00204600F01FF8022084F83D0025
:102BB000211D206800F0ACFF012084F8460084F855
:102BC0003E0084F83F0084F8400084F8410084F817
:102BD000420084F8430084F8440084F8450084F8F7
:102BE0003D00002010BD000008B50068B0F1804F26
:102BF00012D10A48016841F0010101600068002219
:102C000000F00100009011461C20FFF789F9BDE893
:102C100008401C20FFF776B908BD0000403802408C
:102C200090F83D10012901D001207047022180F861
:102C30003D100168CA6842F00102CA60006811498B
:102C4000884214D0B0F1804F11D00F4988420ED085
:102C50000E4988420BD00E49884208D00D4988425F
:102C600005D00D49884202D00C49884204D18168C0
:102C700001F00701062903D0016841F0010101605C
:102C800000207047000001400004004000080040A0
:102C9000000C0040000401400040014000180040CA
:102CA00070B5044690F83C000025012817D0012695
:102CB00084F83C60022084F83D002068826822F09D
:102CC000770222F47F4282600868502838D00DDCF9
:102CD00020284FD005DC90B3102811D14AE0022003
:102CE00070BD302846D040280AD13BE060282FD064
:102CF00070280DD0B0F5805F03D0B0F5005F12D022
:102D0000012584F83D60002084F83C00284670BD11
:102D1000CB68D1E90121206800F066FF2068816856
:102D200041F0770109E0CB68D1E90121206800F08A
:102D30005BFF2068816841F480418160E1E719E030
:102D4000CA684968206800F061FF5021206806E0E9
:102D5000CA684968206800F06AFF6021206800F0B6
:102D60004DFFCEE7CA684968206800F04FFF402158
:102D70002068F4E7226801461046F0E770472DE925
:102D8000F04104460068C66805694FF00007A907CE
:102D900013D5B10711D5F91E0161012020772068F4
:102DA00080698007204602D0FFF7E8FF04E000F0CA
:102DB0007EF8204600F07CF82777680716D5700764
:102DC00014D521686FF00400086102202077206884
:102DD000806910F4407F204602D0FFF7CFFF04E067
:102DE00000F065F8204600F063F82777280715D52E
:102DF000300713D521686FF00800086104202077A0
:102E00002068C0698007204602D0FFF7B7FF04E0C2
:102E100000F04DF8204600F04BF82777E80616D56D
:102E2000F00614D521686FF01000086108202077A3
:102E30002068C06910F4407F204602D0FFF79EFF53
:102E400004E000F034F8204600F032F82777E80775
:102E500008D0F00706D021686FF001000861204615
:102E600000F028F8280608D5300606D521686FF04E
:102E7000800008612046FFF73EFE680608D5700610
:102E800006D521686FF040000861204600F030F957
:102E9000A8060AD5B00608D521686FF020000861A1
:102EA0002046BDE8F041FFF727BEBDE8F08170473E
:102EB000704700002DE9F0477C4E0022102130467B
:102EC000FEF7BAFF7A4C92204FF47A7560702B4669
:102ED0000122611C7748FFF74CFC7648FFF7F4FAB3
:102EE0000328FAD072492B460122891C7148FFF74A
:102EF00095FB7048FFF7E8FA0428FAD0A8460027A7
:102F00006B4D27700C356A4943460122891C69487C
:102F1000FFF784FB6748FFF7D7FA0428FAD0207838
:102F2000A1782954401CC0B220700628EBD301229E
:102F300010213046FEF780FF68782978000200B241
:102F4000084300EE100A5C4EDFF87091F8EEC00AFC
:102F500094ED010A002260EE800AC6ED000AE878CE
:102F6000A978000200B2084300EE900AF8EEE00AE9
:102F700060EE800AC6ED010A68792979000200B284
:102F8000084300EE900A01214846F8EEE00A20EEE0
:102F9000800A86ED020AFEF74FFF802044496070E8
:102FA00043460122491C4348FFF7E3FB4148FFF732
:102FB0008BFA0328FAD0277047463D493B46012249
:102FC000891C3C48FFF72AFB3A48FFF77DFA0428A2
:102FD000FAD02078A1782954401CC0B2207008286B
:102FE000EBD3012211464846FEF726FF32482978E6
:102FF0000C300F2928D1E978AA78090209B21143C7
:1030000000EE101AF8EEC00A94ED020A60EE800A93
:10301000C0ED000A69792A79090209B2114300EE6C
:10302000901AF8EEE00A60EE800AC0ED010AE97934
:10303000AA79090209B2114300EE901AF8EEE00AEB
:1030400020EE800A80ED020A90EC030A1848D6ECC4
:10305000031A143000F00CFB174B15481B1FA3F18B
:103060000804221D2146143001F066F9206801F0A1
:10307000ADFA41EC100B12A053EC102BFDF780F9C8
:10308000606801F0A3FA41EC100B11A053EC102B77
:10309000FDF776F9A06801F099FABDE8F04741EC38
:1030A000100B0FA053EC102BFDF76AB90000024083
:1030B0000000002088000020700000200004024072
:1030C000494E535F616E676C655F313D25660A004E
:1030D000494E535F616E676C655F323D25660A003D
:1030E000494E535F616E676C655F333D25660A002C
:1030F0007047704770470000F8B5016804460868DB
:10310000CA684B6910F00F0F4FF0000559D003F05B
:10311000010602F49077374365D0C10705D0D10589
:1031200003D5616C41F001016164410705D5D90700
:1031300003D0616C41F002016164810705D5D907B4
:1031400003D0616C41F004016164010707D502F00E
:103150002001314303D0616C41F008016164616C6E
:1031600000293AD0800604D5900602D5204600F00A
:103170009FFD20684069616CC0F38010090700D48E
:1031800060B3204600F06DFD20684069400621D5FF
:103190002068143050E8001F21F0400140E8001280
:1031A000002AF5D1E06BA8B16E490165E06BFEF72E
:1031B00026FD002811D0E06B016D01B0BDE8F040A4
:1031C000084783060FD593060DD52046BDE8F84085
:1031D00000F06EBD2046FFF78DFFF8BD2046FFF7DB
:1031E00089FF6564F8BD266B2023012E7DD1C606BC
:1031F0007BD5D60679D508684868009048694FF0B5
:103200000206400641D5E16B086840680004000CE6
:10321000E8D0A28D8242E5D9E085C869B0F5807F0B
:103220002DD020680C3050E8001F21F4807140E858
:103230000012002AF5D12068143050E8001F21F058
:10324000010140E80012002AF5D12068143050E84E
:10325000001F21F0400140E80012002AF5D184F857
:103260004230256320680C3050E8001F21F0100127
:1032700040E80012002AF5D1E06BFEF777FC6663A8
:10328000A08DE18D401A81B22AE0A08DE18D401A17
:1032900081B2E08D0028A5D00029A3D022680C328D
:1032A00052E8000F20F4907042E80007002FF5D19B
:1032B0002068143050E8002F22F0010240E8002777
:1032C000002FF5D184F84230256320680C3050E897
:1032D000002F22F0100240E80023002BF5D1666396
:1032E0002046FFF706FFF8BDFFE705062BD51506BC
:1032F00029D594F841002128F5D1A068B0F5805F68
:1033000001D12069B0B1206A411C21622168007896
:103310004860E08C401E0004000CE084E3D120688B
:10332000C16821F08001C1602068C16841F040019E
:10333000C160D8E7206A0088C0F308004860206AAE
:10334000801C2062E5E74006CDD55006CBD5CA6883
:10335000204622F04002CA6084F8413000F0C3F8F1
:10336000C1E70000533C000870B5040004D094F895
:103370004100002510B106E0012070BD84F84050E6
:10338000204600F023F8242084F841002068C1681A
:1033900021F40051C160204600F0ECFC2068016976
:1033A00021F4904101612068416921F02A014161C5
:1033B0002068C16841F40051C1606564202084F830
:1033C000410084F842006563002070BD10B586B0EE
:1033D000044614216846FDF713F81749206888420F
:1033E00028D116480021026842F4003202600068C9
:1033F00000F40030059011481038026842F00802CD
:103400000260006800F00800059060200090022033
:10341000CDE9010103200390072004906946084884
:10342000FEF712FC002211462620FEF779FD262029
:10343000FEF768FD06B010BD004400404038024071
:10344000000C024070472DE9F843044690F8410013
:10345000984616460D46202802D00220BDE8F88383
:1034600085B17EB100206064212084F84100FEF720
:10347000E9FCA6848146E684A0682027B0F5805F39
:1034800002D003E00120E9E7206910B12E460025B3
:103490000EE000260CE08021204600F0F1FCA8B9E7
:1034A000C6B116F8010B21684860E08C401EE0842C
:1034B000E08C4B464FF00002CDF800800028EAD1A6
:1034C0004FF04001204600F0DBFC40B184F8417031
:1034D0000320C3E735F8020BC0F30800E3E784F8E4
:1034E00041700020BAE77047FEE7000070B586B073
:1034F00014216846FCF784FF21480024016841F04C
:1035000002010160016801F002010591016841F0CA
:1035100001010160016801F001010591016841F0BC
:1035200008010160016801F008010591016841F09E
:10353000800101600068134E00F080004FF4E055F8
:103540000590002229463046FEF776FC00950125BD
:10355000CDE90154694630460394FEF775FB10200F
:10356000CDE90004694608480294FEF76DFBCDE9F9
:103570000054694605480294FEF766FB06B070BD2C
:1035800030380240001C02400000024000040240AB
:103590000F4810B50D4901604FF482714160002160
:1035A0008160C1604FF400720161C0E90512C16120
:1035B0000162416281620A21C162FEF788FF002830
:1035C00003D0BDE81040FEF7CFBA10BD0030014077
:1035D0008800002010B586B000241648009401949D
:1035E0000294039404944FF0804105940160A32158
:1035F000C0E901146321C0E903148461FFF7C6FA2E
:1036000008B1FEF7B1FA4FF48050009069460948BE
:10361000FFF746FB08B1FEF7A7FA049404A9054892
:103620000594FFF76BFA002801D0FEF79DFA06B06B
:1036300010BD0000E00000200C4810B50A490160F0
:103640004FF4E1314160002181600C22C160C0E98A
:1036500004128161C161FFF787FE002803D0BDE835
:103660001040FEF781BA10BD004400402801002040
:10367000F5EEC01AB0EE413AF0EE603AB0EE404AD4
:10368000F1EE10FA00B58E4A034609D1B5EEC02A14
:10369000F1EE10FA04D1F5EEC02AF1EE10FA73D073
:1036A00021EEA10A02EE020A02EEA20A00F09CFE3E
:1036B00021EE801A62EE004A62EE801A92ED030A51
:1036C000D2ED050A92ED042A92ED025A60EE200A2C
:1036D00092ED020A40EE420A92ED020A92ED032AAE
:1036E00060EE022A92ED040A92ED052A40EE022ACB
:1036F00092ED022AB6EE000A12EE050A92ED052AB4
:1037000092ED055A02EE050A24EE802A01EEE22A25
:1037100061EEA01A41EE401A21EE220A04EEE00A00
:10372000D2ED010AF5EEC00AF1EE10FA2DDDD2ED70
:10373000010A92ED061A60EE822ADFED620A02EEBD
:10374000A01A82ED061A92ED011A61EE212A92ED7D
:10375000071A02EEA01A82ED071A92ED011A61EE25
:10376000002A92ED081A02EEA01A82ED081AD2ED94
:10377000060A34EE204AD2ED070A73EEA03AD2EDE3
:10378000080A33EE203A08E013E0DFED4F0AC2EDFD
:10379000060AC2ED070AC2ED080AD2ED000A00EEE1
:1037A000824AD2ED000A40EEA13AD2ED000A00EEC4
:1037B000803A9FED461AD2ED031A92ED042A24EEC8
:1037C000010A63EE810A23EE011AD2ED053A21EED9
:1037D000C03AD2ED022A02EE603A03EEC13AD2EDCF
:1037E000023A33EE233A82ED023A22EE803AD2EDEB
:1037F000053A02EE013A03EEE03AD2ED033A33EE37
:10380000233A82ED033A22EEA03AD2ED053A01EED8
:10381000C13A22EE811A01EEA01A03EE803AD2EDEF
:10382000043A02EE401A33EE233A82ED043A92ED66
:10383000050A31EE000A82ED050A92ED020AD2ED88
:10384000020A92ED031A20EE200AD2ED030A00EEDE
:10385000810AD2ED040A92ED041A00EE810AD2ED3B
:10386000050A92ED051A00EE810A00F0BDFDD2EDC9
:10387000020A60EE800AC2ED020AD2ED030A60EE8F
:10388000800AC2ED030AD2ED040A60EE800AC2ED9E
:10389000040AD2ED050A20EE800A82ED050A92EDB7
:1038A000020A83ED000A92ED030A83ED010A92ED0C
:1038B000040A83ED020A92ED050A83ED030A00BDB6
:1038C000340000200000003B000000000000803AAF
:1038D000FEE7FEE77047F8B5044640684FF4827390
:1038E000984221D1A0684FF48065B0F5004F01D017
:1038F000A8420AD12068066826F040060660606883
:10390000984211D1A068A8420ED000920B46002226
:103910008021204600F044F8002804D0606D40F07B
:10392000200060650320F8BD00920B4600220121B3
:10393000EFE70000F8B515460E460B460092044628
:103940000122022100F02CF8A0B9134813490068A5
:10395000B0FBF1F04FF47A71484300906068B0F525
:10396000827F0DD13346002280212046009500F051
:1039700017F870B1606D40F0200060650320F8BD5D
:10398000009830B1401E009020688068C043000657
:10399000F6D50020F8BD00003000002000366E0192
:1039A0002DE9F8431E46914688460446089DFEF7D9
:1039B00049FA401B351AFEF745FA074625480068C4
:1039C000C0F3CB30684338E0701C37D0FEF73AFACA
:1039D000C01BA84203D215B1009860B32CE0206848
:1039E000416821F0E00141606068B0F5827F0BD151
:1039F000A068B0F5004F02D0B0F5806F04D1206808
:103A0000016821F040010160A06AB0F5005F09D1B2
:103A10002068016821F4005101602068016841F4C8
:103A200000510160012084F85100002084F850000A
:103A30000320BDE8F8830025401E009020688168BF
:103A400038EA010004D000214945BDD10020F0E74B
:103A50000121F9E7300000207047FEF7F9B90000B6
:103A600030B593B030216846FCF7CAFC14210CA88D
:103A7000FCF7C6FC1D480025016841F0805101603B
:103A8000006800F0805011901948016841F48041AD
:103A900001600068022400F4804011900120009031
:103AA000000401908001CDE9064006200890A8207E
:103AB000CDE9090404200B906846FEF74FFB08B1DE
:103AC00072B6FEE70CA90F2081E831004FF4A05038
:103AD0000F904FF48050109005210CA8FEF752FA79
:103AE000002801D072B6FEE713B030BD4038024066
:103AF000007000400248016841F4700101607047A5
:103B000088ED00E00148FFF73AB90000E00000202E
:103B1000F0B50268294C2A4D2A4E2B4F2B4B4FF003
:103B2000804CA04209D0604507D0A84205D0B042E1
:103B300003D0B84201D0984204D122F0700E4A68F6
:103B400042EA0E02A0421BD0604519D0A84217D00D
:103B5000B04215D0B84213D0984211D01C4DA842A3
:103B60000ED01C4DA8420BD01B4DA84208D01B4DB7
:103B7000A84205D01A4DA84202D01A4DA84203D13E
:103B800022F44075CA682A434D6922F080022A4314
:103B900002608A68C2620A688262A04201D09842CA
:103BA00001D109690163012141610169C90703D09C
:103BB000016921F001010161F0BD00000000014038
:103BC0000004004000080040000C004000040140D8
:103BD00000400140004401400048014000180040FE
:103BE000001C00400020004010B5846842EA032217
:103BF00024F47F440A432243826010BD826822F08D
:103C000070020A4342F007018160704710B5036AF1
:103C1000046A24F001040462846924F0F00444EA94
:103C2000021423F00A020A438461026210BD10B537
:103C3000036A046A24F010040462846923F0A00378
:103C400024F4704444EA023243EA011182610162C1
:103C500010BD10B5806B0021C185C184FFF74AFA01
:103C600010BD01680C3151E8002F22F4907241E838
:103C70000023002BF5D10168143151E8002F22F008
:103C8000010241E80023002BF5D1016B012909D184
:103C900001680C3151E8002F22F0100241E80023A6
:103CA000002BF5D1202180F84210002101637047DC
:103CB00008B590F84210222901D0022008BD826880
:103CC0004FF480539A4201D1016921B1816A9A422D
:103CD0001BD04AB10AE00268816A5268C2F3080246
:103CE0000A80816A891C08E0026972B10268526820
:103CF00002F07F020A70816A491C8162C18D491EEF
:103D00000904090CC18503D01BE002685268F1E781
:103D10000168CA6822F02002CA600168CA6822F4F9
:103D20008072CA6001684A6922F001024A6120215A
:103D300080F8421000214163026B012A03D0FFF793
:103D400081FB002008BD016301680C3151E8002FA0
:103D500022F0100241E80023002BF5D101680A6827
:103D6000D20602D50A6849680091818DFFF7C1F932
:103D7000E7E7000070B5044600680169E26821F4D5
:103D80004051114301612169A068E26908436169FA
:103D9000114308432168CA6849F20C639A430243FD
:103DA000CA6020684169A26921F4407111434161F0
:103DB00031492068884202D03049884202D1FEF75A
:103DC0008BF901E0FEF778F9E269002319216425F7
:103DD0003226B2F5004F626828D0A0FB0101930F94
:103DE0009200FCF755FA0146B0FBF5F06FF01802AF
:103DF000504301EB800006EB0010B0FBF5F000F043
:103E0000F002B1FBF5F002EB0012B1FBF5F06FF040
:103E10001803584301EB800006EB0010B0FBF5F0EF
:103E200000F00F0021681044886070BDA0FB010104
:103E300092185B41FCF72CFA0146B0FBF5F0020149
:103E4000B1FBF5F06FF01803584301EB800006EB6F
:103E5000C000B0FBF5F000F0F80002EB4002B1FB4F
:103E6000F5F0584301EB800006EBC000B0FBF5F025
:103E700000F00700D6E700000010014000140140E8
:103E80002DE9F843984617460D460446089E24E05F
:103E9000701C22D0FDF7D6FFA0EB0800B0421AD864
:103EA000CEB12068C168490717D5802D15D0402DA7
:103EB00013D00168C94309070FD401680025406881
:103EC00000902046FFF7CDFE0820606484F8405043
:103ED0000120BDE8F8830320FBE72068006835EA8D
:103EE000000004D00020B842D2D00020F1E7012029
:103EF000F9E700000148FFF7FFB8000028010020A3
:103F0000FEE703B401984100009850EAC12018BFB1
:103F100004204A0D18BF40F0010040F2FF72B2EBDE
:103F2000515F08BF40F00200012808BF052002B021
:103F300070474100080218BF04200A0E18BF40F065
:103F400001004FF07F4232EA010108BF40F0020059
:103F5000012808BF052070470907090E002804DB67
:103F600000F1E02080F80014704700F00F0000F12D
:103F7000E02080F8141D704710B54FF00E402DED75
:103F8000028BB0EE408A18EE104A00EB4400B0F10C
:103F9000506F4AD84FF0FC40B0EB440F22D2B0EE45
:103FA000C80AF7EE000A30EEC00AF6EE000A60EE2C
:103FB000208A18EE900A00F0CDFA01EE100A14F0F3
:103FC000004F1DBFDFED2D0A9FED2D0AB1EE411A06
:103FD000DFED2C0A08BF9FED2C0AF8EE001A21EE47
:103FE000218A05E0DFED290A68EE088AB0EE600A52
:103FF0009FED271ADFED271A30EE080A48EE811AE6
:104000009FED251A08EEA11ADFED241A48EE811A59
:104010009FED231A08EEA11A68EE281ABDEC028B58
:1040200001EE810A30EE200A10BD4FF0E440B0EB03
:10403000440F0CD918EE100AFFF77BFF042808BFC5
:1040400000F066F9B0EE480ABDEC028B10BD4FF0EF
:104050007F40B0EB440F07D2B0EE480ABDEC028BB4
:10406000BDE8104000F046B90120FCF7F8F9BDECBE
:10407000028BBDE8104000F043B900000000C9BF4A
:1040800022AAFDB90000C93F22AAFD3900000000A4
:1040900024FE1C3DC78AD83C1E67383D1B93993DC2
:1040A000AFAA2A3E10EE100A10B510EE901A4FF08B
:1040B000684202EB40032DED028BB3F1654F3CBF2C
:1040C00002EB4102B2F1654F7CD200BFC0F3C7538F
:1040D000C1F3C7529A1A1B2A09DD10F0004F14BF12
:1040E0009FED6E0A9FED6E0ABDEC028B10BD12F1C2
:1040F0001A0F1BDA11F0004F09D010F0004F0CBF5F
:104100009FED680A9FED680ABDEC028B10BD80EE42
:10411000208A18EE100AFFF70CFF042808BF00F0F1
:10412000F7F8B0EE480ABDEC028B10BD4200B2EBCE
:10413000410F37D910F0004F19BFDFED5C1A9FED2A
:104140005C1ADFED5C1A9FED5C1AB0EE602A0A463D
:10415000F1EE400A80F00041B0EE420A10460A1A21
:104160005200B2F1807F34D2484010F0004FDFEDB2
:10417000532A9FED533A1DBFBEEE002A71EEE21A9C
:1041800031EE431AB6EE002A04BF71EEA21A31EEE8
:10419000031AF0EE402A42EE602A40EE020A82EE56
:1041A000A02A18E011F0004F04BF9FED461AF0EE70
:1041B000411AD4D010F0004F1CBFDFED431A9FED21
:1041C000431A00E026E004BFDFED411A9FED411ADB
:1041D000C5E780EE202A22EE020ADFED3F0ADFED7E
:1041E0003F2ABDEC028B40EE202ADFED3D0A40EE77
:1041F000220ADFED3C2A40EE202ADFED3B0A40EEAA
:10420000220A22EE000A00EE201A31EE020A30EEF7
:10421000210A10BD4FF07F42B2EB400F28BFB2EB36
:10422000410F05D2BDEC028BBDE8104000F065B82F
:1042300040EA01035B0008BF41F0FF410BD0B2EB45
:10424000400F08BFB2EB410F08D120F0804000EED4
:10425000100A21F0804100EE901A37E7B2EB400FD0
:1042600012BF5FEA410240F0FF4001F000413FF41D
:104270002DAF4A0092EA40033FF528AF002AACBFB9
:104280009FED1A1A9FED1A1A20EE010A60EE810ABC
:1042900010EE100A10EE901A18E70000DB0FC9BFED
:1042A000DB0FC93FDB0F4940DB0F49C00000C9BF2E
:1042B00022AAFDB90000C93F22AAFD390060ED3EE7
:1042C000C30ACE3700000000000049C022AA7DBA10
:1042D0000000494022AA7D3A2DAD65BD8FB8D53D7D
:1042E0000FB511BE61C84C3EA8AAAABE0000804FFF
:1042F0000000802F30EE000A704730EE200A704731
:10430000DFED020A80EEA00A704700000000000006
:104310009FED020A20EE000A704700000000001026
:1043200013B54FF6FF73012269460248FFF78BF879
:1043300000981CBD280100202DE9F0411D462DEDFF
:10434000028BB7EE008A90ED000A90ED011AF0EEB4
:10435000008A60EE001AF0EE480A16460F4641EE5B
:10436000011A044651EEA80AD0ED031A20EE210AE4
:10437000D0ED021A01EE210A20EE280AFFF792FE84
:1043800087ED000A94ED010AD4ED030A94ED021AB8
:1043900020EE200AD4ED000A00EEC10AF8EE000A71
:1043A00020EE200AFFF7E8FD86ED000A94ED001AE2
:1043B00094ED030AF0EE480A61EE011A40EE001A8D
:1043C00051EEA80AD4ED011A21EE211AD4ED021AF9
:1043D00001EE801A21EE280AFFF764FE85ED000A3F
:1043E000BDEC028BBDE8F08110EE100AF6EE000A7B
:1043F000074960EE200AA1EB600000EE100A20EEF3
:10440000801AF7EE080A41EE400A20EE800A704753
:10441000DF59375FFDF724FDFFF722FBFFF766F852
:10442000FFF7B6F8FFF708F9FFF7D4F8424E00227D
:1044300010213046FDF700FD404C7E204FF47A7588
:1044400060702B460122611C3D48FEF792F93C4802
:10445000FEF73AF80328FAD03849B62767702B469A
:104460000122491C3648FEF784F93548FEF72CF83E
:104470000328FAD00120FDF7D5FB01221021304698
:10448000FDF7DAFC002210213046FDF7D5FC7D2037
:104490002A4960702B460122491C2948FEF769F918
:1044A0002748FEF711F80328FAD00420234960704A
:1044B0002B460122491C2248FEF75BF92048FEF7F3
:1044C00003F80328FAD00120FDF7ACFB01221021EC
:1044D0003046FDF7B1FC1B4E002201213046FDF7AE
:1044E000ABFC1420154960702B460122491C14486E
:1044F000FEF73FF91248FDF7E7FF0328FAD00F490E
:1045000067702B460122491C0D48FEF732F90C4812
:10451000FDF7DAFF0328FAD01E20FDF783FB012206
:1045200011463046FDF788FC0748FEF779FB07A0E7
:10453000FBF726FFFBE70000000002400000002020
:104540008800002000040240E000002068656C6CD8
:104550006F00000010B500EE100A2DED028BB1EED9
:10456000C08A18EE100A20F00040C0F1FF40C00FD2
:104570000AD010EE100A20F00040C0F1FF40C00F3A
:1045800004BF0120FBF76BFF18EE100ABDEC028B95
:1045900010BD000010B500290AD00878002807D007
:1045A00005487844FCF78EFC002801D0002010BD9F
:1045B0000248784410BD0000F2010000EA0100004A
:1045C0000808A0F500114FEA3101704743004FEA97
:1045D000D30C4FEA3C0C43401FBF40070CF1605125
:1045E00013F0FE4F70471CF0006F03D100200CF059
:1045F000004170470CF0004343EA507010B540EAA8
:10460000CC0000F00EF800BF000000924FEA00015D
:10461000FFF7D6BF4FF000414FF00000A1F5002199
:1046200070470EF1020E2EF0030E5EF8044B24428A
:1046300004D44FEA4102B2F17F4F11D84FEA400350
:10464000B3F17F4F0CD80ED14FEAD07CB2F17F4F3F
:104650000CEB4C0C0CF1020C08BF4CEBD17C04E0D1
:104660004FF0080C01E04FEAD17C0CEB4C0324FA2C
:1046700003F404F00704B4F1040C06D20EEB840C2E
:10468000BDE810404CF0010C6047DFE80CF0070873
:1046900002024FF00040A0F5800010BD0846420025
:1046A00018BFD2F1807288BF00F0004010BD4FF0FB
:1046B0004070E1EE100A7047FBF7B0BF0000000049
:1046C00000000000010203040607080900000000C2
:1046D0000102030402400000000000A000000000EE
:1046E00005400000000000C8000000000C40000071
:1046F0000000409C00000000194000000020BCBEEB
:104700000000000034400000BFC91B8E0000000400
:10471000B5400000504BCFD06607E2CF010000004B
:104720006C4100003E8251AADFEEA7340100000078
:10473000D9420000DCB5A0E23A301F97FFFFFFFF2F
:10474000B4450000FD25A0C8E9A3C14FFFFFFFFF4E
:10475000FF3F00000000008000000000FF3F00005D
:1047600000000080000000003A7474003A74740085
:104770003A747400B0470008000000206400000094
:10478000C401000814480008640000206C08000000
:10479000E00100081C00000043000000F8FFFFFFDC
:1047A0000C0000000E0000000F0000002E000000B2
:1047B00000000000E7416B3A58A08B3A000000006F
:1047C000000000000000803F00000000000000002A
:1047D00000000000010000001000000000000000C8
:1047E0000024F4000000803F000000000000803F33
:1047F00000000000000000000000000000000000B9
:1048000000000000000000000000000000000000A8
:0448100000000000A4
:040000050800018965
:00000001FF
