:020000040800F2
:100000008007002029020008FB1B00086318000875
:10001000F91B00083B0400087F1F000800000000D7
:10002000000000000000000000000000811D00082A
:100030003D04000800000000FD1B0008831D0008AF
:10004000430200084302000843020008430200087C
:10005000430200084302000843020008430200086C
:10006000430200084302000843020008430200085C
:10007000430200084302000843020008430200084C
:10008000430200084302000843020008430200083C
:10009000430200084302000843020008430200082C
:1000A000430200084302000843020008430200081C
:1000B000311E000843020008430200084302000802
:1000C00043020008430200084302000843020008FC
:1000D00043020008430200084302000843020008EC
:1000E00043020008430200084302000843020008DC
:1000F00043020008430200084302000843020008CC
:1001000043020008430200084302000843020008BB
:1001100043020008430200084302000843020008AB
:10012000430200084302000843020008430200089B
:10013000430200084302000843020008430200088B
:10014000430200084302000843020008430200087B
:10015000430200084302000843020008430200086B
:10016000430200084302000843020008430200085B
:100170004302000843020008430200080000000098
:10018000430200084302000800F002F800F03CF8C7
:100190000AA090E8000C82448344AAF10107DA45E2
:1001A00001D100F031F8AFF2090EBAE80F0013F0F8
:1001B000010F18BFFB1A43F0010318471424000075
:1001C00034240000103A24BF78C878C1FAD8520706
:1001D00024BF30C830C144BF04680C6070470000C1
:1001E0000023002400250026103A28BF78C1FBD840
:1001F000520728BF30C148BF0B6070471FB502F0DF
:10020000DAF91FBD10B510BD00F0E2F81146FFF796
:10021000F5FF02F01BF900F000F903B4FFF7F2FF5D
:1002200003BC00F003F90000094880470948004773
:10023000FEE7FEE7FEE7FEE7FEE7FEE7FEE7FEE796
:10024000FEE7FEE704480549054A064B70470000F3
:10025000211E00088901000880010020800700207D
:10026000800300208003002053EA020C00F0698024
:100270002DE9F04B4FF00006002B1FBFB3FA83F5BA
:1002800003FA05F424FA05F65E4012BF1643B2FAEB
:1002900082F502FA05F4C5F120051EBF22FA05FC1D
:1002A00044EA0C04203556EA044C4FEA144418BFC3
:1002B000641C4FF000084FF00009904271EB030CF2
:1002C00039D3002919BFB1FA81F701FA07F6B0FA5C
:1002D00080F700FA07F6C7F120071EBF20FA07FCD7
:1002E00046EA0C062037B6FBF4FCA7EB0507103FE7
:1002F00007F01F0BCBF120060CFA0BFB2CFA06F6CD
:1003000044BFB3460026202FA4BF5E464FF0000B2B
:100310005BEA060C08BF4FF0010B19EB0B09ABFBB6
:10032000027C48EB0608C01B06FB02CC0BFB03CC8F
:1003300071EB0C01C1E70B46024641464846BDE859
:10034000F08B13B54FF000004FF00001AFF30080C9
:10035000BDE81C4070474FF0000200B513469446BC
:100360009646203922BFA0E80C50A0E80C50B1F10D
:100370002001BFF4F7AF090728BFA0E80C5048BF21
:100380000CC05DF804EB890028BF40F8042B08BFBF
:10039000704748BF20F8022B11F0804F18BF00F8BB
:1003A000012B704770477047704710B500F008F890
:1003B000006810BD10B5044600F002F8046010BDDE
:1003C000004870471C010020004870471C010020B5
:1003D0007546FFF7F9FFAE4605006946534620F023
:1003E0000700854618B020B5FFF72CFFBDE8204078
:1003F0004FF000064FF000074FF000084FF0000BE1
:1004000021F00701AC46ACE8C009ACE8C009ACE893
:10041000C009ACE8C0098D46704710B50446AFF37B
:1004200000802046BDE81040FFF7F7BE01491820C4
:10043000ABBEFEE7260002007047FEE7704772B6CB
:10044000FEE7000070B5044600F00CF90546601C9C
:1004500002D004480078044400F004F9401BA04294
:10046000FAD370BD240000202DE9F84FDFF8BCA1BD
:100470000022012503264FF00F090AF1040BAAF10F
:10048000040E00BF0B6805FA02F42340A34270D1AA
:100490000F7907F00307012F01D0022F16D18768CB
:1004A0004FEA420806FA08FC27EA0C07D1F80CC00C
:1004B0000CFA08FC4CEA070CC0F808C04768A743D0
:1004C0000C79C4F3001494403C4344600C79E44339
:1004D000A4070AD0C4684FEA420C06FA0CF7BC43E2
:1004E0008F6807FA0CF72743C7600C7904F0030400
:1004F000022C12D1D40800EB840CDCF82040570702
:10050000FF0E09FA07F824EA0804D1F8108008FA67
:1005100007F848EA0408CCF8208004684FEA420C47
:1005200006FA0CF7BC430F7907F0030707FA0CF73C
:10053000274307604C6814F4403F70D03C4C276858
:1005400047F480472760246822F0030704F48044BE
:100550000094384C07EB040CDCF8084897074FEA86
:10056000177809FA08F7BC43334FB84202D1002785
:1005700024E054E0314FB84201D101271EE0304F52
:10058000B84201D1022719E02E4FB84201D103270A
:1005900014E02D4FB84201D104270FE02B4FB84291
:1005A00001D105270AE02A4FB84201D1062705E00C
:1005B000284FB84201D1072700E0082707FA08F7BB
:1005C0002743CCF80878DAF800405746D1F804C041
:1005D0009C435FEACC2C00D51C433C60DBF8004018
:1005E0005F46D1F804C09C435FEA8C2C00D51C43C5
:1005F0003C60DEF800407746D1F804C09C435FEAD7
:100600008C3C00D51C433C60084F083F3C68D1F847
:1006100004C09C435FEACC3C00D51C433C60521CA8
:10062000102AFFF42FAFBDE8F88F0000083C01400E
:100630004438024000300140000002400004024003
:1006400000080240000C024000100240001402406A
:1006500000180240001C02400AB181617047090481
:10066000FBE700000148806870470000240000207C
:10067000024881680278114481607047240000209C
:100680000B4810B5016841F400710160016841F444
:1006900080610160016841F480710160032000F015
:1006A0006FF80F2000F006F800F024F8002010BDCD
:1006B000003C024070B50D4D04464FF47A71287825
:1006C000B1FBF0F00A490968B1FBF0F000F0EFFD72
:1006D00048B9102C07D200222146501E00F030F8F5
:1006E00000206C6070BD012070BD0000240000205F
:1006F000300000200A4808B5016841F480410160DB
:10070000006800F4804000900548001F016841F037
:1007100080510160006800F08050009008BD00002A
:1007200044380240002809DB00F01F0201219140FB
:100730004009800000F1E020C0F80011704700007F
:10074000F0B40E4B1B680C46C3F30223C3F107053C
:10075000042D00D90425191D072901D2002300E02A
:10076000DB1E012606FA05F1491E214099409E40F4
:10077000761E16403143F0BC01F015BC0CED00E0D4
:10078000064900F0070208684FF6FF03184040EAE8
:100790000220034A10430860704700000CED00E09F
:1007A0000000FA052DE9F0470E46050065D0DFF898
:1007B0001481D8F80000F7B200F00700B04207D269
:1007C00088F80070D8F8000000F00700B04254D15B
:1007D00028683D4C810712D5400703D5206840F4B6
:1007E000E05020602878000703D5206840F460407E
:1007F00020602068A96820F0F00008432060287875
:10080000C0072DD0304968680839012812D0022865
:1008100013D0032811D00968890700292DDA21682F
:1008200021F0030101432160FFF71CFF814641F2E3
:10083000883A0EE009688903EFE709688901ECE767
:10084000FFF710FFA0EB0901514502D90320BDE8D5
:10085000F0872068696800F00C00B0EB810FEFD1E1
:10086000D8F80010404601F00701B14207D90770DF
:10087000006800F00700B04201D00120E7E72878C7
:10088000400705D52068E96820F4E050084320605F
:100890002878000706D52068296920F4604040EADE
:1008A000C100206000F018F82168084AC1F3031164
:1008B000515CC8400649086006480068FFF7FAFE28
:1008C0000020C4E7003C024008380240C025000870
:1008D0003000002028000020154810B5006810F0F6
:1008E0000C02144813D01449042A0FD0082A0ED140
:1008F0000F4C241F2268236802F03F025B0207D5D9
:100900002068C0F38810A0FB010106E0084610BD76
:100910002168C1F38811A1FB00010023FFF7A4FCAB
:100920002168C1F30141491C4900B0FBF1F010BD41
:10093000083802400024F40040787D012DE9F84F8A
:1009400004006ED02078DFF84C93C007A9F10405AD
:100950004AD009F104000168C1F38101012908D0DE
:100960000068C0F3810002280AD1D9F800004002D3
:1009700006D52868800337D560680028E1D033E0C9
:100980006068B0F5803F10D0B0F5A02F286810D077
:1009900020F480302860286820F480202860606877
:1009A000A8B1FFF75FFE06460DE0286840F48030EE
:1009B000F4E740F480202860F7E700BFFFF752FE1D
:1009C000801B642873D828688003F7D50CE0FFF7F4
:1009D00049FE064605E000BFFFF744FE801B642881
:1009E000F0D828688003F7D42078DFF8AC8280073D
:1009F0004FF0000A3ED5A748001D016811F00C0F0A
:100A000008D00068C0F3810002280BD1D9F800009B
:100A1000400207D42868800716D5E068012800D175
:100A200012E033E1E068B8B10120C8F80000FFF738
:100A300019FE064605E000BFFFF714FE801B0228E2
:100A4000C0D828688007F7D52868216920F0F80009
:100A500040EAC10028600DE0C8F800A0FFF702FEE0
:100A6000064604E0FFF7FEFD801B02281FD8286819
:100A70008007F7D42078000722D5864F8748616920
:100A8000703771B101210160FFF7ECFD064604E00B
:100A9000FFF7E8FD801B022809D838688007F7D5E2
:100AA0000EE0C0F800A0FFF7DDFD064605E082E09D
:100AB000FFF7D8FD801B02287DD838688007F7D45F
:100AC0002078400768D5DFF8CCB100270BF13C0B4C
:100AD000DBF80000C0000BD4DBF8001041F08051BF
:100AE000CBF80010DBF80000012700F080500090E8
:100AF0006B4E3068C00510D4306840F480703060B0
:100B0000FFF7B0FD009005E0FFF7ACFD0099401A3B
:100B1000022850D83068C005F6D55E4EA0686C3605
:100B200001280FD00528306810D020F00100306077
:100B3000306820F004003060A068B8B1FFF792FD83
:100B400000900FE0306840F00100F4E740F004004E
:100B50003060F7E7FFF786FD0099411A41F28830CF
:100B6000814266D830688007F4D50EE0FFF77AFD41
:100B7000009007E0FFF776FD0099411A41F28830B6
:100B8000814256D830688007F4D42FB1DBF80010CA
:100B900021F08051CBF80010A069C8B33D49091D70
:100BA0000968C1F3810102294AD00228504607D0C2
:100BB000C8F8600000E03CE0FFF754FD04463BE06D
:100BC0004746C8F86000FFF74DFD064605E000BF48
:100BD000FFF748FD801B02282BD828688001F7D436
:100BE000D4E907010843A16A2E4A490802EB0141F2
:100BF000626A41EA8211084394F82C1040EA0161CC
:100C0000C9F8001001203866FFF72CFD044606E005
:100C10003EE000BFFFF726FD001B022809D8286828
:100C20008001F7D534E000BFFFF71CFD001B022850
:100C300002D90320BDE8F88F28688001F4D427E0AA
:100C40000128F7D0D9F80000E26900F48001914250
:100C50001CD1226A00F03F01914217D147F6C071C2
:100C6000626A0140B1EB821F10D1A26A4FF0FF33DC
:100C700000F4403103EB5202B1EB024F06D194F87D
:100C80002C1000F07060B0EB016F01D00120D1E7B3
:100C90000020CFE70438024000004742800E474260
:100CA000007000400000FFFF90F85100704770B5E1
:100CB000040009D0606A002540B125616561A56224
:100CC00094F8510040B10CE0012070BD6068B0F5AF
:100CD000827FF4D0E561F2E784F85050204600F0BE
:100CE00045F8022084F851002068016821F0400195
:100CF0000160A088218900F4827001F40441084356
:100D0000A18901F400610843217C01F0020108433C
:100D1000217D01F001010843218B01F4007108439A
:100D2000217F01F03801084394F8201001F0800180
:100D30000843218D01F40051084321680860A0692F
:100D4000042101EA104094F8241001F01001084336
:100D5000216848602068C16921F40061C16165654E
:100D6000012084F85100002070BD0000F0B587B06C
:100D7000044614216846FFF7EEFA1C4920688842B1
:100D800032D11B480024016841F4805101600068A1
:100D900000F48050059016481438016841F00201B3
:100DA0000160016801F002010591016841F0010153
:100DB00001600068022500F0010005901820CDE9CF
:100DC000000502AA0326052782E8D00069460948E3
:100DD000FFF74AFB8020CDE9000502AA694682E8B8
:100DE000D0000548FFF740FB07B0F0BD00300140E0
:100DF0004438024000040240000002402DE9F84F50
:100E0000044690F85100984616460F4600250128E2
:100E100001D0022598E060684FF0040BB0F5827FA6
:100E200001D1A068F8B194F85000012826D04FF005
:100E3000010984F85090FFF715FC8246002F7FD0FF
:100E4000002E7DD084F851B000206065A763A6878E
:100E5000E6872063A086E08620646064A068B0F521
:100E6000004F0DD016E084F851B013460A462046D4
:100E7000CDF8008000F024F9BDE8F88F0220FBE7F0
:100E80002068016821F0400101602068016821F4B8
:100E90008041016020680168490603D4016841F07F
:100EA00040010160E068D8B13BE020688168C90773
:100EB00009D0007BA16B0870A06B401CA063E08F81
:100EC000401EE0870CE0FFF7CDFBA0EB0A01414597
:100ED00003D3B8F1FF3F03D006E0B8F1000F03D011
:100EE000E08F0028E1D11FE003252BE02068816816
:100EF000C90709D0C068A16B0880A06B801CA063E3
:100F0000E08F401EE0870CE0FFF7ACFBA0EB0A018E
:100F1000414503D3B8F1FF3F03D0E5E7B8F1000F37
:100F2000E2D0E08F0028E1D152464146204600F051
:100F300066FE08B120206065606D00E000E008B149
:100F4000012501E084F85190002084F850002846E3
:100F500092E72DE9F84F044690F850000026984695
:100F600015468A4601280CD0012784F85070FFF7F7
:100F700079FB814694F85100B346012804D002263B
:100F80009AE00220BDE8F88FBAF1000F6FD0002D73
:100F90006DD0032084F85100C4F854B0C4F830A0D8
:100FA000A586E586C4F838B0A4F83CB0A4F83EB0F5
:100FB000C4F844B0C4F840B0A068B0F5004F09D1FF
:100FC0002068016821F0400101602068016841F457
:100FD0008041016020680168490603D4016841F03E
:100FE00040010160E068B0F5006F606803D058B35D
:100FF000012D29D049E008B1012D1FD1206B2168B6
:101000000088C86006E020688168890709D5216BDF
:101010000988C160206B801C2063E08E401EE08642
:101020000CE0FFF71FFBA0EB0901414503D3B8F12A
:10103000FF3F03D006E0B8F1000F03D0E08E002898
:10104000E1D125E0032635E0206B216800780873A4
:1010500006E02068816889070AD5216B0978017349
:10106000206B401C2063E08E401EE0860DE01FE0F8
:10107000FFF7F8FAA0EB0901414503D3B8F1FF3FB0
:1010800003D0DFE7B8F1000FDCD0E08E0028E0D11C
:101090004A464146204600F0E1FD08B12020606547
:1010A000A06818B92068C16880680090606D08B1B8
:1010B000012601E084F8517084F850B0304661E7B1
:1010C0002DE9FF4F81B0044690F8500000260E9F96
:1010D0001D4693464FF0010901280FD04FF0010A39
:1010E00084F850A0FFF7BEFA804694F8510061687A
:1010F00001280DD0B1F5827F08D103E0022005B0B0
:10110000BDE8F08FA16809B9042801D00226C9E022
:101110000298002865D0BBF1000FFBD0002DF9D05C
:1011200094F85100042802D0052084F851000020D2
:101130006065C4F838B0E587A58702992163E58624
:10114000A5862064606420680168490603D40168AC
:1011500041F040010160E068B0F5006F606803D0C5
:10116000F0B3012D47D081E008B1012D3CD1206BB7
:1011700021680088C860206B801C2063E08E401EC0
:10118000E08631E02068816889070FD5E18E69B17A
:10119000B9F1010F0AD1216B0988C160206B801C55
:1011A0002063E08E401EE0864FF0000920688168D1
:1011B000C9070CD0E18F51B1C068A16B0880A06B4A
:1011C000801CA063E08F401EE0874FF00109FFF70D
:1011D00049FAA0EB0800B84206D3781C04D001E01D
:1011E00009E05BE003265BE0E08E0028CAD1E08FD7
:1011F0000028C7D140E0206B216800780873206B7D
:10120000401C2063E08E401EE0862FE0206881684D
:1012100089070FD5E18E69B1B9F1010F0AD1216BB0
:1012200009780173206B401C2063E08E401EE0862D
:101230004FF0000920688168C9070CD0E18F51B1D7
:10124000C068A16B0870A06B401CA063E08F401EBB
:10125000E0874FF00109FFF705FAA0EB0800B8425C
:1012600002D3781C02D0BAE7002FB8D0E08E002855
:10127000CCD1E08F0028C9D142463946204600F043
:10128000EDFC18B10126202060650BE0A06818B9BC
:101290002068C16880680090606D08B1012601E097
:1012A00084F851A0002084F85000304627E710B59C
:1012B000401EB0F1807F01D3012010BD4FF0E0242B
:1012C00060610F21601700F06EFE0020A061072012
:1012D0002061002010BD70477047000070B590F885
:1012E0003C20012A32D0012480F83C40022280F8C0
:1012F0003D2003685A689D6822F070060A683243F0
:101300005A60134B02689A4214D0B2F1804F11D048
:10131000104B9A420ED0104B9A420BD00F4B9A4270
:1013200008D00F4B9A4205D00E4B9A4202D00E4B7A
:101330009A4204D1496825F080031943916080F8EE
:101340003D40002180F83C10084670BD022070BD71
:10135000000001400004004000080040000C004074
:1013600000040140004001400018004010B5040096
:1013700003D094F83D0010B107E0012010BD00201B
:1013800084F83C00204600F01FF8022084F83D005D
:10139000211D206800F052FD012084F8460084F8E9
:1013A0003E0084F83F0084F8400084F8410084F84F
:1013B000420084F8430084F8440084F8450084F82F
:1013C0003D00002010BD000008B50068B0F1804F5E
:1013D00012D10A48016841F0010101600068002251
:1013E00000F00100009011461C20FFF7A9F9BDE8AC
:1013F00008401C20FFF796B908BD000040380240A5
:1014000090F83D10012901D001207047022180F899
:101410003D100168CA6842F00102CA6000681149C3
:10142000884214D0B0F1804F11D00F4988420ED0BD
:101430000E4988420BD00E49884208D00D49884297
:1014400005D00D49884202D00C49884204D18168F8
:1014500001F00701062903D0016841F00101016094
:1014600000207047000001400004004000080040D8
:10147000000C004000040140004001400018004002
:1014800070B5044690F83C000025012817D00126CD
:1014900084F83C60022084F83D002068826822F0D5
:1014A000770222F47F4282600868502838D00DDC31
:1014B00020284FD005DC90B3102811D14AE002203B
:1014C00070BD302846D040280AD13BE060282FD09C
:1014D00070280DD0B0F5805F03D0B0F5005F12D05A
:1014E000012584F83D60002084F83C00284670BD4A
:1014F000CB68D1E90121206800F00CFD20688168EB
:1015000041F0770109E0CB68D1E90121206800F0C2
:1015100001FD2068816841F480418160E1E719E0C4
:10152000CA684968206800F007FD5021206806E07D
:10153000CA684968206800F010FD6021206800F04A
:10154000F3FCCEE7CA684968206800F0F5FC40214A
:101550002068F4E7226801461046F0E770472DE95D
:10156000F04104460068C66805694FF00007A90706
:1015700013D5B10711D5F91E01610120207720682C
:1015800080698007204602D0FFF7E8FF04E000F002
:101590007EF8204600F07CF82777680716D570079C
:1015A00014D521686FF004000861022020772068BC
:1015B000806910F4407F204602D0FFF7CFFF04E09F
:1015C00000F065F8204600F063F82777280715D566
:1015D000300713D521686FF00800086104202077D8
:1015E0002068C0698007204602D0FFF7B7FF04E0FB
:1015F00000F04DF8204600F04BF82777E80616D5A6
:10160000F00614D521686FF01000086108202077DB
:101610002068C06910F4407F204602D0FFF79EFF8B
:1016200004E000F034F8204600F032F82777E807AD
:1016300008D0F00706D021686FF00100086120464D
:1016400000F028F8280608D5300606D521686FF086
:10165000800008612046FFF73EFE680608D5700648
:1016600006D521686FF040000861204600F0F8F8C8
:10167000A8060AD5B00608D521686FF020000861D9
:101680002046BDE8F041FFF727BEBDE8F081704776
:10169000704700002DE9F0476C4E002210213046C3
:1016A000FEF7DAFF6A4C92204FF47A7560702B4691
:1016B0000122611C6748FFF74CFC6648FFF7F4FA0B
:1016C0000328FAD062492B460122891C6148FFF7A2
:1016D00095FB6048FFF7E8FA0428FAD0A8460027EF
:1016E0005B4D27700C355A4943460122891C5948E5
:1016F000FFF784FB5748FFF7D7FA0428FAD0207881
:10170000A1782954401CC0B220700628EBD30122D6
:1017100010213046FEF7A0FF68782978000200B259
:10172000084300EE100A4C4EDFF83091F8EEC00A84
:1017300094ED010A002260EE800AC6ED000AE87806
:10174000A978000200B2084300EE900AF8EEE00A21
:1017500060EE800AC6ED010A68792979000200B2BC
:10176000084300EE900A01214846F8EEE00A20EE18
:10177000800A86ED020AFEF76FFF80203449607010
:1017800043460122491C3348FFF7E3FB3148FFF78A
:101790008BFA0328FAD0277047462D493B46012291
:1017A000891C2C48FFF72AFB2A48FFF77DFA0428FA
:1017B000FAD02078A1782954401CC0B220700828A3
:1017C000EBD3012211464846FEF746FF224829780E
:1017D0000C300F2928D1E978AA78090209B21143FF
:1017E00000EE101AF8EEC00A94ED020A60EE800ACC
:1017F000C0ED000A69792A79090209B2114300EEA5
:10180000901AF8EEE00A60EE800AC0ED010AE9796C
:10181000AA79090209B2114300EE901AF8EEE00A23
:1018200020EE800A80ED020A90EC030A0848D6EC0C
:10183000031A143000F0B0F8BDE8F047064B044836
:101840001B1F1A1F111F143000F092BD0000024030
:10185000000000207C000020640000200004024002
:101860007047FEE7F0B587B014216846FEF773FDB8
:101870001C480024016841F002010160016801F088
:1018800002010591016841F001010160016801F068
:1018900001010591016841F0800101600068124E6C
:1018A00000F080000590002210213046FEF7D4FEA3
:1018B0000E4F002201213846FEF7CEFE1020009088
:1018C0000125CDE90154694630460394FEF7CCFD6D
:1018D0000095CDE90154694638460394FEF7C4FDEE
:1018E00007B0F0BD30380240000002400004024062
:1018F0000F4810B50D4901604FF48271416000211D
:101900008160C1604FF400720161C0E90512C161DC
:101910000162416281620A21C162FFF7C8F90028B1
:1019200003D0BDE81040FEF78ABD10BD0030014075
:101930007C00002010B586B0002416480094019465
:101940000294039404944FF0804105940160A72110
:10195000C0E901146321C0E903148461FFF706FDA7
:1019600008B1FEF76CFD4FF48050009069460948BD
:10197000FFF786FD08B1FEF762FD049404A905484F
:101980000594FFF7ABFC002801D0FEF758FD06B028
:1019900010BD0000D4000020F5EEC01AB0EE413AB0
:1019A000F0EE603AB0EE404AF1EE10FA00B58E4A21
:1019B000034609D1B5EEC02AF1EE10FA04D1F5EED6
:1019C000C02AF1EE10FA73D021EEA10A02EE020A4B
:1019D00002EEA20A00F024FD21EE801A62EE004A17
:1019E00062EE801A92ED030AD2ED050A92ED042A06
:1019F00092ED025A60EE200A92ED020A40EE420A8F
:101A000092ED020A92ED032A60EE022A92ED040A98
:101A100092ED052A40EE022A92ED022AB6EE000A65
:101A200012EE050A92ED052A92ED055A02EE050A1C
:101A300024EE802A01EEE22A61EEA01A41EE401A5D
:101A400021EE220A04EEE00AD2ED010AF5EEC00A08
:101A5000F1EE10FA2DDDD2ED010A92ED061A60EEDC
:101A6000822ADFED620A02EEA01A82ED061A92EDDA
:101A7000011A61EE212A92ED071A02EEA01A82EDF8
:101A8000071A92ED011A61EE002A92ED081A02EE91
:101A9000A01A82ED081AD2ED060A34EE204AD2EDE1
:101AA000070A73EEA03AD2ED080A33EE203A08E0B6
:101AB00013E0DFED4F0AC2ED060AC2ED070AC2EDE0
:101AC000080AD2ED000A00EE824AD2ED000A40EE8A
:101AD000A13AD2ED000A00EE803A9FED461AD2ED0F
:101AE000031A92ED042A24EE010A63EE810A23EE22
:101AF000011AD2ED053A21EEC03AD2ED022A02EEE9
:101B0000603A03EEC13AD2ED023A33EE233A82ED67
:101B1000023A22EE803AD2ED053A02EE013A03EEA5
:101B2000E03AD2ED033A33EE233A82ED033A22EE65
:101B3000A03AD2ED053A01EEC13A22EE811A01EE49
:101B4000A01A03EE803AD2ED043A02EE401A33EEC8
:101B5000233A82ED043A92ED050A31EE000A82ED55
:101B6000050A92ED020AD2ED020A92ED031A20EE66
:101B7000200AD2ED030A00EE810AD2ED040A92EDAA
:101B8000041A00EE810AD2ED050A92ED051A00EE64
:101B9000810A00F045FCD2ED020A60EE800AC2ED37
:101BA000020AD2ED030A60EE800AC2ED030AD2ED0A
:101BB000040A60EE800AC2ED040AD2ED050A20EEA6
:101BC000800A82ED050A92ED020A83ED000A92ED89
:101BD000030A83ED010A92ED040A83ED020A92EDF5
:101BE000050A83ED030A00BD340000200000003B1D
:101BF000000000000000803AFEE7FEE77047F8B5FD
:101C0000044640684FF48273984221D1A0684FF493
:101C10008065B0F5004F01D0A8420AD1206806685F
:101C200026F0400606606068984211D1A068A8427C
:101C30000ED000920B4600228021204600F044F88E
:101C4000002804D0606D40F0200060650320F8BDDE
:101C500000920B4600220121EFE70000F8B515467F
:101C60000E460B46009204460122022100F02CF899
:101C7000A0B9134813490068B0FBF1F04FF47A7132
:101C8000484300906068B0F5827F0DD13346002252
:101C900080212046009500F017F870B1606D40F08B
:101CA000200060650320F8BD009830B1401E009010
:101CB00020688068C0430006F6D50020F8BD00000B
:101CC0003000002000366E012DE9F8431E46914693
:101CD00088460446089DFEF7C5FC401B351AFEF7F2
:101CE000C1FC074625480068C0F3CB30684338E0A4
:101CF000701C37D0FEF7B6FCC01BA84203D215B14A
:101D0000009860B32CE02068416821F0E001416058
:101D10006068B0F5827F0BD1A068B0F5004F02D0AB
:101D2000B0F5806F04D12068016821F040010160A6
:101D3000A06AB0F5005F09D12068016821F4005164
:101D400001602068016841F400510160012084F8BD
:101D50005100002084F850000320BDE8F8830025DE
:101D6000401E00902068816838EA010004D00021FC
:101D70004945BDD10020F0E70121F9E730000020FE
:101D80007047FEF775BC000030B593B0302168464F
:101D9000FEF7E1FA14210CA8FEF7DDFA1E48002533
:101DA000016841F080510160006800F0805011909E
:101DB0001A48016841F4804101600068022400F47F
:101DC0008040119001200090000401908001CDE935
:101DD0000640192008904FF4A870CDE909040420AA
:101DE0000B906846FEF7AAFD08B172B6FEE70CA993
:101DF0000F2081E831004FF4A0500F904FF4805035
:101E0000109005210CA8FEF7CDFC002801D072B679
:101E1000FEE713B030BD00004038024000700040C3
:101E20000248016841F470010160704788ED00E0EC
:101E30000148FFF794BB0000D4000020F0B5026811
:101E4000294C2A4D2A4E2B4F2B4B4FF0804CA04251
:101E500009D0604507D0A84205D0B04203D0B842AF
:101E600001D0984204D122F0700E4A6842EA0E0274
:101E7000A0421BD0604519D0A84217D0B04215D05F
:101E8000B84213D0984211D01C4DA8420ED01C4D20
:101E9000A8420BD01B4DA84208D01B4DA84205D02C
:101EA0001A4DA84202D01A4DA84203D122F440751F
:101EB000CA682A434D6922F080022A4302608A6878
:101EC000C2620A688262A04201D0984201D10969C7
:101ED0000163012141610169C90703D0016921F052
:101EE00001010161F0BD000000000140000400405C
:101EF00000080040000C0040000401400040014088
:101F0000004401400048014000180040001C00400F
:101F10000020004010B5846842EA032224F47F4484
:101F20000A432243826010BD826822F070020A4395
:101F300042F007018160704710B5036A046A24F01B
:101F400001040462846924F0F00444EA021423F0DA
:101F50000A020A438461026210BD10B5036A046A72
:101F600024F010040462846923F0A00324F4704474
:101F700044EA023243EA01118261016210BDFEE7C8
:101F80004100080218BF04200A0E18BF40F00100EB
:101F90004FF07F4232EA010108BF40F00200012801
:101FA00008BF052070470907090E002804DB00F16F
:101FB000E02080F80014704700F00F0000F1E020EE
:101FC00080F8141D7047000010B54FF00E402DED45
:101FD000028BB0EE408A18EE104A00EB4400B0F1DC
:101FE000506F4AD84FF0FC40B0EB440F22D2B0EE15
:101FF000C80AF7EE000A30EEC00AF6EE000A60EEFC
:10200000208A18EE900A00F0B7FA01EE100A14F0D8
:10201000004F1DBFDFED2D0A9FED2D0AB1EE411AD5
:10202000DFED2C0A08BF9FED2C0AF8EE001A21EE16
:10203000218A05E0DFED290A68EE088AB0EE600A21
:102040009FED271ADFED271A30EE080A48EE811AB5
:102050009FED251A08EEA11ADFED241A48EE811A29
:102060009FED231A08EEA11A68EE281ABDEC028B28
:1020700001EE810A30EE200A10BD4FF0E440B0EBD3
:10208000440F0CD918EE100AFFF77AFF042808BF96
:1020900000F066F9B0EE480ABDEC028B10BD4FF0BF
:1020A0007F40B0EB440F07D2B0EE480ABDEC028B84
:1020B000BDE8104000F046B90120FEF77BF9BDEC09
:1020C000028BBDE8104000F043B900000000C9BF1A
:1020D00022AAFDB90000C93F22AAFD390000000074
:1020E00024FE1C3DC78AD83C1E67383D1B93993D92
:1020F000AFAA2A3E10EE100A10B510EE901A4FF05B
:10210000684202EB40032DED028BB3F1654F3CBFFB
:1021100002EB4102B2F1654F7CD200BFC0F3C7535E
:10212000C1F3C7529A1A1B2A09DD10F0004F14BFE1
:102130009FED6E0A9FED6E0ABDEC028B10BD12F191
:102140001A0F1BDA11F0004F09D010F0004F0CBF2E
:102150009FED680A9FED680ABDEC028B10BD80EE12
:10216000208A18EE100AFFF70BFF042808BF00F0C2
:10217000F7F8B0EE480ABDEC028B10BD4200B2EB9E
:10218000410F37D910F0004F19BFDFED5C1A9FEDFA
:102190005C1ADFED5C1A9FED5C1AB0EE602A0A460D
:1021A000F1EE400A80F00041B0EE420A10460A1AF1
:1021B0005200B2F1807F34D2484010F0004FDFED82
:1021C000532A9FED533A1DBFBEEE002A71EEE21A6C
:1021D00031EE431AB6EE002A04BF71EEA21A31EEB8
:1021E000031AF0EE402A42EE602A40EE020A82EE26
:1021F000A02A18E011F0004F04BF9FED461AF0EE40
:10220000411AD4D010F0004F1CBFDFED431A9FEDF0
:10221000431A00E026E004BFDFED411A9FED411AAA
:10222000C5E780EE202A22EE020ADFED3F0ADFED4D
:102230003F2ABDEC028B40EE202ADFED3D0A40EE46
:10224000220ADFED3C2A40EE202ADFED3B0A40EE79
:10225000220A22EE000A00EE201A31EE020A30EEC7
:10226000210A10BD4FF07F42B2EB400F28BFB2EB06
:10227000410F05D2BDEC028BBDE8104000F065B8FF
:1022800040EA01035B0008BF41F0FF410BD0B2EB15
:10229000400F08BFB2EB410F08D120F0804000EEA4
:1022A000100A21F0804100EE901A37E7B2EB400FA0
:1022B00012BF5FEA410240F0FF4001F000413FF4ED
:1022C0002DAF4A0092EA40033FF528AF002AACBF89
:1022D0009FED1A1A9FED1A1A20EE010A60EE810A8C
:1022E00010EE100A10EE901A18E70000DB0FC9BFBD
:1022F000DB0FC93FDB0F4940DB0F49C00000C9BFFE
:1023000022AAFDB90000C93F22AAFD390060ED3EB6
:10231000C30ACE3700000000000049C022AA7DBADF
:102320000000494022AA7D3A2DAD65BD8FB8D53D4C
:102330000FB511BE61C84C3EA8AAAABE0000804FCE
:102340000000802F30EE000A704730EE200A704700
:10235000DFED020A80EEA00A7047000000000000D6
:102360009FED020A20EE000A7047000000000010F6
:102370002DE9F0411D462DED028BB7EE008A90ED60
:10238000000A90ED011AF0EE008A60EE001AF0EEFD
:10239000480A16460F4641EE011A044651EEA80AB5
:1023A000D0ED031A20EE210AD0ED021A01EE210A27
:1023B00020EE280AFFF79EFE87ED000A94ED010A41
:1023C000D4ED030A94ED021A20EE200AD4ED000A9F
:1023D00000EEC10AF8EE000A20EE200AFFF7F4FD35
:1023E00086ED000A94ED001A94ED030AF0EE480A17
:1023F00061EE011A40EE001A51EEA80AD4ED011A5E
:1024000021EE211AD4ED021A01EE801A21EE280ADB
:10241000FFF770FE85ED000ABDEC028BBDE8F08190
:1024200010EE100AF6EE000A074960EE200AA1EB52
:10243000600000EE100A20EE801AF7EE080A41EE66
:10244000400A20EE800A7047DF59375FFEF718F91F
:10245000FFF79AFCFFF706FAFFF74AFAFFF76AFA66
:10246000404E002210213046FEF7F6F83E4C7E200A
:102470004FF47A7560702B460122611C3B48FEF7D1
:1024800068FD3A48FEF710FC0328FAD03649B62713
:1024900067702B460122491C3448FEF75AFD334829
:1024A000FEF702FC0328FAD00120FDF7CBFF012242
:1024B00010213046FEF7D0F8002210213046FEF7FA
:1024C000CBF87D20284960702B460122491C274803
:1024D000FEF73FFD2548FEF7E7FB0328FAD004206E
:1024E000214960702B460122491C2048FEF731FD2E
:1024F0001E48FEF7D9FB0328FAD00120FDF7A2FF02
:10250000012210213046FEF7A7F8194E00220121C2
:102510003046FEF7A1F81420134960702B460122C3
:10252000491C1248FEF715FD1048FEF7BDFB0328B5
:10253000FAD00D4967702B460122491C0B48FEF763
:1025400008FD0A48FEF7B0FB0328FAD01E20FDF76D
:1025500079FF012211463046FEF77EF80548FEF766
:102560004FFFFEE700000240000000207C0000203A
:1025700000040240D400002010B500EE100A2DED3A
:10258000028BB1EEC08A18EE100A20F00040C0F1B4
:10259000FF40C00F0AD010EE100A20F00040C0F13A
:1025A000FF40C00F04BF0120FDF704FF18EE100A22
:1025B000BDEC028B10BD4FF04070E1EE100A704789
:1025C00000000000000000000102030406070809E3
:1025D000F02500080000002058000000C401000899
:1025E000482600085800002028070000E0010008E5
:1025F00000000000E7416B3A58A08B3A0000000051
:10260000000000000000803F00000000000000000B
:1026100000000000010000001000000000000000A9
:102620000024F4000000803F000000000000803F14
:10263000000000000000000000000000000000009A
:08264000000000000000000092
:040000050800018965
:00000001FF
