:020000040800F2
:10000000988F002061020008DD3B0008853500085C
:10001000D93B0008D1080008BD47000800000000D7
:10002000000000000000000000000000A101000826
:10003000B709000800000000FD010008CD3E0008DF
:100040007B0200087B0200087B0200087B0200089C
:100050007B0200087B020008B90900087B02000847
:100060007B020008C3090008CD0900087B020008D4
:10007000F50800087B0200087B0200087B020008EC
:100080007B0200087B0200087B0200087B0200085C
:10009000D50800087B0200087B020008D709000889
:1000A0007B0200087B0200087B0200087B0200083C
:1000B0007B0200087B0200087B0200087B0200082C
:1000C0007B0200087B0200087B0200087B0200081C
:1000D0007B020008254600087B02000899460008BC
:1000E0007B0200087B0200087B0200087B020008FC
:1000F0007B0200087B0200087B0200087B020008EC
:100100007B0200087B0200087B0200087B020008DB
:100110007B0200087B020008114000087B020008F7
:100120007B0200087B0200087B0200087B020008BB
:100130007B0200087B0200087B0200087B020008AB
:10014000E50800087B0200087B0200087B0200082B
:100150007B0200087B0200087B0200087B0200088B
:100160007B0200087B0200087B0200087B0200087B
:100170007B0200087B0200087B02000800000000F0
:100180007B0200087B020008DFF810D000F08EFB35
:1001900000480047555E0008AFF30080988F0020AC
:1001A0002C4B19680868B0E8F04F80F30988BFF35A
:1001B0006F8F4FF0000080F311887047000000003F
:1001C00008480068006880F308884FF0000080F35A
:1001D000148862B661B6BFF34F8FBFF36F8F00DF35
:1001E00000BF00BF08ED00E0DFF80C00016841F43B
:1001F00070010160704700BF88ED00E0EFF30980F7
:10020000BFF36F8F134B1A681EF0100F08BF20ED5D
:10021000108A20E9F04F106009B44FF0500080F3CD
:100220001188BFF34F8FBFF36F8F06F015FE4FF0AD
:10023000000080F3118809BC19680868B0E8F04F25
:100240001EF0100F08BFB0EC108A80F30988BFF3CE
:100250006F8F704738000020EFF305807047000073
:100260000648804706480047FEE7FEE7FEE7FEE750
:10027000FEE7FEE7FEE7FEE7FEE7FEE7AD3F00082C
:10028000890100082DE9F05F0546002092469B4653
:1002900088460646814640241BE02846414647469C
:1002A000224600F00AFA53465A46C01A914110D32A
:1002B00011461846224600F0F1F92D1A67EB0108A5
:1002C0004F4622460120002100F0E8F917EB000913
:1002D0004E41201EA4F10104DFDC484631462A4687
:1002E0004346BDE8F09F40EA01039B0703D009E0C5
:1002F00008C9121F08C0042AFAD203E011F8013B12
:1003000000F8013B521EF9D27047D2B201E000F86A
:10031000012B491EFBD270470022F6E710B51346A9
:100320000A4604461946FFF7F0FF204610BD2DE9A6
:10033000FE4F804681EA0300C00F0C46009021F07A
:10034000004123F00045B8EB0200A94105D2404628
:10035000214690461C460B46024623F000401043BF
:1003600047D0270DC7F30A00C3F30A510290401A81
:10037000019040286BDAC3F3130040F4801B00980F
:10038000924620B10023D2EB030A63EB0B0B0198DA
:100390005946C0F14002504600F080F906460D462D
:1003A00050465946019A00F098F910EB0800614157
:1003B000002487EA115284EAE7731A4340D0009A76
:1003C00062B3019A012A4FEA075215DC001B61EB68
:1003D00002014FF0004202EA0752CDE90042001C40
:1003E00041F5801132462B4600F0F8F903B0BDE824
:1003F000F08F40462146F9E7001B61EB0201001C2B
:1004000041F5801300185B412018A2F5001747EB57
:10041000030140EAD570B6196D4111E06D084FEA4D
:10042000360645EAC0754FEA0752001B61EB020130
:10043000001C41F5801149084FEA30000019514174
:1004400032462B4603B0BDE8F04F00F0B8B9009833
:10045000012240000023D0EB020263EBE07300981E
:1004600021464FEAE074B8EB000061EB0401E9E7D4
:1004700083F000435BE781F0004158E72DE9FE4F30
:1004800081EA030404F0004421F0004100944FF09D
:10049000000B23F0004350EA01045ED052EA03044B
:1004A0005BD0C3F30A54C1F30A552C44A4F2F334CD
:1004B0000194A0FB0254C1F3130141F48011C3F372
:1004C000130343F4801301FB024400FB034E840A30
:1004D000970A44EA815447EA8357A4FB07680295C8
:1004E0008D0A05FB07854FEA932C04FB0C54270566
:1004F000029D4FEA065847EA1637B5EB08056EEB42
:10050000070C870E920E47EA811742EA8312A7FB77
:100510000201B6EB0B0164EB00042B0D43EA0C3334
:100520005E1844EB1C50DA465146E7FB0201C5F366
:1005300013044FEA0B3343EA14534FEA0432019C8D
:1005400043EA0603A4F10C040294009CCDE900B434
:1005500000F044F903B0BDE8F08F00200146F9E750
:100560002DE9F04D81EA030404F0004B21F0004531
:1005700014464FF0000A23F0004150EA050220D053
:1005800054EA01021DD0C5F30A570246C5F313030E
:10059000C1F31300C1F30A5640F4801543F48013ED
:1005A000A7EB0608101BD64608F2FD3873EB0500D2
:1005B00002D308F1010801E092185B41B8F1000F85
:1005C00003DA00200146BDE8F08D00204FF48011D1
:1005D000064684460EE0171B73EB050705D3121B76
:1005E00063EB050306434CEA010C49084FEA30006F
:1005F00092185B4150EA0107EDD152EA030012D094
:1006000082EA040083EA0501084305D0101BAB41D0
:1006100006D20122002306E000224FF0004302E050
:100620006FF0010253101AEB06004CEB085110EB6F
:100630000A0041EB0B01BDE8F04D00F0C0B800F03E
:10064000004230F000400AD0C10D01F56071C0F3E6
:10065000160042EA0151C2084007114370470020CA
:100660000146704701F0004330B421F0004150EAE8
:10067000010206D00A0DA2F56072C1F31301002A2F
:1006800002DC30BC00207047440F44EAC104C100C2
:10069000E01830BC00EBC25000F031B8202A04DB77
:1006A000203A00FA02F1002070479140C2F1200385
:1006B00020FA03F3194390407047202A04DB203AC4
:1006C00021FA02F00021704721FA02F3D040C2F172
:1006D00020029140084319467047202A06DBCB17B9
:1006E000203A41FA02F043EAE07306E041FA02F3ED
:1006F000D040C2F1200291400843194670470029BA
:10070000A8BF7047401C490008BF20F00100704797
:1007100010B4B0FA80FC00FA0CF050EA010404BFF7
:1007200010BC704749B1CCF1200421FA04F411FA4D
:100730000CF118BF012121430843A3EB0C01CB1D91
:100740004FEA00614FEA102042BF002010BC704702
:1007500000EBC35010440029A4BF10BC7047401CDC
:10076000490008BF20F0010010BC7047F0B400F051
:10077000004221F0004120F00040CE0DC30DC1F336
:10078000160141F40001C0F316004C42154640F436
:100790000000761E09E010EB440002D582F0004212
:1007A00040428842F7D840005B1EB342F9DA18B1E4
:1007B000F0BC0021FFF7ACBF2846F0BC704710B575
:1007C000141E73F1000408DA401C41F10001921874
:1007D0005B411A4301D120F0010010BD2DE9F04D1D
:1007E00092469B4611B1B1FA81F202E0B0FA80F272
:1007F00020329046FFF752FF04460F4640EA0A00B7
:1008000041EA0B0153465A46084313D0114653EAB6
:10081000010019D0C8F140025046FFF74EFF0546CF
:100820000E46504659464246FFF738FF084305D06A
:10083000012004E020463946BDE8F08D0020054344
:1008400046EAE0762C4337430A986305E40AA0EBB6
:1008500008000022FD0A44EA47540A3002D500206D
:100860000146E9E7010510196941DDE9084500196C
:100870006941BDE8F04DA2E730B5041E71F10004F6
:1008800004DB4FF00044404264EB0101141E73F19D
:10089000000405DB1C464FF00043524263EB0403A7
:1008A0008B4208BF824230BD00207047064C074D86
:1008B00006E0E06840F0010394E807009847103430
:1008C000AC42F6D3FFF764FC007C0008207C0008F3
:1008D00000BFFEE710B5024800F05DFA10BD000051
:1008E0006007002010B5024800F055FA10BD000066
:1008F0008807002010B5024800F006FE10BD000079
:10090000340B002001680A4BCAB2103AA3FB023232
:100910001209084B9B5CC365032A04D96FF30901D4
:10092000091D816502E06FF309018165806D7047E3
:10093000ABAAAAAAEC790008014600208A6A8B6952
:10094000002B0FD0B3F5005F1DD08AB3012A30D041
:10095000022A2ED0032A04D1C96A11F0807F00D068
:10096000012070471AB1012A07D0022AF9D1C96AB9
:1009700011F0807FF5D001207047C96AB1F1C07FC6
:10098000FAD1012070475AB1012A0BD0022A07D0B0
:10099000032AF7D1C96AB1F1C07FF3D101207047B2
:1009A00001207047C96A11F0807FFAD0012070479A
:1009B000FFE701207047704710B5012000F012FFDB
:1009C00010BD10B5082000F00DFF10BD10B51020AF
:1009D00000F008FF10BD10B5202000F003FF10BD8F
:1009E000704790F82020012A07D0022A05D0416ADA
:1009F00041F480214162012070470068426911433F
:100A000041610020704770B490F82040D0F800C0D9
:100A1000DCF808C0012C08D0022C06D0416A41F451
:100A20008021416270BC012070470CF080640CF0A2
:100A300000652C4302D11CF0805F55D0CCF3016CD3
:100A4000012404FA0CF41C608B684FF4C0749BB151
:100A5000CD6804EB0C162B434D6843EAC5030568CB
:100A6000AB514FF4C273066803EB0C130D69F550DC
:100A7000097D012909D00DE00D88CB6804EB0C1627
:100A800043EA45530568AB51EBE70168CD5845F49F
:100A90008075CD501179D379557941EA0361937905
:100AA0001B0443EA052319434FF4C675036805EB9D
:100AB0000C1559511178D37841EA03619378527833
:100AC0001B0443EA022211434FF4C473026803EB90
:100AD0000C13D150016804EB0C100A5842F00102CB
:100AE0000A5070BC00207047416A41F40011416215
:100AF00070BC01207047000090F82020012A07D028
:100B0000022A05D0416A41F48021416201207047E8
:100B10004248D0F8002242F00102C0F80022D0F88A
:100B2000002222F47C52C0F80022D0F800224B6A46
:100B300042EA0322C0F800220A7D012302F01F02CC
:100B400003FA02F2D0F81C329343C0F81C32CB698E
:100B5000D3B9D0F80C329343C0F80C32B1F80CC0C2
:100B60004B686CF31F43D1F814C000EBCC0CCCF8ED
:100B70004032B1F808C00B686CF31F43D1F814C0C1
:100B800000EBCC0CCCF84432CB69012B1AD1D0F855
:100B90000C321343C0F80C32B1F800C04B686CF350
:100BA0001F43D1F814C000EBCC0CCCF84032B1F8A4
:100BB00008C0CB686CF31F43D1F814C000EBCC0C19
:100BC000CCF844328B697BB1D0F804321343C0F8BF
:100BD00004320B6973B1D0F814321343C0F81432E5
:100BE000096A01290CD010E0D0F804329343C0F810
:100BF0000432EEE7D0F814329343C0F81432EFE732
:100C0000D0F81C121143C0F81C12D0F8001221F0C9
:100C10000101C0F80012002070470000006400408D
:100C2000704730B490F820C0BCF1010F09D0BCF17E
:100C3000020F06D0416A41F48021416230BC01209C
:100C4000704739B1D0F800C0DCF810C01CF0030FB9
:100C500033D006E0D0F800C0DCF80CC01CF0030F65
:100C600024D04FF4D87C04680CEB011C54F80C40E1
:100C700004F0040494603CB3046854F80C40E408A5
:100C80005460046854F80CC00CF0020CC2F80CC09C
:100C90004FF4DA7C04680CEB011C54F80C5005F09E
:100CA0000F05082D16D30824146118E0416A41F499
:100CB0000011416230BC01207047416A41F40011CB
:100CC000416230BC01207047046854F80C40640D48
:100CD0001460D6E754F80C4004F00F041461046863
:100CE00054F80C40C4F307249461046854F80CC011
:100CF0004FEA1C4CC2F814C04FF4DC72D0F800C0AC
:100D000002EB01125CF802C083F800C0D0F800C00A
:100D10005CF802C04FEA1C2C83F801C0D0F800C078
:100D20005CF802C04FEA1C4C83F802C0D0F800C047
:100D30005CF80220120EDA704FF4DE72D0F800C0B8
:100D400002EB01125CF802C083F804C0D0F800C0C6
:100D50005CF802C04FEA1C2C83F805C0D0F800C034
:100D60005CF802C04FEA1C4C83F806C0D0F800C003
:100D70005CF80220120EDA7139B10068016941F0A5
:100D80002001016130BC002070470068C16841F05B
:100D90002001C160F6E72DE9F05F054600242868D0
:100DA0004669D0F804908768D0F80CA0D0F810B04D
:100DB000D0F8188016F0010F54D017F0010F17D09B
:100DC0000121816017F0020F03D0284600F032FBAA
:100DD0000EE017F0040F02D04FF4006408E017F0A3
:100DE000080F02D04FF4805402E0284600F021FBA7
:100DF00017F4807F19D029684FF48070886017F449
:100E0000007F03D0284600F017FB0EE017F4806F38
:100E100002D044F4005408E017F4006F02D044F408
:100E2000804402E0284600F006FB17F4803F19D00A
:100E300029684FF48030886017F4003F03D02846BB
:100E400000F0FCFA0EE017F4802F02D044F40044C6
:100E500008E017F4002F02D044F4803402E0284662
:100E600000F0EBFA16F0080F07D01AF0100F04D0BC
:100E700044F4007429681020C86016F0040F4FF085
:100E8000080707D01AF0080F04D02868C760284662
:100E900000F000FA16F0020F07D02868C06810F0C2
:100EA000030F02D0284600F0F7F916F0400F07D0E4
:100EB0001BF0100F04D044F48064296810200861EE
:100EC00016F0200F07D01BF0080F04D02868076128
:100ED000284600F079FA16F0100F07D0286800694C
:100EE00010F0030F02D0284600F06FFA16F4003F0E
:100EF00008D019F0100F05D0296810204860284646
:100F000000F064FA16F4803F07D019F0080F04D0FF
:100F100028684760284600F092FA16F4004F4AD03D
:100F200019F0040F44D016F4807F04D018F0010F9C
:100F300001D044F0010416F4007F04D018F0020F31
:100F400001D044F0020416F4806F04D018F0040FAE
:100F500001D044F0040416F4006F29D018F0700F8B
:100F600026D008F07000402815D006DC102809D0E3
:100F700020280AD0302816D10AE050280ED0602848
:100F800011D10EE044F008040DE044F010040AE032
:100F900044F0200407E044F0400404E044F08004FE
:100FA00001E044F480742868816921F07001816156
:100FB000296804204860002C05D0686A20436862D4
:100FC0002846FFF72DFEBDE8F09F70B50446002CC3
:100FD00003D094F8200010B104E0012070BD204639
:100FE00000F0A8F82068016841F00101016000F0FC
:100FF00023FD0546206840684FF0050610F0010FFC
:1010000011D100F019FD401B0A2807D9606A40F48D
:101010000030606284F82060012070BD2068406864
:1010200010F0010FEDD02068016821F0020101608D
:1010300000F002FD05462068406810F0020F11D054
:1010400000F0FAFC401B0A2807D9606A40F400301F
:10105000606284F82060012070BD2068406810F054
:10106000020FEDD1207E01283FD02068016821F0D9
:1010700080010160607E01283DD02068016821F078
:1010800040010160A07E01283BD02068016821F06A
:1010900020010160E07E012839D02068016841F01C
:1010A00010010160207F012837D02068016821F0FD
:1010B00008010160607F012835D02068016821F0B7
:1010C00004010160E168A068626908432169114375
:1010D00008436168491E08432168C86100206062B6
:1010E000012084F82000002070BD2068016841F0D4
:1010F00080010160BEE72068016841F040010160A5
:10110000C0E72068016841F020010160C2E7206863
:10111000016821F010010160C4E72068016841F016
:1011200008010160C6E72068016841F00401016020
:10113000C8E7000010B586B00446142101A8FFF7E7
:10114000EBF84E492068884241D14D480068401C68
:101150004B4908600846006801280FD100BF0020F5
:1011600000904848006840F0007046490860084612
:10117000006800F00070009000BF00BF00BF0020BA
:10118000009040481038006840F008003D49103990
:1011900008600846006800F00800009000BF00BF2B
:1011A000032001900220029000200390032004906D
:1011B0000920059001A9344800F020FB00220521F8
:1011C000142000F02DFE142000F01CFE54E02F49E6
:1011D0002068884250D100BF002000902948006854
:1011E00040F08060274908600846006800F0806091
:1011F000009000BF00BF22480068401C20490860E2
:101200000846006801280FD100BF002000901D484B
:10121000006840F000701B4908600846006800F054
:101220000070009000BF00BF00BF00200090154874
:101230001038006840F00200124910390860084672
:10124000006800F00200009000BF00BF6020019025
:1012500002200290002003900320049009200590B2
:1012600001A90B4800F0CAFA00220521402000F035
:10127000D7FD402000F0C6FD06B010BD0064004060
:101280001400002040380240000C0240006800407A
:10129000000402407047000010B58AB0044601AB5C
:1012A00003AA00212046FFF7BCFC0398A0F205200A
:1012B00030B1012822D002283ED0032878D159E04D
:1012C0009DF805009DF8041040EA01203A49088085
:1012D0009DF807009DF8061040EA012000B236494B
:1012E00048809DF809009DF8081040EA012000B2EE
:1012F000314988809DF80A00887159E09DF8050001
:101300009DF8041040EA01202C4908809DF8070050
:101310009DF8061040EA012000B2284948809DF857
:1013200009009DF8081040EA012000B22349888096
:101330009DF80A0088713BE09DF805009DF80410B7
:1013400040EA01201E4908809DF807009DF806101C
:1013500040EA012000B21A4948809DF809009DF832
:10136000081040EA012000B2154988809DF80A0063
:1013700088711DE09DF805009DF8041040EA0120E9
:10138000104908809DF807009DF8061040EA0120EA
:1013900000B20C4948809DF809009DF8081040EA09
:1013A000012000B2074988809DF80A00887100BFBB
:1013B00000BF0AB010BD0000000C0020540C00203B
:1013C000A80C0020000D002070477047704770B5D2
:1013D000044694F82000012805D0606A40F40020FB
:1013E0006062012070BD022084F82000206801683E
:1013F00021F00101016000F01FFB054620684068F4
:1014000010F0010F12D000F017FB401B0A2808D97A
:10141000606A40F400306062052084F820000120FA
:1014200070BD2068406810F0010FECD100206062B0
:1014300070BD70477047704770477047704770477E
:101440002DE9F0410446A66D00F0F6FA054694F841
:1014500035000027022806D08020606584F83470AB
:101460000120BDE8F0812068016821F016010160CB
:101470002068416921F080014161206C08B9A06CAD
:1014800020B12068016821F008010160206801682E
:1014900021F0010101602068006810F0010F12D0F6
:1014A00000F0CAFA401B052808D9202060650320F7
:1014B00084F8350084F83470BDE8F0812068006855
:1014C00010F0010FECD194F85C003F2101FA00F01C
:1014D000B060012084F8350084F834700020BDE845
:1014E000F08190F83510022903D080214165012058
:1014F0007047052180F835100068016821F001016E
:1015000001600020704700002DE9F84304464FF0C9
:101510000008CDF8008076484FF416510068B0FB03
:10152000F1F7A56D2E6894F85C00082101FA00F02F
:10153000304211D02068026812F0040F0CD002680B
:1015400022F00402026094F85C0001FA00F0A86046
:10155000606D40F00100606594F85C004FF0010997
:1015600009FA00F0304209D02168496911F0800F72
:1015700004D0A860606D40F00200606594F85C10D3
:1015800004208840304209D02168096811F0020F18
:1015900004D0A860606D40F00400606594F85C10B1
:1015A00010208840304224D02168096811F0080FCB
:1015B0001FD0A8602068016811F4802F0DD000684A
:1015C00010F4002F04D0A16C99B12046884710E098
:1015D000216C71B1204688470BE0016811F4807FCF
:1015E00003D1016821F008010160216C09B1204696
:1015F000884794F85C1020208840304251D0216800
:10160000096811F0100F4CD0A86094F83500052837
:101610000DD02068016811F4802F32D0006810F4DA
:10162000002F29D0E16B59B32046884739E0206864
:10163000016821F0160101602068416921F08001F4
:101640004161206C08B9A06C20B12068016821F0CC
:101650000801016094F85C003F2101FA00F0A860E5
:1016600084F8359084F83480216D00293ED001B093
:101670002046BDE8F0430847616C09B12046884721
:101680000FE0016811F4807F07D1016821F010019B
:10169000016084F8359084F83480E16B09B120460C
:1016A0008847606D002821D0606D10F0010F15D0C3
:1016B000052084F835002068016821F001010160EF
:1016C0000098401C0090B84204D82068006810F0D0
:1016D000010FF5D184F8359084F83480E16C00294D
:1016E00004D001B02046BDE8F0430847BDE8F883C8
:1016F000200000202DE9F041044600F09DF9054648
:10170000DCB1022084F83500002684F834602068BB
:10171000016821F0010101602068006810F0010FEC
:1017200013D000F089F9401B052809D920206065F5
:10173000032084F83500BDE8F0810120BDE8F08188
:101740002068006810F0010FEBD121680868234A77
:101750001040A3686268D4F810C01A43E36843EAF3
:101760000C031A4363691A43A3691A43E3691A43D2
:10177000236A1A431043626A042A03D1236BE26A84
:101780001A43104308602068406920F00701606A2E
:1017900040EA0105012704280ED1A06A0543E06A4A
:1017A00050B12046FFF7C8F830B14020606584F89A
:1017B00035700120BDE8F081206845612046FFF7C3
:1017C000A1F894F85C103F2202FA01F1816066658D
:1017D00084F835700020BDE8F08100003F8010F0F3
:1017E0007047000010B504490A68024202D0086040
:1017F000FFF7F6FF10BD0000143C01402DE9F84F43
:101800000022DFF818A2DFF810924FF0010E032734
:101810004FF00F08AAF1040B0EFA02FC0B6803EA62
:101820000C0363457DD10C7904F00304012C01D035
:10183000022C14D18568540007FA04F6B543CE682B
:1018400006FA04F42C438460446824EA0C0C0C79F6
:10185000C4F30014944044EA0C0CC0F804C0D1F85E
:1018600004C037EA0C0C0CD0C4684FEA420C07FAEB
:101870000CF5AC438D6805FA0CFC4CEA040CC0F87E
:101880000CC091F804C00CF0030CBCF1020F12D193
:101890004FEAD20C00EB8C04256A4FEA427C4FEAF7
:1018A000DC6C08FA0CF6B5430E6906FA0CFC4CEA3F
:1018B000050CC4F820C004684FEA420C07FA0CF586
:1018C000AC430D7905F0030505FA0CFC4CEA040C59
:1018D000C0F800C0D1F804C01CF4403F7DD0D9F856
:1018E00000C04CF4804CC9F800C0D9F800C00CF41A
:1018F000804CCDF800C022F0030C0CF1804505F5BA
:101900009835D5F808C89407240F08FA04F62CEA8D
:101910000606A0F1804CBCF5003C64D0A0F1804CE0
:1019200000E05AE0BCF5013C60D0A0F1804CBCF571
:10193000023C5ED0A0F1804CBCF5033C5CD0A0F131
:10194000804CBCF5043C5AD0A0F1804CBCF5053C61
:1019500058D0A0F1804CBCF5063C56D0A0F1804C8C
:10196000BCF5073C54D04FF0080C0CFA04FC4CEAD0
:10197000060CC5F808C8DAF800C02CEA030C4C685D
:1019800014F4801F01D04CEA030CCAF800C0244CA8
:10199000D4F800C02CEA030C4D6815F4001F01D0E8
:1019A0004CEA030CC4F800C0DBF800C02CEA030CBE
:1019B0004C6814F4003F01D04CEA030CCBF800C093
:1019C000184CD4F800C02CEA030C4D6815F4803F85
:1019D00001D04CEA030CC4F800C0521C102AFFF4DA
:1019E0001BAFBDE8F88F4FF0000CBEE74FF0010CC5
:1019F000BBE74FF0020CB8E74FF0030CB5E74FF030
:101A0000040CB2E74FF0050CAFE74FF0060CACE763
:101A10004FF0070CA9E7000044380240083C0140A1
:101A20000C3C0140003C0140002A01D0816170471C
:101A30000904816170470000014880687047000018
:101A40002C00002070B50446002C04D094F83D0012
:101A5000002510B106E0012070BD84F83C502046FE
:101A600000F0C6F8242084F83D002068016821F0C9
:101A7000010101602068016841F4004101602068B3
:101A8000016821F40041016000F0F2FA544B6168F2
:101A9000994203D85349884203D304E0524988420B
:101AA00001D2012070BD5149B0FBF1F12268D2F89A
:101AB00004C02CF03F0C4CEA010CC2F804C0626870
:101AC0009A4201D84A1C07E04FF4967251434FF4F2
:101AD0007A72B1FBF2F14A1C2168D1F820C02CF0D7
:101AE0003F0C42EA0C020A626168994210D8490030
:101AF000401EB0FBF1F2521CC2F30B02042A01D2C9
:101B0000042026E0B0FBF1F0401CC0F30B0020E005
:101B1000A268002A50D001EBC10303EB0113A0F12E
:101B2000010CBCFBF3F35B1C43F480431B051B0D52
:101B30004AD0002A4AD001EBC10202EB0111401E3B
:101B4000B0FBF1F0401CC0F30B0040F4804040F4C7
:101B500000402168CA6922F0FF0222F44F4210437C
:101B6000C861216AE06901432068026822F0C0026E
:101B700011430160E168206901432068826822F016
:101B8000FF0222F4034211438160A16960690143AD
:101B90002068C26822F0FF021143C160206801681A
:101BA00041F0010101602564202084F83D00256397
:101BB00084F83E50002070BD01EB4103A0F1010C00
:101BC000BCFBF3F35B1CB1E70120C2E701EB410171
:101BD000401EB0FBF1F0401CC0F30B00B7E7000063
:101BE000A086010080841E0000093D0040420F00D5
:101BF00010B586B00446142101A8FEF78DFB2A49D2
:101C0000206888424DD100BF00200090274800681E
:101C100040F00400254908600846006800F0040010
:101C2000009000BF00BF00BF002000900846006881
:101C300040F0010008600846006800F001000090D4
:101C400000BF00BF481501901220029001200390B0
:101C5000032004900420059001A91548FFF7CEFD4C
:101C60004FF4807001901220029001200390032015
:101C700004900420059001A90E48FFF7BFFD00BFA6
:101C80000020009009481030006840F40000074927
:101C9000103108600846006800F40000009000BFA2
:101CA00000BF06B010BD0000005C004030380240AC
:101CB0000008024000000240024881680278114496
:101CC000816070472C00002010B50B48016841F47A
:101CD00000710160016841F480610160016841F4B4
:101CE00080710160032000F0CFF80F2000F006F8AB
:101CF00000F05EF8002010BD003C02402DE9F041EC
:101D000088B004460027B84600BF00200190234851
:101D1000006840F01000214908600846006800F0A3
:101D20001000019000BF00BF02A903A800F07CF9D9
:101D3000069F1FB900F09CF9054602E000F098F9F3
:101D400045001748B5FBF0F0A0F101081548164909
:101D5000086040F2E7311448C160C0F804800021F7
:101D600001618160816100F0A9FD064696B90E48C7
:101D700000F05CFE06466EB9362000F043F8102CE9
:101D800007D200222146362000F04AF807480460B6
:101D900000E00126304608B0BDE8F081403802403E
:101DA00040420F0000100040940B00203000002043
:101DB00008B500BF002000901148006840F4804042
:101DC0000F4908600846006800F48040009000BF9A
:101DD00000BF00BF00200090081F006840F0805046
:101DE000091F08600846006800F08050009000BF9E
:101DF00000BF00220F21901E00F012F808BD000065
:101E00004438024000280ADB00F01F01012202FAD8
:101E100001F14009800000F1E020C0F80011704796
:101E200010B4184B1B68C3F30223C3F1070CBCF1B9
:101E3000040F01D94FF0040C1C1D072C01D2002304
:101E400000E0DB1E012404FA0CFCACF1010C0CEAEE
:101E50000101994004FA03F35B1E1A401143002864
:101E600006DB00F1E020090180F8001410BC704787
:101E700000F00F0000F1E020090180F8141D10BCF3
:101E8000704700000CED00E000F00700064A116802
:101E90004FF6FF03194041EA002040F0FD7040F08A
:101EA00080601060704700000CED00E02DE9F04705
:101EB00004460D46002C13D0DFF85491D9F80000E9
:101EC000EFB200F00700A8420DD289F80070D9F8EF
:101ED000000000F00700A84205D00120BDE8F0870F
:101EE0000120BDE8F08720684A4E10F0020F14D0A0
:101EF00010F0040F03D0306840F4E05030602078D8
:101F000010F0080F03D0306840F460403060306853
:101F1000A16820F0F00008433060207810F0010F35
:101F20003ED060683C49012808D002280DD0032823
:101F30000BD0096811F0020F28D00AE0096811F4EB
:101F4000003F06D10120BDE8F087096811F0007F4D
:101F500019D0316821F0030108433060FFF76CFDB0
:101F600080463068616800F00C00B0EB810F17D03C
:101F700041F2883AFFF760FDA0EB0800504508D910
:101F80000320BDE8F0870120BDE8F0870120BDE80F
:101F9000F0873068616800F00C00B0EB810FE9D188
:101FA000D9F8000000F00700A8420AD989F80070AB
:101FB000D9F8000000F00700A84202D00120BDE8D7
:101FC000F087207810F0040F05D03068E16820F425
:101FD000E05008433060207810F0080F06D03068D9
:101FE000216920F4604040EAC100306000F060F8F0
:101FF00031680A4AC1F30311515CC84008490860BE
:1020000008480068FFF77AFE0020BDE8F08700006E
:10201000003C02400838024000380240A479000821
:1020200020000020300000200F2202600B4A1368BD
:1020300003F003034360136803F0F0038360136845
:1020400003F4E053C360126802F46042D2080261F4
:102050000348006800F00700086070470838024035
:10206000003C02400148006870470000200000204A
:1020700000B5FFF7F7FF04490968044AC1F382215C
:10208000515CC84000BD000008380240B479000827
:1020900000B5FFF7E7FF04490968044AC1F342317C
:1020A000515CC84000BD000008380240B479000807
:1020B00010B51748006810F00C01164816D0164BE2
:1020C000042912D0082911D1144C216801F03F02D3
:1020D000216811F4800F0AD02068C0F38810A0FB9B
:1020E00003010023FEF7CEF809E0184610BD216871
:1020F0000023C1F38811A1FB0001FEF7C3F821689A
:10210000C1F30141491C4900B0FBF1F010BD0000D2
:10211000083802400024F400001BB70004380240D5
:102120002DE9F84F0446002C12D02078FB4E10F019
:10213000010FA6F1040563D0301D016801F00C0108
:1021400004290CD0006800F00C00082803D010E02F
:102150000120BDE8F88F306810F4800F09D028689E
:1021600010F4003F4CD06068002849D10120BDE840
:10217000F88F6068B0F5803F14D0B0F5A02F16D06E
:10218000286820F480302860286820F480202860A7
:10219000606810B3FFF750FC0746286810F4003F52
:1021A0000ED02DE0286840F480302860F0E72868E1
:1021B00040F480202860286840F480302860E7E7F9
:1021C000FFF73AFCC01B642802D90320BDE8F88F52
:1021D000286810F4003FF3D012E0FFF72DFC07460B
:1021E000286810F4003F0BD0FFF726FCC01B6428C2
:1021F00002D90320BDE8F88F286810F4003FF3D11E
:102200002078C74F10F0020F4FF0000957D0C54893
:10221000016811F00C0F14D0006800F00C000828C1
:1022200003D1306810F4800F0BD0E06880B3012038
:102230003860FFF701FC8046286810F0020F12D0CA
:102240001EE0286810F0020F05D0E068012802D0D7
:102250000120BDE8F88F2868216920F0F80040EAE5
:10226000C10028602BE0FFF7E7FBA0EB0800022885
:1022700002D90320BDE8F88F286810F0020FF2D0D1
:102280002868216920F0F80040EAC100286016E0C3
:10229000FFE7C7F80090FFF7CFFB8046286810F0F3
:1022A000020F0CD0FFF7C8FBA0EB0800022802D9F0
:1022B0000320BDE8F88F286810F0020FF2D12078D3
:1022C00010F0080F35D09848DFF860A26169C1B1FD
:1022D00001210160FFF7B0FB8046DAF8000010F042
:1022E000020F26D1FFF7A8FBA0EB0800022802D9B5
:1022F0000320BDE8F88FDAF8000010F0020FF1D0EB
:1023000017E0C0F80090FFF797FB8046DAF800006E
:1023100010F0020F0DD0FFF78FFBA0EB0800022892
:1023200002D90320BDE8F88FDAF8000010F0020FA0
:10233000F1D1207810F0040F71D04FF000087C48E4
:10234000006810F0805F0AD17948016841F080513F
:102350000160006800F0805000904FF00108DFF845
:10236000D4B1DBF8000010F4807F1BD1DBF8000053
:1023700040F48070CBF80000FFF75EFB8246DBF88C
:10238000000010F4807F0DD1FFF756FBA0EB0A0090
:10239000022802D90320BDE8F88FDBF8000010F412
:1023A000807FF1D0A068DFF890B1012818D005280F
:1023B0001DD0DBF8000020F00100CBF80000DBF8B6
:1023C000000020F00400CBF80000A06840B3FFF745
:1023D00033FB8246DBF8000010F0020F14D03EE021
:1023E000DBF8000040F00100CBF80000EDE7DBF87F
:1023F000000040F00400CBF80000DBF8000040F0E3
:102400000100CBF80000E0E7FFF716FBA0EB0A01A4
:1024100041F28830814204D90320BDE8F88F26E0DC
:1024200005E0DBF8000010F0020FEDD017E0FFF739
:1024300003FB8246DBF8000010F0020F0FD0FFF71D
:10244000FBFAA0EB0A0141F28830814202D9032055
:10245000BDE8F88FDBF8000010F0020FEFD1B8F103
:10246000010F04D13248016821F080510160A06958
:10247000F0B32C4909684FF0FF3801F00C0108292E
:1024800066D0022810D0C7F86090FFF7D5FA04464E
:10249000286810F0007F2BD0FFF7CEFA001B02282F
:1024A00051D90320BDE8F88FC7F86090FFF7C4FA50
:1024B0008146286810F0007F0CD0FFF7BDFAA0EB32
:1024C0000900022802D90320BDE8F88F286810F01F
:1024D000007FF2D1216AE069A26A0843616A08EBD1
:1024E0005202890141EA0241084394F82C1000E0AD
:1024F00055E040EA0160306001203866FFF79CFA41
:102500000446286810F0007F49D1FFF795FA001BB8
:10251000022813D90320BDE8F88F000004380240D8
:102520000000474208380240800E4742743802409B
:10253000403802400070004070380240286810F0B7
:10254000007FE2D02BE0286810F0007FA4D126E0C5
:10255000012822D03068E26900F4800191421AD14A
:10256000226A00F03F01914215D147F6C071626ABC
:102570000140B1EB821F0ED1A26A00F4403108EB9A
:102580005202B1EB024F06D194F82C1000F07060AB
:10259000B0EB016F03D00120BDE70120BBE70020B5
:1025A000B9E770B50446002C09D0606A002540B137
:1025B00025616561A56294F8510040B10CE00120ED
:1025C00070BD6068B0F5827FF4D0E561F2E784F811
:1025D0005050204600F044F8022084F85100206852
:1025E000016821F040010160A088218900F4827017
:1025F00001F404410843A18901F400610843217CEE
:1026000001F002010843217D01F001010843218B03
:1026100001F400710843217F01F03801084394F868
:10262000201001F080010843218D01F4005108437E
:1026300021680860A169042000EA114094F8241080
:1026400001F010010143206841602068C16921F454
:102650000061C1616565012084F85100002070BDF2
:1026600010B586B00446142101A8FDF755FE4B496C
:10267000206888427ED100BF002000904848006852
:1026800040F48050464908600846006800F48050D5
:10269000009000BF00BF00BF0020009040481438E9
:1026A000006840F002003E4914390860084600689E
:1026B00000F00200009000BF00BF00BF00200090AB
:1026C0000846006840F0010008600846006800F015
:1026D0000100009000BF00BF18200190022002906E
:1026E00001200390032004900520059001A92D48A6
:1026F000FFF784F8802001900220029001200390CF
:10270000032004900520059001A92748FFF776F8DB
:102710002648274908604FF0C060486000212448DF
:102720008160C1604FF4806101610021416181617C
:10273000C1614FF44031016200214162FEF7DAFFCE
:1027400008B1FEF74DF900BF1948E064846300BF8B
:1027500016481830174908604FF0C06048604021A3
:10276000144881600021C1604FF480610161002143
:10277000416100E010E08161C1614FF4003101620C
:1027800000214162FEF7B6FF08B1FEF729F900BF4C
:102790000848A064846300BF06B010BD003001404B
:1027A00044380240000402400000024040640240FD
:1027B0005C080020BC0800207047704790F83C205F
:1027C000012A2CD0012280F83C20CA680023D1F8CD
:1027D00008C022F4407242EA0C02D1F804C022F48C
:1027E000806242EA0C02D1F800C022F4006242EAA0
:1027F0000C02D1F810C022F4805242EA0C02D1F847
:1028000014C022F4005242EA0C02C96922F4804248
:1028100011430268516480F83C3000207047022068
:10282000704730B490F83C20012A44D0012480F84D
:102830003C40022280F83D200268D2F804C0936830
:102840002CF0700C0D6845EA0C0CC2F804C002684C
:10285000A2F1804CBCF5803C20D0B2F1804F1DD05D
:10286000A2F1804CBCF5806C18D0A2F1804CBCF574
:10287000006C13D0A2F1804CBCF5406C0ED0A2F1DC
:10288000804CBCF5823C09D0A2F1804CBCF5A03C48
:1028900004D0A2F1804CBCF5C05C04D123F08003CD
:1028A00049681943916080F83D40002180F83C1050
:1028B00030BC0020704730BC0220704710B5044681
:1028C000002C03D094F83D0010B107E0012010BDAA
:1028D000002084F83C00204600F01EF8022084F816
:1028E0003D00211D206801F09BFB012084F846007B
:1028F00084F83E0084F83F0084F8400084F84100EA
:1029000084F8420084F8430084F8440084F84500C9
:1029100084F83D00002010BD08B5204A01689142AE
:102920000FD100BF002100911D49096841F0080145
:102930001B4A11601146096801F00801009100BFAF
:102940002BE0184A0168914211D100BF002100918B
:102950001349091D096841F00201114A121D116055
:102960001146096801F00201009100BF15E00E4A0E
:102970000168914211D100BF002100910849091D51
:10298000096841F40031064A121D116011460968B8
:1029900001F40031009100BF00BF08BD000C0040F1
:1029A00040380240000401400044014090F83D10CE
:1029B000012901D001207047022180F83D100068F4
:1029C000A0F18041B1F5803126D0B0F1804F23D005
:1029D000A0F18041B1F580611ED0A0F18041B1F538
:1029E000006119D0A0F18041B1F5406114D0A0F18F
:1029F0008041B1F582310FD0A0F18041B1F5A03115
:102A00000AD0A0F18041B1F5C05105D0016841F074
:102A10000101016000207047816801F0070106296B
:102A2000F8D0016841F001010160F3E790F83D1032
:102A3000012901D001207047022180F83D10016872
:102A4000CA6842F00102CA600068A0F18041B1F595
:102A5000803126D0B0F1804F23D0A0F18041B1F574
:102A600080611ED0A0F18041B1F5006119D0A0F1C4
:102A70008041B1F5406114D0A0F18041B1F58231BF
:102A80000FD0A0F18041B1F5A0310AD0A0F1804172
:102A9000B1F5C05105D0016841F00101016000208D
:102AA0007047816801F007010629F8D0016841F0FC
:102AB00001010160F3E770B50446002594F83C007D
:102AC000012818D0012684F83C60022084F83D00DB
:102AD0002068826822F0770222F47F4282600868D0
:102AE000502839D00EDC202854D006DC002851D0E4
:102AF000102811D14EE0022070BD30284AD0402865
:102B00000AD13DE0602831D070280DD0B0F5805F4B
:102B100003D0B0F5005F13D0012584F83D6000209C
:102B200084F83C00284670BDCB684A6889682068F4
:102B300001F0F7FA2068816841F077018160ECE7E5
:102B4000CB684A688968206801F0EBFA20688168E0
:102B500041F480418160E0E7CA684968206801F07B
:102B6000CFFB5021206801F0E7FAD6E7CA68496830
:102B7000206801F0D8FB6021206801F0DDFACCE785
:102B8000CA684968206801F0BBFB4021206801F059
:102B9000D3FAC2E722680146104601F0CDFABCE73D
:102BA00070472DE9F04104462068C56806694FF07A
:102BB000000716F0020F16D015F0020F13D0F91E01
:102BC0000161012020772068806910F0030F03D095
:102BD0002046FFF7E5FF05E0204600F029F92046F2
:102BE00000F0C2F9277716F0040F18D015F0040F83
:102BF00015D021686FF0040008610220207720685A
:102C0000806910F4407F03D02046FFF7C9FF05E03C
:102C1000204600F00DF9204600F0A6F9277716F0BF
:102C2000080F18D015F0080F15D021686FF00800B4
:102C30000861042020772068C06910F0030F03D0DA
:102C40002046FFF7ADFF05E0204600F0F1F82046F2
:102C500000F08AF9277716F0100F18D015F0100F32
:102C600015D021686FF010000861082020772068D7
:102C7000C06910F4407F03D02046FFF791FF05E0C4
:102C8000204600F0D5F8204600F06EF9277716F0C0
:102C9000010F09D015F0010F06D021686FF0010077
:102CA0000861204600F0D0F916F0800F09D015F029
:102CB000800F06D021686FF0800008612046FFF782
:102CC0007BFD16F0400F09D015F0400F06D02168AB
:102CD0006FF040000861204600F0C2F916F0200FA6
:102CE0000BD015F0200F08D021686FF0200008618C
:102CF0002046BDE8F041FFF760BDBDE8F08100006F
:102D000010B586B00446142101A8FDF705FB3F4924
:102D1000206888422DD100BF002000903C48006808
:102D200040F080003A4908600846006800F08000E2
:102D3000009000BF00BF4FF4E050019002200290CD
:102D40000120039002200490059001A93148FEF76C
:102D500055FD3148FFF72AFE00212F4800F006F903
:102D600004212D4800F002F908212B4800F0FEF85C
:102D70004AE02A49206888421DD100BF0020009007
:102D80002348006840F480702149086008460068C4
:102D900000F48070009000BF00BFC02001900220AE
:102DA00002900020039004900320059001A91C4884
:102DB000FEF724FD28E01B492068884224D100BF8B
:102DC000002000901248006840F020001049086080
:102DD0000846006800F02000009000BF00BF4020BF
:102DE0000190022002900120039002200490032011
:102DF000059001A90C48FEF701FD0C48FFF7D6FD30
:102E000000210A4800F0B2F806B010BD000C0040E6
:102E100030380240001C02401C0900200004014020
:102E2000002002400044014000140240AC09002090
:102E3000704770B504460D46002694F83C00012802
:102E40000FD0012084F83C006AB1042A1FD0082A60
:102E500032D00C2A44D00126002084F83C003046B1
:102E600070BD022070BD2946206801F06DF9206810
:102E7000816941F0080181612068816921F00401C4
:102E80008161206881692A6911438161E4E72946EB
:102E9000206801F091F92068816941F40061816145
:102EA0002068816921F480618161206881692A69D3
:102EB00041EA02218161CFE72946206801F0B8F993
:102EC0002068C16941F00801C1612068C16921F031
:102ED0000401C1612068C1692A691143C161BBE76E
:102EE0002946206801F0E0F92068C16941F40061D9
:102EF000C1612068C16921F48061C1612068C16934
:102F00002A6941EA0221C161A6E710B50446002CF6
:102F100003D094F83D0010B107E0012010BD00205F
:102F200084F83C00204600F01EF8022084F83D00A2
:102F3000211D206801F074F8012084F8460084F80F
:102F40003E0084F83F0084F8400084F8410084F893
:102F5000420084F8430084F8440084F8450084F873
:102F60003D00002010BD70477047000010B50446BA
:102F7000002909D004290AD008290BD094F841006F
:102F800001280AD0012010BD94F83E00F8E794F81B
:102F90003F00F5E794F84000F2E70220D9B3042996
:102FA00047D0082948D084F841000122206801F068
:102FB000A9F8234A20682349904201D0884203D1CE
:102FC000436C43F4004343642068904224D0B0F142
:102FD000804F21D0A0F18042B2F580621CD0A0F1D8
:102FE0008042B2F5006217D0A0F18042B2F5406293
:102FF00012D0884210D0A0F18041B1F5A0310BD0A1
:10300000A0F18041B1F5C05106D0016841F0010145
:103010000160002010BD09E0816801F00701062968
:10302000F7D0016841F001010160F2E784F83E0049
:10303000BBE784F83F00B8E784F84000B5E700003C
:10304000000001400004014010B504460349206817
:10305000884201D1FEF730FE10BD00000010004094
:10306000704770477047000038B50446206805680F
:1030700005F0100038B3E08D002824DD00BF0020EB
:10308000009020680068009020684068009000BFB1
:1030900000BF2068C06820F020002168C860206858
:1030A000C06820F480702168C8602068406920F002
:1030B00001002168486120200B4981F84200204628
:1030C00000F05EFA0FE005F0100060B1E08D50B93D
:1030D00000BF0020009020680068009020684068D1
:1030E000009000BF00BF38BDA40A0020F8B5044618
:1030F00022681068D168536900F00F0CBCF1000F12
:103100000AD110F0200F07D011F0200F04D0204674
:10311000BDE8F84001F057B90025BCF1000F75D0AB
:1031200003F0010C01F490765CEA06066ED010F014
:10313000010F06D011F4807F03D0626C42F00102CF
:10314000626410F0040F06D013F0010F03D0626C1C
:1031500042F00202626410F0020F06D013F0010F79
:1031600003D0626C42F00402626410F0080F08D0D1
:1031700001F0200252EA0C0203D0626C42F0080215
:103180006264626C002A35D010F0200F05D011F077
:10319000200F02D0204601F016F920684069C0F3E4
:1031A0008010616C11F0080F00D148B3204601F087
:1031B000D6F82068406910F0400F1CD02068143009
:1031C00050E8001F21F0400140E80012002AF5D12C
:1031D000E06B60B15E490165E06BFEF782F90028A3
:1031E00008D0E06B016D01B0BDE8F0400847204613
:1031F000FFF738FFF8BD2046FFF734FFF8BD05E0C4
:10320000FFE72046FFF72EFF6564F8BD236B012B17
:103210007ED110F0100F7BD011F0100F78D0106815
:103220005068009050694FF0200310F0400F4FF0AD
:10323000020644D0E16B0868406880B20028E4D000
:10324000A28D8242E1D9E085C869B0F5807F2DD09A
:1032500020680C3050E8001F21F4807140E8001213
:10326000002AF5D12068143050E8001F21F0010138
:1032700040E80012002AF5D12068143050E8001F01
:1032800021F0400140E80012002AF5D184F84230D4
:10329000256320680C3050E8001F21F0100140E841
:1032A0000012002AF5D1E06BFEF7CAF86663A08D24
:1032B000E18D401A81B22046FFF7D3FEF8BDA08D04
:1032C000E18D401A81B2E08D0028F7D00029F5D0B9
:1032D00020680C3050E8002F22F4907240E8002C57
:1032E000BCF1000FF4D12068143050E8002F22F018
:1032F000010240E8002CBCF1000FF4D184F8423008
:10330000256320680C3050E8002F22F0100200E006
:1033100008E040E80023002BF3D166632046FFF766
:10332000A0FEF8BD10F0800F07D011F0800F04D080
:103330002046BDE8F84001F045B910F0400FF0D04C
:1033400011F0400FEDD02046BDE8F84001F02EB856
:103350004F43000870B50446002C04D094F8410097
:10336000002510B106E0012070BD84F840502046D1
:1033700000F024F8242084F841002068C16821F47A
:103380000051C160204601F083F82068016921F4F2
:10339000904101612068416921F02A014161206862
:1033A000C16841F40051C1606564202084F8410087
:1033B00084F842006563002070BD000010B586B03F
:1033C0000446142101A8FCF7A7FF5E492068884243
:1033D00056D100BF002000905B48006840F010000C
:1033E000594908600846006800F01000009000BFCE
:1033F00000BF00BF0020009053481438006840F020
:1034000002005149143908600846006800F00200C3
:10341000009000BF00BF00BF002000900846006879
:1034200040F0010008600846006800F001000090CC
:1034300000BF00BF80200190022002900020039076
:10344000032004900720059001A94048FEF7D6F913
:103450004FF400700190022002900020039003209E
:1034600004900720059001A93948FEF7C7F900220A
:1034700005212520FEF7D4FC2520FEF7C3FC5EE0E5
:103480003449206888425AD100BF002000902E485D
:10349000001F006840F480202B49091F086008467F
:1034A000006800F48020009000BF00BF00BF002033
:1034B000009025481438006840F00400224914396F
:1034C00008600846006800F00400009000BF00BFDC
:1034D0004FF44060019002200290002003900320EE
:1034E00004900720059001A91B48FEF787F91B48A7
:1034F0001B4908604FF00060486000211848816057
:10350000C1604FF480610161002141618161C1614D
:103510004FF40031016200214162FEF7EBF808B17F
:10352000FDF75EFA00BF0E48E063846300BF00222F
:1035300005212720FEF774FC2720FEF763FC06B068
:1035400010BD000000100140443802400004024059
:10355000000002400048004000080240286002408D
:10356000340B002090F84230202B01D0022070470D
:1035700021B11AB10023036301F008B8012070479C
:103580007047704700BFFEE710B50E480E4908604F
:103590000320486000210C488160C1604FF4102175
:1035A00001614FF40011416100210176417681767D
:1035B000C17601774177FDF708FD08B1FDF710FAF4
:1035C00010BD0000006400406007002010B50E48E8
:1035D0000E4908600320486000210C488160C160EA
:1035E0004FF4102101614FF4001141610021017677
:1035F00041768176C17601774177FDF7E6FC08B127
:10360000FDF7EEF910BD00000068004088070020BB
:1036100008B500BF002000901A48006840F4800000
:10362000184908600846006800F48000009000BF58
:1036300000BF00BF002000900846006840F4001062
:1036400008600846006800F40010009000BF00BF4A
:10365000002205210C20FEF7E3FB0C20FEF7D2FB35
:10366000002205213A20FEF7DBFB3A20FEF7CAFBD9
:10367000002205213B20FEF7D3FB3B20FEF7C2FBD7
:1036800008BD00003038024000B595B01C22124938
:103690000EA8FCF728FE00210EA802F0CCFC0F4972
:1036A00008601C220C491C3107A8FCF71CFE0021F5
:1036B00007A802F0C0FC0A4908601C2206493831FC
:1036C0006846FCF710FE0021684602F0B4FC05498C
:1036D000086015B000BD0000507900080800002007
:1036E0000C0000201000002000B587B0142102A8B3
:1036F000FCF712FE00BF002001906E48006840F009
:1037000002006C4908600846006800F00200019061
:1037100000BF00BF00BF002001900846006840F0D5
:10372000010008600846006800F00100019000BF39
:1037300000BF00BF002001900846006840F008006C
:1037400008600846006800F00800019000BF00BF54
:1037500000BF002001900846006840F004000860A7
:103760000846006800F00400019000BF00BF00BFE1
:10377000002001900846006840F480700860084608
:10378000006800F48070019000BF00BF00BF0020FF
:1037900001900846006840F0800008600846006814
:1037A00000F08000019000BF00BF00BF002001902A
:1037B0000846006840F0400008600846006800F0D5
:1037C0004000019000BF00BF00BF002001900846EC
:1037D000006840F0200008600846006800F0200003
:1037E000019000BF00BF012240213348FEF71CF9C1
:1037F000012210213148FEF717F901221146304805
:10380000FEF712F9402002900120039004900590E9
:1038100002A92948FDF7F2FF092002904FF4041095
:1038200003900120049002A92348FDF7E7FF102030
:1038300002900120039004900220059002A91F48E5
:10384000FDF7DCFF302002904FF4041003900120BC
:10385000049002A91B48FDF7D1FF012002900390BC
:1038600004900220059002A91548FDF7C7FF002229
:1038700006210846FEF7D4FA0620FEF7C3FA002216
:1038800005210920FEF7CCFA0920FEF7BBFA002239
:1038900005210A20FEF7C4FA0A20FEF7B3FA002237
:1038A00005211720FEF7BCFA1720FEF7ABFA07B088
:1038B00000BD000030380240001802400000024005
:1038C000000402400008024010B50B480B49086094
:1038D0000B484860002109488160C1604FF4804175
:1038E0000161002141618161C1610162FEF7AAF8B5
:1038F00008B1FDF775F810BD005C0040B00700206E
:10390000801A060010B50F480F4908604FF4827006
:10391000486000210C488160C160022101610121E1
:103920004161490281613821C16100210162416226
:1039300081620A21C162FEF734FE08B1FDF750F83A
:1039400010BD0000003001400408002000B587B021
:103950001C216846FCF7E0FC154816490860002069
:10396000486000211348816041F28731C160002125
:1039700001618161FEF7A2FF08B1FDF731F80D4842
:10398000FFF7C3FA08B1FDF72BF860200090002084
:10399000019002900490002269460648FFF749FA18
:1039A00008B1FDF71DF80348FFF7AAF907B000BDFD
:1039B00000440140AC09002000B58DB00020099002
:1039C0000A900B900C90079008901C216846FCF719
:1039D000A3FC2848284908600020486000212648A8
:1039E00081604FF6FF71C160002101618161FEF7C6
:1039F00065FF08B1FCF7F4FF4FF48050099009A966
:103A00001D48FFF758F808B1FCF7EAFF1A48FFF71E
:103A10007CFA08B1FCF7E4FF00200790089007A9A2
:103A20001548FEF7FEFE08B1FCF7DAFF60200090B3
:103A30000020019002900490002269460E48FFF792
:103A4000F8F908B1FCF7CCFF042269460A48FFF7F1
:103A5000F0F908B1FCF7C4FF082269460648FFF7F1
:103A6000E8F908B1FCF7BCFF0348FFF749F90DB0CE
:103A700000BD0000000C00401C09002000B595B0FE
:103A8000002011901290139014900F9010901C2110
:103A900008A8FCF741FC20216846FCF73DFC2F48B4
:103AA0002F49086040F28F60486000212C488160F7
:103AB00040F2CF71C1600021016141618161FEF777
:103AC000FDFE08B1FCF78CFF4FF48050119011A956
:103AD0002348FEF7F0FF08B1FCF782FF2048FFF70C
:103AE00014FA08B1FCF77CFF00200F9010900FA98A
:103AF0001B48FEF796FE08B1FCF772FF60200890A5
:103B0000002009900A900B900C900D900E900422CA
:103B100008A91348FFF78DF908B1FCF761FF0822E7
:103B200008A90F48FFF785F908B1FCF759FF0020F5
:103B3000009001900290039004904FF40050059083
:103B40000020079069460648FEF738FE08B1FCF7EA
:103B500047FF0348FFF7D4F815B000BD000401404B
:103B60006409002010B50B480B4908604FF4E130A0
:103B70004860002108488160C16001610C214161F9
:103B800000218161C161FFF7E5FB08B1FCF728FF67
:103B900010BD000000100140A40A002010B50B4821
:103BA0000B4908600B484860002109488160C160EA
:103BB0004FF4806101610C21416100218161C1618B
:103BC000FFF7C8FB08B1FCF70BFF10BD0048004031
:103BD000EC0A0020A086010000BFFEE7704700004D
:103BE000B0EE401A10B99FED790A704790ED100AB7
:103BF00080ED110A90ED0F0A80ED100AC0ED060A63
:103C000080ED071A30EEC10A80ED0F0A0178002915
:103C100075D190ED010AD0ED0F1A20EE210A80ED4A
:103C2000090A90ED0A0AD0ED021A90ED0F2A01EE72
:103C3000820A80ED0A0A90ED0D0A80ED0E0A90EDE1
:103C40000C0A80ED0D0A90ED0F0AD0ED101A30EE3F
:103C5000610A80ED0C0A90ED030AD0ED0C1A20EEFB
:103C6000210A80ED0B0A90ED0A0AD0ED051AB4EE98
:103C7000E10AF1EE10FA04DD90ED050A80ED0A0A82
:103C800010E090ED0A0AD0ED051AF1EE611AB4EEDB
:103C9000E10AF1EE10FA05D290ED050AB1EE400A04
:103CA00080ED0A0A90ED090AD0ED0A1A30EE210AD9
:103CB000D0ED0B1A30EE210A80ED080A90ED080ACB
:103CC000D0ED041AB4EEE10AF1EE10FA04DD90ED45
:103CD000040A80ED080A76E090ED080AD0ED041A97
:103CE000F1EE611AB4EEE10AF1EE10FA6BD290ED4A
:103CF000040AB1EE400A80ED080A64E0FFE70178AB
:103D0000012960D190ED0F0AD0ED101A30EE610A52
:103D1000D0ED011A20EE210A80ED090A90ED020A89
:103D2000D0ED0F1A20EE210A80ED0A0A90ED0D0A5F
:103D300080ED0E0A90ED0C0A80ED0D0A90ED0F0A51
:103D4000D0ED101AB0EE002A02EE610AD0ED111A81
:103D500030EE210A80ED0C0A90ED030AD0ED0C1A2A
:103D600020EE210A80ED0B0A90ED090AD0ED0A1A27
:103D700030EE210AD0ED0B1A30EE210AD0ED081AF0
:103D800030EE210A80ED080A90ED080AD0ED041A01
:103D9000B4EEE10AF1EE10FA04DD90ED040A80EDD4
:103DA000080A10E090ED080AD0ED041AF1EE611A4D
:103DB000B4EEE10AF1EE10FA05D290ED040AB1EE8C
:103DC000400A80ED080A90ED080A0EE700000000A6
:103DD00000B102B97047017092ED001A80ED011A2E
:103DE00092ED011A80ED021A92ED021A80ED031A8B
:103DF00080ED040AC0ED050A9FED0C1A80ED0E1A45
:103E000080ED0D1A80ED0C1A9FED081A80ED081A4E
:103E100080ED0B1A80ED0A1A80ED091A80ED111A57
:103E200080ED101A80ED0F1A00BFD3E700000000EC
:103E300010B5234B1B685B6943F04003204C24689A
:103E400063611F4B1B68DB6843F010031C4C246844
:103E5000E3601C4B1B681B6823F00103194C2468AA
:103E6000236007E0174B1B681B6823F00103154C08
:103E700024682360134B1B681B6803F00103002BAD
:103E8000F0D1114B0F4C2468A3600E4B1B68D86017
:103E90000C4B1B6819610B4B1B685A60094B1B6864
:103EA0001B6843F48023074C24682360054B1B6880
:103EB0001B6843F00103034C2468236010BD00001D
:103EC000EC0A0020340B00200448004010B55020BC
:103ED00080F31188BFF34F8FBFF36F8F03F070FB38
:103EE00018B104494FF080500860002080F3118819
:103EF00010BD000004ED00E000B593B0302107A82C
:103F0000FCF70AFA142102A8FCF706FA00BF002009
:103F100001902448006840F080502249086008461B
:103F2000006800F08050019000BF00BF00BF00207B
:103F300001901D48006840F480401B490860084615
:103F4000006800F48040019000BF00BF012007908E
:103F50000004089002200D9041050E9106210F915A
:103F6000A8211091022111910721129107A8FEF7B3
:103F7000D7F808B1FCF734FD0F200290022003901F
:103F8000002004904FF4A05005904FF4805006900C
:103F9000052102A8FDF78AFF08B1FCF721FD13B047
:103FA00000BD000040380240007000401448006826
:103FB00040F47000124908601248006840F00100A7
:103FC0001049086000200F49083108600D4800685A
:103FD0000D4908400B4908600C48091D0860081F7E
:103FE000006820F48020091F0860002005490C317A
:103FF00008604FF000600249803908607047000097
:1040000088ED00E000380240FFFFF6FE103000248B
:1040100010B50248FEF7C5FD10BD0000940B00204E
:10402000F0B40268324BDFF8CCC0334D334E344C21
:1040300098420AD0B0F1804F07D0604505D0A84221
:1040400003D0B04201D0A04203D122F070024F68E9
:104050003A43984228D0B0F1804F25D0604523D014
:10406000A84221D0B0421FD0A0421DD0A0F1804C68
:10407000BCF5A03C18D0A0F1804CBCF5A23C13D0FC
:10408000A0F1804CBCF5A43C0ED0A0F1804CBCF556
:10409000C05C09D0A0F1804CBCF5E05C04D0A0F17C
:1040A000804CBCF5005C05D122F44072D1F80CC004
:1040B0004CEA0202D1F814C022F0800242EA0C025B
:1040C00002608A68C2620A688262984201D0A04295
:1040D00001D10969016301214161016911F0010FF9
:1040E00003D0016921F001010161F0BC70470000BB
:1040F000000001400004004000080040000C0040A7
:104100000004014001F01F0101238B40D0F820C0C2
:104110002CEA03030362036A02FA01F11943016204
:104120007047D0F808C02CF47F4C42EA03221143B8
:1041300041EA0C0181607047826822F070021143ED
:1041400041F007018160704770B4026A036A23F08E
:10415000010303624368D0F818C02CF0700C2CF0F7
:10416000030C0C6844EA0C0C22F002028C68224317
:104170000F4C104DA04201D0A84205D122F00802F8
:10418000CE68324322F00402A04201D0A84207D1F7
:1041900023F4807323F400734C6923438C69234315
:1041A0004360C0F818C049684163026270BC704740
:1041B000000001400004014070B4026A036A23F069
:1041C000100303624368D0F818C02CF4E04C2CF4C0
:1041D000407C0C684CEA042C22F020028C6842EAF5
:1041E0000412114C114DA04201D0A84206D122F078
:1041F0008002CE6842EA061222F04002A04201D0BC
:10420000A84209D123F4806323F400634C6943EA94
:1042100084038C6943EA84034360C0F818C049688A
:104220008163026270BC70470000014000040140DD
:1042300070B4026A036A23F4807303624368D0F89F
:104240001CC02CF0700C2CF0030C0C6844EA0C0C15
:1042500022F400728C6842EA0422114C114DA042F3
:1042600001D0A84206D122F40062CE6842EA0622BA
:1042700022F48062A04201D0A84209D123F48053E5
:1042800023F400534C6943EA04138C6943EA041392
:104290004360C0F81CC04968C163026270BC7047CB
:1042A000000001400004014010B4036A026A22F4D5
:1042B000805202624268D0F81CC02CF4E04C2CF40E
:1042C000407C0C684CEA042C23F400538C6843EACD
:1042D0000433A0F18044B4F5803404D0A0F18044CC
:1042E000B4F5823404D122F480424C6942EA84124B
:1042F0004260C0F81CC049680164036210BC70478A
:10430000036AD0F820C02CF0010CC0F820C0D0F80F
:1043100018C02CF0F00C4CEA021223F00A031943E7
:10432000826101627047036AD0F820C02CF0100C43
:10433000C0F820C0D0F818C02CF4704C4CEA0232FF
:1043400023F0A00343EA011182610162704710B5B6
:10435000806B0021C185C184FEF784FE10BD016819
:104360000C3151E8002F22F4907241E80023002B19
:10437000F5D10168143151E8002F22F0010241E823
:104380000023002BF5D1016B012909D101680C3103
:1043900051E8002F22F0100241E80023002BF5D154
:1043A000202180F8421000210163704710B5016898
:1043B000CA6822F04002CA60202180F84110FFF74D
:1043C000E0F8002010BD08B590F84210222901D075
:1043D000022008BD8268B2F5805F01D1016929B170
:1043E000816AB2F5805F1DD052B10BE0816A02682C
:1043F0005268C2F308020A80816A891C816209E05E
:1044000002697AB10268526802F07F020A70816A1A
:10441000491C8162C18D491E0904090CC18505D062
:10442000002008BD026852680A70F0E70168CA6897
:1044300022F02002CA600168CA6822F48072CA6051
:1044400001684A6922F001024A61202180F8421085
:1044500000214163026B012A03D0FFF791F800208D
:1044600008BD016301680C3151E8002F22F01002F1
:1044700041E80023002BF5D101680A6812F0100F03
:1044800002D00A6849680091818DFEF7EAFDE6E7EF
:104490002DE9F041044620680169E26821F44051A9
:1044A000114301612169A068E26908436169114310
:1044B00001432068C26822F4037222F414421143BB
:1044C000C16020684169A26921F4407111434161D2
:1044D0002068A0F18041B1F588312ED0A0F1804153
:1044E000B1F58A3129D0FDF7C3FD8446E16900208A
:1044F0001927254D3226B1F5004F22D06068830F71
:104500008200ACFB0701FBF7BDFE0146A5FB0020C6
:1045100040097A42424301EB820106EB0111A5FBFF
:104520000121490901F0F00202EB001001F00F0136
:10453000084421688860BDE8F081FDF7A9FD844644
:10454000D4E761684A1840EB0003ACFB0701FBF7B6
:1045500099FE0346A5FB0010410918460A016FF0B9
:104560001803594300EB810006EBC000A5FB0010C7
:10457000400900F0F80102EB410100F00700084497
:1045800021688860BDE8F0811F85EB5181628285DA
:10459000C28500214164222180F84210016900296E
:1045A00004D00168CA6842F48072CA6001684A692E
:1045B00042F001024A610068C16841F02001C16017
:1045C0000020704790F84110212901D00220704747
:1045D0008168B1F5805F01D1016961B1016A4A1C4E
:1045E0000262026809785160C18C491E0904090CF5
:1045F000C1840AD013E0016A02680988C1F3080186
:104600005160016A891C0162EEE70168CA6822F004
:104610008002CA600068C16841F04001C1600020AA
:104620007047000010B51648007855281BD1144873
:10463000C079BB2817D113480078401C1149087075
:104640000F484078104908700D48C0780C498978A7
:1046500040EA01200D490880094880790C4908701A
:104660000020074948720B48FEF7FEFC0948FEF798
:104670003DFD0A2202490748FEF774FF10BD000005
:10468000580A00206C0A0020180000201A000020A0
:104690001C000020A40A002008B5414800680068FA
:1046A00000F0200060B100BF002000903C4800688E
:1046B000006800903A4800684068009000BF6EE0D3
:1046C0003848006800F01000002868D000BF0020C3
:1046D00000903348006800680090314800684068E6
:1046E000009000BF00BF30480068006800F4002060
:1046F00058BB2D480068006820F001002A4909686D
:104700000860294800684068C0F1320027490880E5
:10471000322025490968486023480068006840F451
:1047200000202149096808601F480068006840F0BF
:1047300001001D49096808601C48008819282ED10D
:104740001B491C4801F0D4FB29E0174800680068A9
:1047500020F00100144909680860134800684068A7
:10476000C0F132001149088032200F4909684860C1
:104770001148806A20F400200F4988620A480068C6
:10478000006840F00100084909680860074800888F
:10479000192804D106490748323001F0A9FB08BDA9
:1047A000EC0A002000480040340B00201E000020CE
:1047B000800A0020F40900200060024000BFFEE7EC
:1047C00003B401984100009850EAC12018BF0420AA
:1047D0004A0D18BF40F0010040F2FF72B2EB515F8A
:1047E00008BF40F00200012808BF052002B0704752
:1047F0004100080218BF04200A0E18BF40F0010053
:104800004FF07F4232EA010108BF40F00200012868
:1048100008BF05207047000070B59B482DED020BC6
:104820002DED068B079D25F00044A04218DC97482B
:10483000844202DC0AD1069840B19DED060BBDEC26
:10484000068B02B0BDE8704000F075BE002DCCBFF5
:104850009FED8F0B9FED900BBDEC068B02B070BDF2
:104860008F48A04215DD8F48A042D8BF4FF0FF34DB
:1048700058DD9DED060B51EC100BFFF7A1FF04284E
:1048800008BF00F06DFE9DED060BBDEC068B02B07F
:1048900070BD9DED060B51EC100B01F0B9FACDE99E
:1048A000060181489FED828BA0423CDD8248A042F8
:1048B0001FDD00249FED82AB9DED060B53EC1A2B00
:1048C00051EC100BFBF733FD9DED060B41EC190B82
:1048D00053EC1A2B51EC100BFBF7D0FD53EC182BBB
:1048E000FBF7C6FD53EC192BFBF73AFECDE90601A9
:1048F00049E09DED060B012453EC182B51EC100BF5
:10490000FBF715FD9DED060B41EC190B53EC182B35
:1049100051EC100BFBF7ACFD53EC192BFBF720FE11
:10492000CDE906012FE06848A0421FDD02249FED7B
:10493000689B9DED060B53EC192B51EC100BFBF70C
:104940009DFD53EC182BFBF7F2FC9DED060B41ECA3
:10495000180B53EC192B51EC100BFBF789FD53ECA2
:10496000182BFBF7FDFDCDE906010CE09DED060BD4
:10497000032453EC102B9FED580B51EC100BFBF75D
:10498000EFFDCDE906019DED060B53EC102B51EC2C
:10499000100BFBF773FD41EC180B53EC182BFBF7D6
:1049A0006DFD41EC190B4E480621B0EE490AF0EEC0
:1049B000690A784400F043FD53EC182B51EC100BBE
:1049C000FBF75CFD41EC180B4648B0EE490AF0EEEF
:1049D000690A0521784400F032FD53EC192B51ECA3
:1049E000100BFBF74BFD41EC100B51EC180B53EC8B
:1049F000102B002C0EDAFBF79AFC9DED061B53ECF6
:104A0000112BFBF73BFD9DED061B53EC112BFBF728
:104A100032FD35E0FBF78BFC9DED061B53EC112BB3
:104A2000FBF72CFD41EC100B2F48784400EBC40041
:104A300090ED001B51EC100B53EC112BFBF718FD04
:104A40009DED061B53EC112BFBF712FD41EC100BF7
:104A50002648784400EBC40090ED001B51EC100B8D
:104A600053EC112BFBF707FD41EC100B002DA2BFFF
:104A7000BDEC068B02B070BD51EC100B81F0004113
:104A800041EC100B01E70000000010440000F07F33
:104A9000182D4454FB21F93F182D4454FB21F9BF34
:104AA0000000DC3F0000203E0000F33F000000005B
:104AB000000000000000F03F0000E63F00000000A2
:104AC00000000000000000400080034000000000E3
:104AD000000000000000F83F000000000000F0BFF0
:104AE000EA310000A03100002A310000E23000006D
:104AF00070B56F4E2DED040B2DED048B82B0DDF8FB
:104B000024C0DDE907235C422CF000411C4341EA4C
:104B1000D474069D22F00040B44205D86C422C4368
:104B200040EAD474B4420BD99DED081B9DED060BF1
:104B300002B0BDEC048B04B0BDE8704000F005BDD0
:104B4000ACF14054A4F17F641C430BD0022404EA6E
:104B5000AC7444EAD27405439FED578B9FED582BFC
:104B600007D015E09DED060B51EC100B00F044FD55
:104B700042E0002C11BF012C9DED060B02B0BDECF4
:104B8000048B04BF04B070BD022C38D0032C3BD082
:104B90000B439FED4D1B9FED4E0B0AD0B14218D138
:104BA000B04209D121F0804120F080400991079066
:104BB0000FE0002A15DA10E0474B7B44002C08BFB9
:104BC00093ED000B0DD0012C10D0022C17D0032C2C
:104BD0001AD0B0421DD1002A03DAB0EE410AF0EE3D
:104BE000610A02B0BDEC048B04B070BD93ED000B04
:104BF00051EC100B81F0004141EC100BF1E7B0EEED
:104C0000480AF0EE680AECE7B0EE420AF0EE620AFB
:104C1000E7E7401A00159FED329B3C28C8BF8DED99
:104C2000000B17DCBCF1000FBCBF10F13C0F8DED89
:104C3000009B0FDB9DED080B53EC102B9DED060B3D
:104C400051EC100BFBF78CFC01F0E2F800F0D4FC07
:104C5000CDE90001B4B1012C10D0022C9FED220B44
:104C600053EC102B9DED000B51EC100B19D0FBF702
:104C7000FFFB53EC182BFBF7FBFBBDE7019880F023
:104C8000004001909DED000B53EC192B51EC100BE3
:104C9000FBF7F2FD04BF022000F0A8FC9DED000B25
:104CA0009FE7FBF7E5FB53EC182BFBF7E4FBA3E7CF
:104CB0000000F07F00000000182D4454FB21094043
:104CC000182D4454FB2109C0182D4454FB21F9BF71
:104CD000182D4454FB21F93F123000000000000061
:104CE0000000000000000000075C143326A6A13C71
:104CF00010B52DED028BF0EE408A18EE900AB0EE62
:104D0000608A20F00040C0F1FF40C00F07D118EECC
:104D1000100A20F00040C0F1FF40C00F2BD018EE69
:104D2000101A18EE900AFBF721FD00EE100A10EEA3
:104D3000100A6FEAD05010F0FF0F04BFBDEC028BD9
:104D400010BD18EE900A00F0004110EE100A00F0BD
:104D50000040814204BFBDEC028B10BD18EE101A5A
:104D600010EE100ABDEC028B61F31E0000EE900AFB
:104D700030EE600A10BD18EE900A4FF07F41B1EBA3
:104D8000400F1CBF18EE100A5FEA4000C7D1012097
:104D900000F02CFCBDEC028BBDE8104000F0FEBB27
:104DA00010B510EE100A2DED068BB7EE001A10EEBE
:104DB000901AB0EE418A0022A0F5000CDFEDFE9AB9
:104DC0004FF00073BCF1FE4F4FF07F4403EB410CFA
:104DD00080F0B481BCF1804FC0F02082F7490144DB
:104DE0009FEDF73AB1F5005F40F2D48200F58021E3
:104DF000CB0C03F00F0101EE901AC3F307137F3BB6
:104E0000A0EBC350B8EEE12A00EE100A1A44DFED21
:104E1000ED2AF0EE411A42EE221AF0EE613A70EEFF
:104E2000232A30EE632A12EE900A00F500606FF339
:104E30000B0001EE900A73EEE13A33EE804AC1EEC8
:104E4000223A22EE230A10EE100A00F500606FF3FA
:104E50000B0000EE100A00EE612A00EE442A62EE1A
:104E6000232A70EE221A21EEA12ADFEDD73A02EEB4
:104E7000233A23EE023A20EE012A22EE811A03EEB3
:104E8000211A32EE010A10EE100A00F500606FF3ED
:104E90000B0000EE100A72EE401A31EE812A9FEDEF
:104EA000CB1A60EE011A9FEDCA1A20EE011A9FED8F
:104EB000C90A02EE001A31EE810A10EE100A00F55E
:104EC00000606FF30B0000EE100AC34871EEC01AC9
:104ED00031EE812A784400EBC10090ED003AD0ED2C
:104EE000011A100101EE100AF8EEC12A32EE211A61
:104EF00031EE001A31EE031A31EE221A11EE100AC9
:104F000000F500606FF30B0009EE100A39EE621A2B
:104F100031EE431A31EE400A30EE610A32EE40AA19
:104F200010EE900A002100F500606FF30B0008EE10
:104F3000900A084670EEE8AAFBF7B6FC29EE280AAC
:104F400000F00C01F0EEC00A10EE900AB0F18B4FA9
:104F50000DDD10EE900AB4EB400F08D310EE100AEE
:104F60004FF08B4262F31E0008EE900A13E069EEE8
:104F70002A0A38EEAA1A4AEE010A30EE201A11EE79
:104F8000100A00F500606FF30B0008EE900A30EE97
:104F9000680A70EE209A0C20FBF786FC38EEA90A0E
:104FA000B5EEC00AF1EE10FA34BFFEEE000AF6EEDE
:104FB000000A30EE800ABDEEC00A10EE100A0111A0
:104FC00000EE101AF8EEC00A00EE100AB8EEC00AA1
:104FD00038EEC00A30EE290ADFED801A9FED801A04
:104FE00000EE211ADFED7F1A7F4900F00F0040EE3E
:104FF000011A21EE800A794401EB800191ED001A3B
:105000007A49794401EB8001D1ED001A784901EE2B
:10501000801A794401EB8000764990ED000A31EE68
:10502000001AB0EEE00A10EE100A884215DA10EE0F
:10503000100AB4EB400F10D39FED6F0A30EE800AD8
:10504000DFED6E0A20EE200A68EE010ABDEC068B49
:10505000BCEEC00A20EE200A10BD10EE100A68490E
:10506000884243DA10EE100AB4EB400F3ED3BDEE97
:10507000E00A68EE010A10EE100A00EBD07251103F
:10508000C90501F17E5100EE101AA0EB6200C005C7
:1050900060EE200A00F17E5000EE100A60EE808A79
:1050A00018EE900AB4EB400F0FD1022000F09EFAE8
:1050B00000F07CFA10EE101A18EE100ABDEC068B08
:1050C00061F31E0000EE100A10BD18EE900A4000B9
:1050D00011D018EE900AFFF78BFB042808BF00F0F0
:1050E0006DFAB0EE680ABDEC068B10BDF5EEC00A95
:1050F000F1EE10FA0FD2022000F078FA00F05EFA1A
:1051000010EE101A18EE100ABDEC068B61F31E00AB
:1051100000EE100A10BD022000F068FA00F046FA16
:1051200010EE101AB0EE480A10EE100ABDEC068B15
:1051300061F31E0000EE100A10BD00BFBCF1804FED
:105140006CD300BF00F1FF43B3F1FE4F24D200BF88
:10515000B0EEC00A10EE100AC1F3C7537F2B0DDB6F
:10516000972BBFF63BAEC3F196034FF0010C0CFA40
:1051700003F3A3F1010C1CEA010F08D0012000F099
:1051800035FABDEC068BBDE8104000F007BA0B42C3
:1051900018BFBFEE008A21E643001CBF4FF08073AA
:1051A000B3EB400F34D96FF01A02DFED161A20EE80
:1051B000210A10EE100A27E000000000001080C055
:1051C000ABAAAA3E0000803D7EE24C3E00B03842D1
:1051D000D49AB8BB3BAA38421C2B0000FC59633759
:1051E000C9FF753A1872313DBA2A0000EE2A000054
:1051F0005E2A00000000FC420000FE420000004B5E
:10520000000040430000004D10F0004FA0D1E5E544
:10521000A0F50003B3F1FE4F21D2DFE503EB41031C
:10522000B3F1007F11D3F5EEC00AF1EE10FA05D10B
:10523000430018BFB4EB400F76D883E701F000417C
:1052400041F0FC5100EE901A7CE7B3F1807F06D26A
:1052500010EE903AA3F5000300EE903A72E720F0CA
:1052600000426FF0FF4C604C02EB0C03A34210D3E2
:1052700021F000439C44A4450BD3B0F17E5F18BFDE
:105280005FEA410C50D0B2F1FF4F98BFB3F1FF4F2E
:1052900005D9BDEC068BBDE8104000F07BB9B0F13C
:1052A000FF4F0FD0C1F3C7527F2A09DB972A11DACB
:1052B000C2F19602012303FA02F2531E0B4205D0FB
:1052C000002208E011F0004F55D128E00A4218BF33
:1052D000012200D1022210F5000F13D028B3B0F143
:1052E000004F26D010F1814F4FD04FF0FE42B2EB6D
:1052F000400F94BF01200020012202EBE17188429F
:1053000039D10CE011F0004F02D0012A38D032E040
:10531000012A02BF9FED350ABDEC068B10BD9FED43
:10532000340ABDEC068B10BD2FE011F0004F0CD1FC
:1053300021E0B1F1FF4F1ED011F5000F05D011F0A3
:10534000004F15D00AB1012A08D0022000F04EF912
:10535000BDEC068BBDE8104000F012B9022000F051
:1053600045F900F00DF9BDEC068BB1EE400A10BD19
:105370000AB1012A04D0B0EE690ABDEC068B10BD5B
:10538000BDEC068B9FED1B0A10BDBDEC068BB7EE86
:10539000000A10BD30EE410AB5EE001A9FED172A43
:1053A00000EE413AB6EE001A60EE001A00EE431A23
:1053B00061EEC11A9FED101A20EE011A20EE020ACA
:1053C0009FED0F2A01EE820A71EE001A11EE900A8B
:1053D00000F500606FF30B0009EE100A31EE491A78
:1053E00031EE00AA9CE50000FFFF3F00000080FFB7
:1053F0000000807F0000008000B0B841D49A38BB24
:105400003BAAB84110B52DED028BB1EEC08A18EE63
:10541000100A20F00040C0F1FF40C00F0AD010EE8B
:10542000100A20F00040C0F1FF40C00F04BF01206F
:1054300000F0DCF8B0EE480ABDEC028B10BD70B590
:1054400004462DED028B4D1E00EBC500B0EE408AE8
:10545000F0EE608A90ED000B35F0060017D053ECAB
:10546000182B51EC100BFBF709F841EC100B6D1EDB
:1054700004EBC50090ED001B51EC100B53EC112B0D
:10548000FAF755FF41EC100B35F00600E7D1022D7D
:1054900036D0042D1CD0062D1CBFBDEC028B70BD78
:1054A00053EC182B51EC100BFAF7E8FF94ED0A1BA4
:1054B00053EC112BFAF73BFF53EC182BFAF7DEFFF6
:1054C00094ED081B53EC112BFAF731FF41EC100B54
:1054D00053EC182B51EC100BFAF7D0FF94ED061B90
:1054E00053EC112BFAF723FF53EC182BFAF7C6FFF6
:1054F00094ED040B53EC102BFAF719FF41EC100B51
:1055000053EC182B51EC100BFAF7B8FF94ED021B7B
:1055100053EC112BFAF70BFF53EC182BFAF7AEFFF5
:1055200094ED001B53EC112BFAF701FFBDEC028B3D
:1055300041EC100B70BD10B553EC102B51EC100B5F
:10554000FAF7F5FE41EC100B10BD10B553EC112B22
:1055500051EC100BFAF7EBFE41EC100B10BD000004
:105560009FED050B10B553EC102B51EC100BFAF717
:1055700085FF41EC100B10BD000000000000001082
:10558000DFED030AB7EE001A81EE200A7047000033
:105590000000000030EE200A70470000DFED020A34
:1055A00080EEA00A70470000000000009FED020A94
:1055B00020EE000A70470000000000709FED020A14
:1055C00020EE000A704700000000001002E008C84A
:1055D000121F08C1002AFAD170477047002001E06D
:1055E00001C1121F002AFBD1704700000149086069
:1055F00070470000B400002010B541EC100BFFF71D
:105600000BF951EC100B10BD10B52DED048BB0EE65
:10561000408AF0EE608A05E09FED230A38EE000A2A
:10562000B0EE408AB5EEC08AF1EE10FAF4D305E090
:105630009FED1D0A38EE400AB0EE408A9FED1A0A2F
:10564000B4EEC08AF1EE10FAF2DC05E09FED160A26
:1056500038EE800AF0EE408AF5EEC08AF1EE10FADC
:10566000F4D305E09FED100A38EEC00AF0EE408A50
:105670009FED0D0AF4EEC08AF1EE10FAF2DC78EE3E
:10568000680A9FED0A1A70EE810AB0EE600ADFED3B
:10569000060AFFF72DFBDFED060A30EE609AB0EE4A
:1056A000490ABDEC048B10BD0000B4430000074460
:1056B0000000344300B58BB0012009900020079012
:1056C0000120089000200190029003900490069021
:1056D000059001A90C48FBF70FFA0B48FBF777FE82
:1056E00002210948FBF77DF90E200A90069001A9D6
:1056F0000648FBF701FA0548FBF769FE022103485B
:10570000FBF76FF90BB000BD600700208807002091
:10571000F0B52DED048B89B0B0EE408AF0EE608AD2
:10572000B0EE419AF0EE619AB3EE080AC8EE000AB4
:105730009FED2C0A20EE800ABDEEC00A10EE100A82
:1057400004B2F3EE080A88EEA00ADFED260A20EE86
:10575000200ABDEEC00A10EE100A05B2F3EE040AEC
:1057600089EE200ADFED200A20EE200ABDEEC00AF5
:1057700010EE100A06B2F3EE040A89EEA00ADFED7D
:105780001A0A20EE200ABDEEC00A10EE100A07B277
:1057900040F2FF100390002005900690082007902B
:1057A000200A8DF80400E0B28DF80500280A8DF873
:1057B0000600E8B28DF80700300A8DF80800F0B254
:1057C0008DF80900380A8DF80A00F8B28DF80B0040
:1057D0006B4601AA03A90548FBF715F909B0BDEC12
:1057E000048BF0BD0050C3460000804660070020D7
:1057F0002DED0E8B8CB000BF00BF00BFFE4AD2E97A
:1058000000109268CDE90A020991F0EE080AB2EEA2
:10581000080A09AA0021F948FEF7DAFAF64A0C321A
:10582000D2E900109268CDE907020691F0EE080A6D
:10583000B2EE080A06AA0021F148FEF7C9FA00BF35
:1058400000BF00BFEC4A1832D2E900109268CDE9DF
:1058500004020391DFEDEB0AB0EE040A03AA002173
:10586000E948FEF7B5FAE44A2432D2E9001092681A
:10587000CDE901020091DFEDE30AB0EE040A6A46C9
:105880000021E248FEF7A4FA67E2E148007868B92F
:10589000DFEDDC1A9FEDDB1ADFEDDA0A9FEDD90AA6
:1058A000FFF736FF012000F0B9FB56E2D848407DF3
:1058B000022829D19FEDD30AD64880ED000AD448AA
:1058C00090ED020AF7EE000A60EE200A9FEDD21A70
:1058D00080EE810ADFEDD10A20EE200ACD4880ED6E
:1058E000010ACB4890ED010AF3EE0E0A20EE200AE1
:1058F0009FEDCB1AC0EE010A9FEDC80A20EE800A88
:10590000C44880ED020A2EE0C148407D012802D043
:10591000BF48407D38BBBE4890ED010AF7EE000A53
:1059200020EE200ADFEDBC0A80EE201A9FEDBB0AB4
:1059300021EE000AB74880ED000AB54890ED020A52
:10594000F7EE000A60EE200A9FEDB31A80EE810A9E
:10595000DFEDB20A20EE200AAE4880ED010A9FED8D
:10596000A90A80ED020AAB4890ED010AD0ED020AC7
:1059700030EE600A10EE101A0846FAF760FE41ECAD
:105980001D0BA44890ED000A10EE101A0846FAF715
:1059900056FE41EC1E0BB0EE4D1AF0EE6D1AB0EE55
:1059A0004E0AF0EE6E0AFFF7A3F8B0EE40CAF0EE32
:1059B00060CA9FED9C0B53EC102B51EC1C0BFAF7BB
:1059C000CFFD41EC1B0B9FED990B53EC102BFAF71D
:1059D00055FD41EC1A0B9FED970B53EC102BFAF78A
:1059E000A6FC41EC190BFAF73DFE8449083908651D
:1059F000884890ED010AD0ED020A30EE200A10EE40
:105A0000101A0846FAF71BFE41EC1D0B814890ED79
:105A1000000A10EE101A0846FAF711FE41EC1E0BB0
:105A2000B0EE4D1AF0EE6D1AB0EE4E0AF0EE6E0AC0
:105A3000FFF75EF8B0EE40CAF0EE60CA9FED790B5A
:105A400053EC102B51EC1C0BFAF78AFD41EC1B0BAD
:105A50009FED760B53EC102BFAF710FD41EC1A0B6F
:105A60009FED760B53EC102BFAF761FC41EC190B10
:105A7000FAF7F8FD6249083908656648D0ED010A71
:105A800090ED021A70EEC10AB0EE600AF0EE000A64
:105A9000FFF786F9F0EE409A5E48D0ED000AB0EECE
:105AA000600AF0EE000AFFF77BF939EE800AB0EEEB
:105AB000409AFFF7A7FCDFED630A20EE200A524868
:105AC000083880ED140A5348D0ED010A90ED021A0F
:105AD00070EE810AB0EE600AF0EE000AFFF760F99E
