:020000040800F2
:100000005007002029020008751700088116000813
:10001000711700081F04000899170008000000006D
:100020000000000000000000000000007B17000836
:100030004504000800000000791700087D1700083B
:10004000430200084302000843020008430200087C
:10005000430200084302000843020008430200086C
:10006000430200084302000843020008430200085C
:10007000430200084302000843020008430200084C
:10008000430200084302000843020008430200083C
:100090002504000843020008430200084302000848
:1000A000430200084302000843020008430200081C
:1000B000430200084302000843020008430200080C
:1000C00043020008430200084302000843020008FC
:1000D00043020008430200084302000843020008EC
:1000E00043020008430200084302000843020008DC
:1000F00043020008430200084302000843020008CC
:1001000043020008430200084302000843020008BB
:1001100043020008430200084302000843020008AB
:10012000430200084302000843020008430200089B
:10013000430200084302000843020008430200088B
:100140003504000843020008430200084302000887
:10015000430200084302000843020008430200086B
:10016000430200084302000843020008430200085B
:100170004302000843020008430200080000000098
:10018000430200084302000800F002F800F03CF8C7
:100190000AA090E8000C82448344AAF10107DA45E2
:1001A00001D100F031F8AFF2090EBAE80F0013F0F8
:1001B000010F18BFFB1A43F001031847081700008E
:1001C00028170000103A24BF78C878C1FAD852071F
:1001D00024BF30C830C144BF04680C6070470000C1
:1001E0000023002400250026103A28BF78C1FBD840
:1001F000520728BF30C148BF0B6070471FB501F0E0
:100200004FFB1FBD10B510BD00F0CFF81146FFF732
:10021000F5FF01F039FB00F0EDF803B4FFF7F2FF52
:1002200003BC00F0F5F80000094880470948004782
:10023000FEE7FEE7FEE7FEE7FEE7FEE7FEE7FEE796
:10024000FEE7FEE704480549054A064B70470000F3
:100250008517000889010008500100205007002080
:10026000500300205003002053EA020C00F0698084
:100270002DE9F04B4FF00006002B1FBFB3FA83F5BA
:1002800003FA05F424FA05F65E4012BF1643B2FAEB
:1002900082F502FA05F4C5F120051EBF22FA05FC1D
:1002A00044EA0C04203556EA044C4FEA144418BFC3
:1002B000641C4FF000084FF00009904271EB030CF2
:1002C00039D3002919BFB1FA81F701FA07F6B0FA5C
:1002D00080F700FA07F6C7F120071EBF20FA07FCD7
:1002E00046EA0C062037B6FBF4FCA7EB0507103FE7
:1002F00007F01F0BCBF120060CFA0BFB2CFA06F6CD
:1003000044BFB3460026202FA4BF5E464FF0000B2B
:100310005BEA060C08BF4FF0010B19EB0B09ABFBB6
:10032000027C48EB0608C01B06FB02CC0BFB03CC8F
:1003300071EB0C01C1E70B46024641464846BDE859
:10034000F08B13B54FF000004FF00001AFF30080C9
:10035000BDE81C4070474FF0000200B513469446BC
:100360009646203922BFA0E80C50A0E80C50B1F10D
:100370002001BFF4F7AF090728BFA0E80C5048BF21
:100380000CC05DF804EB890028BF40F8042B08BFBF
:10039000704748BF20F8022B11F0804F18BF00F8BB
:1003A000012B7047704770477047754600F02CF876
:1003B000AE4605006946534620F00700854618B052
:1003C00020B5FFF73FFFBDE820404FF000064FF09B
:1003D00000074FF000084FF0000B21F00701AC467A
:1003E000ACE8C009ACE8C009ACE8C009ACE8C00999
:1003F0008D46704710B50446AFF300802046BDE837
:100400001040FFF70ABF000000487047F0000020CE
:1004100001491820ABBEFEE726000200704700BF6E
:10042000FEE7000010B5024800F0CEF810BD000055
:100430002800002010B5024800F0C6F810BD0000EA
:1004400050000020704772B600BFFEE7704770B5DD
:10045000044694F82050012D01D0022D7DD151B9D0
:100460002068C06800F0030080B9606A40F40010A2
:100470006062012070BD2068006900F0030028B9A7
:10048000606A40F4001060620120F3E7206800F524
:10049000D87000EB0110006800F0040090609068D4
:1004A00040B9206800F5D87000EB01100068400DDD
:1004B000106007E0206800F5D87000EB01100068BC
:1004C000C0085060206800F5D87000EB011000688B
:1004D00000F00200D060206800F5D87000EB011039
:1004E000406800F00F001061206800F5D87000EB44
:1004F0000110406800F47F40000A9061206800F518
:10050000D87000EB01104068000C5061206800F5C5
:10051000D87000EB011080681870206800F5D87062
:1005200000EB0110806800F47F40000A58702068DA
:1005300000F5D87000EB0110806800F47F00000C1B
:100540009870206800F5D87000EB01108068000EEC
:10055000D870206800F5D87000E02FE000EB0110A3
:10056000C0681871206800F5D87000EB0110C068F1
:1005700000F47F40000A5871206800F5D87000EB45
:100580000110C06800F47F00000C9871206800F52D
:10059000D87000EB0110C068000ED87131B9206826
:1005A000C06840F020002668F06005E0206800691F
:1005B00040F020002668306100205BE7606A40F46C
:1005C00080206062012055E72DE9F05F0446002598
:1005D000206846692068D0F8049020688768206801
:1005E000D0F80CA02068D0F810B02068D0F818809F
:1005F00006F00100002855D007F00100C0B101202D
:100600002168886007F0020018B1204600F0DCFA8B
:100610000EE007F0040010B145F4006508E007F0B3
:10062000080010B145F4805502E0204600F0CBFAF6
:1006300007F48070C8B14FF480702168886007F4B7
:10064000007018B1204600F0C1FA0EE007F4806097
:1006500010B145F4005508E007F4006010B145F40E
:10066000804502E0204600F0B0FA07F48030C8B1BF
:100670004FF480302168886007F4003018B12046BC
:1006800000F0A6FA0EE007F4802010B145F4004512
:1006900008E007F4002010B145F4803502E0204660
:1006A00000F095FA06F0080038B10AF0100020B109
:1006B00045F4007510202168C86006F0040040B1C0
:1006C0000AF0080028B108202168C860204600F020
:1006D0000DFA06F0020038B12068C06800F003008F
:1006E00010B1204600F004FA06F0400038B10BF0DB
:1006F000100020B145F4806510202168086106F0E3
:10070000200040B10BF0080028B1082021680861E2
:10071000204600F055FA06F0100038B12068006954
:1007200000F0030010B1204600F04BFA06F4003050
:1007300040B109F0100028B110202168486020461F
:1007400000F040FA06F4803040B109F0080028B10A
:10075000082021684860204600F03BFA06F400407B
:1007600088B309F0040078B306F4807020B108F073
:10077000010008B145F0010506F4007020B108F051
:10078000020008B145F0020506F4806020B108F0CF
:10079000040008B145F0040506F40060A0B108F0BB
:1007A000700088B108F07000402817D006DC1028CF
:1007B0000BD020280CD0302819D10CE0502810D0B4
:1007C000602814D110E01DE019E045F008050FE0A5
:1007D00045F010050CE045F0200509E045F0400526
:1007E00006E045F0800503E045F4807500E000BFB9
:1007F00000BF2068806920F07000216888610420B3
:10080000216848602DB1606A284360622046FFF786
:100810001DFEBDE8F09F70B504460CB9012070BD07
:1008200094F8200010B9204600F0B0F82068006865
:1008300040F001002168086000F0C4FA05460DE0B0
:1008400000F0C0FA401B0A2808D9606A40F4003062
:100850006062052084F820000120E0E720684068FD
:1008600000F001000028EBD02068006820F00200B2
:100870002168086000F0A6FA05460DE000F0A2FA33
:10088000401B0A2808D9606A40F4003060620520E5
:1008900084F820000120C2E72068406800F00200D0
:1008A0000028EBD1207E012806D12068006840F0A6
:1008B00080002168086005E02068006820F0800062
:1008C00021680860607E012806D12068006840F039
:1008D00040002168086005E02068006820F04000C2
:1008E00021680860A07E012806D12068006840F0D9
:1008F00020002168086005E02068006820F02000E2
:1009000021680860E07E012806D12068006820F098
:1009100010002168086005E02068006840F01000C1
:1009200021680860207F012806D12068006840F017
:1009300008002168086005E02068006820F00800D1
:1009400021680860607F012806D12068006840F0B7
:1009500004002168086005E02068006820F00400B9
:1009600021680860D4E902010843216908436169EC
:1009700008436168491E08432168C861002060621D
:10098000012084F82000002049E7000010B586B05F
:100990000446142101A8FFF7DEFC4F492068884275
:1009A00042D14E480068401C4C4908600846006827
:1009B00001280FD100BF002000904948006840F096
:1009C0000070474908600846006800F00070009019
:1009D00000BF00BF00BF00200090414810380068F1
:1009E00040F002003E49103908600846006800F0F7
:1009F0000200009000BF00BF4FF440700190022041
:100A0000029000200390032004900920059001A982
:100A1000344800F0DFF800221146142000F05CFAA0
:100A2000142000F049FA54E02F492068884250D140
:100A300000BF002000902A48006840F080602849EC
:100A400008600846006800F08060009000BF00BFAA
:100A500022480068401C21490860084600680128B7
:100A60000FD100BF002000901D48006840F00070CA
:100A70001B4908600846006800F00070009000BF45
:100A800000BF00BF0020009015481038006840F0FB
:100A900002001349103908600846006800F002009F
:100AA000009000BF00BF6020019002200290002053
:100AB0000390032004900920059001A9094800F043
:100AC00089F800221146402000F006FA402000F08C
:100AD000F3F906B010BD00000064004000000020E3
:100AE00040380240000402400068004070470000A7
:100AF00010B58AB0044601AB03AA00212046FFF7D7
:100B0000A6FC0398A0F20120072851D2DFE800F0EC
:100B10000405060708090A0000BF00BF00BF00BFA8
:100B200000BF00BF0398401E2349087008460078A4
:100B300000EB8000214931F8100000B21E4909780D
:100B400001EB81011D4A02EB410108819DF805007E
:100B50009DF8041040EA01201749097801EB810152
:100B600022F811009DF807009DF8061040EA0120C8
:100B700000B21149097801EB810102EB4101488083
:100B80009DF809009DF8081040EA012000B20A49CA
:100B9000097801EB810102EB410188809DF80A0090
:100BA0000549097801EB810102EB4101887100E000
:100BB00000BF00BF0AB010BD140000207800002064
:100BC000704770477047704770477047704770476D
:100BD00070477047F8B502460B46002500240020F8
:100BE0000021D5E0012606FA01F51E6806EA050493
:100BF000AC4274D11E7906F00306012E04D01E7992
:100C000006F00306022E13D190684F000326BE4063
:100C1000B0434F00DE68BE4030439060506801260C
:100C20008E40B0431E79C6F300168E4030435060AC
:100C30001E7906F00306032E09D0D0684F00032664
:100C4000BE40B0434F009E68BE403043D0601E7926
:100C500006F00306022E13D1CF0802F1200656F843
:100C600027004E07F70E0F26BE40B0434F07FF0E7A
:100C70001E69BE403043CF0802F1200646F8270027
:100C800010684F000326BE40B0431E7906F00306ED
:100C90004F00BE40304310605E6806F44036002EC0
:100CA00075D000BF002600963B4E366846F480465D
:100CB000394F3E603E46366806F48046009600BFD7
:100CC00000BF364E8F0856F827008E07370F0F26C5
:100CD000BE40B043324EB24202D1002624E056E07C
:100CE000304EB24201D101261EE02F4EB24201D158
:100CF000022619E02D4EB24201D1032614E02C4EFB
:100D0000B24201D104260FE02A4EB24201D105269B
:100D10000AE0294EB24201D1062605E0274EB24232
:100D200001D1072600E008268F073F0FBE40304361
:100D30001A4E8F0846F82700214E3068A0435E689F
:100D400006F4803606B120431D4E3060361D3068F3
:100D5000A0435E6806F4003606B12043184E361DE7
:100D60003060361D3068A0435E6806F4801606B118
:100D70002043134E08363060361D3068A0435E684D
:100D800006F4001606B120430D4E0C363060491CA7
:100D90001029FFF427AFF8BD44380240083801405D
:100DA000000002400004024000080240000C024023
:100DB000001002400014024000180240001C0240D3
:100DC000003C014001480068704700001800002006
:100DD00003480068034909780844014908607047DE
:100DE000180000202000002010B50D48006840F4D5
:100DF00000700B4908600846006840F48060086095
:100E00000846006840F480700860032000F0A2F8F3
:100E10000F2000F007F800F02BF8002010BD0000B4
:100E2000003C024070B504460E4800784FF47A71D9
:100E3000B1FBF0F00C490968B1FBF0F5284600F071
:100E400005FC08B1012070BD102C07D200222146FC
:100E5000501E00F041F80548046001E00120F2E76F
:100E60000020F0E720000020240000201C000020CB
:100E700008B500BF002000900E48006840F4804094
:100E80000C4908600846006800F48040009000BFEC
:100E900000BF00BF00200090081F006840F0805095
:100EA000091F08600846006800F08050009000BFED
:100EB00000BF08BD4438024001460846002809DB4F
:100EC00000F01F0301229A4043099B0003F1E02335
:100ED000C3F8002100BF70472DE9F05F80460D4642
:100EE0001646002700F0C8FC074639462A46334616
:100EF00001F00700C0F1070ABAF1040F02D94FF060
:100F0000040A01E0C0F1070AD14600F1040ABAF16F
:100F1000070F02D24FF0000A01E0A0F1030AD44605
:100F20004FF0010A0AFA09FAAAF1010A0AEA020ACA
:100F30000AFA0CFA4FF0010B0BFA0CFBABF1010BA8
:100F40000BEA030B4AEA0B042146404600F080FC02
:100F5000BDE8F09F00BF00F00702064B19684FF68E
:100F6000FF031940044B0B4343EA0221014B196074
:100F700000BF70470CED00E00000FA0570B50446B4
:100F80000D460CB9012070BD5848006800F00700FC
:100F9000A84209D255490D700846006800F00700C4
:100FA000A84201D00120EEE7207800F002000228DC
:100FB0001DD1207800F00400042805D14C480068B9
:100FC00040F4E0504A490860207800F00800082802
:100FD00005D14748006840F46040454908604448EE
:100FE000006820F0F000A1680843414908602078BB
:100FF00000F00100A8B36068012807D13C48083818
:101000000068C0F34040B8B90120BCE7606802281E
:1010100002D06068032807D1354808380068C0F35B
:10102000406048B90120AEE7314808380068C0F395
:10103000400008B90120A6E72D48006820F0030011
:10104000616808432A490860FFF7BCFE064609E0CC
:10105000FFF7B8FE801B41F28831884202D9032095
:1010600091E707E02248006800F00C006168B0EBEF
:10107000810FEDD11D48006800F00700A84209D992
:101080001A490D700846006800F00700A84201D018
:10109000012078E7207800F00400042807D11448E4
:1010A000006820F4E050E1680843114908602078A6
:1010B00000F00800082808D10D48006820F46040BE
:1010C000216940EAC1000A49086000F019F808499E
:1010D0000968C1F30311074A515CC840064908601A
:1010E00006480068FFF79EFE00204CE7003C0240E7
:1010F00008380240AA180008240000201C00002024
:101100002DE9F047002400250026A1462548006867
:1011100000F00C0020B1042805D008283AD105E0E1
:10112000DFF8849039E0DFF8849036E01D48001F36
:10113000006800F03F041B48001F006800F48000B6
:1011400078B11A481749091F0968C1F38811A0FB33
:1011500001700146224600233846FFF785F8054610
:101160000EE011480F49091F0968C1F38811A0FB5F
:1011700001700146224600233846FFF775F8054600
:101180000848001F0068C0F30140401C4600B5FB42
:10119000F6F902E0DFF8109000BF00BF4846BDE856
:1011A000F0870000083802400024F400001BB7005C
:1011B000F8B504460CB90120F8BD207800F0010014
:1011C000002874D0F948006800F00C0004280DD005
:1011D000F648006800F00C00082813D1F348001FFF
:1011E000006800F48000B0F5800F0BD1EF4808389C
:1011F0000068C0F34040002859D06068002856D1EC
:101200000120D9E700BF6068B0F5803F08D1E7480A
:101210000838006840F48030E449083908601EE06E
:101220006068B0F5A02F0DD1E0480838006840F4A0
:101230008020DE49083908600846006840F48030A4
:1012400008600CE0D9480838006820F48030D7499D
:10125000083908600846006820F48020086000BF54
:10126000606890B1FFF7AEFD054606E0FFF7AAFD06
:10127000401B642801D903209EE7CC480838006849
:10128000C0F340400028F1D011E0FFF79BFD054678
:1012900006E0FFF797FD401B642801D903208BE788
:1012A000C24808380068C0F340400028F1D12078D7
:1012B00000F0020002285FD1BC48006800F00C007A
:1012C00058B1BA48006800F00C0008281CD1B74893
:1012D000001F006800F48000B0B9B4480838006806
:1012E000C0F3400020B1E068012801D0012063E78D
:1012F000AE480838006820F0F800216940EAC100D3
:10130000AA490839086037E0E06800B30120A8491D
:101310000860FFF757FD054606E0FFF753FD401B49
:10132000022801D9032047E7A04808380068C0F325
:1013300040000028F1D09D480838006820F0F800EF
:10134000216940EAC10099490839086014E0002089
:1013500097490860FFF736FD054606E0FFF732FDC6
:10136000401B022801D9032026E79048083800686E
:10137000C0F340000028F1D1207800F008000828D0
:101380002CD16069A8B101208A490860FFF71AFDD5
:10139000054606E0FFF716FD401B022801D9032091
:1013A0000AE782486C300068C0F340000028F1D0A2
:1013B00014E000207F490860FFF704FD054606E0C1
:1013C000FFF700FD401B022801D90320F4E677480F
:1013D0006C300068C0F340000028F1D1207800F0A4
:1013E0000400042870D1002770483830006800F0ED
:1013F000805090B900BF002000906C4838300068E1
:1014000040F080506949383108600846006800F0B3
:101410008050009000BF00BF01276748006800F4BB
:101420008070B0B96448006840F480706249086018
:10143000FFF7C8FC054606E0FFF7C4FC401B022886
:1014400001D90320B8E65C48006800F480700028E9
:10145000F2D000BFA068012808D154486830006865
:1014600040F001005149683108601DE0A06805287E
:101470000DD14E486830006840F004004B49683197
:1014800008600846006840F0010008600CE047482A
:101490006830006820F0010044496831086008465F
:1014A000006820F00400086000BFA068A8B1FFF742
:1014B00089FC054609E0FFF785FC401B41F28831B5
:1014C000884202D9032077E626E038486830006871
:1014D000C0F340000028EED013E0FFF773FC054690
:1014E00008E0FFF76FFC401B41F28831884201D9C8
:1014F000032061E62D4868300068C0F340000028F2
:10150000EFD1012F07D129483830006820F08050F2
:1015100026493831086000BFA069002845D023481B
:10152000006800F00C0008285DD0A069022845D1B1
:1015300000201F490866FFF745FC054606E0FFF757
:1015400041FC401B022801D9032035E61748083822
:101550000068C0F340600028F1D1D4E907010843D6
:10156000616A40EA81110122A06AC2EB500041EA9F
:1015700000412C20005D41EA00600C49091F086011
:1015800001200B490866FFF71DFC054606E0FFF742
:1015900019FC401B022801D903200DE60348083836
:1015A0000068C0F340600028F1D049E008380240EC
:1015B00000004742800E4742007000400020214951
:1015C0000866FFF7FFFB054606E0FFF7FBFB401B45
:1015D000022801D90320EFE51B480068C0F34060F2
:1015E0000028F2D12CE0A069012800D1E4E51648DA
:1015F000001D0668A069012820D006F48001E0697A
:1016000081421BD106F03F01206A814216D147F684
:10161000C0703040616AB0EB811F0FD106F44031D9
:101620000122A06AC2EB5000B1EB004F06D106F0D8
:1016300070612C20005DB1EB006F01D00120BBE593
:101640000020B9E5000047420038024070B504466A
:101650002546681EB0F1807F01D301200FE0681E8F
:101660004FF0E02148610F214FF0FF3000F0F0F81B
:1016700000204FF0E021886107200861002070BD44
:1016800000BFFEE710B50E480E4908600320486011
:1016900000210C488160C1604FF4002101614FF4CA
:1016A000401141610021017641768176C176017752
:1016B0004177FFF7B0F808B1FEF7C5FE10BD000096
:1016C000006400402800002010B50E480E49086054
:1016D0000320486000210C488160C1604FF4002164
:1016E00001614FF44011416100210176417681761C
:1016F000C17601774177FFF78EF808B1FEF7A3FEB8
:1017000010BD0000006800405000002008B500BF78
:10171000002000901548006840F00200134908605E
:101720000846006800F00200009000BF00BF00BF44
:10173000002000900846006840F00100086008465C
:10174000006800F00100009000BF00BF00BF002053
:1017500000900846006840F0800008600846006875
:1017600000F08000009000BF00BF08BD303802408C
:1017700000BFFEE700BFFEE77047704710B5FFF7F8
:1017800027FB10BD0348006840F470000149086061
:101790007047000088ED00E000BFFEE700B593B0A1
:1017A000302107A8FEF7D7FD142102A8FEF7D3FDCC
:1017B00000BF002001902448006840F0805022497A
:1017C00008600846006800F08050019000BF00BF2C
:1017D00000BF002001901D48006840F480401B4974
:1017E00008600846006800F48040019000BF00BF18
:1017F000012007900004089002200D9041050E91F1
:1018000006210F91A821109102211191042112911A
:1018100007A8FFF7CDFC08B1FEF715FE0F200290D8
:1018200002200390002004904FF4A05005904FF444
:1018300080500690052102A8FFF7A0FB08B1FEF733
:1018400002FE13B000BD00004038024000700040AE
:1018500010B5002804DB0A07130E054A135406E0EE
:101860000A07140E034A00F00F031B1FD45410BDC7
:1018700000E400E018ED00E002480068C0F3022038
:10188000704700000CED00E0FFF7AEFAFFF786FFAF
:10189000FFF73CFFFFF7F6FEFFF716FF00BFFEE77E
:1018A0004FF04070E1EE100A7047000000000000A9
:1018B00000000102030406070809000000000102FD
:1018C00003040000E41800080000002028000000C5
:1018D000C40100080C190008280000202807000097
:1018E000E00100080000000000000000000000000F
:1018F00000000000000000000000000000000000E8
:0C19000010000000010000000024F400B2
:040000050800018965
:00000001FF
