:020000040800F2
:10000000D8490020E9020008AF200008851E00083A
:10001000AD20000843050008A925000800000000E5
:10002000000000000000000000000000290200089D
:10003000A50700080000000085020008352200081E
:100040000303000803030008030300080303000878
:100050000303000803030008030300080303000868
:100060000303000803030008030300080303000858
:1000700011070008030300081D0700080303000818
:100080000303000803030008030300080303000838
:1000900045050008030300080303000803030008E4
:1000A00003030008052300080303000803030008F6
:1000B0000303000803030008030300080303000808
:1000C00003030008030300080303000803030008F8
:1000D000030300080303000803030008F5240008D5
:1000E00003030008030300080303000803030008D8
:1000F00003030008030300080303000803030008C8
:1001000003030008030300080303000803030008B7
:1001100003030008030300080303000803030008A7
:100120000303000803030008030300080303000897
:100130000303000803030008030300080303000887
:100140005105000803030008030300080303000827
:100150000303000803030008030300080303000867
:100160000303000803030008030300080303000857
:100170000303000803030008030300080000000055
:10018000030300080303000800F002F800F03CF845
:100190000AA090E8000C82448344AAF10107DA45E2
:1001A00001D100F031F8AFF2090EBAE80F0013F0F8
:1001B000010F18BFFB1A43F0010318473C3300003E
:1001C0005C330000103A24BF78C878C1FAD85207CF
:1001D00024BF30C830C144BF04680C6070470000C1
:1001E0000023002400250026103A28BF78C1FBD840
:1001F000520728BF30C148BF0B6070471FB503F0DE
:1002000015F91FBD10B510BD00F061F91146FFF7DB
:10021000F5FF02F06FFA00F07FF903B4FFF7F2FF89
:1002200003BC00F087F900002C4B19680868B0E89F
:10023000F04F80F30988BFF36F8F4FF0000080F319
:10024000118870470000000008480068006880F3CB
:1002500008884FF0000080F3148862B661B6BFF3DF
:100260004F8FBFF36F8F00DF00BF00BF08ED00E0CE
:10027000DFF80C00016841F470010160704700BFB5
:1002800088ED00E0EFF30980BFF36F8F134B1A681E
:100290001EF0100F08BF20ED108A20E9F04F10600B
:1002A00009B44FF0500080F31188BFF34F8FBFF3B4
:1002B0006F8F02F06DFE4FF0000080F3118809BCD3
:1002C00019680868B0E8F04F1EF0100F08BFB0ECD6
:1002D000108A80F30988BFF36F8F704754000020A5
:1002E000EFF3058070470000094880470948004740
:1002F000FEE7FEE7FEE7FEE7FEE7FEE7FEE7FEE7D6
:10030000FEE7FEE704480549054A064B7047000032
:10031000F522000889010008D8430020D8490020B0
:10032000D8450020D845002053EA020C00F069802F
:100330002DE9F04B4FF00006002B1FBFB3FA83F5F9
:1003400003FA05F424FA05F65E4012BF1643B2FA2A
:1003500082F502FA05F4C5F120051EBF22FA05FC5C
:1003600044EA0C04203556EA044C4FEA144418BF02
:10037000641C4FF000084FF00009904271EB030C31
:1003800039D3002919BFB1FA81F701FA07F6B0FA9B
:1003900080F700FA07F6C7F120071EBF20FA07FC16
:1003A00046EA0C062037B6FBF4FCA7EB0507103F26
:1003B00007F01F0BCBF120060CFA0BFB2CFA06F60C
:1003C00044BFB3460026202FA4BF5E464FF0000B6B
:1003D0005BEA060C08BF4FF0010B19EB0B09ABFBF6
:1003E000027C48EB0608C01B06FB02CC0BFB03CCCF
:1003F00071EB0C01C1E70B46024641464846BDE899
:10040000F08B13B54FF000004FF00001AFF3008008
:10041000BDE81C40704710B5203AC0F00B80B1E831
:100420001850203AA0E81850B1E81850A0E8185029
:10043000BFF4F5AF5FEA027C24BFB1E81850A0E832
:10044000185044BF18C918C0BDE810405FEA827C4C
:1004500024BF51F8043B40F8043B08BF7047D20763
:1004600028BF31F8023B48BF11F8012B28BF20F804
:10047000023B48BF00F8012B70474FF0000200B567
:10048000134694469646203922BFA0E80C50A0E8B7
:100490000C50B1F12001BFF4F7AF090728BFA0E865
:1004A0000C5048BF0CC05DF804EB890028BF40F831
:1004B000042B08BF704748BF20F8022B11F0804F73
:1004C00018BF00F8012B704770477047704775469A
:1004D00000F02CF8AE4605006946534620F00700B0
:1004E000854618B020B5FFF70DFFBDE820404FF05E
:1004F00000064FF000074FF000084FF0000B21F00E
:100500000701AC46ACE8C009ACE8C009ACE8C009DA
:10051000ACE8C0098D46704710B50446AFF30080C3
:100520002046BDE81040FFF778BE00000048704745
:100530007843002001491820ABBEFEE726000200E8
:100540007047FEE7014800F0A2BA000060040020F6
:10055000014800F09CBA00008804002038B50E4C19
:100560004FF4007525600025A560E560082525612C
:100570000A4C050A25706070080AA070E170100A24
:1005800020716271180AA071E3716B46224602491C
:10059000034800F01CF938BD1C01002009000020B0
:1005A0006004002038B50E4C40F2FF152560002590
:1005B000A560E560082525610A4C050A2570607074
:1005C000080AA070E170100A20716271180AA07107
:1005D000E3716B4622460249034800F0F8F838BD43
:1005E0000401002001000020600400202DED028B9A
:1005F00001F0FCFF9FED3F8ADFED3F8A3F4AF0EEBE
:10060000480AB0EE680A01213D4801F0E5FD3B4A89
:100610003B48F0EE480A9FED3B0A0C32002148307F
:1006200001F0DAFD354A3648F0EE480AB0EE680AC5
:1006300018320021903001F0CFFD002002F002F8C6
:10064000314C2F4D4FF4FA566061008805F1480790
:100650009FED2E8A4FF47A7840F6B839C4F8080036
:1006600001F0FAFFB4F9000001F0B0FF666094ED0C
:10067000030A2348F0EE480AB8EEC00A483001F0F9
:1006800017FD6069D7ED080AB0F9020000EE100A04
:100690001B48B8EEC00A01F00BFD6069D4ED010AF9
:1006A000B0F90200F8EEE00A00EE100A1448B8EEC5
:1006B000C00A903001F0FCFC95ED080AA188434681
:1006C000BDEEC00A0AB2494610EE100A00B2FFF7AA
:1006D00045FF95ED080A00231A46BDEEC00A1946EB
:1006E00010EE100A00B2FFF75DFF012002F0ACF837
:1006F000B6E700000000FA4400007A4638340008EB
:100700003401002000803B45140000200000000060
:10071000014800F02DBC0000F8040020014800F062
:1007200027BC00005805002001681823CAB2103AFF
:10073000B2FBF3F2054B6FF30901032A9B5CC3651F
:1007400000D9091D8165084670470000B0340008D3
:1007500010B5014600208B698A6A4FF0C07453B10E
:10076000B3F5005F15D072B1012A0CD0022A0AD06D
:10077000032A09D104E01AB1012A06D0022A03D1C2
:10078000C96AC90100D5012010BDC96AA142FAD0C9
:1007900010BD002AF7D0012AF2D0022AF3D0032A92
:1007A000F3D010BD704772B6FEE790F82020012A02
:1007B00007D0022A05D0416A41F48021416201201C
:1007C0007047006842690A43426100207047F0B5F3
:1007D00090F820500468A468012D05D0022D03D0A4
:1007E000416A41F480214DE014F0406F01D1E500F1
:1007F00045D5C4F301640125A5401D608D684FF403
:10080000C0739DB1CE6835434E6845EAC60506689B
:1008100003EB0417F5514FF4C275076805EB041597
:100820000E697E51097D012905D009E00E88CD6849
:1008300045EA4655EBE701684E5946F480764E513D
:100840001179D2F805504FF4C67641EA05210568C2
:1008500006EB0416A9511178D2F801204FF4C475A3
:1008600041EA0221026805EB04155151006803EBCF
:100870000411425842F0010242500020F0BD416A8A
:1008800041F4001141620120F0BD000010B590F864
:100890002020012A07D0022A05D0416A41F4802194
:1008A0004162012010BD3B48D0F8002242F0010215
:1008B000C0F80022D0F8002222F47C52C0F80022B6
:1008C000D0F800224B6A42EA0322C0F800220A7DD7
:1008D00002F01F0301229A40D0F81C329343C0F863
:1008E0001C32CB69B3B9D0F80C329343C0F80C3248
:1008F0008C894B6864F31F434C6900EBC404C4F853
:1009000040320C890B6864F31F434C6900EBC4044C
:10091000C4F84432CB69012B16D1D0F80C32134302
:10092000C0F80C320C884B6864F31F434C6900EB31
:10093000C404C4F840320C89CB6864F31F434C698B
:1009400000EBC404C4F844328B69002BD0F80432A5
:100950000ED01343C0F804320B69002BD0F81432C8
:1009600008D01343C0F81432096A012904D008E002
:100970009343EFE79343F5E7D0F81C121143C0F817
:100980001C12D0F8001221F00101C0F80012002062
:1009900010BD000000640040704770B590F8204022
:1009A000012C05D0022C03D0416A41F4802128E0BB
:1009B000046809B32469A40720D04FF4D8740568EB
:1009C00004EB01142D5915F00405956005682D59A7
:1009D0001AD0ED08556005682C5904F00204D46063
:1009E0004FF4DA74056804EB01142E5906F00F0673
:1009F000082E0CD308250DE0E468DCE7416A41F4D9
:100A000000114162012070BD6D0D1560E3E72D59A5
:100A100005F00F05156105682D59C5F3072595618A
:100A200005682C59240C54614FF4DC72046802EB05
:100A30000112A4581C700468A458240A5C7004684D
:100A4000A458240C9C700468A258120EDA704FF45B
:100A5000DE72046802EB0112A4581C710468A458E9
:100A6000240A5C710468A458240C9C710468A25880
:100A7000120EDA71006829B1016941F020010161AB
:100A8000002070BDC16841F02001C160F8E72DE988
:100A9000F05F0546006800244669D0F80490876836
:100AA000D0F80CB0D0F810A0D0F81880F10748D0DA
:100AB000F90714D001218160B80703D5284600F05A
:100AC00050FA0CE0780702D54FF4006407E03807CD
:100AD00002D54FF4805402E0284600F041FAF805B0
:100AE00016D529684FF480708860B80503D528466C
:100AF00000F039FA0CE0780502D544F4005407E020
:100B0000380502D544F4804402E0284600F02AFA71
:100B1000F80316D529684FF480308860B80303D5F0
:100B2000284600F022FA0CE0780302D544F4004491
:100B300007E0380302D544F4803402E0284600F090
:100B400013FA300707D55FEACB6004D52968102077
:100B500044F40074C86070074FF0080707D55FEAD7
:100B60000B7004D52868C760284600F099F9B007D3
:100B700006D52868C068800702D0284600F092F9A0
:100B8000700607D55FEACA6004D52968102044F4CE
:100B900080640861B00607D55FEA0A7004D528684A
:100BA0000761284600F0ACF9F00606D52868006910
:100BB000800702D0284600F0A4F9B00308D55FEA08
:100BC000C96005D5296810204860284600F09AF9C8
:100BD000F00307D55FEA097004D528684760284606
:100BE00000F0C4F9300446D55FEA497040D5F005FD
:100BF00004D55FEAC87001D044F00104B00504D503
:100C00005FEA887001D544F00204700504D55FEAFC
:100C1000487001D544F00404300529D518F0700F50
:100C200026D008F07000402815D006DC102809D026
:100C300020280AD0302816D10AE050280ED060288B
:100C400011D10EE044F008040DE044F010040AE075
:100C500044F0200407E044F0400404E044F0800441
:100C600001E044F480742868816921F07001816199
:100C7000296804204860002C05D0686A2043686217
:100C80002846FFF789FEBDE8F09F70B5040003D049
:100C900094F8200010B104E0012070BD204600F05F
:100CA00081F82068016841F00101016000F0A0FBBB
:100CB0000546052604E000F09BFB401B0A2811D8DE
:100CC00020684068C007F6D02068016821F0020162
:100CD000016000F08DFB05460BE000F089FB401B36
:100CE0000A2806D9606A40F40030606284F8206007
:100CF000D2E7206840688007EFD4207E0128206872
:100D000001683DD021F080010160607E01282068EB
:100D1000016838D021F040010160A07E01282068E0
:100D2000016833D021F020010160E07E01282068B5
:100D300001682ED041F010010160207F0128206859
:100D4000016829D021F008010160607F0128206836
:100D5000016824D021F004010160D4E902010843B4
:100D6000D4E90412114308436168491E084321680D
:100D7000C86100206062012084F82000002070BD5E
:100D800041F08001C0E741F04001C5E741F020019A
:100D9000CAE721F01001CFE741F00801D4E741F0A4
:100DA0000401D9E7F0B587B0044614216846FFF77F
:100DB00064FB364B3648DFF8D0E01968D4F800C041
:100DC000334A03250226092710300024491CF44524
:100DD00022D11960012907D1016841F00071016039
:100DE000006800F000700590106840F00800106086
:100DF0001068CDE9005600F00800CDE9047069469E
:100E00002448CDE9024500F0EDF900220521142027
:100E100000F086FB142032E0DFF87CE0F44530D1AE
:100E2000D0F800C04CF0806CC0F800C0D0F800C012
:100E300001290CF0806CCDF814C0196007D101684D
:100E400041F000710160006800F0007005901068CA
:100E500040F002001060106802AB00F00200059044
:100E60006020CDE9000683E8B00069460B4800F039
:100E7000B9F900220521402000F052FB402000F08B
:100E800041FB07B0F0BD00000064004038000020C6
:100E900030380240000C024000680040000402406C
:100EA0007047000000B58BB001AB03AA0021FFF72B
:100EB00074FD0398A0F2012006281AD80E49C0B28A
:100EC00000EB800208700D4901EB420031F812304E
:100ED0000381BDF804305BBA21F81230BDF806106A
:100EE00049BA4180BDF8081049BA81809DF80A10BE
:100EF00081710BB000BD000000000020BC0000208C
:100F0000704770477047000070B5044690F82000A5
:100F1000012804D0606A40F40020606218E00220DA
:100F200084F820002068016821F00101016000F0D0
:100F30005FFA05460EE000BF00F05AFA401B0A288F
:100F400008D9606A40F400306062052084F820000F
:100F5000012070BD20684068C007EDD1606270BD9F
:100F60007047704770477047704770477047000080
:100F70002DE9F84304464FF00009CDF8009063488E
:100F80004FF41651A56D0068B0FBF1F72E6894F888
:100F90005C10082000FA01F131420FD021680A6884
:100FA00052070BD50A6822F004020A6094F85C101C
:100FB0008840A860606D40F00100606594F85C10A6
:100FC0004FF0010808FA01F0304208D02168496961
:100FD000090604D5A860606D40F00200606594F8D1
:100FE0005C1004208840304208D0216809688907D5
:100FF00004D5A860606D40F00400606594F85C1052
:1010000010208840304218D021680968090714D59B
:10101000A86020680168490304D50068000308D56A
:10102000A16C07E00168C90503D4016821F008013B
:101030000160216C09B12046884794F85C1020209B
:101040008840304231D021680968C9062DD5A86092
:1010500094F8350005282068016806D0490347D573
:10106000006800031DD4616C1CE021F016010160D2
:101070002068416921F080014161206C08B9A06CB1
:1010800020B12068016821F00801016094F85C102B
:101090003F208840A86084F8358084F83490216D22
:1010A0001FE0E16B09B120468847606D00282BD016
:1010B000606DC00714D0052084F8350020680168F1
:1010C00021F0010101600098401C0090B84203D853
:1010D00020680068C007F6D184F8358084F8349021
:1010E000E16C002910D001B02046BDE8F04308476C
:1010F0000168C905D5D4016821F01001016084F8A8
:10110000358084F83490CCE7BDE8F88350000020A7
:101110002DE9F041044600F06BF906465CB102206F
:1011200084F83500002584F834502068016821F0E7
:10113000010101600DE00120BDE8F08100F058F9E7
:10114000801B052805D920206065032084F8350020
:10115000F2E720680068C007F0D1226811682048D3
:101160000140D4E901031843D4E90336334318435B
:1011700063691843A3691843E3691843236A184352
:101180000843616A042903D1D4E90B1319430843C6
:10119000106020684069666A20F0070130460E43FF
:1011A000012704280CD1A06A0643E06A40B120461A
:1011B000FFF7CEFA20B14020606584F83570BAE7B9
:1011C000206846612046FFF7AFFA94F85C203F2183
:1011D00091408160656584F835700020ACE70000BF
:1011E0003F8010F02DE9F84FDFF8BCA10022012567
:1011F00003264FF00F090AF1040BAAF1040E00BFF9
:101200000B6805FA02F42340A34270D10F7907F06E
:101210000307012F01D0022F16D187684FEA420839
:1012200006FA08FC27EA0C07D1F80CC00CFA08FCF7
:101230004CEA070CC0F808C04768A7430C79C4F310
:10124000001494403C4344600C79E443A4070AD062
:10125000C4684FEA420C06FA0CF7BC438F6807FAE1
:101260000CF72743C7600C7904F00304022C12D159
:10127000D40800EB840CDCF820405707FF0E09FA75
:1012800007F824EA0804D1F8108008FA07F848EAB9
:101290000408CCF8208004684FEA420C06FA0CF7E8
:1012A000BC430F7907F0030707FA0CF727430760E1
:1012B0004C6814F4403F70D03C4C276847F480479A
:1012C0002760246822F0030704F480440094384C1B
:1012D00007EB040CDCF8084897074FEA177809FA7F
:1012E00008F7BC43334FB84202D1002724E054E052
:1012F000314FB84201D101271EE0304FB84201D131
:10130000022719E02E4FB84201D1032714E02D4FD8
:10131000B84201D104270FE02B4FB84201D1052775
:101320000AE02A4FB84201D1062705E0284FB8420B
:1013300001D1072700E0082707FA08F72743CCF870
:101340000878DAF800405746D1F804C09C435FEAB9
:10135000CC2C00D51C433C60DBF800405F46D1F844
:1013600004C09C435FEA8C2C00D51C433C60DEF833
:1013700000407746D1F804C09C435FEA8C3C00D51E
:101380001C433C60084F083F3C68D1F804C09C43B4
:101390005FEACC3C00D51C433C60521C102AFFF491
:1013A0002FAFBDE8F88F0000083C014044380240F0
:1013B00000300140000002400004024000080240EA
:1013C000000C0240001002400014024000180240CD
:1013D000001C0240426921EA02030A4043EA02413A
:1013E000816170470AB1816170470904FBE7000021
:1013F000014880687047000044000020024881686E
:101400000278114481607047440000200B4810B5F9
:10141000016841F400710160016841F4806101607C
:10142000016841F480710160032000F099F80F20F9
:1014300000F006F800F04AF8002010BD003C024021
:1014400030B505461C4887B00024016841F0010111
:101450000160006806A900F00100009001A800F0FA
:101460002BF900F059F915494000B0FBF1F115488E
:10147000134A491E026040F2E732C0E90324C0E982
:101480000114846100F042FB040012D10D4800F009
:101490006BFB04000DD1192000F034F8102D07D299
:1014A00000222946192000F03BF80748056000E0BB
:1014B000012407B0204630BD4438024040420F00AE
:1014C00000000140B8050020480000200C4882B010
:1014D000016841F480410160006800F480400090A0
:1014E0000748001F016841F0805101600068002238
:1014F00000F0805000900F21901E02B000F010B854
:1015000044380240002809DB00F01F02012191400D
:101510004009800000F1E020C0F800117047000091
:10152000F0B40E4B1B680C46C3F30223C3F107054E
:10153000042D00D90425191D072901D2002300E03C
:10154000DB1E012606FA05F1491E214099409E4006
:10155000761E16403143F0BC01F027B80CED00E0D8
:10156000064900F0070208684FF6FF03184040EAFA
:101570000220034A10430860704700000CED00E0B1
:101580000000FA052DE9F0470E46050065D0DFF8AA
:101590001481D8F80000F7B200F00700B04207D27B
:1015A00088F80070D8F8000000F00700B04254D16D
:1015B00028683D4C810712D5400703D5206840F4C8
:1015C000E05020602878000703D5206840F4604090
:1015D00020602068A96820F0F00008432060287887
:1015E000C0072DD0304968680839012812D0022878
:1015F00013D0032811D00968890700292DDA216842
:1016000021F0030101432160FFF7F2FE814641F220
:10161000883A0EE009688903EFE709688901ECE779
:10162000FFF7E6FEA0EB0901514502D90320BDE812
:10163000F0872068696800F00C00B0EB810FEFD1F3
:10164000D8F80010404601F00701B14207D90770F1
:10165000006800F00700B04201D00120E7E72878D9
:10166000400705D52068E96820F4E0500843206071
:101670002878000706D52068296920F4604040EAF0
:10168000C100206000F058F82168084AC1F3031136
:10169000515CC8400649086006480068FFF7D0FE64
:1016A0000020C4E7003C024008380240B83400087B
:1016B00050000020480000200F2202600C4A1368EE
:1016C00003F003034360136803F0F00383601368BF
:1016D00003F4E053C36012684FF4E05303EAD2020C
:1016E00002610448006800F00700086070470000CD
:1016F00008380240003C0240044805490068096877
:10170000044AC1F38221515CC84070475000002058
:1017100008380240C83400080448054900680968D0
:10172000044AC1F34231515CC84070475000002068
:1017300008380240C8340008154810B5006810F099
:101740000C02144813D01449042A0FD0082A0ED1D1
:101750000F4C241F2268236802F03F025B0207D56A
:101760002068C0F38810A0FB010106E0084610BD08
:101770002168C1F38811A1FB00010023FEF7D4FD0D
:101780002168C1F30141491C4900B0FBF1F010BDD3
:10179000083802400024F400001BB7002DE9F84F80
:1017A00004006ED02078DFF84C93C007A9F104053F
:1017B0004AD009F104000168C1F38101012908D070
:1017C0000068C0F3810002280AD1D9F80000400265
:1017D00006D52868800337D560680028E1D033E05B
:1017E0006068B0F5803F10D0B0F5A02F286810D009
:1017F00020F480302860286820F480202860606809
:10180000A8B1FFF7F5FD06460DE0286840F48030EA
:10181000F4E740F480202860F7E700BFFFF7E8FD19
:10182000801B642873D828688003F7D50CE0FFF785
:10183000DFFD064605E000BFFFF7DAFD801B6428E8
:10184000F0D828688003F7D42078DFF8AC828007CE
:101850004FF0000A3ED5A748001D016811F00C0F9B
:1018600008D00068C0F3810002280BD1D9F800002D
:10187000400207D42868800716D5E068012800D107
:1018800012E033E1E068B8B10120C8F80000FFF7CA
:10189000AFFD064605E000BFFFF7AAFD801B02284A
:1018A000C0D828688007F7D52868216920F0F8009B
:1018B00040EAC10028600DE0C8F800A0FFF798FDDD
:1018C000064604E0FFF794FD801B02281FD8286815
:1018D0008007F7D42078000722D5864F87486169B2
:1018E000703771B101210160FFF782FD064604E007
:1018F000FFF77EFD801B022809D838688007F7D5DE
:101900000EE0C0F800A0FFF773FD064605E082E098
:10191000FFF76EFD801B02287DD838688007F7D45A
:101920002078400768D5DFF8CCB100270BF13C0BDD
:10193000DBF80000C0000BD4DBF8001041F0805150
:10194000CBF80010DBF80000012700F08050009079
:101950006B4E3068C00510D4306840F48070306041
:10196000FFF746FD009005E0FFF742FD0099401AA1
:10197000022850D83068C005F6D55E4EA0686C3697
:1019800001280FD00528306810D020F00100306009
:10199000306820F004003060A068B8B1FFF728FD7F
:1019A00000900FE0306840F00100F4E740F00400E0
:1019B0003060F7E7FFF71CFD0099411A41F28830CB
:1019C000814266D830688007F4D50EE0FFF710FD3D
:1019D000009007E0FFF70CFD0099411A41F28830B2
:1019E000814256D830688007F4D42FB1DBF800105C
:1019F00021F08051CBF80010A069C8B33D49091D02
:101A00000968C1F3810102294AD00228504607D053
:101A1000C8F8600000E03CE0FFF7EAFC04463BE069
:101A20004746C8F86000FFF7E3FC064605E000BF44
:101A3000FFF7DEFC801B02282BD828688001F7D432
:101A4000D4E907010843A16A2E4A490802EB014183
:101A5000626A41EA8211084394F82C1040EA01615D
:101A6000C9F8001001203866FFF7C2FC044606E002
:101A70003EE000BFFFF7BCFC001B022809D8286825
:101A80008001F7D534E000BFFFF7B2FC001B02284D
:101A900002D90320BDE8F88F28688001F4D427E03C
:101AA0000128F7D0D9F80000E26900F480019142E2
:101AB0001CD1226A00F03F01914217D147F6C07154
:101AC000626A0140B1EB821F10D1A26A4FF0FF336E
:101AD00000F4403103EB5202B1EB024F06D194F80F
:101AE0002C1000F07060B0EB016F01D00120D1E745
:101AF0000020CFE70438024000004742800E4742F2
:101B0000007000400000FFFF7047704710B50400F0
:101B100003D094F83D0010B107E0012010BD002073
:101B200084F83C00204600F01EF8022084F83D00B6
:101B3000211D206800F0ECFB012084F8460084F8A9
:101B40003E0084F83F0084F8400084F8410084F8A7
:101B5000420084F8430084F8440084F8450084F887
:101B60003D00002010BD704790F83D10012901D0C4
:101B700001207047022180F83D100168CA6842F0D8
:101B80000102CA6000681149884214D0B0F1804F48
:101B900011D00F4988420ED00E4988420BD00E4911
:101BA000884208D00D49884205D00D49884202D0AC
:101BB0000C49884204D1816801F00701062903D04D
:101BC000016841F001010160002070470000014000
:101BD0000004004000080040000C004000040140E8
:101BE000004001400018004070472DE9F0410446D4
:101BF0000068C66805694FF00007A90713D5B1074B
:101C000011D5F91E016101202077206880698007C5
:101C1000204602D0FFF7E8FF04E000F07EF82046FF
:101C200000F07CF82777680716D5700714D521686F
:101C30006FF004000861022020772068806910F4AA
:101C4000407F204602D0FFF7CFFF04E000F065F8A8
:101C5000204600F063F82777280715D5300713D5FD
:101C600021686FF008000861042020772068C069AF
:101C70008007204602D0FFF7B7FF04E000F04DF8E0
:101C8000204600F04BF82777E80616D5F00614D565
:101C900021686FF010000861082020772068C06973
:101CA00010F4407F204602D0FFF79EFF04E000F0D2
:101CB00034F8204600F032F82777E80708D0F0071C
:101CC00006D021686FF001000861204600F028F876
:101CD000280608D5300606D521686FF08000086117
:101CE0002046FFF711FF680608D5700606D5216863
:101CF0006FF040000861204600F01CF8A8060AD5E5
:101D0000B00608D521686FF0200008612046BDE8C4
:101D1000F041FFF7FABEBDE8F08170477047000060
:101D200000680349884201D1FFF768BB7047000093
:101D300000000140704770B5040004D094F84100E1
:101D4000002510B106E0012070BD84F84050204607
:101D500000F024F8242084F841002068C16821F4B0
:101D60000051C160204600F03FFB2068016921F46A
:101D7000904101612068416921F02A014161206898
:101D8000C16841F40051C1606564202084F84100BD
:101D900084F842006563002070BD00002DE9F04129
:101DA00086B0064614216846FEF767FB3049306866
:101DB000884259D12F480024016841F480210160F4
:101DC000006800F4802005902A481038016841F02E
:101DD000040101600068694600F0040005904FF4BA
:101DE000406000900220CDE9010403200390072009
:101DF00004902148FFF7F6F9214D20484FF0006785
:101E00002860C5E901744FF48068C5E903486C6136
:101E1000AC61EC612C6228466C62FFF779F908B17D
:101E2000FEF7C1FCF563AE63154D144860353030E4
:101E3000E5E802074020A5E81101114845F81449DA
:101E40006030AC61EC612C626C62FFF761F908B143
:101E5000FEF7A9FCB563002205212720AE63FFF73A
:101E60005FFB2720FFF74EFB06B0BDE8F0810000C6
:101E7000004800404038024000080240286002400C
:101E8000F8040020FEE700000D4C4FF48065E614D6
:101E9000A71429462046FFF79DFA642000F0D4FCE1
:101EA00031462046FFF796FA642000F0CDFC394613
:101EB0002046FFF78FFA642000F0C6FCE9E7000037
:101EC000001C02400F4810B50D490160032141601C
:101ED00000214FF400228160C0E903124FF4401248
:101EE0004261017641768176C17601774177FEF7CE
:101EF000CCFE002803D0BDE81040FEF754BC10BD56
:101F000000640040600400200F4810B50D490160D6
:101F10000321416000214FF400228160C0E90312D7
:101F20004FF440124261017641768176C1760177A5
:101F30004177FEF7AAFE002803D0BDE81040FEF767
:101F400032BC10BD00680040880400200D4808B570
:101F5000016841F4001101600068002200F40010E3
:101F6000009005210C20FFF7DBFA0C20FFF7CAFADE
:101F7000002205210E20FFF7D3FABDE808400E200D
:101F8000FFF7C0BA3038024010B596B01C22114994
:101F90006846FEF740FA0021684600F061FC0E4CEE
:101FA0000C491C2220601C3107A8FEF734FA0021DE
:101FB00007A800F055FC074960601C2238310EA8C4
:101FC000FEF729FA00210EA800F04AFCA06016B026
:101FD00010BD00005C3400082C00002070B586B0F5
:101FE00014216846FEF749FA1E480024016841F0B2
:101FF00002010160016801F002010591016841F0F0
:1020000001010160016801F001010591016841F0E1
:1020100008010160016801F008010591016841F0C3
:1020200004010160016801F004010591016841F0BB
:102030008001016000680C4E00F080004FF4E05514
:102040000590002229463046FFF7CCF90120009583
:10205000CDE90104694630460394FFF7C3F806B0A2
:1020600070BD000030380240001C02400D4810B521
:102070000B4901600C49416000214FF4806281608E
:10208000C0E903120C22C0E90521C161FFF753FE2C
:10209000002803D0BDE81040FEF785BB10BD00004E
:1020A00000480040B004002040420F00FEE7FEE779
:1020B000A0B1D0ED101AC0ED111A90ED0F1A80EDFD
:1020C000101AC0ED060A80ED070A30EEC00A80ED56
:1020D0000F0A017829B101293BD078E09FED3D0A34
:1020E0007047D0ED010A60EE801AC0ED091AD0EDFC
:1020F0000A0A90ED022A42EE000A30EE410AC0EDD3
:102100000A0A90ED0D2A80ED0E2A90ED0C2A80ED42
:102110000D2A80ED0C0A90ED031A21EE001A80EDD5
:102120000B1A90ED050AF4EEC00AF1EE10FA09DC84
:10213000B1EE400AF4EEC00AF1EE10FA02D390EDCF
:102140000A0A01E080ED0A0A31EE800A30EE010A47
:102150002BE070EE410A90ED012A20EE822A80EDFC
:10216000092AD0ED020A60EE800AC0ED0A0AD0ED1D
:102170000D2A72EE200AC0ED0E2AD0ED0C2AC0ED19
:102180000D2AF0EE002A01EE620A30EE210A80EDFF
:102190000C0A90ED031A21EE000A80ED0B0A30EED6
:1021A000800AD0ED080A30EE200A80ED080AD0ED52
:1021B000040AB4EEE00AF1EE10FA06DCF1EE600A71
:1021C000B4EEE00AF1EE10FA01D2C0ED080A90ED8B
:1021D000080A704700000000002828D0002A26D0F6
:1021E000017092ED001A80ED011A92ED011A80ED56
:1021F000021A92ED021A80ED031A80ED040A9FED97
:102200000C0AC0ED050A80ED0E0A80ED0D0A80ED86
:102210000C0A80ED080A80ED0B0A80ED0A0A80EDB9
:10222000090A80ED110A80ED100A80ED0F0A70474F
:102230000000000010B5502080F31188BFF34F8FCD
:10224000BFF36F8F00F0A4FF18B104494FF0805026
:102250000860002080F3118810BD000004ED00E04C
:1022600030B593B030216846FEF707F914210CA869
:10227000FEF703F91D480025016841F08051016017
:10228000006800F0805011901948016841F48041C5
:1022900001600068022400F4804011900120009049
:1022A000000401908001CDE9064006200890A82096
:1022B000CDE9090404200B906846FFF76FFA08B1D6
:1022C00072B6FEE70CA90F2081E831004FF4A05050
:1022D0000F904FF48050109005210CA8FFF752F991
:1022E000002801D072B6FEE713B030BD403802407E
:1022F000007000400248016841F4700101607047BD
:1023000088ED00E00148FFF770BC0000B805002030
:10231000F0B50268294C2A4D2A4E2B4F2B4B4FF01B
:10232000804CA04209D0604507D0A84205D0B042F9
:1023300003D0B84201D0984204D122F0700E4A680E
:1023400042EA0E02A0421BD0604519D0A84217D025
:10235000B04215D0B84213D0984211D01C4DA842BB
:102360000ED01C4DA8420BD01B4DA84208D01B4DCF
:10237000A84205D01A4DA84202D01A4DA84203D156
:1023800022F44075CA682A434D6922F080022A432C
:1023900002608A68C2620A688262A04201D09842E2
:1023A00001D109690163012141610169C90703D0B4
:1023B000016921F001010161F0BD00000000014050
:1023C0000004004000080040000C004000040140F0
:1023D0000040014000440140004801400018004016
:1023E000001C00400020004070B5044600680169F0
:1023F000E26821F44051114301612169A068E2695A
:1024000008436169114308432168CA6849F20C63B3
:102410009A430243CA6020684169A26921F440716D
:102420001143416131492068884202D030498842D5
:1024300002D1FFF771F901E0FFF75EF9E2690023CD
:10244000192164253226B2F5004F626828D0A0FB1E
:102450000101930F9200FDF767FF0146B0FBF5F015
:102460006FF01802504301EB800006EB0010B0FB48
:10247000F5F000F0F002B1FBF5F002EB0012B1FB59
:10248000F5F06FF01803584301EB800006EB0010E5
:10249000B0FBF5F000F00F0021681044886070BDBB
:1024A000A0FB010192185B41FDF73EFF0146B0FB26
:1024B000F5F00201B1FBF5F06FF01803584301EBA2
:1024C000800006EBC000B0FBF5F000F0F80002EB76
:1024D0004002B1FBF5F0584301EB800006EBC00071
:1024E000B0FBF5F000F00700D6E700000010014057
:1024F00000140140264818B400680168890604D514
:1025000001684068009018BC704722490968C906F4
:10251000F9D501684068204A0090106801684FF0C2
:1025200032030C031D49046824F00104046016D42E
:1025300010684468C4F13204A4B20C80436010688F
:10254000016841F4002101601068016841F0010157
:102550000160192CD7D11249A1F1640015E014686B
:102560006068C0F1320080B2088063600D498B6AF8
:1025700023F400238B6211680A6842F001020A60AA
:102580001928C0D10649A1F1320018BC00F0CBB81F
:10259000B004002000480040F80400203C00002067
:1025A0006406002000600240FEE70907090E0028CB
:1025B00004DB00F1E02080F80014704700F00F0009
:1025C00000F1E02080F8141D70470000064900B5B6
:1025D000B1F90220904205D00880801A00F09AFBE1
:1025E0000888488000BD00001400002000B58BB0B2
:1025F00000200121CDE90601089100900190029090
:1026000003900590049069460C48FEF73FF90B488B
:10261000FEF77AFC02210948FEF7C7F80E20099060
:10262000059069460648FEF731F90548FEF76CFC4F
:1026300002210348FEF7B9F80BB000BD600400208A
:102640008804002000F00300024900EB800001EB49
:1026500040007047BC00002030B50F4841F2707553
:1026600043691988B3F908208C1AEC4204DA04692A
:1026700001F50051641C04611B8841F270749B1ABF
:10268000A34204DD0369A1F500515B1E0361891AB1
:10269000C2681144C16030BD1400002070B5144AF6
:1026A000002040F2EE2351894FF4F97540F2E244E4
:1026B00061B1994201D2012008E0A1F2EF26AE42B9
:1026C00001D8022002E0A14200D90320918919B16A
:1026D000994203D2001D70BD002070BDA1F2EF220F
:1026E000AA4201D8083070BDA142FCD90C3070BD9F
:1026F00064060020FEF78AFEFFF7B2FDFFF76EFCCE
:10270000FFF724FCFFF7DEFBFFF7FEFBFFF7AEFC55
:10271000FFF73AFC00F09FF8FEE70146002084290D
:1027200000D0C81C7047C27D1AB1002081F820007B
:102730007047012281F820204278837842EA032200
:10274000C2F30A020A808278C378D20842EA4312AE
:10275000C2F30A024A80C2780379920942EA8302EC
:10276000437942EA8322C2F30A028A80427983795A
:10277000520842EAC312C2F30A02CA808279C379BC
:10278000120942EA0312C2F30A020A81C279037AE9
:10279000D20942EA4302437A42EA4322C2F30A02DE
:1027A0004A81427A837A920842EA8312C2F30A0289
:1027B0008A81827AC37A520942EAC302CA81027BC1
:1027C000437B42EA0322C2F30A020A82427B837BF2
:1027D000D20842EA4312C2F30A024A82827BC37BD6
:1027E000920942EA8302037C42EA8322C2F30A028C
:1027F0008A82027C437C520842EAC312C2F30A0274
:10280000CA82427C837C120942EA0312C2F30A02A2
:102810000A83827CC37CD20942EA4302037D42EAF6
:102820004322C2F30A024A83027D437D920842EAB0
:102830008312C2F30A028A83427D807D520942EAF2
:10284000C000C8830120704710B500B9012000F016
:102850003BFB002010BD10B500F05CFB002010BD5C
:102860007FB50D4604464169B0F9080081B1A16900
:1028700071B1FFF752FFD4E905128DE80700D4E9E2
:1028800000102B46226900F058FC039004B070BD84
:10289000FFF743FF03A9CDE90001208A2B4682B24E
:1028A000D4E9001000F01CFC012801D00020EDE765
:1028B0000398EBE72DE9F041184C0F460546E66812
:1028C0002068001D00F038FA38B9206890F82C1004
:1028D00001208840216981432161681C07D137B1FB
:1028E0002168BDE8F0410E48091D00F069BA206872
:1028F0003544B5424560216805D2A06BBDE8F04182
:10290000091D00F045BA606B091D00F041FAA06A8C
:10291000854200D2A562BDE8F0810000540000208D
:10292000640700202DE9F041054600F055FA2E4CD1
:10293000A068401CA06020682C4F10B1606940B3B3
:102940002DE02560A068012829D1002606EB86002D
:1029500007EB800000F00EFA761C072EF6D3234812
:102960008C3000F007FA2148A03000F003FA1F482D
:10297000B43000F0FFF91D48C83000F0FBF91B48E7
:10298000DC3000F0F7F919488C3060631430A06334
:1029900005E02068E96AC06A884200D82560606A5C
:1029A000401C6062E96A012022698840104320616E
:1029B00001EB810007EB8000291D00F001FA00F017
:1029C0002BFA606900280CD02068E96AC06A884246
:1029D00007D207494FF080500860BFF34F8FBFF315
:1029E0006F8FBDE8F08100005400002088060020B1
:1029F00004ED00E010B5044690F8510058B10128EC
:102A00000CD002280FD0502080F31188BFF34F8FD5
:102A1000BFF36F8FFEE7206B00F012FA2046BDE88F
:102A2000104000F00DBA10BD10484FF4705142072D
:102A300006D0C01D0D4920F00700411AC1F57051A4
:102A40000B4A00230144C2E900030839183A21F077
:102A5000070111604B600B600B1AC0E90013936013
:102A60004FF000405360506170470000780700202D
:102A7000A8000020144E154CA6F1C8074FF080584E
:102A8000DFF84C9012E000BF00F0A6F9F068C568CE
:102A9000281D00F051F9A068401EA0606068401E2B
:102AA000606000F0B9F92846FFF7A4FF60680028CD
:102AB000EAD138680128F9D9C9F80080BFF34F8FEF
:102AC000BFF36F8FF2E70000500700205400002092
:102AD00004ED00E02DE9F0479A46DDE909848146DE
:102AE0006FF00303206B03EB82021044089E20F07A
:102AF0000707780707D0502080F31188BFF34F8F66
:102B0000BFF36F8FFEE7002561B1002023180A5C38
:102B100083F834200A5C12B1401C1028F6D384F8E4
:102B2000435001E084F83450072E00D30626E662B5
:102B3000C4E91165201D00F028F904F1180000F027
:102B400024F92461C6F107006462A061E56484F899
:102B5000505052464946384600F0C0F82060B8F15F
:102B6000000F01D0C8F80040BDE8F08730B511492A
:102B700000E011460A688242FBD34B685C1884422D
:102B800003D1406818444860084643681C189442C2
:102B900009D1084C183C2468A24209D052681A4452
:102BA00042600A6812680260814200D0086030BD4D
:102BB0000460F9E7A80000200648416B096829B1C4
:102BC000416BC968C9684968816270474FF0FF313D
:102BD000FAE700005400002008484068401C4FF00D
:102BE000500080F3118804D0BFF34F8FBFF36F8F75
:102BF000FEE7BFF34F8FBFF36F8FFEE7B0000020FB
:102C00002DE9F0410546002700F0BAF9324E306850
:102C100008B9FFF709FF706905424ED1C5B3083501
:102C200068070ED005F00700C0F1080005446807EA
:102C300007D0502080F31188BFF34F8FBFF36F8F01
:102C4000FEE72DB37068854237D823481830014617
:102C50000C6801E020460C466168A94202D2216856
:102C60000029F7D131688C4227D0076821680160BC
:102C700060680837411B10290FD96019420708D036
:102C8000502080F31188BFF34F8FBFF36F8FFEE7A3
:102C900013E041606560FFF769FF61687068401A82
:102CA0007060B268904200D2B06070690143002049
:102CB000C4E90001F068401CF06000F0CFFA78072A
:102CC00007D0502080F31188BFF34F8FBFF36F8F71
:102CD000FEE73846BDE8F0819000002010B5031FE4
:102CE0004FF080741C601B1F21F001011960191F37
:102CF000044B0B6014390A60091F6FF0020244385C
:102D00000A6010BDD92B000800F00AFB0520FFF770
:102D10009BFDF9E700EE100ADFED050A0548B8EE65
:102D2000C00A20EE200ABDEEC00A80ED030A7047FB
:102D30000064014414000020D0E9013201699A6066
:102D4000D0E901235A604A68824201D182684A6010
:102D5000002202610868401E086008687047000091
:102D6000034B036003F1540008608020106070473B
:102D70000C02002000F108014FF0FF32C0E90112FF
:102D8000C16001610021016070470021016170474D
:102D900030B50B685A1C02D000F1080202E002694B
:102DA00004E02246546825689D42FAD953684B6076
:102DB00099608A60516008610168491C016030BDFA
:102DC00042684A6093688B609368596091600861BB
:102DD0000168491C01607047502080F31188BFF3DF
:102DE0004F8FBFF36F8F0A494868401C4860012825
:102DF0000CD10848006810F0FF0F07D0502080F376
:102E00001188BFF34F8FBFF36F8FFEE7704700004D
:102E1000B000002004ED00E00849486828B1401ED9
:102E2000486001D180F311887047502080F31188E9
:102E3000BFF34F8FBFF36F8FFEE70000B00000209D
:102E400070B500282AD0164DA0F1080460686969A1
:102E5000084207D1502080F31188BFF34F8FBFF392
:102E60006F8FFEE722683AB1502080F31188BFF3DC
:102E70004F8FBFF36F8FFEE78843606000F080F8EC
:102E800060686968084468602046FFF76FFE28693B
:102E9000401C2861BDE8704000F0E0B970BD000042
:102EA000900000204FF0E020002101618161054980
:102EB0004FF47A720968B1FBF2F1491E41610721B2
:102EC000016170475000002010B5020014D00F4877
:102ED000006B38B1502080F31188BFF34F8FBFF3E0
:102EE0006F8FFEE700F04CF800211046FFF7E2FC80
:102EF00000F0B4F9002807D105494FF08050086070
:102F0000BFF34F8FBFF36F8F10BD00005400002040
:102F100004ED00E010B586B00024039405AA04A9CE
:102F200003A80494FFF71CFFDDE903010094CDE939
:102F3000011000230EA11048059A00F0FEF80F4979
:102F40000028C86211D0502080F31188BFF34F8F42
:102F5000BFF36F8F4FF0FF30886201204861CC6073
:102F600006B0BDE8104000F041B806B010BD00004A
:102F700049444C4500000000752A00085400002018
:102F80000248016B491C0163704700005400002097
:102F90001448016B11B10121C16170470021C16169
:102FA0000169B1FA81F1C1F11F0101EB81020E4902
:102FB00051F822306BB101EB820101F108034A683C
:102FC00052684A609A4201D152684A60D1680160F1
:102FD0007047502080F31188BFF34F8FBFF36F8F7E
:102FE000FEE7000054000020880600201CB537488A
:102FF0000168374A914207D1502080F31188BFF30E
:103000004F8FBFF36F8FFEE700683149491E88423A
:1030100007D1502080F31188BFF34F8FBFF36F8F1C
:10302000FEE72C4908780190FF20087008788DF899
:1030300000009DF800009DF8002000F0F000904294
:1030400007D0502080F31188BFF34F8FBFF36F8FED
:10305000FEE79DF80000204C00F050002070072093
:10306000A06005E09DF8002052008DF80020401E71
:103070009DF800201206F5D4A060032807D0502048
:1030800080F31188BFF34F8FBFF36F8FFEE74FF4CC
:103090004070A060019808700C482030016841F42D
:1030A00070010160016841F070410160FFF7FAFEB4
:1030B00000206060FDF7DCF80848016841F04041FD
:1030C0000160FDF7C1F800201CBD000000ED00E02C
:1030D00071C20F4100E400E0B000002034EF00E0D6
:1030E0002DE9FF5F8346DDE90E87994616468A463D
:1030F0009000FFF785FD05001CD05420FFF780FDF0
:10310000040014D00020256384F85100CDE902406A
:10311000CDE900874B46324651465846FFF7DAFC68
:103120002046FFF7FFFB012004B0BDE8F09F2846D2
:10313000FFF786FE4FF0FF30F6E7F0B585B0DDE92A
:103140000B640A9DA6B1DCB15427009726630226C2
:1031500084F85160002604AFCDE90246CDE900575E
:10316000FFF7B8FC2046FFF7DDFB049805B0F0BD83
:10317000502080F31188BFF34F8FBFF36F8FFEE7AE
:10318000502080F31188BFF34F8FBFF36F8FFEE79E
:103190002DE9F0412F4C0026206B28B1A069401C7E
:1031A000A0613046BDE8F081E5686D1CE56013D193
:1031B000606B006838B1502080F31188BFF34F8FE7
:1031C000BFF36F8FFEE7606BA16B6163A063206A42
:1031D000401C2062FFF7F0FCA06ADFF87C8085428B
:1031E00009D3606B0068A0B1606BC068C76878687D
:1031F000854211D2A0622068C06A00EB800158F8B5
:103200002100012800D90126E0690028C9D0012643
:10321000C7E74FF0FF30EDE7381DFFF78DFDB86AC7
:1032200018B107F11800FFF787FDF96A012022693C
:1032300088401043206101EB810108EB8100391DBA
:10324000FFF7BEFDF86A2168C96A8842C9D3012622
:10325000C7E7000054000020880600202DE9F04751
:103260002C4D00242746286B38B1FFF7B5FD286B9D
:10327000401E2863286B40B146E0502080F311883F
:10328000BFF34F8FBFF36F8FFEE7A968224E012077
:10329000D1B3A6F1B40980463068E8B1F068C468DB
:1032A00004F11800FFF748FD201DFFF745FDE06A17
:1032B0002A6908FA00F11143296100EB800109EB4A
:1032C0008100211DFFF77CFDE06A2968C96A8842F8
:1032D000E2D3C5F81C80DFE70CB1FFF76DFCAC69E9
:1032E00044B14646FFF754FF00B1EE61641EF9D1C8
:1032F0000020A861E86938B108490127380708604B
:10330000BFF34F8FBFF36F8FFFF786FD3846BDE8E1
:10331000F0870000540000203C07002004ED00E08E
:1033200070B53D4D00263D4C2888A0F2F631A0F541
:103330008060152901D3208000E026804FF425729B
:103340005142904201DD228002E0884200DA218071
:103350006888A0F2F633A0F58060152B01D3608059
:1033600000E06680904201DD628002E0884200DA7F
:103370006180E888A0F2F633A0F58060152B01D3B8
:10338000A08000E0A680904201DDA28002E0884299
:1033900000DAA180FFF782F9FFF780F980080128A1
:1033A00005D095F8201011B1022804D007E026803E
:1033B0006680A68003E01A490888B9300880B4F90D
:1033C0000000DFED180A00EE100AB8EEC00A20EE89
:1033D000200ABDEEC00A10EE100A2080B4F90200E7
:1033E00000EE100AB8EEC00A20EE200ADFED0E0A49
:1033F000BDEEC00A10EE100A6080B4F9040000EEC1
:10340000100AB8EEC00A20EE200ABDEEC00A10EE87
:10341000100AA08070BD0000640600203E0000205D
:10342000140000205D7411417CF041414FF0407068
:10343000E1EE100A704700000000A040000000000C
:10344000000000000000003F00000000000000003D
:103450000000A0400AD7233C00000000D034000840
:10346000891E00080000000000000000800000002D
:103470000000000000000000DC340008ED0500083A
:10348000FDFF0000000000008000000000000000C0
:1034900000000000EC340008092D0008FDFF0000CA
:1034A000000000008000000000000000000000009C
:1034B00000061016000610160000000000000000B4
:1034C00001020304060708090000000001020304CA
:1034D0004C45445F5441534B000000004348415366
:1034E0005349535F5441534B0000000072656D6FA8
:1034F00074655F7461736B0018350008000000206C
:10350000BC000000C4010008D4350008BC00002045
:103510001C490000E001000800000000000000005D
:10352000000000000000000000000000000000009B
:10353000000000000000000000000000000000008B
:10354000000000000000000000000000000000007B
:10355000000000000000000000000000010000006A
:1035600010000000000000000024F4000000000033
:10357000000000000000000000000000000000004B
:10358000000000000000000000000000000000003B
:10359000000000000000000000000000000000002B
:1035A000000000000000000000000000000000001B
:1035B000000000000000000000000000000000000B
:1035C000000000000000000000000000AAAAAAAA53
:0435D00000000000F7
:040000050800018965
:00000001FF
