:020000040800F2
:10000000F09100205D0200084D4D0008C139000844
:10001000494D00086D0A0008A98200080000000090
:100020000000000000000000000000009D0100082A
:100030003B14000800000000F9010008037A0008E2
:1000400077020008770200087702000877020008AC
:1000500077020008770200083D14000877020008C4
:1000600077020008471400085114000877020008BE
:10007000E10A00087702000877020008770200080A
:10008000770200087702000877020008770200086C
:10009000710A000877020008770200085B14000864
:1000A000770200087702000877020008770200084C
:1000B000770200087702000877020008770200083C
:1000C000770200087702000877020008770200082C
:1000D000770200087702000877020008858100088F
:1000E000770200087702000877020008770200080C
:1000F00077020008770200087702000877020008FC
:1001000077020008770200087702000877020008EB
:1001100077020008770200087702000877020008DB
:100120007702000877020008F10A00087702000849
:1001300077020008770200087702000877020008BB
:10014000810A000877020008770200087702000899
:10015000770200087702000877020008770200089B
:10016000770200087702000877020008770200088B
:1001700077020008770200087702000800000000FC
:100180007702000877020008DFF80CD000F0AAF927
:1001900000480047E1970008F09100202C4B1968B7
:1001A0000868B0E8F04F80F30988BFF36F8F4FF015
:1001B000000080F3118870470000000008480068C4
:1001C000006880F308884FF0000080F3148862B65E
:1001D00061B6BFF34F8FBFF36F8F00DF00BF00BF6B
:1001E00008ED00E0DFF80C00016841F470010160E7
:1001F000704700BF88ED00E0EFF30980BFF36F8F19
:10020000134B1A681EF0100F08BF20ED108A20E96A
:10021000F04F106009B44FF0500080F31188BFF325
:100220004F8FBFF36F8F0AF089FB4FF0000080F310
:10023000118809BC19680868B0E8F04F1EF0100F6B
:1002400008BFB0EC108A80F30988BFF36F8F704746
:100250009C010020EFF305807047000006488047AE
:1002600006480047FEE7FEE7FEE7FEE7FEE7FEE79B
:10027000FEE7FEE7FEE7FEE7CD7A00088901000809
:100280002DE9F05F0546002092469B4688460646CB
:10029000814640241BE0284641464746224600F05E
:1002A00089F853465A46C01A914110D31146184650
:1002B000224600F070F82D1A67EB01084F462246DF
:1002C0000120002100F067F817EB00094E41201EC5
:1002D000A4F10104DFDC484631462A464346BDE826
:1002E000F09F40EA01039B0703D009E008C9121FF1
:1002F00008C0042AFAD203E011F8013B00F8013BE0
:10030000521EF9D27047D2B201E000F8012B491E0B
:10031000FBD270470022F6E710B513460A460446A2
:100320001946FFF7F0FF204610BD421C10F8011BD4
:100330000029FBD1801A704700F0004230F00040E5
:100340000AD0C10D01F56071C0F3160042EA0151F7
:10035000C20840071143704700200146704701F072
:10036000004330B421F0004150EA010206D00A0DEA
:10037000A2F56072C1F31301002A02DC30BC002038
:100380007047440F44EAC104C100E01830BC00EBE0
:10039000C25000F01FB8202A04DB203A00FA02F114
:1003A000002070479140C2F1200320FA03F3194363
:1003B00090407047202A04DB203A21FA02F0002105
:1003C000704721FA02F3D040C2F120029140084365
:1003D000194670470029A8BF7047401C490008BF54
:1003E00020F00100704710B4B0FA80FC00FA0CF065
:1003F00050EA010404BF10BC704749B1CCF120049D
:1004000021FA04F411FA0CF118BF01212143084329
:10041000A3EB0C01CB1D4FEA00614FEA102042BF55
:10042000002010BC704700EBC35010440029A4BF4B
:1004300010BC7047401C490008BF20F0010010BCF0
:1004400070472DE9F04D00231A461B1A8A4103DB41
:1004500000200146BDE8F08DC1F30A52C1F313013B
:1004600041F480154FF0000BD10702D100186D4107
:10047000521E0027044640F2FF11384601EB620A83
:100480003E468046024600204FF48011FFF792FF5F
:10049000C2197141BB1846EB0100B4EB030C75EBBC
:1004A000000C04D3E41A65EB000517460E46241928
:1004B00008F101006D4180463428E3DDF91946EB6F
:1004C0000600091BA84103D24FF0FF32134601E09A
:1004D000002213461BEB070046EB0A51BDE8F04D26
:1004E00000F012B8064C074D06E0E06840F001034A
:1004F00094E8070098471034AC42F6D3FFF748FE63
:10050000C0B80008E0B8000810B5141E73F100046C
:1005100008DA401C41F1000192185B411A4301D1F5
:1005200020F0010010BD2DE9F04D92469B4611B11F
:10053000B1FA81F202E0B0FA80F220329046FFF781
:100540002AFF04460F4640EA0A0041EA0B015346DF
:100550005A46084313D0114653EA010019D0C8F196
:1005600040025046FFF726FF05460E4650465946C4
:100570004246FFF710FF084305D0012004E0204663
:100580003946BDE8F08D0020054346EAE0762C436D
:1005900037430A986305E40AA0EB08000022FD0A2D
:1005A00044EA47540A3002D500200146E9E7010534
:1005B00010196941DDE9084500196941BDE8F04DB0
:1005C000A2E770B58C1810F8015B15F0070301D194
:1005D00010F8013B2A1106D110F8012B03E010F8A6
:1005E000016B01F8016B5B1EF9D12B0705D40023C9
:1005F000521E0DD401F8013BFAE710F8013BCB1A6B
:10060000921C03E013F8015B01F8015B521EF9D55F
:10061000A142D8D3002070BDB7EE000A80ED000AD9
:100620009FED060A80ED010A9FED040A80ED020AA3
:100630009FED020A80ED030A7047000000000000F1
:100640002DE9F0412DED028B0746B0EE408A0C46B5
:1006500015461E46D6ED024AB0EE644AD6ED014A72
:10066000F0EE643AD6ED004AB0EE643AD5ED024AB7
:10067000F0EE642AD5ED014AB0EE642AD5ED004AC9
:10068000F0EE641AD4ED024AB0EE641AD4ED014AD9
:10069000F0EE640AD4ED004AB0EE640A384603F086
:1006A000FFFEBDEC028BBDE8F081000010B5012219
:1006B0001021024801F0C6FE10BD000000000240FB
:1006C00010B500221021024801F0BCFE10BD000050
:1006D000000002407047000010B501221146024898
:1006E00001F0B0FE10BD00000004024010B5002271
:1006F0000121024801F0A6FE10BD000000040240E6
:1007000010B543781B021BB20478234300EE103A65
:10071000B8EEC01A1C4BD3ED001A21EE211A81ED60
:10072000001AC3781B021BB28478234300EE103AF0
:10073000B8EEC01A144BD3ED001A21EE211A81ED48
:10074000011A43791B021BB20479234300EE103ACD
:10075000B8EEC01A0C4BD3ED001A21EE211A81ED30
:10076000021A037A1B04C47943EA042384792343DD
:1007700000EE903AB8EE601ADFED041A21EE211A6D
:1007800082ED001A10BD00005001002000401C4204
:10079000704710B50446204609F00BF910BD10B59E
:1007A0000446204608F094FB10BD00004278120277
:1007B00012B203781A4300EE102AF8EEC00A144A67
:1007C00092ED001A60EE810AC1ED000AC2781202B1
:1007D00012B283781A4300EE102AF8EEC00A0C4ACF
:1007E00092ED001A60EE810AC1ED010A427912020F
:1007F00012B203791A4300EE102AF8EEC00A044A36
:1008000092ED001A60EE810AC1ED020A7047000005
:100810005401002010B50024FFF75CFFFFF7B8FF7C
:1008200008F04EF810B144F0800402E007F0AEFF8B
:10083000044308F03DFA10B144F0400402E008F02F
:10084000BDF90443204610BD2DE9FC4105460E4686
:100850001746002000900190FFF732FF922000F031
:10086000D1F806226946122000F0ACF8FFF71EFF0F
:100870009DF80100000200B29DF8001040EA01045A
:1008800000EE104AB8EEC00A4C48D0ED000A20EE47
:10089000200A86ED000A9DF80300000200B29DF8D0
:1008A000021040EA010400EE104AB8EEC00A4348C4
:1008B000D0ED000A20EE200A86ED010A9DF8050021
:1008C000000200B29DF8041040EA010400EE104A54
:1008D000B8EEC00A3948D0ED000A20EE200A86EDB5
:1008E000020AFFF703FF08226946002000F06AF8B9
:1008F000FFF7F2FE9DF800000F2838D19DF80300A5
:10090000000200B29DF8021040EA010400EE104A15
:10091000B8EEC00A2A48D0ED000A20EE200A85ED84
:10092000000A9DF80500000200B29DF8041040EA9C
:10093000010400EE104AB8EEC00A2148D0ED000ACA
:1009400020EE200A85ED010A9DF80700000200B2A2
:100950009DF8061040EA010400EE104AB8EEC00A05
:100960001748D0ED000A20EE200A85ED020AFFF7B5
:10097000A7FEA22000F046F802226946222000F0DD
:1009800021F8FFF793FE9DF80000C0009DF80110CC
:1009900040EA6114B4F5806F02DBA4F5006004B294
:1009A00000EE104AF8EEC00AB4EE001AB3EE070AE1
:1009B00000EE810A87ED000ABDE8FC8150010020AD
:1009C0005401002070B506460C46154646F08000DE
:1009D00000F018F806E0552000F014F82070641CB0
:1009E000681EC5B2002DF6D170BD70B504460D4627
:1009F00044F0800000F006F8552000F003F828705D
:100A000070BD000001B582B04FF47A70012301AAD5
:100A100002A90090024802F035FB9DF804000EBDCB
:100A20006009002010B502461378DB00547843EAD1
:100A30006410B0F5806F02DBA0F5006318B200EE21
:100A4000100AF8EEC00AB4EE001AB3EE070A00EE80
:100A5000810A81ED000A10BD70B505460C46284696
:100A6000FFF7D0FF2046FFF7CDFF70BD00BFFEE7C8
:100A700010B5024800F0D7FE10BD0000BC080020F1
:100A800010B5024800F0CFFE10BD0000E4080020C1
:100A9000F8B507460C4615461E464FF400700D4942
:100AA000086000208860C86008200861380A0A4988
:100AB00008704F70200A8870CC70280A08714D7138
:100AC000300A8871CE716B460A460249034800F02D
:100AD000DCFCF8BD940F002084010020BC0800203D
:100AE00010B5024801F0C4F910BD0000680C0020E8
:100AF00010B5FE48C06C0068FD49884276D9FC48B4
:100B000054380068F949C96C0968FA4A914201D120
:100B1000202169E0F549C96C0968F54A483A9142D3
:100B200001D1202160E0F149C96C0968F14A6032C5
:100B3000914201D1202157E0EC49C96C0968EC4A87
:100B40001832914201D120214EE0E849C96C096870
:100B5000E84A1832914201D1C91445E0E349C96C11
:100B60000968E34A303A914201D1C9143CE0DF49B7
:100B7000C96C0968DF4A7832914201D1C91433E067
:100B8000DA49C96C0968DA4A3032914201D1C91494
:100B90002AE0D649C96C0968D64A3032914202D15E
:100BA0004FF4001120E0D149C96C0968D04A183AC5
:100BB000914202D14FF4001116E0CC49C96C09688A
:100BC000CC4A9032914202D14FF400110CE0C74957
:100BD000C96C0968C64A4832914203D14FF40011EA
:100BE00002E003E04FF00061084070E1BF48C06CD4
:100BF0000068C049A831884276D9BD485838006895
:100C0000BA49C96C0968BB4A914201D1202169E007
:100C1000B649C96C0968B64A483A914201D12021C7
:100C200060E0B249C96C0968B24A6032914201D1B0
:100C3000202157E0AD49C96C0968AD4A183291428C
:100C400001D120214EE0A949C96C0968A94A18328E
:100C5000914201D1C91445E0A449C96C0968A44A6C
:100C6000303A914201D1C9143CE0A049C96C0968ED
:100C7000A04A7832914201D1C91433E09B49C96C32
:100C800009689B4A3032914201D1C9142AE0974940
:100C9000C96C0968974A3032914202D14FF4001171
:100CA00020E09249C96C0968914A183A914202D1F0
:100CB0004FF4001116E08D49C96C09688D4A9032D5
:100CC000914202D14FF400110CE08849C96C0968C7
:100CD000874A4832914203D14FF4001102E003E009
:100CE0004FF000610840F2E08048C06C0068814924
:100CF0004831884276D97F48103840687B49C96CB2
:100D000009687C4A914201D1202169E07749C96C88
:100D10000968774A483A914201D1202160E073493D
:100D2000C96C0968734A6032914201D1202157E0B1
:100D30006E49C96C09686E4A1832914201D120216E
:100D40004EE06A49C96C09686A4A1832914201D179
:100D5000C91445E06549C96C0968654A303A914251
:100D600001D1C9143CE06149C96C0968614A783213
:100D7000914201D1C91433E05C49C96C09685C4AED
:100D80003032914201D1C9142AE05849C96C09682E
:100D9000584A3032914202D14FF4001120E05349B9
:100DA000C96C0968524A183A914202D14FF40011B5
:100DB00016E04E49C96C09684E4A9032914202D100
:100DC0004FF400110CE04949C96C0968484A48329F
:100DD000914203D14FF4001102E003E04FF00061B3
:100DE000084074E04348103800684049C96C0968FD
:100DF000404A914201D1202168E03C49C96C096810
:100E00003B4A483A914201D120215FE03749C96C01
:100E10000968384A6032914201D1202156E03349B5
:100E2000C96C0968324A1832914201D120214DE043
:100E30002E49C96C09682F4A1832914201D1C91450
:100E400044E02A49C96C0968294A303A914201D1E3
:100E5000C9143BE02549C96C0968264A7832914299
:100E600001D1C91432E02149C96C0968204A3032E5
:100E7000914201D1C91429E01C49C96C09681D4A75
:100E80003032914202D14FF400111FE01749C96C72
:100E90000968174A183A914202D14FF4001115E03F
:100EA0001249C96C0968134A9032914202D14FF439
:100EB00000110BE00D49C96C09680D4A4832914296
:100EC00002D14FF4001101E04FF00061084000280A
:100ED0006FD00648C06C0068054988427BD903483A
:100EE000C06C00680349884208D105E06009002011
:100EF0005864024010600240202068E0FE48C06C48
:100F00000068FE49884201D1202060E0FA48C06CA8
:100F10000068FB49884201D1202058E0F648C06CA7
:100F20000068F6496031884201D120204FE0F24844
:100F3000C06C0068F2494839884201D1C01446E0CB
:100F4000ED48C06C0068ED491831884201D1C014E9
:100F50003DE0E948C06C0068E9491831884201D198
:100F6000C01434E0E448C06C0068E4497831884239
:100F700001D1C0142BE0E048C06C0068E049303972
:100F8000884202D14FF4001021E0DB48C06C0068B9
:100F9000DA493031884202D14FF4001017E0D648C8
:100FA000C06C0068D6493031884204D14FF400103B
:100FB0000DE0DFE10FE0D048C06C0068CF49903110
:100FC000884202D14FF4001001E04FF00060CB499D
:100FD000091F08606AE1C848C06C0068C849483108
:100FE000884274D9C448C06C0068C54960398842D9
:100FF00001D1202066E0C048C06C0068BF4988422B
:1010000001D120205EE0BC48C06C0068BC49884229
:1010100001D1202056E0B848C06C0068B749603163
:10102000884201D120204DE0B348C06C0068B4492B
:101030004839884201D1C01444E0AF48C06C006810
:10104000AE491831884201D1C0143BE0AA48C06CB7
:101050000068AB491831884201D1C01432E0A6487B
:10106000C06C0068A5497831884201D1C01429E0DC
:10107000A148C06C0068A2493039884202D14FF4BF
:1010800000101FE09C48C06C00689C4930318842C9
:1010900002D14FF4001015E09748C06C00689849E1
:1010A0003031884202D14FF400100BE09248C06CFE
:1010B000006892499031884202D14FF4001001E05B
:1010C0004FF000608D4908390860EFE0FFE78A487B
:1010D000C06C00688A491839884274D98648C06C47
:1010E000006887496039884201D1202066E0824843
:1010F000C06C00688149884201D120205EE07E48B2
:10110000C06C00687E49884201D1202056E07A48B0
:10111000C06C006879496031884201D120204DE0DF
:101120007548C06C006876494839884201D1C014BE
:1011300044E07148C06C006870491831884201D1A0
:10114000C0143BE06C48C06C00686D49183188429F
:1011500001D1C01432E06848C06C0068674978313A
:10116000884201D1C01429E06348C06C006864491A
:101170003039884202D14FF400101FE05E48C06C45
:1011800000685E493031884202D14FF4001015E00A
:101190005948C06C00685A493031884202D14FF436
:1011A00000100BE05448C06C0068544990318842EC
:1011B00002D14FF4001001E04FF000605049703947
:1011C000C86073E0FFE74C48C06C00684C49603968
:1011D000884201D1202066E04748C06C006847493A
:1011E000884201D120205EE04348C06C0068444939
:1011F000884201D1202056E03F48C06C00683F493A
:101200006031884201D120204DE03B48C06C00682D
:101210003B494839884201D1C01444E03648C06C8B
:10122000006836491831884201D1C0143BE0324889
:10123000C06C006832491831884201D1C01432E0D4
:101240002D48C06C00682D497831884201D1C01406
:1012500029E02948C06C006829493039884202D108
:101260004FF400101FE02448C06C0068234930315F
:10127000884202D14FF4001015E01F48C06C00688E
:101280001F493031884202D14FF400100BE01A4858
:10129000C06C006819499031884202D14FF40010A7
:1012A00001E04FF0006016497039886015480078F9
:1012B00000F0020078B11348007820F002001149D4
:1012C00008700846007840F00400087001221146BA
:1012D0000D4801F0B7F80D48007800F00200E0B1C9
:1012E0000A48007820F00200084908700846007893
:1012F00040F0040008700BE0600900201064024018
:1013000070600240D800002000040240D900002094
:1013100001221021184801F095F81848007800F0D3
:10132000020078B11548007820F0020013490870D7
:101330000846007840F004000870012210210E4891
:1013400001F080F807F078FF0D48007800F0040005
:1013500080B10B48007820F0040009490870084665
:10136000007840F0080008700648006840F001006E
:101370000449086010BD000000000240DA000020AF
:10138000D8000020103C014001680A4BCAB2103A54
:10139000A3FB02321209084B9B5CC365032A04D9E4
:1013A0006FF30901091D816502E06FF30901816591
:1013B000806D7047ABAAAAAA72B800080146002047
:1013C0008A6A8B69002B0FD0B3F5005F1DD08AB3FA
:1013D000012A30D0022A2ED0032A04D1C96A11F082
:1013E000807F00D0012070471AB1012A07D0022A5D
:1013F000F9D1C96A11F0807FF5D001207047C96A20
:10140000B1F1C07FFAD1012070475AB1012A0BD047
:10141000022A07D0032AF7D1C96AB1F1C07FF3D1FC
:101420000120704701207047C96A11F0807FFAD00F
:1014300001207047FFE701207047704710B5012079
:1014400000F0E6FE10BD10B5082000F0E1FE10BD72
:1014500010B5102000F0DCFE10BD10B5202000F00B
:10146000D7FE10BD704790F82020012A07D0022A2D
:1014700005D0416A41F48021416201207047006833
:101480004269114341610020704770B490F82040D8
:10149000D0F800C0DCF808C0012C08D0022C06D01F
:1014A000416A41F48021416270BC012070470CF018
:1014B00080640CF000652C4302D11CF0805F5FD08B
:1014C000CCF3016CBCF1020F06D9416A41F4000172
:1014D000416270BC01207047012404FA0CF41C60C6
:1014E0008B684FF4C0749BB1CD6804EB0C162B4392
:1014F0004D6843EAC5030568AB514FF4C2730668F3
:1015000003EB0C130D69F550097D012909D00DE09D
:101510000D88CB6804EB0C1643EA45530568AB51C4
:10152000EBE70168CD5845F48075CD501179D3793A
:10153000557941EA036193791B0443EA0523194372
:101540004FF4C675036805EB0C1559511178D37823
:1015500041EA0361937852781B0443EA0222114363
:101560004FF4C473026803EB0C13D150016804EB11
:101570000C100A5842F001020A5070BC002070475B
:10158000416A41F40011416270BC012070470000C3
:1015900090F82020012A07D0022A05D0416A41F4A0
:1015A00080214162012070474248D0F8002242F079
:1015B0000102C0F80022D0F8002222F47C52C0F8C8
:1015C0000022D0F800224B6A42EA0322C0F800222F
:1015D0000A7D012302F01F0203FA02F2D0F81C3246
:1015E0009343C0F81C32CB69D3B9D0F80C32934383
:1015F000C0F80C32B1F80CC04B686CF31F43D1F843
:1016000014C000EBCC0CCCF84032B1F808C00B6829
:101610006CF31F43D1F814C000EBCC0CCCF844326F
:10162000CB69012B1AD1D0F80C321343C0F80C321D
:10163000B1F800C04B686CF31F43D1F814C000EB45
:10164000CC0CCCF84032B1F808C0CB686CF31F4327
:10165000D1F814C000EBCC0CCCF844328B697BB1D0
:10166000D0F804321343C0F804320B6973B1D0F8D8
:1016700014321343C0F81432096A01290CD010E067
:10168000D0F804329343C0F80432EEE7D0F81432B5
:101690009343C0F81432EFE7D0F81C121143C0F89E
:1016A0001C12D0F8001221F00101C0F80012002035
:1016B0007047000000640040704710B490F820C0EC
:1016C000BCF1010F09D0BCF1020F06D0416A41F410
:1016D0008021416210BC0120704739B1D0F800C0B0
:1016E000DCF810C01CF0030F7DD006E0D0F800C07D
:1016F000DCF80CC01CF0030F7BD04FF4D87C0468DE
:101700000CEB011C54F80C4004F004049460002C11
:101710007DD0046854F80C40E4085460046854F820
:101720000CC0CCF3400CC2F80CC04FF4DA7C046857
:101730000CEB011C54F80C4004F00F041461046815
:1017400054F80C40C4F307249461046854F80CC0A6
:101750004FEA1C4CC2F814C04FF4DC72D0F800C041
:1017600002EB01125CF802C083F800C0D0F800C0A0
:101770005CF802C04FEA1C2C83F801C0D0F800C00E
:101780005CF802C04FEA1C4C83F802C0D0F800C0DD
:101790005CF80220120EDA704FF4DE72D0F800C04E
:1017A00002EB01125CF802C083F804C0D0F800C05C
:1017B0005CF802C04FEA1C2C83F805C0D0F800C0CA
:1017C0005CF802C04FEA1C4C83F806C0D0F800C099
:1017D0005CF80220120EDA71F9B10068016941F07B
:1017E0002001016102E00BE003E010E010BC0020EA
:1017F0007047416A41F40011416210BC01207047FA
:10180000416A41F40011416210BC01207047046834
:1018100054F80C40640D146080E70068C16841F022
:101820002001C160DEE72DE9F05F0546002428684D
:101830004669D0F804908768D0F80CA0D0F810B0B2
:10184000D0F8188016F0010F54D017F0010F17D000
:101850000121816017F0020F03D0284600F002FB3F
:101860000EE017F0040F02D04FF4006408E017F008
:10187000080F02D04FF4805402E0284600F0F1FA3D
:1018800017F4807F19D029684FF48070886017F4AE
:10189000007F03D0284600F0E7FA0EE017F4806FCF
:1018A00002D044F4005408E017F4006F02D044F46E
:1018B000804402E0284600F0D6FA17F4803F19D0A1
:1018C00029684FF48030886017F4003F03D0284621
:1018D00000F0CCFA0EE017F4802F02D044F400445C
:1018E00008E017F4002F02D044F4803402E02846C8
:1018F00000F0BBFA16F0080F07D01AF0100F04D052
:1019000044F4007429681020C86016F0040F4FF0EA
:10191000080707D01AF0080F04D02868C7602846C7
:1019200000F000FA16F0020F07D02868C06810F027
:10193000030F02D0284600F0F7F916F0400F07D049
:101940001BF0100F04D044F4806429681020086153
:1019500016F0200F07D01BF0080F04D0286807618D
:10196000284600F049FA16F0100F07D028680069E1
:1019700010F0030F02D0284600F03FFA16F4003FA3
:1019800008D019F0100F05D02968102048602846AB
:1019900000F034FA16F4803F07D019F0080F04D095
:1019A00028684760284600F062FA16F4004F4AD0D3
:1019B00019F0040F44D016F4807F04D018F0010F02
:1019C00001D044F0010416F4007F04D018F0020F97
:1019D00001D044F0020416F4806F04D018F0040F14
:1019E00001D044F0040416F4006F29D018F0700FF1
:1019F00026D008F07000402815D006DC102809D049
:101A000020280AD0302816D10AE050280ED06028AD
:101A100011D10EE044F008040DE044F010040AE097
:101A200044F0200407E044F0400404E044F0800463
:101A300001E044F480742868816921F070018161BB
:101A4000296804204860002C05D0686A2043686239
:101A50002846FFF731FEBDE8F09F70B50446002C24
:101A600003D094F8200010B104E0012070BD20469E
:101A700000F0A8F82068016821F00201016000F080
:101A8000E9FC0546206840684FF0050610F0020F9B
:101A900011D000F0DFFC401B0A2807D9606A40F42F
:101AA0000030606284F82060012070BD20684068CA
:101AB00010F0020FEDD12068016841F001010160D2
:101AC00000F0C8FC05462068406810F0010F11D1F5
:101AD00000F0C0FC401B0A2807D9606A40F40030BF
:101AE000606284F82060012070BD2068406810F0BA
:101AF000010FEDD0207E01283FD02068016821F041
:101B000080010160607E01283DD02068016821F0DD
:101B100040010160A07E01283BD02068016821F0CF
:101B200020010160E07E012839D02068016841F081
:101B300010010160207F012837D02068016821F062
:101B400008010160607F012835D02068016821F01C
:101B500004010160E168A0686269084321691143DA
:101B600008436168491E08432168C861002060621B
:101B7000012084F82000002070BD2068016841F039
:101B800080010160BEE72068016841F0400101600A
:101B9000C0E72068016841F020010160C2E72068C9
:101BA000016821F010010160C4E72068016841F07C
:101BB00008010160C6E72068016841F00401016086
:101BC000C8E7000010B586B00446142101A8FEF74E
:101BD000A1FB4E492068884241D14D480068401C15
:101BE0004B4908600846006801280FD100BF00205B
:101BF00000904848006840F0007046490860084678
:101C0000006800F00070009000BF00BF00BF00201F
:101C1000009040481038006840F008003D491039F5
:101C200008600846006800F00800009000BF00BF90
:101C300003200190022002900020039003200490D2
:101C40000920059001A9344800F0EEFA0022052190
:101C5000142000F0B1FD142000F0A0FD54E02F4945
:101C60002068884250D100BF0020009029480068B9
:101C700040F08060274908600846006800F08060F6
:101C8000009000BF00BF22480068401C2049086047
:101C90000846006801280FD100BF002000901D48B1
:101CA000006840F000701B4908600846006800F0BA
:101CB0000070009000BF00BF00BF002000901548DA
:101CC0001038006840F002001249103908600846D8
:101CD000006800F00200009000BF00BF602001908B
:101CE0000220029000200390032004900920059018
:101CF00001A90B4800F098FA00220521402000F0CD
:101D00005BFD402000F04AFD06B010BD00640040BD
:101D10001C00002040380240000C024000680040D7
:101D2000000402407047000010B58AB0044601ABC1
:101D300003AA00212046FFF7C0FC0398A0F201206F
:101D4000072851D2DFE800F00405060708090A0059
:101D500000BF00BF00BF00BF00BF00BF0398401E10
:101D6000234908700846007800EB8000214931F8CB
:101D7000100000B21E49097801EB81011D4A02EBF7
:101D8000410108819DF805009DF8041040EA0120FA
:101D90001749097801EB810122F811009DF807002D
:101DA0009DF8061040EA012000B21149097801EBC4
:101DB000810102EB410148809DF809009DF808105F
:101DC00040EA012000B20A49097801EB810102EBE7
:101DD000410188809DF80A000549097801EB8101DD
:101DE00002EB4101887100E000BF00BF0AB010BDE6
:101DF0008C010020340F002070477047704770B589
:101E0000044694F82000012805D0606A40F40020C0
:101E10006062012070BD022084F820002068016803
:101E200021F00101016000F015FB054620684068C3
:101E300010F0010F12D000F00DFB401B0A2808D94A
:101E4000606A40F400306062052084F820000120C0
:101E500070BD2068406810F0010FECD10020606276
:101E600070BD704770477047704770477047704744
:101E70002DE9F84304464FF00008CDF8008076487D
:101E80004FF416510068B0FBF1F7A56D2E6894F879
:101E90005C00082101FA00F0304211D0206802688D
:101EA00012F0040F0CD0026822F00402026094F8D1
:101EB0005C0001FA00F0A860606D40F00100606510
:101EC00094F85C004FF0010909FA00F0304209D0A3
:101ED0002168496911F0800F04D0A860606D40F05E
:101EE0000200606594F85C1004208840304209D0FC
:101EF0002168096811F0020F04D0A860606D40F0FD
:101F00000400606594F85C1010208840304224D0B2
:101F10002168096811F0080F1FD0A86020680168C7
:101F200011F4802F0DD0006810F4002F04D0A16CA4
:101F300099B12046884710E0216C71B1204688474E
:101F40000BE0016811F4807F03D1016821F00801E2
:101F50000160216C09B12046884794F85C1020206C
:101F60008840304251D02168096811F0100F4CD0E0
:101F7000A86094F8350005280DD02068016811F498
:101F8000802F32D0006810F4002F29D0E16B59B3B4
:101F90002046884739E02068016821F01601016079
:101FA0002068416921F080014161206C08B9A06C72
:101FB00020B12068016821F00801016094F85C00FC
:101FC0003F2101FA00F0A86084F8348084F835904D
:101FD000216D00293ED001B02046BDE8F0430847FE
:101FE000616C09B1204688470FE0016811F4807FD9
:101FF00007D1016821F01001016084F8348084F871
:102000003590E16B09B120468847606D002821D0EA
:10201000606D10F0010F15D0052084F835002068A0
:10202000016821F0010101600098401C0090B84255
:1020300004D82068006810F0010FF5D184F83480CE
:1020400084F83590E16C002904D001B02046BDE849
:10205000F0430847BDE8F883240000202DE9F04153
:10206000044600F0F7F90546DCB1002684F8346038
:10207000022084F835002068016821F00101016028
:102080002068006810F0010F13D000F0E3F9401B46
:10209000052809D920206065032084F83500BDE8B3
:1020A000F0810120BDE8F0812068006810F0010F88
:1020B000EBD121680868234A1040A3686268D4F80D
:1020C00010C01A43E36843EA0C031A4363691A43D6
:1020D000A3691A43E3691A43236A1A431043626AE5
:1020E000042A03D1236BE26A1A4310430860206874
:1020F000406920F00701606A40EA010501270428D1
:102100000ED1A06A0543E06A50B12046FFF756F9A8
:1021100030B14020606584F835700120BDE8F08161
:10212000206845612046FFF72FF994F85C103F22A4
:1021300002FA01F18160666584F835700020BDE81F
:10214000F08100003F8010F010B50446102C12D131
:102150002748007840F0010025490870254800789C
:1021600040F00100234908702348007800283ED041
:1021700007F062F83BE0202C0BD12048007840F0BB
:1021800001001E4908701C48007880B307F054F81D
:102190002DE0082C16D11A48007840F001001849AB
:1021A00008700846007800F001000870F8B1084691
:1021B000007820F0010008700846007840F0020026
:1021C000087014E0012C12D108F0B2FF01280ED0E3
:1021D0000C490D48006808F0C9FA0A48006830B197
:1021E00020070A490860BFF34F8FBFF36F8F10BD00
:1021F000D9000020DA000020DC000020D8000020F8
:10220000DB000020EC0000203800002004ED00E09E
:1022100010B504490A68024202D00860FFF794FF33
:1022200010BD0000143C01402DE9F84F0022DFF8FA
:102230000082DFF80092DFF800A24FF0030E0F27B4
:10224000012303FA02F50B682B40AB427DD1D1F894
:1022500004C0BCF1020F02D0BCF1120F12D14FEA40
:10226000D20C00EB8C0CDCF820605407E40E07FA6B
:1022700004FB26EA0B06D1F810B00BFA04F4344341
:10228000CCF8204006684FEA420C0EFA0CF4A64344
:1022900091F804B00BF0030B0BFA0CFB4BEA0606AB
:1022A00006604E68012E05D0022E03D0112E01D0FB
:1022B000122E11D18668A643D1F80CB00BFA0CFB94
:1022C0004BEA06068660466826EA05050E79C6F3DF
:1022D0000016964035434560C56825EA04048D68BC
:1022E00005FA0CFC4CEA040CC0F80CC0D1F804C090
:1022F0001CF0805F7DD0D8F800C04CF4804CC8F84A
:1023000000C0D8F800C00CF4804CCDF800C022F01A
:10231000030C0CF1804404F59834D4F808C89507F0
:102320002D0F07FA05F62CEA0606A0F1804CBCF545
:10233000003C64D0A0F1804CBCF5013C62D0A0F11F
:10234000804CBCF5023C60D000E052E0A0F1804C33
:10235000BCF5033C5CD0A0F1804CBCF5043C5AD0E9
:10236000A0F1804CBCF5053C58D0A0F1804CBCF5E8
:10237000063C56D0A0F1804CBCF5073C54D04FF041
:10238000080C0CFA05FC4CEA060CC4F808C8D9F88D
:1023900000C02CEA030C4C6814F4803F01D04CEAD6
:1023A000030CC9F800C0254CD4F800C02CEA030C7B
:1023B0004D6815F4003F01D04CEA030CC4F800C08E
:1023C000DAF800C02CEA030C4C6814F4801F01D02A
:1023D0004CEA030CCAF800C0194CD4F800C02CEA2F
:1023E000030C4D6815F4001F01D04CEA030CC4F82F
:1023F00000C0521C102AFFF423AFBDE8F88F4FF045
:10240000000CBEE74FF0010CBBE74FF0020CB8E741
:102410004FF0030CB5E74FF0040CB2E74FF0050C9A
:10242000AFE74FF0060CACE74FF0070CA9E7000050
:1024300044380240003C0140083C0140043C01405B
:102440000C3C0140002A01D0816170470904816180
:10245000704700000148806870470000900100202C
:1024600070B50446002C04D094F83D00002510B14E
:1024700006E0012070BD84F83C50204600F0BCF816
:10248000242084F83D002068016821F001010160EA
:1024900000F098FA544B6168994203D85349884236
:1024A00003D304E05249884201D2012070BD514952
:1024B000B0FBF1F12268D2F804C02CF03F0C4CEADA
:1024C000010CC2F804C062689A4201D84A1C07E0B5
:1024D0004FF4967251434FF47A72B1FBF2F14A1CF9
:1024E0002168D1F820C02CF03F0C42EA0C020A62AD
:1024F0006168994210D84900401EB0FBF1F2521CAD
:10250000C2F30B02042A01D2042026E0B0FBF1F052
:10251000401CC0F30B0020E0A268002A50D001EB61
:10252000C10303EB0113A0F1010CBCFBF3F35B1C33
:1025300043F480431B051B0D4AD0002A4AD001EB0F
:10254000C10202EB0111401EB0FBF1F0401CC0F3D0
:102550000B0040F4804040F400402168CA6922F03A
:10256000FF0222F44F421043C861216AE06901432F
:102570002068026822F0C00211430160E16820690E
:1025800001432068826822F0FF0222F403421143D3
:102590008160A169606901432068C26822F0FF027E
:1025A0001143C1602068016841F0010101602564A8
:1025B000202084F83D00256384F83E50002070BD43
:1025C00001EB4103A0F1010CBCFBF3F35B1CB1E791
:1025D0000120C2E701EB4101401EB0FBF1F0401CBD
:1025E000C0F30B00B7E70000A086010080841E0046
:1025F00000093D0040420F0010B586B0044614218A
:1026000001A8FDF787FE2A49206888424DD100BF06
:10261000002000902748006840F004002549086029
:102620000846006800F00400009000BF00BF00BF33
:10263000002000900846006840F00100086008464D
:10264000006800F00100009000BF00BF4815019035
:102650001220029001200390032004900420059092
:1026600001A91548FFF7E0FD4FF48070019012209A
:10267000029001200390032004900420059001A9FA
:102680000E48FFF7D1FD00BF002000900948103030
:10269000006840F4000007491031086008460068EF
:1026A00000F40000009000BF00BF06B010BD0000A5
:1026B000005C004030380240000802400000024048
:1026C00002488168027811448160704790010020BF
:1026D00010B50B48016841F400710160016841F4D4
:1026E00080610160016841F480710160032000F0A5
:1026F00097F80F2000F006F800F026F8002010BD33
:10270000003C024070B504460D4D4FF47A712878B4
:10271000B1FBF0F00B490968B1FBF0F000F0AEFD41
:1027200008B1012070BD102C07D200222146501E96
:1027300000F042F86C60002070BD012070BD000008
:10274000900100202400002008B500BF0020009068
:102750001148006840F480400F490860084600684E
:1027600000F48040009000BF00BF00BF0020009038
:10277000081F006840F08050091F08600846006884
:1027800000F08050009000BF00BF00220F21901E7B
:1027900000F012F808BD00004438024000280ADBAF
:1027A00000F01F01012202FA01F14009800000F14E
:1027B000E020C0F80011704710B4184B1B68C3F339
:1027C0000223C3F1070CBCF1040F01D94FF0040C34
:1027D0001C1D072C01D2002300E0DB1E012404FA9B
:1027E0000CFCACF1010C0CEA0101994004FA03F372
:1027F0005B1E1A401143002806DB00F1E0200901AE
:1028000080F8001410BC704700F00F0000F1E020C9
:10281000090180F8141D10BC704700000CED00E0A9
:1028200000F00700064A11684FF6FF03194041EA1D
:10283000002040F0FD7040F08060106070470000A4
:102840000CED00E02DE9F04704460D46002C13D0B6
:10285000DFF85091D9F80000EFB200F00F00A84265
:102860000DD289F80070D9F8000000F00F00A842DE
:1028700005D00120BDE8F0870120BDE8F087206881
:10288000494E10F0020F14D010F0040F03D030683E
:1028900040F4E0503060207810F0080F03D030682A
:1028A00040F4604030603068A16820F0F0000843D8
:1028B0003060207810F0010F3ED060683B4901285D
:1028C00008D002280DD003280BD0096811F0020FA0
:1028D00028D00AE0096811F4003F06D10120BDE8C4
:1028E000F087096811F0007F19D0316821F00301E9
:1028F00008433060FFF7AEFD80463068616800F045
:102900000C00B0EB810F17D041F2883AFFF7A2FD1F
:10291000A0EB0800504508D90320BDE8F08701204E
:10292000BDE8F0870120BDE8F0873068616800F0FD
:102930000C00B0EB810FE9D1D9F8000000F00F00D6
:10294000A8420AD989F80070D9F8000000F00F00F9
:10295000A84202D00120BDE8F087207810F0040FD3
:1029600005D03068E16820F4E050084330602078FA
:1029700010F0080F06D03068216920F4604040EA6A
:10298000C100306000F03EF83168094AC1F303111C
:10299000515CC840074908600F20FFF7B3FE0020D4
:1029A000BDE8F087003C0240083802400038024091
:1029B00000B80008240000200148006870470000AB
:1029C0002400002000B5FFF7F7FF04490968044A16
:1029D000C1F38221515CC84000BD000008380240AC
:1029E00010B8000800B5FFF7E7FF04490968044A7A
:1029F000C1F34231515CC84000BD000008380240BC
:102A000010B8000810B51748006810F00C011648FF
:102A100016D0164B042912D0082911D1144C216864
:102A200001F03F02216811F4800F0AD02068C0F342
:102A30008810A0FB03010023FDF722FC09E01846E3
:102A400010BD21680023C1F38811A1FB0001FDF72F
:102A500017FC2168C1F30141491C4900B0FBF1F0AA
:102A600010BD0000083802400024F400001BB7002D
:102A7000043802402DE9F84F0446002C10D020788D
:102A8000FA4D10F0010F64D0F948016801F00C0113
:102A900004290DD0006800F00C00082803D011E0D4
:102AA0000120BDE8F88FF348006810F4800F09D0CA
:102AB000286810F4003F4CD06068002849D10120FC
:102AC000BDE8F88F6068B0F5803F14D0B0F5A02F56
:102AD00016D0286820F480302860286820F48020F0
:102AE0002860606810B3FFF7B5FC0646286810F44C
:102AF000003F0ED02DE0286840F480302860F0E7D9
:102B0000286840F480202860286840F480302860DD
:102B1000E7E7FFF79FFC801B642802D90320BDE88C
:102B2000F88F286810F4003FF3D012E0FFF792FC12
:102B30000646286810F4003F0BD0FFF78BFC801B83
:102B4000642802D90320BDE8F88F286810F4003FFC
:102B5000F3D12078C84F10F0020F4FF0000856D084
:102B6000C348016811F00C0F15D0006800F00C008C
:102B7000082804D1BF48006810F4800F0BD0E0682B
:102B800078B301203860FFF765FC0646286810F02E
:102B9000020F12D01DE0286810F0020F05D0E06887
:102BA000012802D00120BDE8F88F2868216920F0B3
:102BB000F80040EAC100286029E0FFF74BFC801BC9
:102BC000022802D90320BDE8F88F286810F0020F10
:102BD000F3D02868216920F0F80040EAC10028609D
:102BE00015E0FFE7C7F80080FFF734FC06462868C9
:102BF00010F0020F0BD0FFF72DFC801B022802D92A
:102C00000320BDE8F88F286810F0020FF3D1207878
:102C100010F0080F33D09948DFF864926169B9B1B8
:102C200001210160FFF716FC0646D9F8000010F0FC
:102C3000020F24D1FFF70EFC801B022802D90320CB
:102C4000BDE8F88FD9F8000010F0020FF2D016E0BE
:102C5000C0F80080FFF7FEFB0646D9F8000010F030
:102C6000020F0CD0FFF7F6FB801B022802D90320CD
:102C7000BDE8F88FD9F8000010F0020FF2D12078EB
:102C800010F0040F73D04FF00009DFF8F8A1DAF864
:102C9000000010F0805F0CD1DAF8000040F08050A6
:102CA000CAF80000DAF8000000F0805000904FF001
:102CB0000109DFF8D4B1DBF8000010F4807F1AD1ED
:102CC000DBF8000040F48070CBF80000FFF7C2FB97
:102CD0000646DBF8000010F4807F0CD1FFF7BAFB4A
:102CE000801B022802D90320BDE8F88FDBF8000022
:102CF00010F4807FF2D0A068DFF890B1012818D0DE
:102D000005281DD0DBF8000020F00100CBF8000002
:102D1000DBF8000020F00400CBF80000A06838B316
:102D2000FFF798FB0646DBF8000010F0020F14D006
:102D30003CE0DBF8000040F00100CBF80000EDE7DC
:102D4000DBF8000040F00400CBF80000DBF80000E6
:102D500040F00100CBF80000E0E7FFF77BFB811BB0
:102D600041F28830814204D90320BDE8F88F26E083
:102D700005E0DBF8000010F0020FEED016E0FFF7E0
:102D800069FB0646DBF8000010F0020F0ED0FFF7DB
:102D900061FB811B41F28830814202D90320BDE8EA
:102DA000F88FDBF8000010F0020FF0D1B9F1010F3D
:102DB00005D1DAF8000020F08050CAF80000A069C0
:102DC000E8B32B49096801F00C0108296BD00228EF
:102DD00010D0C7F86080FFF73DFB0446286810F06C
:102DE000007F5ED0FFF736FB001B022855D9032079
:102DF000BDE8F88FC7F86080FFF72CFB064628680F
:102E000010F0007F0BD0FFF725FB801B022802D9B2
:102E10000320BDE8F88F286810F0007FF3D1216A05
:102E2000E069A26A0843616A4FF0FF33890103EB4E
:102E3000520241EA0241084394F82C1000E030E0CD
:102E400040EA01610B48016001203866FFF702FB90
:102E50000446286810F0007F23D1FFF7FBFA001B1F
:102E6000022815D90320BDE8F88F1CE00038024085
:102E7000083802400438024000004742800E4742B2
:102E80007438024040380240007000407038024000
:102E9000286810F0007FE0D003E0286810F0007F81
:102EA000A0D10020DFE70120DDE770B50446002C4B
:102EB00005D00025A56294F8510010B106E001206C
:102EC00070BD84F85050204600F030F8022084F89D
:102ED00051002068016821F040010160A16860682C
:102EE00022690843E1681143084361690843218B63
:102EF00001F400710843E1690843216A0843A16AAB
:102F0000084321680860A069042101EA1040616A51
:102F10000843216848602068C16921F40061C161EB
:102F20006565012084F85100002070BD10B586B0A1
:102F30000446142101A8FDF7EDF94B4920688842A9
:102F40007ED100BF002000904848006840F48050C7
:102F5000464908600846006800F48050009000BFB1
:102F600000BF00BF0020009040481438006840F0C7
:102F700002003E49143908600846006800F002006B
:102F8000009000BF00BF00BF00200090084600680E
:102F900040F0010008600846006800F00100009061
:102FA00000BF00BF18200190022002900120039072
:102FB000032004900520059001A92D48FFF734F95E
:102FC00080200190022002900120039003200490B1
:102FD0000520059001A92748FFF726F9264827492B
:102FE00008604FF0C0604860002124488160C160E3
:102FF0004FF480610161002141618161C1614FF441
:103000004031016200214162FFF728F808B1FEF764
:1030100029FA00BF1948E064846300BF16481830DD
:10302000174908604FF0C060486040211448816033
:103030000021C1604FF4806101610021416100E025
:1030400010E08161C1614FF40031016200214162F1
:10305000FFF704F808B1FEF705FA00BF0848A064BE
:10306000846300BF06B010BD003001404438024008
:10307000000402400000024040640240B809002001
:10308000180A00202DE9F84F04460A9E8A46934606
:103090001F4601254FF0000894F8500001280ED07B
:1030A000012084F85000FFF7D5F9814694F85100CB
:1030B000616801280ED0B1F5827F07D102E00220BD
:1030C000BDE8F88FA16809B9042803D04FF00208C1
:1030D00000F0CBB8BAF1000F1DD0BBF1000F1AD031
:1030E000380018D094F85100042802D0052084F844
:1030F000510000206065C4F838B0E787A787C4F89E
:1031000030A0E786A786206460642068016811F01B
:10311000400F03D006E04FF00108A6E0016841F03F
:1031200040010160E068B0F5006F05D060680028DC
:1031300048D0012F46D07EE0606808B1012F3AD117
:10314000206B21680088C860206B801C2063E08EA3
:10315000401EE0862FE02068816811F0020F0DD03C
:10316000E18E59B1012D09D1216B0988C160206B15
:10317000801C2063E08E401EE08600252068816868
:1031800011F0010F0BD0E18F49B1C068A16B08802D
:10319000A06B801CA063E08F401EE0870125FFF735
:1031A00059F9A0EB0900B04205D3B6F1FF3F02D0B8
:1031B0004FF0030859E0E08E0028CCD1E08F0028C2
:1031C000C9D13EE0206B216800780873206B401C59
:1031D0002063E08E401EE0862DE02068816811F0BB
:1031E000020F0DD0E18E59B1012D09D1216B097863
:1031F0000173206B401C2063E08E401EE08600259A
:103200002068816811F0010F0BD0E18F49B1C068CF
:10321000A16B0870A06B401CA063E08F401EE0878C
:103220000125FFF717F9A0EB0900B04202D3B6F170
:10323000FF3F11D186B1E08E0028CED1E08F00286B
:10324000CBD14A463146204604F056FB38B14FF008
:1032500001082020606508E04FF0030805E0A06841
:1032600018B92068C16880680090012084F8510076
:10327000002084F850004046BDE8F88F401EB0F1B1
:10328000807F01D3012070474FF0E0214861044A5C
:10329000F02010700020886107200861002070472E
:1032A00023ED00E090F83C20012A2CD0012280F888
:1032B0003C20CA680023D1F808C022F4407242EAD8
:1032C0000C02D1F804C022F4806242EA0C02D1F868
:1032D00000C022F4006242EA0C02D1F810C022F4CD
:1032E000805242EA0C02D1F814C022F4005242EAA1
:1032F0000C02C96922F4804211430268516480F8CB
:103300003C30002070470220704730B490F83C20D9
:10331000012A1ED0012480F83C40022280F83D2082
:103320000268D2F804C093682CF0700C0D6845EA6E
:103330000C0C23F0800349681943C2F804C00268EA
:10334000916080F83D40002180F83C1030BC0020A6
:10335000704730BC0220704710B50446002C03D0E3
:1033600094F83D0010B107E0012010BD002084F862
:103370003C00204600F00CF8022084F83D00211D9E
:10338000206804F0D5FB012084F83D00002010BD2A
:1033900008B5204A016891420FD100BF0021009179
:1033A0001D49096841F008011B4A1160114609686E
:1033B00001F00801009100BF2BE0184A016891421A
:1033C00011D100BF002100911349091D096841F086
:1033D0000201114A121D11601146096801F0020133
:1033E000009100BF15E00E4A0168914211D100BF63
:1033F000002100910849091D096841F40031064A7D
:10340000121D11601146096801F40031009100BFDE
:1034100000BF08BD000C00404038024000040140DD
:1034200000440140022180F83D1001688A6802F0E2
:103430000702062A03D00A6842F001020A6001214D
:1034400080F83D100020704770B5044694F83C00A9
:10345000012818D0012584F83C50022084F83D0052
:103460002068826822F0770222F47F428260086836
:10347000502832D00EDC20284DD006DC00284AD05F
:1034800010284DD147E0022070BD302843D040289D
:1034900046D136E060282AD0702806D0B0F5805F8B
:1034A0003ED0B0F5005F3BD10BE0CB684A6889683D
:1034B000206804F0B2FB2068816841F077018160E8
:1034C0002EE0CB684A688968206804F0A6FB206873
:1034D000816841F48041816022E0CA6849682068BF
:1034E00004F08AFC5021206804F0A2FB18E0CA68AE
:1034F0004968206804F093FC6021206804F098FB80
:103500000EE0CA684968206804F076FC4021206813
:1035100004F08EFB04E022680146104604F088FBAC
:1035200084F83D50002084F83C0070BD10B586B092
:103530000446142101A8FCF7EDFE3F4920688842AB
:103540002DD100BF002000903C48006840F0800072
:103550003A4908600846006800F08000009000BF0B
:1035600000BF4FF4E0500190022002900120039030
:1035700002200490059001A93148FEF755FE31481C
:10358000FFF750FF00212F4800F0F3F804212D48E9
:1035900000F0EFF808212B4800F0EBF84AE02A4948
:1035A000206888421DD100BF002000902348006899
:1035B00040F48070214908600846006800F480707B
:1035C000009000BF00BFC0200190022002900020A8
:1035D000039004900320059001A91C48FEF724FEE7
:1035E00028E01B492068884224D100BF00200090B9
:1035F0001248006840F02000104908600846006842
:1036000000F02000009000BF00BF40200190022089
:10361000029001200390022004900320059001A94C
:103620000C48FEF701FE0C48FFF7FCFE00210A489B
:1036300000F09FF806B010BD000C0040303802408A
:10364000001C0240780A00200004014000200240D3
:103650000044014000140240F80A002070B50446FE
:103660000D4694F83C0001280DD0012684F83C60FA
:10367000022084F83D0042B1042A1AD0082A2DD035
:103680000C2A53D13EE0022070BD2946206804F088
:10369000D7FA2068816941F0080181612068816959
:1036A00021F004018161206881692A6911438161E7
:1036B0003CE02946206804F0FBFA2068816941F467
:1036C000006181612068816921F4806181612068E5
:1036D00081692A6941EA0221816127E0294620683F
:1036E00004F022FB2068C16941F00801C161206833
:1036F000C16921F00401C1612068C1692A691143CF
:10370000C16113E02946206804F04AFB2068C169C2
:1037100041F40061C1612068C16921F48061C16127
:103720002068C1692A6941EA0221C16184F83D60CB
:10373000002084F83C0070BD10B50446002C03D076
:1037400094F83D0010B107E0012010BD002084F87E
:103750003C00204600F00CF8022084F83D00211DBA
:10376000206804F0E5F9012084F83D00002010BD38
:10377000704710B504460122206804F03FFA216822
:10378000A1F18040B0F5803004D0A1F18040B0F5C7
:10379000823003D1486C40F400404864206881685E
:1037A00001F00701062903D0016841F00101016021
:1037B000002010BD70B50446002C04D094F83900E8
:1037C000002510B106E0012070BD84F83850204675
:1037D00000F022F8242084F839002068C16821F420
:1037E0000051C160204604F02DFB2068016921F4DE
:1037F000904101612068416921F02A0141612068FE
:10380000C16841F40051C160E563202084F83900AB
:1038100084F83A00002070BD10B586B0044614212B
:1038200001A8FCF777FD5E492068884256D100BFA9
:10383000002000905B48006840F010005949086083
:103840000846006800F01000009000BF00BF00BFF5
:103850000020009053481438006840F0020051499D
:10386000143908600846006800F00200009000BFAC
:1038700000BF00BF002000900846006840F0010033
:1038800008600846006800F00100009000BF00BF1B
:1038900080200190022002900120039003200490D8
:1038A0000720059001A94048FEF7BEFC4FF40070C8
:1038B0000190022002900120039003200490072031
:1038C000059001A93948FEF7AFFC0022052125200B
:1038D000FEF772FF2520FEF761FF5EE034492068A5
:1038E00088425AD100BF002000902E48001F006877
:1038F00040F480202B49091F08600846006800F446
:103900008020009000BF00BF00BF0020009025482D
:103910001438006840F00400224914390860084651
:10392000006800F00400009000BF00BF4FF440604A
:1039300001900220029001200390032004900720B0
:10394000059001A91B48FEF76FFC1B481B49086046
:103950004FF000604860002118488160C1604FF45A
:1039600080610161002141618161C1614FF40031D9
:10397000016200214162FEF771FB08B1FDF772FDA3
:1039800000BF0E486063846300BF0022052127202A
:10399000FEF712FF2720FEF701FF06B010BD000062
:1039A0000010014044380240000402400000024080
:1039B000004800400008024028600240680C0020D7
:1039C00000BFFEE770B504460D461646308888B93C
:1039D000184890ED000A184880ED000A154890ED4F
:1039E000010A154880ED010A124890ED020A1248BA
:1039F00080ED020A324611490F4805F05DFB0E4882
:103A000090ED000A85ED000A90ED010A85ED010AAE
:103A100090ED020A85ED020AB7EE000A84ED000A75
:103A2000B7EE000A84ED010AB7EE000A84ED020A3F
:103A300070BD0000D40C002084000020F00D002098
:103A400008B5072005F0B5FF02E0642005F0B1FFDE
:103A5000FCF7E0FE0028F8D1BE4AA2F10C01101DCF
:103A6000FCF7F2FEBC48BB4B103BBC4ABC49009083
:103A7000BC4805F04BFBDFEDBC0A9FEDBC0ABC4A1D
:103A80000021BC4801F05CFAB34A121DB1490C395F
:103A9000B948FCF7C1FDB24890ED000AB74880ED87
:103AA000000AB74880ED000AB64880ED000AAC482D
:103AB00090ED010AB14880ED010AB14880ED010A9C
:103AC000B04880ED010AA64890ED020AAB4880EDAF
:103AD000020AAB4880ED020AAA4880ED020A0020E3
:103AE00005F0A2FF044607F0DDFAA749086010219F
:103AF000A648C161FFF7D9F908B1FDF7B3FC082268
:103B0000A349A44803F038FE0120A3490870A34844
:103B100090ED000AB5EEC00AF1EE10FA03D10120D3
:103B20009F49087002E000209D49087011E100BF24
:103B30004FF0FF31012006F073FC0128F8D19948BD
:103B4000007800F0080018B39648007820F00800CC
:103B5000944908707F49091D8D48401CFCF726FEDA
:103B60009148008800EE100AB8EE400ADFED8F0A97
:103B7000B4EEE00AF1EE10FA02DD00208849087088
:103B80008748007820B1884A89498A48FFF71AFF98
:103B90008948007800F0040060B18748007820F080
:103BA0000400854908706B4A1032A2F11C01834859
:103BB000FCF7A6FD8248007800F0040088B1804838
:103BC000007820F004007E49087062497D48FCF7C7
:103BD00029FF60481038D0ED040AB0EE600A05F005
:103BE00005FC5D485B4B103B5C4A5D4900905D48BD
:103BF00005F08CFA624890ED000A624880ED000AF8
:103C00005E4890ED000A5E4880ED000A90ED000AE3
:103C10006D48D0ED000A20EE200A5A48D0ED000A87
:103C2000694890ED011A00EE810A4D48D0ED000A76
:103C3000654890ED021A00EE810A504880ED000AB6
:103C40004F4890ED010A4F4880ED010A4B4890ED36
:103C5000010A4B4880ED010A90ED010A5A48D0ED67
:103C6000000A20EE200A4748D0ED010A564890EDA0
:103C7000011A00EE810A3A48D0ED010A524890ED4F
:103C8000021A00EE810A3D4880ED010A3C4890EDA1
:103C9000020A3C4880ED020A384890ED020A384892
:103CA00080ED020A90ED020A4748D0ED000A20EEAE
:103CB000200A3448D0ED020A434890ED011A00EE84
:103CC000810A2748D0ED020A3F4890ED021A00EE23
:103CD000810A2A4880ED020A90ED010A2848D0EDB9
:103CE000010A30EE600A3948D0ED000A30EE200AB1
:103CF00080ED000A194B214A1A499FED350A1E48EA
:103D0000FCF79EFC334B1A1F111F1B4805F008F9E6
:103D10003048083890ED000ADFED2F0A20EE200A27
:103D20002E4880ED000A2B48083890ED010ADFED9F
:103D30002A0A20EE200A294880ED010A2548083881
:103D400090ED020ADFED240A20EE200A234880EDE0
:103D5000020AECE6380D00204C0D0020080E002071
:103D6000FC0D0020F00D00200080894500A08C454E
:103D700018B800085C0D0020A40D0020E40D002000
:103D8000D80D0020CC0D0020380000206009002054
:103D90003C00002044000020DC00002084000020C3
:103DA000DD000020D8000020DE00002000409C46FE
:103DB000EC0C0020E00C0020D9000020CA0C0020F0
:103DC000DA0000205700002024B80008E40000209A
:103DD0006F12833ABC0D002033336542C00D0020C2
:103DE00010B50E480E4908600320486000210C48B9
:103DF0008160C1604FF4102101614FF400114161F5
:103E00000021017641768176C17601774177FDF711
:103E100024FE08B1FDF726FB10BD00000064004041
:103E2000BC08002010B50E480E4908600320486009
:103E300000210C488160C1604FF4102101614FF4F2
:103E4000001141610021017641768176C1760177CA
:103E50004177FDF702FE08B1FDF704FB10BD00003D
:103E600000680040E408002008B500BF0020009072
:103E70001A48006840F48000184908600846006845
:103E800000F48000009000BF00BF00BF0020009041
:103E90000846006840F4001008600846006800F416
:103EA0000010009000BF00BF002205210C20FEF78B
:103EB00083FC0C20FEF772FC002205213A20FEF75D
:103EC0007BFC3A20FEF76AFC002205213B20FEF72E
:103ED00073FC3B20FEF762FC08BD00003038024056
:103EE00000B5B1B01C222A492AA8FCF7FAF9002132
:103EF0002AA805F06BFD274908601C2224491C31C3
:103F000023A8FCF7EEF9002123A805F05FFD224964
:103F100008601C221E4938311CA8FCF7E2F9002178
:103F20001CA805F053FD1D4908601C221849543196
:103F300015A8FCF7D6F9002115A805F047FD18498A
:103F400008601C22124970310EA8FCF7CAF9002142
:103F50000EA805F03BFD134908601C220C498C316A
:103F600007A8FCF7BEF9002107A805F02FFD0E49B0
:103F700008601C220649A8316846FCF7B2F9002106
:103F8000684605F023FD0949086031B000BD000016
:103F90003CB70008080000200C00002010000020A2
:103FA0001400002018000020000000200400002061
:103FB00000B587B0142102A8FCF7ACF900BF0020BF
:103FC00001906D48006840F002006B4908600846A7
:103FD000006800F00200019000BF00BF00BF002099
:103FE00001900846006840F001000860084600683B
:103FF00000F00100019000BF00BF00BF0020019051
:104000000846006840F0080008600846006800F0B4
:104010000800019000BF00BF00BF002001900846CB
:10402000006840F0040008600846006800F00400E2
:10403000019000BF00BF00BF00200190084600684B
:1040400040F4807008600846006800F480700190B9
:1040500000BF00BF00BF002001900846006840F08C
:10406000800008600846006800F08000019000BFF2
:1040700000BF00BF002001900846006840F04000EB
:1040800008600846006800F04000019000BF00BFD3
:1040900000BF002001900846006840F02000086042
:1040A0000846006800F02000019000BF00BF012218
:1040B00040213248FEF7C6F9012210213048FEF7B0
:1040C000C1F9012211462F48FEF7BCF940200290A9
:1040D000012003900490059002A92848FEF7A4F857
:1040E00009200290284803900120049002A9234847
:1040F000FEF79AF81020029001200390049002200D
:10410000059002A91E48FEF78FF8302002901E4845
:1041100003900120049002A91C48FEF785F80120B5
:104120000290039004900220059002A91548FEF722
:104130007BF8002206210846FEF73EFB0620FEF72C
:104140002DFB002205210920FEF736FB0920FEF792
:1041500025FB002205210A20FEF72EFB0A20FEF790
:104160001DFB002205211720FEF726FB1720FEF776
:1041700015FB07B000BD00003038024000180240B7
:10418000000002400004024000002110000802402C
:1041900010B50B480B4908600B48486000210948DE
:1041A0008160C1604FF48041016100214161816102
:1041B000C1610162FEF754F908B1FDF753F910BD72
:1041C000005C00400C090020801A060010B50F4862
:1041D0000F4908604FF48270486000210C488160EC
:1041E000C1600221016101214161490281613821DF
:1041F000C16100210162416281620A21C162FEF750
:1042000054FE08B1FDF72EF910BD0000003001404A
:104210006009002000B587B01C216846FCF77AF8D9
:104220001548164908600020486000211348816045
:1042300041F28731C160002101618161FFF78CF893
:1042400008B1FDF70FF90D48FFF776FA08B1FDF751
:1042500009F9602000900020019002900490002253
:1042600069460648FFF7FAF908B1FDF7FBF803487D
:10427000FFF75CF907B000BD00440140F80A0020D8
:1042800000B58DB0002009900A900B900C9007901B
:1042900008901C216846FCF73DF82848284908602A
:1042A000002048600021264881604FF6FF71C16000
:1042B000002101618161FFF74FF808B1FDF7D2F8E5
:1042C0004FF48050099009A91D48FFF7BDF808B1C7
:1042D000FDF7C8F81A48FFF72FFA08B1FDF7C2F842
:1042E00000200790089007A91548FFF70EF808B1BD
:1042F000FDF7B8F860200090002001900290049033
:10430000002269460E48FFF7A9F908B1FDF7AAF89F
:10431000042269460A48FFF7A1F908B1FDF7A2F89F
:10432000082269460648FFF799F908B1FDF79AF89F
:104330000348FFF7FBF80DB000BD0000000C004083
:10434000780A002000B595B00020119012901390CB
:1043500014900F9010901C2108A8FBF7DBFF202180
:104360006846FBF7D7FF2F482F49086040F28F605F
:10437000486000212C48816040F2CF71C16000216B
:10438000016141618161FEF7E7FF08B1FDF76AF85D
:104390004FF48050119011A92348FFF755F808B148
:1043A000FDF760F82048FFF7C7F908B1FDF75AF8A4
:1043B00000200F9010900FA91B48FEF7A6FF08B130
:1043C000FDF750F860200890002009900A900B90AB
:1043D0000C900D900E90042208A91348FFF73EF9A7
:1043E00008B1FDF73FF8082208A90F48FFF736F992
:1043F00008B1FDF737F8002000900190029003907B
:1044000004904FF40050059000200790694606483C
:10441000FEF748FF08B1FDF725F80348FFF786F8D7
:1044200015B000BD00040140B80A002010B50B48CB
:104430000B4908604FF4E130486000210848816072
:10444000C16001610C21416100218161C161FFF7FF
:10445000B1F908B1FDF706F810BD000000100140E9
:10446000E80B002010B50B480B4908600B4848606A
:10447000002109488160C1604FF4806101610C2115
:10448000416100218161C161FFF794F908B1FCF736
:10449000E9FF10BD00480040280C0020A086010064
:1044A00010B52DED108B98B00446B0EE40AAF0EE9A
:1044B00060AAB0EE41BAF0EE61CAF0EE42BAB0EED8
:1044C00062CAF0EE439AB0EE638AF0EE448AF5EEEB
:1044D000C09AF1EE10FA1CD1B5EEC08AF1EE10FAD6
:1044E00017D1F5EEC08AF1EE10FA12D1F0EE4C2A97
:1044F000B0EE6B2AF0EE6C1AB0EE4B1AF0EE6A0AD0
:10450000B0EE4A0A204600F0A1FA18B0BDEC108BBC
:1045100010BDF5EEC0CAF1EE10FA09D1F5EEC0BA41
:10452000F1EE10FA04D1B5EEC0CAF1EE10FA7CD06B
:104530006CEEAC0A4BEEAB0A4CEE0C0AB0EE600A25
:1045400004F0A6FFB0EE409A2CEE890AF0EE40CAC5
:104550002BEE890AF0EE40BA2CEE090AB0EE40CA02
:1045600069EEA90A48EE080A48EEA80AB0EE600A09
:1045700004F08EFFB0EE409A29EE890AF0EE409AE0
:1045800028EE090AB0EE408A28EE890AF0EE408A49
:1045900094ED000A20EE000A8DED170A94ED000A52
:1045A000D4ED010A20EE20EA94ED000AD4ED020ACF
:1045B00020EE20DA94ED000AD4ED030A20EE200A62
:1045C0008DED160A94ED010A20EE000A8DED150A14
:1045D00094ED010AD4ED020A20EE200A8DED140AB2
:1045E00094ED010AD4ED030A60EE20DA94ED020A9C
:1045F00060EE00EA94ED020AD4ED030A20EE20FA00
:1046000094ED030A60EE00FAB6EE000A30EE6E0A90
:1046100030EE6F0A20EE291A9DED140ADDED160A20
:1046200070EE600AB0EE410A00E060E108EE200A98
:104630007DEE8D0A08EEA00AF0EE000A20EE200AB8
:104640008DED130A9DED140ADDED160A30EE200AF9
:1046500060EE290A9DED150AB6EE001A31EE400A09
:1046600030EE6F1AB0EE600A08EE010A7FEE4E0AD5
:1046700008EEA00AF0EE000A20EE200A8DED120AE4
:104680009DED130A60EE000A9DED120A40EE000A4D
:1046900010EE901A0846FBF74FFECDE900019DEDA4
:1046A000000B03F0D5FF8DED020B9DED020B51ECDD
:1046B000100BFBF754FE11903DEECD0A20EE290AB7
:1046C0007FEE0E0A08EE200ADDED150AB6EE001A9E
:1046D00071EE600A70EEEE0A08EEA00AF0EE000A33
:1046E00020EE200A8DED100A3DEECD0A8DED0F0A69
:1046F0003EEE0F0A8DED0E0A9DED170AF6EE000A4A
:1047000030EE600A30EE2F0A8DED0D0AB6EE000A8B
:1047100030EE6E0A70EE6F0A9DED110A20EE800AEF
:104720003DEECD1ADDED100A00EE810A8DED0C0A8A
:104730009DED140ADDED160A70EE600A9DED110A7A
:1047400020EE800A3EEE0F1ADDED100A00EE810A1F
:104750008DED0B0A7DEE2D0A9DED110A20EE801ADB
:104760009DED150AF6EE000A30EEC00A70EE6E1AE4
:10477000DDED100AB0EE410A00EEA10A8DED0A0A45
:104780009DED0D0A6BEE800A9DED0E0A4CEE400A7F
:104790009DED0A0A28EE001A9DED0B0A08EEC01ADC
:1047A00030EE810A8DED090A9DED0F0A6CEE000ACC
:1047B0009DED0D0A4CEEC00A9DED0C0A28EE801A04
:1047C0009DED0A0A09EEC01A30EE810A8DED080A45
:1047D0009DED0E0A6CEE800A9DED0F0A4BEEC00AAD
:1047E0009DED0B0A29EE801A9DED0C0A08EE401A89
:1047F00030EE810A8DED070A8C4890ED000AB5EE87
:10480000C00AF1EE10FA44DDD0ED000A9DED090A70
:1048100060EE800A864890ED000A9FED861A00EE51
:10482000810A80ED000A8148D0ED000A9DED080A5A
:1048300060EE800A804890ED000A9FED7E1A00EE3F
:10484000810A80ED000A7948D0ED000A9DED070A43
:1048500060EE800A794890ED000A9FED761A00EE2E
:10486000810A80ED000A724890ED000A3AEE000AD3
:10487000B0EE40AA704890ED000A3AEE800AF0EEE1
:1048800040AA6E4890ED000A3BEE000AB0EE40BA36
:104890000EE09FED6B0A664880ED000A9FED680A06
:1048A000654880ED000A9FED660A644880ED000AC5
:1048B000644890ED001A9DED090AF0EE4A0A41EEB7
:1048C000000AB0EE60AA90ED001A9DED080AF0EE25
:1048D0006A0A41EE000AF0EE60AA90ED001A9DED22
:1048E000070AF0EE4B0A41EE000AB0EE60BA9FED07
:1048F000560A2AEE000AB0EE40AA9FED530A2AEEAD
:10490000800AF0EE40AA9FED500A2BEE000AB0EEAE
:1049100040BA94ED000A8DED060A94ED010A8DED82
:10492000050A94ED020A8DED040A9DED050AB1EE2B
:10493000400A60EE0A0A9DED040A40EE6A0A94ED10
:10494000030A40EE4B0A94ED000A30EE800A84ED33
:10495000000A9DED060A60EE0A0A9DED040A40EE8B
:104960000B0A94ED030A40EE6A0A94ED010A30EE58
:10497000800A84ED010A9DED060A60EE2A0A9DED8B
:10498000050A40EE4B0A94ED030A40EE0A0A94ED44
:10499000020A30EE800A84ED020A9DED060A20EE3E
:1049A0000B0ADDED050A00EEAA0ADDED040A00EEB1
:1049B000CA0AD4ED030A30EE200A84ED030AD4EDCE
:1049C000000A60EEA00A94ED011AD4ED011A41EE3E
:1049D000210A94ED021AD4ED021A41EE210A94ED57
:1049E000031AD4ED031A41EE210AB0EE600A04F076
:1049F0004FFDB0EE409A94ED000A20EE090A84EDD6
:104A0000000A94ED010A20EE090A84ED010A94EDF2
:104A1000020A20EE090A84ED020A94ED030A20EE50
:104A2000090A84ED030A00BF6FE500004001002081
:104A3000440100206F12833A480100204C010020FD
:104A4000000000003C0100206F12033A00B52DED7C
:104A5000068B0246B0EE403AF0EE603AB0EE414AC4
:104A6000F0EE615AF0EE424AB0EE625AF5EEC05AEC
:104A7000F1EE10FA09D1F5EEC04AF1EE10FA04D1C8
:104A8000B5EEC05AF1EE10FA7ED065EEA50A44EEFE
:104A9000A40A45EE050AB0EE600A04F0F9FCF0EE57
:104AA000402A25EEA20AF0EE405A24EEA20AF0EEC9
:104AB000404A25EE220AB0EE405A92ED010AD2EDAC
:104AC000030A20EE200AD2ED000A92ED021AF0EE5F
:104AD000408A40EEC18A92ED000AD2ED010A20EE32
:104AE000200AD2ED020A92ED031AF0EE409A40EE4F
:104AF000819AD2ED000A92ED001AB6EE000A10EE8D
:104B0000810AD2ED030A92ED031AB0EE409A00EE4C
:104B1000819A24EE890AF0EE407A45EE697A25EE14
:104B2000280AB0EE40AA05EEC9AA25EEA90AB0EE01
:104B3000408A04EEE88A7C4890ED000AB5EEC00A8F
:104B4000F1EE10FA40DD90ED000A60EE270A77489A
:104B500090ED000A9FED761A00EE810A80ED000AC2
:104B6000714890ED000A60EE0A0A724890ED000A62
:104B70009FED6F1A00EE810A80ED000A6A4890ED01
:104B8000000A60EE080A00E046E06B4890ED000A7B
:104B90009FED671A00EE810A80ED000A634890EDF0
:104BA000000A33EE000AB0EE403A624890ED000A87
:104BB00033EE800AF0EE403A5F4890ED000A34EEA2
:104BC000000AB0EE404A0EE09FED5C0A574880EDC7
:104BD000000A9FED5A0A574880ED000A9FED570AD8
:104BE000554880ED000A5648D0ED000AB0EE430A61
:104BF00000EEA70AB0EE403AD0ED000AB0EE630A2C
:104C000000EE8A0AF0EE403AD0ED000AB0EE440A17
:104C100000EE880AB0EE404A9FED4A0A23EE000AF1
:104C2000B0EE403A9FED470A23EE800AF0EE403A9C
:104C30009FED440A24EE000AB0EE404A92ED006A6D
:104C4000D2ED016A92ED027AB1EE660A20EE030A15
:104C500007EE630AD2ED030A00EEC40AD2ED000AA1
:104C600030EE200A82ED000A26EE030A07EE040A5F
:104C7000D2ED030A00EEE30AD2ED010A30EE200A7B
:104C800082ED010A26EE230A06EEC40AD2ED030ADB
:104C900000EE830AD2ED020A30EE200A82ED020A0B
:104CA00026EE040A06EEA30A07EE430AD2ED030A33
:104CB00030EE200A82ED030AD2ED000A60EEA00A6F
:104CC00092ED011AD2ED011A41EE210A92ED021A7B
:104CD000D2ED021A41EE210A92ED031AD2ED031A27
:104CE00041EE210AB0EE600A04F0D2FBF0EE402A59
:104CF00092ED000A20EE220A82ED000A92ED010AEE
:104D000020EE220A82ED010A92ED020A20EE220A2A
:104D100082ED020A92ED030A20EE220A82ED030AD6
:104D2000BDEC068B00BD00004001002044010020C6
:104D30006F12833A480100204C010020000000005F
:104D40003C0100206F12033A00BFFEE770470000ED
:104D5000B0EE401A10B99FED790A704790ED100A35
:104D600080ED110A90ED0F0A80ED100AC0ED060AE1
:104D700080ED071A30EEC10A80ED0F0A0178002994
:104D800075D190ED010AD0ED0F1A20EE210A80EDC9
:104D9000090A90ED0A0AD0ED021A90ED0F2A01EEF1
:104DA000820A80ED0A0A90ED0D0A80ED0E0A90ED60
:104DB0000C0A80ED0D0A90ED0F0AD0ED101A30EEBE
:104DC000610A80ED0C0A90ED030AD0ED0C1A20EE7A
:104DD000210A80ED0B0A90ED0A0AD0ED051AB4EE17
:104DE000E10AF1EE10FA04DD90ED050A80ED0A0A01
:104DF00010E090ED0A0AD0ED051AF1EE611AB4EE5A
:104E0000E10AF1EE10FA05D290ED050AB1EE400A82
:104E100080ED0A0A90ED090AD0ED0A1A30EE210A57
:104E2000D0ED0B1A30EE210A80ED080A90ED080A49
:104E3000D0ED041AB4EEE10AF1EE10FA04DD90EDC3
:104E4000040A80ED080A76E090ED080AD0ED041A15
:104E5000F1EE611AB4EEE10AF1EE10FA6BD290EDC8
:104E6000040AB1EE400A80ED080A64E0FFE7017829
:104E7000012960D190ED0F0AD0ED101A30EE610AD1
:104E8000D0ED011A20EE210A80ED090A90ED020A08
:104E9000D0ED0F1A20EE210A80ED0A0A90ED0D0ADE
:104EA00080ED0E0A90ED0C0A80ED0D0A90ED0F0AD0
:104EB000D0ED101AB0EE002A02EE610AD0ED111A00
:104EC00030EE210A80ED0C0A90ED030AD0ED0C1AA9
:104ED00020EE210A80ED0B0A90ED090AD0ED0A1AA6
:104EE00030EE210AD0ED0B1A30EE210AD0ED081A6F
:104EF00030EE210A80ED080A90ED080AD0ED041A80
:104F0000B4EEE10AF1EE10FA04DD90ED040A80ED52
:104F1000080A10E090ED080AD0ED041AF1EE611ACB
:104F2000B4EEE10AF1EE10FA05D290ED040AB1EE0A
:104F3000400A80ED080A90ED080A0EE70000000024
:104F400000B102B97047017092ED001A80ED011AAC
:104F500092ED011A80ED021A92ED021A80ED031A09
:104F600080ED040AC0ED050A9FED0C1A80ED0E1AC3
:104F700080ED0D1A80ED0C1A9FED081A80ED081ACD
:104F800080ED0B1A80ED0A1A80ED091A80ED111AD6
:104F900080ED101A80ED0F1A00BFD3E7000000006B
:104FA00010B5234B1B685B6943F04003204C246819
:104FB00063611F4B1B68DB6843F010031C4C2468C3
:104FC000E3601C4B1B681B6823F00103194C246829
:104FD000236007E0174B1B681B6823F00103154C87
:104FE00024682360134B1B681B6803F00103002B2C
:104FF000F0D1114B0F4C2468A3600E4B1B68D86096
:105000000C4B1B6819610B4B1B685A60094B1B68E2
:105010001B6843F48023074C24682360054B1B68FE
:105020001B6843F00103034C2468236010BD00009B
:10503000280C0020680C00200448004010B5FB4BF1
:105040001B681B6823F00103F84C24682360F84BAD
:105050001B681B6823F00103F54C2468236007E0FC
:10506000F24B1B681B6823F00103F04C246823609B
:10507000EE4B1B681B6803F00103002BF0D107E027
:10508000EB4B1B681B6823F00103E94C2468236089
:10509000E74B1B681B6803F00103002BF0D1E54BC5
:1050A000DB6C1B68E44CA34275D9E24BDB6C1B68DC
:1050B000E24CA34201D1202368E0DE4BDB6C1B688D
:1050C000DD4C483CA34201D120235FE0D94BDB6C8F
:1050D0001B68DA4C6034A34201D1202356E0D54B43
:1050E000DB6C1B68D44C1834A34201D120234DE063
:1050F000D04BDB6C1B68D14C1834A34201D1DB14BC
:1051000044E0CC4BDB6C1B68CB4C303CA34201D160
:10511000DB143BE0C74BDB6C1B68C84C7834A34204
:1051200001D1DB1432E0C34BDB6C1B68C24C303462
:10513000A34201D1DB1429E0BE4BDB6C1B68BF4CE2
:105140003034A34202D14FF400131FE0B94BDB6CA3
:105150001B68B94C183CA34202D14FF4001315E070
:10516000B44BDB6C1B68B54C9034A34202D14FF4B6
:1051700000130BE0AF4BDB6C1B68AF4C4834A34211
:1051800002D14FF4001301E04FF00063AA4C4C3CF5
:10519000236076E1FFE7A74BDB6C1B68A74CA834C4
:1051A000A34275D9A34BDB6C1B68A44CA34201D16D
:1051B000202369E09F4BDB6C1B689F4C483CA3425B
:1051C00001D1202360E09B4BDB6C1B689B4C60345F
:1051D000A34201D1202357E0964BDB6C1B68964C11
:1051E0001834A34201D120234EE0924BDB6C1B68A4
:1051F000924C1834A34201D1DB1445E08D4BDB6C9B
:105200001B688D4C303CA34201D1DB143CE0894B40
:10521000DB6C1B68894C7834A34201D1DB1433E08A
:10522000844BDB6C1B68844C3034A34201D1DB140B
:105230002AE0804BDB6C1B68804C3034A34202D1E7
:105240004FF4001320E07B4BDB6C1B687A4C183C5E
:10525000A34202D14FF4001316E0764BDB6C1B68BF
:10526000764C9034A34202D14FF400130CE0714B02
:10527000DB6C1B68704C4834A34203D14FF400131D
:1052800002E005E04FF000636B4C503C2360F8E017
:10529000684BDB6C1B68694C4834A34275D9654B7D
:1052A000DB6C1B68654CA34201D1202368E0614B95
:1052B000DB6C1B68604C483CA34201D120235FE0BB
:1052C0005C4BDB6C1B685D4C6034A34201D1202336
:1052D00056E0584BDB6C1B68574C1834A34201D185
:1052E00020234DE0534BDB6C1B68544C1834A34215
:1052F00001D1DB1444E04F4BDB6C1B684E4C303C5F
:10530000A34201D1DB143BE04A4BDB6C1B684B4CE6
:105310007834A34201D1DB1432E0464BDB6C1B68CE
:10532000454C3034A34201D1DB1429E0414BDB6C06
:105330001B68424C3034A34202D14FF400131FE0EB
:105340003C4BDB6C1B683C4C183CA34202D14FF435
:10535000001315E0374BDB6C1B68384C9034A342CC
:1053600002D14FF400130BE0324BDB6C1B68324C64
:105370004834A34202D14FF4001301E04FF0006320
:105380002E4C103CE3607CE0FFE72A4BDB6C1B6893
:105390002A4CA34201D1202370E0264BDB6C1B6812
:1053A000254C483CA34201D1202367E0214BDB6C14
:1053B0001B68224C6034A34201D120235EE01D4BC8
:1053C000DB6C1B681C4C1834A34201D1202355E030
:1053D000184BDB6C1B68194C1834A34201D1DB1449
:1053E0004CE0144BDB6C1B68134C303CA34201D1E6
:1053F000DB1443E00F4BDB6C1B68104C7834A3428A
:1054000001D1DB143AE00B4BDB6C1B680A4C3034E7
:10541000A34201D1DB1431E0064BDB6C1B68074C67
:105420003034A3420CD14FF4001327E0B809002018
:10543000180A0020600900205864024010600240F1
:10544000F74BDB6C1B68F74CA34202D14FF40013FF
:1054500014E0F34BDB6C1B68F34CA34202D14FF416
:1054600000130BE0EE4BDB6C1B68EE4C6034A34288
:1054700002D14FF4001301E04FF00063EA4CA03C6E
:10548000A360E74BDB6C1B68E64C1834A34274D96D
:10549000E34BDB6C1B68E44C903CA34201D110232E
:1054A00066E0DF4BDB6C1B68DE4C303CA34201D175
:1054B00010235DE0DA4BDB6C1B68DB4C303CA34215
:1054C00001D1102354E0D64BDB6C1B68D54C303433
:1054D000A34201D110234BE0D14BDB6C1B68D24CB3
:1054E000783CA34201D11B1542E0CD4BDB6C1B681D
:1054F000CC4C183CA34201D11B1539E0C84BDB6CE6
:105500001B68C94C183CA34201D11B1530E0C44BA9
:10551000DB6C1B68C34C4834A34201D11B1527E048
:10552000BF4BDB6C1B68C04C603CA34202D14FF404
:1055300080131DE0BA4BDB6C1B68BA4CA34202D14E
:105540004FF4801314E0B64BDB6C1B68B64CA342DF
:1055500002D14FF480130BE0B14BDB6C1B68B14CF4
:105560006034A34202D14FF4801301E04FF0806316
:10557000AC4C343C236070E1FFE7A94BDB6C1B684B
:10558000A94C1834A34274D9A54BDB6C1B68A64CFC
:10559000903CA34201D1102366E0A14BDB6C1B6859
:1055A000A04C303CA34201D110235DE09C4BDB6C4E
:1055B0001B689D4C303CA34201D1102354E0984B12
:1055C000DB6C1B68974C3034A34201D110234BE0B5
:1055D000934BDB6C1B68944C783CA34201D11B15A8
:1055E00042E08F4BDB6C1B688E4C183CA34201D110
:1055F0001B1539E08A4BDB6C1B688B4C183CA342B3
:1056000001D11B1530E0864BDB6C1B68854C4834A0
:10561000A34201D11B1527E0814BDB6C1B68824C38
:10562000603CA34202D14FF480131DE07C4BDB6C45
:105630001B687C4CA34202D14FF4801314E0784BDA
:10564000DB6C1B68784CA34202D14FF480130BE053
:10565000734BDB6C1B68734C6034A34202D14FF474
:10566000801301E04FF080636E4C383C2360F4E01F
:10567000FFE76B4BDB6C1B686B4C483CA34274D957
:10568000674BDB6C1B68684C903CA34201D1102334
:1056900066E0634BDB6C1B68624C303CA34201D17B
:1056A00010235DE05E4BDB6C1B685F4C303CA3421B
:1056B00001D1102354E05A4BDB6C1B68594C303439
:1056C000A34201D110234BE0554BDB6C1B68564CB9
:1056D000783CA34201D11B1542E0514BDB6C1B68A7
:1056E000504C183CA34201D11B1539E04C4BDB6CEC
:1056F0001B684D4C183CA34201D11B1530E0484BB0
:10570000DB6C1B68474C4834A34201D11B1527E0D2
:10571000434BDB6C1B68444C603CA34202D14FF40A
:1057200080131DE03E4BDB6C1B683E4CA34202D154
:105730004FF4801314E03A4BDB6C1B683A4CA342E5
:1057400002D14FF480130BE0354BDB6C1B68354CFA
:105750006034A34202D14FF4801301E04FF0806324
:10576000314CA03CE36078E0FFE72D4BDB6C1B681D
:105770002D4C903CA34201D110236BE0284BDB6CF5
:105780001B68284C303CA34201D1102362E0244B1B
:10579000DB6C1B68244C303CA34201D1102359E040
:1057A0001F4BDB6C1B681F4C3034A34201D110230C
:1057B00050E01B4BDB6C1B681B4C783CA34201D1B7
:1057C0001B1547E0164BDB6C1B68164C183CA342BC
:1057D00001D11B153EE0124BDB6C1B68124C183CD0
:1057E000A34201D11B1535E00D4BDB6C1B680D4C42
:1057F0004834A34201D11B152CE0094BDB6C1B681C
:10580000094C603CA34202D14FF4801322E0044BC8
:10581000DB6C1B68034CA34208D14FF4801319E0E2
:105820006009002040640240A0600240F74BDB6C3E
:105830001B68F74CA34202D14FF480130AE0F34BEC
:10584000DB6C1B68F34CA34202D14FF4801301E0E0
:105850004FF08063EE4CA03CA360EC4BDB6C1B680C
:10586000EC4C483CA34274D9E84BDB6C1B68E84C19
:10587000903CA34201D1082366E0E44BDB6C1B683B
:10588000E44C903CA34201D108235DE0DF4BDB6C8C
:105890001B68DF4C303CA34201D1082354E0DB4BB2
:1058A000DB6C1B68DB4C303CA34201D108234BE08E
:1058B000D64BDB6C1B68D64C783CA34201D15B1500
:1058C00042E0D24BDB6C1B68D24C783CA34201D146
:1058D0005B1539E0CD4BDB6C1B68CD4C183CA3420B
:1058E00001D15B1530E0C94BDB6C1B68C94C183C1F
:1058F000A34201D15B1527E0C44BDB6C1B68C44C91
:10590000603CA34202D14FF400231DE0BF4BDB6C8F
:105910001B68C04C603CA34202D14FF4002313E04B
:10592000BA4BDB6C1B68BA4CA34202D14FF4002384
:105930000AE0B64BDB6C1B68B64CA34202D14FF4B5
:10594000002301E04FF00073B24C943C236070E1FF
:10595000FFE7AE4BDB6C1B68AD4C1834A34274D927
:10596000AA4BDB6C1B68AA4C903CA34201D10823D4
:1059700066E0A64BDB6C1B68A64C903CA34201D1B1
:1059800008235DE0A14BDB6C1B68A14C303CA342BB
:1059900001D1082354E09D4BDB6C1B689D4C303CCF
:1059A000A34201D108234BE0984BDB6C1B68984C59
:1059B000783CA34201D15B1542E0944BDB6C1B6841
:1059C000944C783CA34201D15B1539E08F4BDB6CE2
:1059D0001B688F4C183CA34201D15B1530E08B4B08
:1059E000DB6C1B688B4C183CA34201D15B1527E094
:1059F000864BDB6C1B68864C603CA34202D14FF4A3
:105A000000231DE0814BDB6C1B68824C603CA34291
:105A100002D14FF4002313E07C4BDB6C1B687C4C01
:105A2000A34202D14FF400230AE0784BDB6C1B68E1
:105A3000784CA34202D14FF4002301E04FF00073F1
:105A4000744C983C2360F4E0FFE7704BDB6C1B6800
:105A50006F4C483CA34274D96C4BDB6C1B686C4C9C
:105A6000903CA34201D1082366E0684BDB6C1B68C5
:105A7000684C903CA34201D108235DE0634BDB6C92
:105A80001B68634C303CA34201D1082354E05F4BB8
:105A9000DB6C1B685F4C303CA34201D108234BE018
:105AA0005A4BDB6C1B685A4C783CA34201D15B1506
:105AB00042E0564BDB6C1B68564C783CA34201D14C
:105AC0005B1539E0514BDB6C1B68514C183CA34211
:105AD00001D15B1530E04D4BDB6C1B684D4C183C25
