:020000040800F2
:1000000000000220A50F0008AD0B0008AF0B000890
:10001000B10B0008B30B0008B50B0008000000008E
:10002000000000000000000000000000F1370008A0
:10003000B70B00080000000091380008F5380008F0
:10004000F50F0008F50F0008F50F0008F50F000880
:10005000F50F0008F50F0008F50F0008F50F000870
:10006000F50F0008F50F0008F50F0008F50F000860
:10007000B90B0008F50F0008F50F0008F50F000890
:10008000F50F0008F50F0008F50F0008F50F000840
:10009000C90B0008F50F0008F50F0008F50F000860
:1000A000F50F0008F50F0008F50F0008F50F000820
:1000B000F50F0008F50F0008F50F0008F50F000810
:1000C000F50F0008F50F0008F50F0008F50F000800
:1000D000F50F0008D90B0008F50F0008E90B000820
:1000E000F50F0008F50F0008F50F0008F50F0008E0
:1000F000F50F0008F50F0008F50F0008F50F0008D0
:10010000F50F0008F50F0008F50F0008F50F0008BF
:10011000F50F0008F50F0008F90B0008F50F0008AF
:10012000F50F0008F50F0008F50F0008F50F00089F
:10013000F50F0008F50F0008F50F0008F50F00088F
:10014000090C0008F50F0008F50F0008F50F00086E
:10015000F50F0008F50F0008190C0008F50F00084E
:10016000F50F0008F50F0008F50F0008F50F00085F
:10017000F50F0008F50F0008F50F0008000000005B
:08018000F50F0008F50F00085F
:1001900053B94AB9002908BF00281CBF4FF0FF31EE
:1001A0004FF0FF3000F0E2B8ADF1080C6DE904CE7D
:1001B00004F002FCDDF804E0DDE9022304B070473E
:1001C00000F1340191E838009C46A6464CF8045DE5
:1001D00090E8FF0FE54600BD90EC210B704700BF93
:1001E00080EC210B704700BF90EC200B704700BFE4
:1001F00080EC200B704700BFD0EC200B704700BF95
:10020000C0EC200B704700BFF0EC0201F0EC0211D3
:10021000F0EC0221F0EC0231F0EC0241F0EC025182
:10022000F0EC0261F0EC0271F0EC0281F0EC029172
:10023000F0EC02A1F0EC02B1F0EC02C1F0EC02D162
:10024000F0EC02E1F0EC02F1704700BFE0EC0201DB
:10025000E0EC0211E0EC0221E0EC0231E0EC0241C2
:10026000E0EC0251E0EC0261E0EC0271E0EC0281B2
:10027000E0EC0291E0EC02A1E0EC02B1E0EC02C1A2
:10028000E0EC02D1E0EC02E1E0EC02F1704700BFEB
:10029000B0FC0181B0FC0191B0FC01A1B0FC01B146
:1002A000704700BFA0FC0181A0FC0191A0FC01A14E
:1002B000A0FC01B1704700BFEC4600B52DE900502D
:1002C0002DE9FF1F4FF000032DE90C0001A904F0F8
:1002D0004DFEDDF840E012B0704700BFEC4600B5BF
:1002E0002DE900502DE9FF1F4FF000032DE90C0010
:1002F00001A904F079FEDDF840E012B0704700BFBC
:10030000EC4600B52DE900502DE9FF1F4FF000032A
:100310002DE90C0001A904F089FEDDF840E012B0DF
:10032000704700BFEC4600B52DE900502DE9FF1FD6
:100330004FF000032DE90C0001AB04F04DFEDDF899
:1003400040E012B0704700BFEC4600B52DE9005008
:100350002DE9FF1F4FF000032DE90C0001AA04F066
:10036000C1FEDDF840E012B0704700BF704700BF2B
:10037000844641EA000313F003036DD1403A41D3B0
:1003800051F8043B40F8043B51F8043B40F8043B6F
:1003900051F8043B40F8043B51F8043B40F8043B5F
:1003A00051F8043B40F8043B51F8043B40F8043B4F
:1003B00051F8043B40F8043B51F8043B40F8043B3F
:1003C00051F8043B40F8043B51F8043B40F8043B2F
:1003D00051F8043B40F8043B51F8043B40F8043B1F
:1003E00051F8043B40F8043B51F8043B40F8043B0F
:1003F00051F8043B40F8043B51F8043B40F8043BFF
:10040000403ABDD2303211D351F8043B40F8043B9E
:1004100051F8043B40F8043B51F8043B40F8043BDE
:1004200051F8043B40F8043B103AEDD20C3205D3AE
:1004300051F8043B40F8043B043AF9D2043208D0A6
:10044000D2071CBF11F8013B00F8013B01D30B8818
:1004500003806046704700BF082A13D38B078DD0F6
:1004600010F003038AD0C3F10403D21ADB071CBFC8
:1004700011F8013B00F8013B80D331F8023B20F832
:10048000023B7BE7043AD9D3013A11F8013B00F86B
:10049000013BF9D20B7803704B7843708B788370F3
:1004A000604670470348044B834202D0034B03B1BC
:1004B000184770475C0100205C010020000000002C
:1004C0000548064B1B1AD90F01EBA301491002D0B6
:1004D000034B03B1184770475C0100205C0100200A
:1004E0000000000010B5064C237843B9FFF7DAFF8F
:1004F000044B13B10448AFF300800123237010BDF7
:100500005C01002000000000B85C000808B5054B45
:100510001BB105490548AFF30080BDE80840FFF76F
:10052000CFBF00BF0000000060010020B85C0008E1
:1005300008B50D480D4B036003234360002383601F
:10054000C3604FF4102202614FF40012426103763F
:1005500043768376C3760377437700F079FD00B95D
:1005600008BD00F03FFAFBE7A40100200064004052
:1005700008B50D480D4B03600323436000238360DF
:10058000C3604FF4102202614FF4001242610376FF
:1005900043768376C3760377437700F059FD00B93D
:1005A00008BD00F01FFAFBE77C0100200068004056
:1005B00010B58AB000230593069307930893099317
:1005C00003683D4A934204D03C4A934234D00AB077
:1005D00010BD3B4A136801331360012B1FD0002468
:1005E0000194384B1A6B42F008021A631B6B03F03C
:1005F00008030193019B03230593022206920893AB
:100600000923099305A9304801F0CAFB22460521B8
:10061000142001F051F9142001F05EF9D7E700230E
:100620000093284B1A6C42F000721A641B6C03F0A2
:1006300000730093009BD2E700230293214B1A6CB6
:1006400042F080621A641B6C03F080630293029B89
:100650001B4A136801331360012B20D0002404943B
:10066000184B1A6B42F002021A631B6B03F0020371
:100670000493049B602305930223069303230893AA
:100680000923099305A9114801F08AFB2246052197
:10069000402001F011F9402001F01EF997E70023F6
:1006A0000393084B1A6C42F000721A641B6C03F03F
:1006B00000730393039BD1E700640040006800408F
:1006C0007801002000380240000C02400004024083
:1006D00010B582B000240094124B1A6B42F48002D1
:1006E0001A631A6B02F480020092009A01941A6B4A
:1006F00042F400121A631B6B03F400130193019B75
:10070000224605210C2001F0D7F80C2001F0E4F876
:1007100022460521462001F0CFF8462001F0DCF802
:1007200002B010BD0038024070B503F089FE03F03E
:10073000FBFF04F011F82B4B2B4A1A602B4B41F2B4
:1007400070721A602A4B2B4A1A602B4BB3F9063091
:1007500000EE903A234B93ED000A284EF8EEE00AA3
:10076000B8EEC00A304603F0B3FF254BB3F90630AC
:1007700000EE903A1D4B93ED000A224DF8EEE00A90
:10078000B8EEC00A284603F0A3FF1F4BB3F90630AA
:1007900000EE903A164B93ED000A1C4CF8EEE00A7E
:1007A000B8EEC00A204603F093FFD6ED0C7A95ED23
:1007B0000C7AD4ED0C6AFDEEE66ABDEEC77AFDEE6A
:1007C000E77A16EE903A1BB217EE102A12B217EE25
:1007D000901A09B20E4803F05FFE012002F066FF96
:1007E000B3E700BFDC01002030F8FFFFD801002094
:1007F000D401002090E8FFFFC84300203C440020C3
:10080000BC43002008440020B0430020D443002013
:10081000A4010020034B0360034B0B608023136093
:10082000704700BFE0030020E001002010B596B043
:100830001B4C0DF13C0CA646BEE80F00ACE80F00C7
:100840009EE807008CE8070000210FA802F0FBFEDD
:10085000144B18600DF1200C04F11C0EBEE80F00C3
:10086000ACE80F009EE807008CE80700002108A80C
:1008700002F0E9FE0C4B18600DF1040E04F1380C87
:10088000BCE80F00AEE80F009CE807008EE8070008
:10089000002101A802F0D7FE044B186016B010BD6D
:1008A000D05C00083C040020380400203404002000
:1008B00010B4030E0D4A1370C0F3074203FB02F29B
:1008C0000B490A80C0F3072103FB01F1094C218089
:1008D000C0B200FB03F30848038008480068436384
:1008E0008163C2635DF8044B704700BFD2010020F2
:1008F000D0010020CE010020CC010020880400207F
:1009000010B5124C0021204602F08EF90421204639
:1009100002F08AF90821204602F086F90C48FFF718
:10092000C7FF4FF47A7002F0C1FE0A48FFF7C0FF1C
:100930004FF47A7002F0BAFE6FF0A900FFF7B8FF2B
:100940004FF47A7002F0B2FEE8E700BF880400209E
:100950005634127F0000FFFF86B0002201921A4B2E
:10096000196B41F002011963196B01F00201019149
:1009700001990292196B41F001011963196B01F0A1
:100980000101029102990392196B41F00801196368
:10099000196B01F00801039103990492196B41F05E
:1009A00004011963196B01F0040104910499059283
:1009B0001A6B42F080021A631B6B03F080030593ED
:1009C000059B06B0704700BF0038024008B50268BA
:1009D000034B9A4200D008BD00F028FBFBE700BFA4
:1009E0000010004072B6FEE710B594B008AC30229B
:1009F0000021204605F038F8002303930493059363
:100A0000069307930193204A116C41F080511164C1
:100A1000126C02F080520192019A02931B4B1A68E9
:100A200042F480421A601B6803F480430293029BE5
:100A3000012308934FF48033099302230E934FF45C
:100A400080020F9206221092A82211921293042380
:100A50001393204601F09AFA90B90F2303930223CF
:100A60000493002305934FF4A05306934FF480534F
:100A70000793052103A801F0D9FC18B914B010BDE3
:100A8000FFF7B0FFFFF7AEFF0038024000700040F4
:100A900008B500F0B1FAFFF7A7FFFFF75DFFFFF71A
:100AA00017FEFFF745FDFFF763FD00F01BF900F0AF
:100AB0006DF900F085F903F0B9FCFFF7B7FE02F01D
:100AC000BDFDFEE700B583B0002200920D4B596CCE
:100AD00041F480415964596C01F4804100910099BE
:100AE0000192196C41F0805119641B6C03F0805322
:100AF0000193019B0F216FF0010000F0DDFE03B0B8
:100B00005DF804FB0038024030B589B0044600238C
:100B10000193214B1A6C42F010021A641B6C03F013
:100B200010030193019B02A903A801F055FD069B48
:100B3000CBB901F031FD0346184AA2FB03239B0CFD
:100B4000013B1748174A026040F2E732C260436037
:100B5000002303618360836101F058FF054630B1D3
:100B6000284609B030BD01F017FD4300E4E70C480A
:100B700001F0EAFD05460028F2D1362000F0ACFE77
:100B80000F2C01D90125EBE700222146362000F089
:100B900093FE054B1C60E3E70038024083DE1B43F5
:100BA000400400200010004008000020FEE7FEE79F
:100BB000FEE7FEE7FEE7704708B5024801F002F8DD
:100BC00008BD00BFD004002008B5024800F0F8FCC2
:100BD00008BD00BFA401002008B5024802F006FBD2
:100BE00008BD00BFD805002008B5024802F0FEFA93
:100BF00008BD00BF9005002008B5024801F0EAFDDD
:100C000008BD00BF4004002008B5024800F0D8FC31
:100C100008BD00BF7C01002008B5024800F0D2FFEB
:100C200008BD00BF300500200120704708B504F062
:100C3000ADFF162303604FF0FF3008BD08B54FF03D
:100C4000FF31FFF7F3FFFEE7034AD2F8883043F4A1
:100C50007003C2F88830704700ED00E00268094B6D
:100C60009A4200D0704782B000230193064B1A6C61
:100C700042F008021A641B6C03F008030193019B05
:100C800002B07047000C00400038024000B587B049
:100C900000230193029303930493059302680E4B80
:100CA0009A4202D007B05DF804FB002300930B4B7F
:100CB0001A6B42F080021A631B6B03F080030093EF
:100CC000009B4FF4E053019302230293059301A983
:100CD000034801F065F8E5E7000C004000380240E9
:100CE000001C024000B58BB00023089309930193C8
:100CF0000293039304930593069307932148224A92
:100D00000260436083604FF6FF72C26003618361DB
:100D100001F0A8FE38BB00230893099308A91948DD
:100D200002F000F810BB6023019342F210730293AB
:100D300000220392059201A9124801F0F7FEC0B902
:100D400004220DEB02010F4801F0F0FEA0B90822C9
:100D500001A90C4801F0EAFE88B90A48FFF796FF9E
:100D60000BB05DF804FBFFF73DFED4E7FFF73AFE5A
:100D7000D9E7FFF737FEE3E7FFF734FEE7E7FFF7D2
:100D800031FEEAE788040020000C004008B50A485C
:100D90000A4B03604FF4E133436000238360C36078
:100DA00003610C2242618361C36102F0F9F800B96A
:100DB00008BDFFF717FEFBE7D80500200010014033
:100DC00008B50B480B4B03600B4B4360002383605B
:100DD000C3604FF4806202610C2242618361C3618F
:100DE00002F0DEF800B908BDFFF7FCFDFBE700BF2D
:100DF000900500200048004040420F002DE9F043DC
:100E00008BB0044600230593069307930893099338
:100E100003685A4A934205D0594A934265D00BB0B1
:100E2000BDE8F08300250095564B5A6C42F0100245
:100E30005A645A6C02F010020092009A01951A6BE3
:100E400042F002021A631A6B02F002020192019A46
:100E500002951A6B42F001021A631B6B03F0010347
:100E60000293029B802305934FF00209CDF818905E
:100E70004FF00308CDF820800727099705AE3146CB
:100E8000414800F08DFF4FF400730593CDF81890A2
:100E90000795CDF82080099731463C4800F080FF47
:100EA0003B483C4B03604FF000634360402383604A
:100EB000C5604FF48063036145618561C5614FF48E
:100EC00040330362456200F087FD58B9304BA3639D
:100ED0009C6300220521252000F0EEFC252000F077
:100EE000FBFC9CE7FFF77EFDF0E700250395254B13
:100EF0001A6C42F480221A641A6C02F48022039263
:100F0000039A04951A6B42F004021A631B6B03F0F8
:100F100004030493049B4FF4406305930223069358
:100F2000032308930723099305A91B4800F038FF02
:100F30001A481B4B03604FF0006343608560C56037
:100F40004FF480630361456185614FF48073C36131
:100F50004FF440330362456200F03EFD58B90F4B39
:100F6000E3639C6300220521272000F0A5FC2720D5
:100F700000F0B2FC53E7FFF735FDF0E70010014049
:100F800000480040003802400004024000000240D7
:100F900030050020B864024000080240D004002060
:100FA00028600240DFF834D0FFF74EFE0C480D49B0
:100FB0000D4A002302E0D458C4500433C4188C42B4
:100FC000F9D30A4A0A4C002301E013600432A2421A
:100FD000FBD304F0E1FDFFF75BFD7047000002204A
:100FE000000000205C010020685E00085C01002019
:100FF00084480020FEE7000008B50B4B1A6842F455
:1010000000721A601A6842F480621A601A6842F428
:1010100080721A60032000F03DFC0F20FFF774FD82
:10102000FFF750FD002008BD003C0240034A116854
:10103000034B1B780B441360704700BF2006002051
:1010400004000020014B1868704700BF20060020F4
:10105000002800F0A18038B5044690F82030D3B1C4
:101060002268136843F001031360FFF7EBFF0546A6
:1010700023685A6812F0010F10D1FFF7E3FF401BFD
:101080000A28F5D9636A43F400336362052384F8C0
:101090002030012038BDFFF78BFAE1E71A6822F013
:1010A00002021A60FFF7CEFF054623685A6812F065
:1010B000020F0DD0FFF7C6FF401B0A28F5D9636A5F
:1010C00043F400336362052384F820300120E1E714
:1010D000227E012A3DD01A6822F080021A60637EC7
:1010E000012B3BD02268136823F040031360A37EDA
:1010F000012B39D02268136823F020031360E37EAC
:10110000012B37D02268136843F010031360237F4C
:10111000012B35D02268136823F008031360637F26
:10112000012B33D02268136823F004031360A368F3
:10113000E268134322691343626913436268013A08
:1011400021681343CB6100206062012384F82030C2
:10115000A0E71A6842F080021A60C0E722681368AC
:1011600043F040031360C2E72268136843F0200392
:101170001360C4E72268136823F010031360C6E706
:101180002268136843F008031360C8E722681368F5
:1011900043F004031360CAE70120704790F8203041
:1011A000013BDBB2012B05D9436A43F48023436240
:1011B0000120704730B5464BD3F8002242F00102BF
:1011C000C3F80022D3F8002222F47C52C3F8002294
:1011D000D3F80022486A42EA0022C3F800224A6992
:1011E00002F01F02012000FA02F2D3F81C026FEA9B
:1011F000020C20EA0200C3F81C02CB69C3B9344BCD
:10120000D3F80C020CEA0000C3F80C028C88486981
:10121000CD6844EA0544483043F830408C6808887B
:1012200040EA04404C6904F1480E03EBCE035860D9
:10123000CB69012B1ED08B69002B33D12448D0F809
:1012400004320CEA0303C0F804320B698BBB20485C
:10125000D0F814320CEA0303C0F814320B6A012BE5
:101260002ED01B4AD2F8003223F00103C2F800321C
:10127000002030BD164BD3F80C021043C3F80C020B
:101280008C8848690D6844EA0544483043F830408A
:1012900088894C698D6840EA0540483403EBC403F3
:1012A0005860C8E70A48D0F804321343C0F8043243
:1012B000CBE70748D0F814321343C0F81432CDE717
:1012C0000349D1F81C321343C1F81C32C9E700BFEF
:1012D0000064004070B5044690F82030012B06D021
:1012E000436A43F4002343620126304670BDDEB2F8
:1012F000022380F820300268136823F00103136092
:10130000FFF7A0FE054623685B6813F0010F0CD0C1
:10131000FFF798FE431B0A2BF5D9636A43F40033A9
:101320006362052384F82030DFE700266662DCE78D
:1013300030B590F820C00468A4680CF1FF3C5FFA57
:101340008CFCBCF1010F62D814F0E05F59D0C4F3FB
:10135000016C012404FA0CF41C608B68002B3DD155
:101360000D68CB68046843EA45550CF118031B016E
:10137000E55003680C690CF1180E03EB0E135C606A
:101380000B7D012B35D0D17993791B0443EA01639E
:10139000517943EA012314790168234301EB0C11CD
:1013A000C1F88C31D17893781B0443EA01635178FA
:1013B00043EA0123117802680B4302EB0C12C2F8D6
:1013C000883102680CF1180C4FEA0C1C52F80C30F2
:1013D00043F0010342F80C3000201DE04C6843EA62
:1013E000C403CC6823430CF11804240105682B5175
:1013F000BFE7036803EB0E13596841F4807159602D
:10140000C1E7436A43F400134362012004E0436AE6
:1014100043F480234362012030BD90F820C00CF1DA
:10142000FF3C5FFA8CFCBCF1010F00F2A58030B4E8
:1014300051B90468E46814F0030F10D1436A43F40F
:101440000013436201207EE00468246914F0030F56
:1014500005D1436A43F400134362012073E0056839
:1014600001F11B0424012C5904F004049460002CA5
:101470006BD1056801F11B0424012C59640D146023
:10148000046801F11B0C4FEA0C1C54F80C4004F0EA
:101490000204D4600468A444DCF8045015F0080F7A
:1014A0005BD008241461046801F11B0C04EB0C14DC
:1014B0006468C4F307249461046804EB0C14646842
:1014C000240C5461026802EB0112D2F8B8211A70A0
:1014D000026802EB0112D2F8B821C2F307225A7057
:1014E000026802EB0112D2F8B821C2F307429A70E7
:1014F000026802EB0112D2F8B821120EDA7002680B
:1015000002EB0112D2F8BC211A71026802EB01123F
:10151000D2F8BC21C2F307225A71026802EB011211
:10152000D2F8BC21C2F307429A71026802EB0112A1
:10153000D2F8BC21120EDA71C1B90268D36843F047
:101540002003D360002030BC7047056801F11B0404
:1015500024012C59E408546092E701F11B0504EBC7
:101560000514646804F00F0414619CE702681369B1
:1015700043F020031361E5E7436A43F480234362A9
:101580000120704790F82030013BDBB2012B05D9D8
:10159000436A43F480234362012070470268536921
:1015A0000B43536100207047704770477047704786
:1015B0007047704770477047704770477047704773
:1015C0002DE9F84F054603685C69D3F804809F68ED
:1015D000D3F80CA0D3F81090D3F818B014F001068B
:1015E0003BD017F0010616D001229A6017F0020FC7
:1015F00008D117F0040F0CD117F0080606D04FF4ED
:10160000805608E0FFF7D0FF002604E0FFF7CFFF89
:1016100001E04FF4006617F4807F0DD02B684FF483
:1016200080729A6017F4007F40F0968017F4806F04
:1016300000F0968046F4005617F4803F0DD02B68DA
:101640004FF480329A6017F4003F40F0938017F413
:10165000802F00F0938046F4004614F0080F07D066
:101660001AF0100F04D046F400762B681022DA60CE
:1016700014F0040F03D01AF0080F40F0898014F022
:10168000020F05D02B68DB6813F0030F40F0878052
:1016900014F0400F07D019F0100F04D046F4806604
:1016A0002B6810221A6114F0200F02D019F0080FD5
:1016B00079D114F0100F04D02B681B6913F0030FBD
:1016C00078D114F4003F02D018F0100F76D114F442
:1016D000803F02D018F0080F77D114F4004F37D0B4
:1016E00018F0040F31D014F4807F04D01BF0010FE8
:1016F00001D046F0010614F4007F04D01BF0020F65
:1017000001D046F0020614F4806F04D01BF0040FE1
:1017100001D046F0040614F4006F16D01BF0700BD5
:1017200013D0BBF1400F66D056D8BBF1200F5CD070
:10173000BBF1300F5CD0BBF1100F01D146F00806B1
:101740002A68936923F0700393612B6804225A601E
:10175000002E56D1BDE8F88F2846FFF726FF6BE72D
:1017600017F4006F02D046F4804665E72846FFF77D
:101770001FFF61E72846FFF719FF6EE717F4002FF8
:1017800002D046F4803668E72846FFF712FF64E788
:101790002B680822DA602846FFF70CFF6FE728461F
:1017A00003F020F874E72B6808221A612846FFF737
:1017B00003FF7EE72846FFF7FEFE82E72B68102234
:1017C0005A602846FFF7F9FE81E72B6808225A6025
:1017D0002846FFF7F3FE80E7BBF1500F0ED0BBF1B8
:1017E000600FADD146F48076AAE746F01006A7E771
:1017F00046F02006A4E746F04006A1E746F0800642
:101800009EE76B6A33436B622846FFF7D8FEA1E779
:10181000002807DB00F01F02400901239340024A21
:1018200042F82030704700BF00E100E0002808DBEC
:101830000901C9B200F1604000F5614080F8001371
:10184000704700F00F000901C9B2014B19547047ED
:1018500014ED00E000B500F00700C0F1070CBCF18A
:10186000040F28BF4FF0040C031D062B0FD9C31E15
:101870004FF0FF3E0EFA0CF021EA000199400EFAFB
:1018800003FE22EA0E0241EA02005DF804FB002397
:10189000EEE70000074AD36823F4E0631B041B0C47
:1018A000000200F4E060034343F0BF6343F40033FD
:1018B000D360704700ED00E010B50446054BD868D2
:1018C000C0F30220FFF7C6FF01462046FFF7AEFF38
:1018D00010BD00BF00ED00E008B5FFF799FF08BD9F
:1018E00030B405682C6824F480242C60046863609C
:1018F0008368402B05D0036899600368DA6030BCC8
:10190000704703689A600368D960F8E710B4036809
:10191000D9B210390A4AA2FB01421209094CA25C51
:10192000C2655F2907D96FF3090304338365806DAE
:101930005DF8044B70476FF309038365F7E700BF59
:10194000ABAAAAAA6C5D0008836A826992B9012BCE
:101950000AD0022B02D00BB100207047C36A13F0EB
:10196000807F28D100207047C36AB3F1C07F24D0A4
:1019700000207047B2F5005F09D0022B25D9032B58
:1019800025D1C36A13F0807F23D100207047032B39
:1019900003D8DFE803F01404140A00207047C36A78
:1019A00013F0807F0DD100207047C36AB3F1C07F70
:1019B00009D00020704701207047012070470120A6
:1019C00070470120704701207047012070470020B8
:1019D000704701207047000070B50446FFF732FBE6
:1019E000002C5BD00546022384F83530002384F8B0
:1019F00034302268136823F00103136023681A68E7
:101A000012F0010F0AD0FFF71DFB431B052BF5D980
:101A100020236365032084F8350070BD1A682049CF
:101A200011406268A0680243E068024320690243F3
:101A300060690243A0690243E0690243206A0243ED
:101A40000A43616A04291ED01A602668756925F068
:101A50000705636A1D43042B07D1A36A1D43E36A8C
:101A60001BB12046FFF770FF90B975612046FFF764
:101A70004DFFE26D3F2393408360002060650123AA
:101A800084F83530C9E7E16A206B01430A43DBE79C
:101A900040236365012084F83500BEE70120BCE7E0
:101AA0003F8010F038B50446856D90F83400012869
:101AB0002AD0012084F8340094F83500012804D09D
:101AC000002384F83430022038BD022084F8350029
:101AD000002060652046FFF703FFE26D3F2393403F
:101AE000AB602268136843F016031360236C23B1C4
:101AF0002268136843F0080313602268136843F0F8
:101B0000010313600020DFE70220DDE770B5044623
:101B1000866DFFF797FA94F83530022B06D08023B4
:101B20006365002384F83430012070BD05462268C7
:101B3000136823F0160313602268536923F08003AF
:101B40005361236CE3B12268136823F00803136028
:101B50002268136823F00103136023681B6813F0E5
:101B6000010F11D0FFF76EFA431B052BF5D9202387
:101B70006365032084F83500002384F83430D4E70B
:101B8000A36C002BDFD1E3E7E26D3F239340B3600A
:101B9000012384F83530002084F83400C5E790F83C
:101BA0003530022B03D08023436501207047052385
:101BB00080F835300268136823F0010313600020B9
:101BC00070470000F0B583B0044600230193724BC8
:101BD0001D68724BA3FB0535AD0A876D3E68C26D6B
:101BE00008239340334210D003681A6812F0040FA0
:101BF0000BD01A6822F004021A60C26D08239340C9
:101C0000BB60436D43F001034365E26D01239340E4
:101C1000334209D02268526912F0800F04D0BB60B1
:101C2000636D43F002036365E26D04239340334226
:101C300009D02268126812F0020F04D0BB60636DF5
:101C400043F004036365E26D10239340334224D0D4
:101C50002268126812F0080F1FD0BB6023681A6850
:101C600012F4802F0DD01B6813F4002F04D1236CC5
:101C70009BB12046984710E0A36C73B1204698476B
:101C80000BE01A6812F4807F03D11A6822F0080270
:101C90001A60236C0BB120469847E26D20239340D5
:101CA000334254D02268126812F0100F4FD0BB603C
:101CB00094F83530052B0ED023681A6812F4802F63
:101CC00033D01B6813F4002F2AD1636C002B3ED055
:101CD000204698473BE02268136823F01603136000
:101CE0002268536923F080035361236CA3B12268F7
:101CF000136823F008031360E26D3F239340BB6039
:101D0000012384F83530002384F83430236D002B10
:101D10003FD0204698473CE0A36C002BE7D1EBE78F
:101D2000E36BA3B12046984711E01A6812F4807F54
:101D300009D11A6822F010021A60012384F83530A4
:101D4000002384F83430E36B0BB120469847636D71
:101D5000FBB1636D13F0010F17D0052384F8353004
:101D60002268136823F001031360019B0133019380
:101D7000AB4204D823681B6813F0010FF5D101238F
:101D800084F83530002384F83430E36C0BB12046FE
:101D9000984703B0F0BD00BF00000020B5814E1B86
:101DA00000230F2B00F2E98070B582B065E08568F2
:101DB0004FEA430E032404FA0EF425EA0405CC6826
:101DC00004FA0EF42C438460446824EA02044A684E
:101DD000C2F300129A40224342605CE0DC080834FF
:101DE00050F8242003F00705AD004FF00F0E0EFA57
:101DF00005FE22EA0E0E0A69AA4042EA0E0240F8E7
:101E000024205CE0072200E0002202FA0EF22A43BE
:101E100002345A4D45F82420594A94686FEA0C025E
:101E200024EA0C054E6816F4801F01D04CEA040524
:101E3000534CA560E46802EA04054E6816F4001FDE
:101E400001D04CEA04054E4CE560646802EA0405E2
:101E50004E6816F4003F01D04CEA0405484C65601A
:101E6000246822404D6815F4803F01D04CEA0402FA
:101E7000434C226001330F2B7DD801229A400C681D
:101E800004EA020C32EA0404F4D14C6804F00304BE
:101E9000013C012C8BD94A6802F00302032A09D0C5
:101EA000C4685D000322AA4024EA02048A68AA40AA
:101EB0002243C2604A6802F00302022A8ED00468FC
:101EC0004FEA430E032202FA0EF224EA02044A68A1
:101ED00002F0030202FA0EF2224302604A6812F490
:101EE000403FC7D000220192264A546C44F48044FB
:101EF0005464526C02F480420192019A9C08A51C21
:101F00001E4A52F8255003F0030E4FEA8E0E0F22A0
:101F100002FA0EF225EA02051B4A90423FF474AF22
:101F200002F5806290421AD002F58062904218D089
:101F300002F58062904216D002F58062904214D081
:101F400002F58062904212D002F58062904210D079
:101F500002F5806290423FF455AF082255E7012216
:101F600053E7022251E703224FE704224DE70522FF
:101F70004BE7062249E702B070BD704700380140C8
:101F8000003C01400038024000000240002800F000
:101F9000E08170B582B00446036813F0010F3BD0B6
:101FA0009F4B9B6803F00C03042B2CD09C4B9B682D
:101FB00003F00C03082B21D06368B3F5803F4FD0AA
:101FC000B3F5A02F52D0964B1A6822F480321A60D3
:101FD0001A6822F480221A606368002B50D0FFF741
:101FE00031F805468E4B1B6813F4003F14D1FFF700
:101FF00029F8401B6428F5D90320B1E1884B5B68C0
:1020000013F4800FD8D0864B1B6813F4003F03D025
:102010006368002B00F09F81236813F0020F54D0F7
:102020007F4B9B6813F00C0F3ED07D4B9B6803F0F9
:102030000C03082B33D0E368002B68D0794B0122C6
:102040001A60FEF7FFFF0546754B1B6813F0020F81
:1020500054D1FEF7F7FF401B0228F5D903207FE19A
:102060006F4A136843F480331360B5E76C4B1A680A
:1020700042F480221A601A6842F480321A60ABE798
:10208000FEF7E0FF0546664B1B6813F4003FC3D024
:10209000FEF7D8FF401B6428F5D9032060E1604BB0
:1020A0005B6813F4800FC6D15D4B1B6813F0020F01
:1020B00003D0E368012B40F05081594A136823F0A4
:1020C000F803216943EAC1031360236813F0080F82
:1020D00042D063696BB3534B0122C3F8802EFEF7E5
:1020E000B1FF05464E4B5B6F13F0020F34D1FEF784
:1020F000A9FF401B0228F5D9032031E1484A1368A3
:1021000023F0F803216943EAC1031360DDE7454B7F
:1021100000221A60FEF796FF0546414B1B6813F03C
:10212000020FD2D0FEF78EFF401B0228F5D9032004
:1021300016E13C4B0022C3F8802EFEF783FF0546D4
:10214000374B5B6F13F0020F06D0FEF77BFF401B8F
:102150000228F5D9032003E1236813F0040F77D098
:102160002F4B1B6C13F0805F33D1002301932C4B5A
:102170001A6C42F080521A641B6C03F08053019376
:10218000019B0125284B1B6813F4807F23D0A36893
:10219000012B34D0052B38D0214B1A6F22F00102CD
:1021A0001A671A6F22F004021A67A368002B3DD049
:1021B000FEF748FF06461A4B1B6F13F0020F46D17D
:1021C000FEF740FF801B41F288339842F3D9032089
:1021D000C6E00025D6E7144A136843F48073136001
:1021E000FEF730FF0646104B1B6813F4807FCED1FC
:1021F000FEF728FF801B0228F5D90320B0E0084A2B
:10220000136F43F001031367CFE7054B1A6F42F0DA
:1022100004021A671A6F42F001021A67C5E700BF8D
:10222000003802400000474200700040FEF70AFFFD
:102230000646524B1B6F13F0020F08D0FEF702FF49
:10224000801B41F288339842F3D9032088E0EDB92E
:10225000A369002B00F08380484A926802F00C02C8
:10226000082A51D0022B17D0454B00221A66FEF7E0
:10227000E9FE0446414B1B6813F0007F42D0FEF795
:10228000E1FE001B0228F5D9032069E03B4A136CEC
:1022900023F080531364DBE7394B00221A66FEF704
:1022A000D1FE0546354B1B6813F0007F06D0FEF7C4
:1022B000C9FE401B0228F5D9032051E0E369226AD8
:1022C0001343626A43EA8213A26A5208013A43EA5C
:1022D0000243E26A43EA0263284A5360284B012220
:1022E0001A66FEF7AFFE0446244B1B6813F0007F0E
:1022F00006D1FEF7A7FE001B0228F5D903202FE028
:1023000000202DE000202BE0012B2BD01B4B5B6825
:1023100003F48001E269914226D103F03F02216A71
:102320008A4223D1616A47F6C0721A40B2EB811F1C
:102330001ED103F44031A26A5208013AB1EB024FB8
:1023400018D103F07063E26AB3EB026F14D100207E
:1023500006E001207047012002E0012000E000209B
:1023600002B070BD0120FBE70120F9E70120F7E78B
:102370000120F5E70120F3E70120F1E700380240F2
:102380000000474208B5264B9B6803F00C03042B62
:1023900041D0082B41D1224B5A6802F03F025B68C2
:1023A00013F4800F12D01E4B5968C1F388111D48D9
:1023B0000023A1FB0001FDF7EBFE194B5B68C3F3A3
:1023C000014301335B00B0FBF3F008BD144B5868C8
:1023D000C0F388104FEA401CBCEB000C6EEB0E0EF5
:1023E0004FEA8E1343EA9C634FEA8C11B1EB0C0168
:1023F00063EB0E03DB0043EA5173C90011EB000CE1
:1024000043F10003990200234FEA8C2041EA9C51DA
:10241000FDF7BEFED1E70348D7E70348D5E700BF85
:1024200000380240001BB7000024F400002800F030
:102430009B8070B50D4604464F4B1B6803F00703A5
:102440008B4208D2CBB24C4A1370136803F00703D7
:102450008B4240F08B80236813F0020F17D013F0EB
:10246000040F04D0454A936843F4E0539360236813
:1024700013F0080F04D0414A936843F4604393601B
:102480003E4A936823F0F003A1680B4393602368EE
:1024900013F0010F32D06368012B21D09A1E012A5C
:1024A00025D9364A126812F0020F61D033498A6882
:1024B00022F0030213438B60FEF7C4FD06462F4B48
:1024C0009B6803F00C036268B3EB820F16D0FEF733
:1024D000B9FD801B41F288339842F0D9032042E0D5
:1024E000264A126812F4003FE0D101203BE0234A63
:1024F000126812F0007FD9D1012034E01E4B1B6816
:1025000003F00703AB4207D9EAB21B4B1A701B68F2
:1025100003F00703AB422DD1236813F0040F06D05C
:10252000164A936823F4E053E1680B4393602368F1
:1025300013F0080F07D0114A936823F46043216910
:1025400043EAC1039360FFF71DFF0C4B9B68C3F385
:1025500003130B4AD35CD8400A4B18600A4B186827
:10256000FEF7D2FA002070BD012070470120FAE783
:102570000120F8E70120F6E7003C02400038024065
:102580005C5D00080000002008000020014B186876
:10259000704700BF0000002008B5FFF7F7FF044BAD
:1025A0009B68C3F38223034AD35CD84008BD00BFB5
:1025B00000380240545D000808B5FFF7E7FF044B00
:1025C0009B68C3F34233034AD35CD84008BD00BFC5
:1025D00000380240545D00080F2303600B4B9A68DB
:1025E00002F0030242609A6802F0F00282609A6888
:1025F00002F4E052C2609B68DB0803F4E05303611D
:10260000034B1B6803F007030B6070470038024060
:10261000003C024030B4036A026A22F00102026206
:102620004268846924F0730C0C6844EA0C0423F0BB
:10263000020C8B6843EA0C03114DA84203D005F548
:102640008065A84205D123F00803CD682B4323F011
:1026500004030B4DA84203D005F58065A84207D1BD
:1026600022F440724D6945EA020C8A6942EA0C0282
:10267000426084614A684263036230BC704700BFB5
:102680000000014030B4036A026A22F480720262E0
:102690004268C46924F0730C0C6844EA0C0523F406
:1026A00000738C6843EA0423114CA04203D004F564
:1026B0008064A04206D123F40063CC6843EA04237B
:1026C00023F480630A4CA04203D004F58064A04246
:1026D00007D122F440524C6942EA04128C6942EA62
:1026E00004124260C5614A68C263036230BC70472D
:1026F0000000014030B4036A026A22F48052026290
:102700004468C26922F4E6420D6842EA052223F4D5
:1027100000538D6843EA0533094DA84203D005F5FF
:102720008065A84204D124F480444D6944EA8514AC
:102730004460C2614A680264036230BC704700BFF3
:10274000000001407047000090F83D30012B37D168
:10275000022380F83D300268D36843F00103D36060
:102760000368194A934220D0B3F1804F1DD0A2F5DF
:102770007C42934219D002F58062934215D002F553
:102780008062934211D002F5784293420DD002F557
:102790007052934209D0A2F59432934205D01A6840
:1027A00042F001021A60002070479A6802F00702A6
:1027B000062A07D01A6842F001021A60002070470A
:1027C00001207047002070470000014070477047AB
:1027D0007047704770B504460368DE681D6915F0E0
:1027E000020F10D016F0020F0DD06FF002021A6126
:1027F0000123037703689B6913F0030F5ED0FFF793
:10280000E6FF0023237715F0040F12D016F0040F13
:102810000FD023686FF004021A6102232377236824
:102820009B6913F4407F4FD02046FFF7D0FF002371
:10283000237715F0080F12D016F0080F0FD0236879
:102840006FF008021A61042323772368DB6913F011
:10285000030F40D02046FFF7BAFF0023237715F07F
:10286000100F12D016F0100F0FD023686FF0100267
:102870001A61082323772368DB6913F4407F31D082
:102880002046FFF7A4FF0023237715F0010F02D0A5
:1028900016F0010F2DD115F0800F02D016F0800F29
:1028A0002FD115F0400F02D016F0400F31D115F0A6
:1028B000200F02D016F0200F33D170BDFFF786FF36
:1028C0002046FFF785FF9CE72046FFF77FFF204665
:1028D000FFF77EFFABE72046FFF778FF2046FFF7C4
:1028E00077FFBAE72046FFF771FF2046FFF770FF3A
:1028F000C9E723686FF001021A612046FEF766F807
:10290000C9E723686FF080021A61204600F051FA8F
:10291000C7E723686FF040021A612046FFF759FFAE
:10292000C5E723686FF020021A61204600F040FAE4
:10293000C3E700000368344A904212D0B0F1804FE0
:102940000FD0A2F57C4290420BD002F580629042FB
:1029500007D002F58062904203D002F5784290429F
:1029600003D123F070034A681343274A90422AD0C8
:10297000B0F1804F27D0A2F57C42904223D002F5DF
:10298000806290421FD002F5806290421BD002F517
:102990007842904217D002F57052904213D002F55F
:1029A000806290420FD002F5806290420BD0A2F577
:1029B0009832904207D002F58062904203D002F52F
:1029C0008062904203D123F44073CA68134323F01A
:1029D00080034A69134303608B68C3620B68836298
:1029E000094B984203D003F58063984201D10B69EB
:1029F000036301234361036913F0010F03D00369EB
:102A000023F00103036170470000014040B310B59B
:102A1000044690F83D30F3B1022384F83D3021465E
:102A200051F8040BFFF786FF012384F8463084F841
:102A30003E3084F83F3084F8403084F8413084F8E8
:102A4000423084F8433084F8443084F8453084F8C8
:102A50003D30002010BD80F83C30FFF773FEDBE70F
:102A60000120704740B310B5044690F83D30F3B1F3
:102A7000022384F83D30214651F8040BFFF75AFF3A
:102A8000012384F8463084F83E3084F83F3084F8DF
:102A9000403084F8413084F8423084F8433084F880
:102AA000443084F8453084F83D30002010BD80F873
:102AB0003C30FEF7D3F8DBE70120704730B4036AFF
:102AC000026A22F0100202624468826922F4E6423D
:102AD0000D6842EA052223F020038D6843EA0513BE
:102AE000114DA84203D005F58065A84206D123F018
:102AF0008003CD6843EA051323F040030A4DA84242
:102B000003D005F58065A84207D124F440644D69DF
:102B100044EA85048D6944EA8504446082614A6818
:102B20008263036230BC70470000014038B590F802
:102B30003C30012B66D004460D46012380F83C3022
:102B40000C2A5AD8DFE802F0075959591B5959592C
:102B50003059595944000068FFF75CFD22689369B9
:102B600043F0080393612268936923F0040393619F
:102B70002268936929690B43936100203EE0006855
:102B8000FFF79CFF2268936943F400639361226816
:102B9000936923F48063936122689369296943EA06
:102BA00001239361002029E00068FFF76BFD226894
:102BB000D36943F00803D3612268D36923F0040387
:102BC000D3612268D36929690B43D361002015E0E2
:102BD0000068FFF78FFD2268D36943F40063D36177
:102BE0002268D36923F48063D3612268D369296999
:102BF00043EA0123D361002000E00120002384F890
:102C00003C3038BD0220FCE701F01F014FF0010C01
:102C10000CFA01FC036A23EA0C030362036A8A408C
:102C2000134303627047000010B5044608460029AC
:102C300041D194F83E30013B18BF0123002B6BD1EA
:102C400000284ED1022384F83E300122014620683C
:102C5000FFF7DAFF2368324A934203D002F580621D
:102C6000934203D15A6C42F400425A6423682C4ABE
:102C7000934246D0B3F1804F43D0A2F57C429342B9
:102C80003FD002F5806293423BD002F580629342CE
:102C900037D002F57842934233D002F57052934216
:102CA0002FD0A2F5943293422BD01A6842F0010241
:102CB0001A6000202FE0042907D008290BD094F8CF
:102CC0004130013B18BF0123B8E794F83F30013B86
:102CD00018BF0123B2E794F84030013B18BF01232D
:102CE000ACE7042805D0082807D0022384F8413037
:102CF000ABE7022384F83F30A7E7022384F8403093
:102D0000A3E79A6802F00702062A07D01A6842F081
:102D100001021A60002010BD0120FCE70020FAE744
:102D20000000014090F83C20012A3DD010B4034639
:102D3000012280F83C20022280F83D200268506881
:102D4000946820F0700C086840EA0C0050601A6823
:102D5000164882421AD0B2F1804F17D0A0F57C40BD
:102D6000824213D000F5806082420FD000F580606F
:102D700082420BD000F57840824207D000F57050B7
:102D8000824203D0A0F59430824204D124F0800422
:102D9000496821439160012283F83D20002083F897
:102DA0003C005DF8044B7047022070470000014072
:102DB00070477047026802F10C0353E8003F23F0AC
:102DC000C0030C3242E800310029F3D1202380F8FF
:102DD00041307047026802F10C0353E8003F23F4CE
:102DE00090730C3242E800310029F3D1026802F1FD
:102DF000140353E8003F23F00103143242E800318A
:102E00000029F3D1036B012B05D0202380F8423039
:102E1000002303637047026802F10C0353E8003F8C
:102E200023F010030C3242E800310029F3D1ECE723
:102E300090F84130212B01D0022070478368B3F510
:102E4000805F17D0036A5A1C02621A7803685A60BE
:102E5000C38C9BB2013B9BB2C3844BB90268D3685D
:102E600023F08003D3600268D36843F04003D3604B
:102E7000002070470369002BE4D1036A1B880268B5
:102E8000C3F308035360036A02330362E0E7000000
:102E900010B504460268136923F44053C1680B431C
:102EA0001361836802691A4343691A43C3691A4369
:102EB0000168CB6823F4164323F00C031343CB6063
:102EC0000268536923F4407381690B4353610368BB
:102ED000314A934206D002F58062934202D0FFF756
:102EE0005BFB01E0FFF768FBE369B3F5004F29D016
:102EF0000021031849411B1841F10001C90041EAB2
:102F00005371DB00181863684FEA83024FEA93732A
:102F100041F10001FDF73CF9204AA2FB00314909CB
:102F2000642303FB11031B013233A2FB03235B0960
:102F300003F0F00202EB011203F00F0321681344C7
:102F40008B6010BD0023021843EB0301121841F1FE
:102F50000001C90041EA5271D200101841F100018C
:102F6000626892185B41FDF713F90C4AA2FB00312D
:102F70004909642303FB1103DB003233A2FB032363
:102F80005B095A0002F4F87202EB011203F0070326
:102F9000216813448B60D4E7001001401F85EB517A
:102FA00060B310B5044690F8413013B3242384F87D
:102FB00041302268D36823F40053D3602046FFF7E2
:102FC00067FF2268136923F49043136122685369F1
:102FD00023F02A0353612268D36843F40053D3607B
:102FE00000206064202384F8413084F8423060631C
:102FF00010BD80F84030FDF701FFD7E70120704792
:1030000010B5044603685B6990F84120212A09D075
:1030100023685B6903F0400394F84220222A19D008
:10302000002010BD03F08003002BF1D0226802F1D4
:10303000140353E8003F23F08003143242E80031C8
:103040000029F3D1A06B08B1FEF760FD2046FFF721
:10305000B1FEDDE7002BE3D0226802F1140353E850
:10306000003F23F04003143242E800310029F3D13D
:10307000E06B08B1FEF74AFD2046FFF7ABFECFE755
:10308000406B7047704708B50168CA6822F040027B
:10309000CA60202280F84120FFF7F4FF002008BD1D
:1030A0007047704710B5846B23685B6994F84120C2
:1030B000212A0FD023685B6903F0400394F8422073
:1030C000222A11D0636C43F010036364204601F0A0
:1030D0004BFC10BD03F08003002BEBD00023E384F6
:1030E0002046FFF767FEE5E7002BEBD00023E385E2
:1030F0002046FFF76FFEE5E708B5806B0023C38528
:10310000C38401F031FC08BD90F84230222B69D114
:103110008368B3F5805F4FD0826AB3F5805F04D0D7
:10312000002B56D10369002B53D103685B681370E1
:10313000836A01338362C38D9BB2013B9BB2C3851B
:10314000002B51D100B583B00268D36823F020036F
:10315000D3600268D36823F48073D3600268536934
:1031600023F001035361202380F84230002343639E
:10317000036B012B33D100230363026802F10C03BC
:1031800053E8003F23F010030C3242E800310029DD
:10319000F3D103681A6812F0100F06D000220192D2
:1031A0001A6801925B680193019B818D01F078FBA5
:1031B000002003B05DF804FB0269002AACD1826AEA
:1031C00003685B68C3F308031380836A0233836276
:1031D000B1E703685B6803F07F031370A8E7FFF7AC
:1031E0005FFFE5E7022070470020704710B582B00E
:1031F000044602681368D068516913F00F0F09D1B3
:1032000013F0200F0CD010F0200F09D02046FFF74C
:103210007BFF16E011F0010115D110F4907F12D15F
:10322000216B012979D013F0800F03D010F0800FAB
:1032300040F0148113F0400F03D010F0400F40F025
:10324000118102B010BD13F0010F06D010F4807F81
:1032500003D0626C42F00102626413F0040F04D0E8
:1032600019B1626C42F00202626413F0020F04D0E2
:1032700019B1626C42F00402626413F0080F07D0C7
:1032800010F0200F00D119B1626C42F008026264A4
:10329000626C002AD5D013F0200F02D010F0200F5E
:1032A00029D123685B6903F04003626C12F0080FB8
:1032B00000D163B32046FFF78DFD23685B6913F0EF
:1032C000400F20D0226802F1140353E8003F23F09E
:1032D0004003143242E800310029F3D1E36B73B1AB
:1032E000624A1A65E06BFEF75AFC0028A9D0E06B31
:1032F000036D9847A5E72046FFF706FFD1E7204674
:1033000001F032FB9DE7204601F02EFB99E72046B5
:1033100001F02AFB0023636493E713F0100F82D0BF
:1033200010F0100F3FF47FAF002301931368019357
:1033300053680193019B536913F0400F52D0E26B25
:1033400013685B689BB2002B3FF47BAFA18D994261
:103350007FF677AFE385D369B3F5807F37D02268F6
:1033600002F10C0353E8003F23F480730C3242E86F
:1033700000310029F3D1226802F1140353E8003F21
:1033800023F00103143242E800310029F3D122680E
:1033900002F1140353E8003F23F04003143242E8E3
:1033A00000310029F3D1202384F842300023236325
:1033B000226802F10C0353E8003F23F010030C32A3
:1033C00042E800310029F3D1E06BFEF79FFB0223B6
:1033D0006363A18DE38D9BB2C91A89B2204601F0C7
:1033E0005FFA2EE7A18DE38D9BB2C91A89B2E38DF6
:1033F0009BB2002B3FF425AF00293FF422AF226897
:1034000002F10C0353E8003F23F490730C3242E8BE
:1034100000300028F3D1226802F1140353E8003F82
:1034200023F00103143242E800300028F3D12023B6
:1034300084F8423000232363226802F10C0353E82E
:10344000003F23F010030C3242E800300028F3D193
:1034500002236363204601F023FAF2E62046FFF7D9
:10346000E7FCEEE62046FFF70EFEEAE6F93000083C
:1034700008B5806B01234363036B012B02D0FFF778
:1034800010FE08BD818D490801F00AFAF9E708B578
:103490000346806B1B681B6813F4807F2BD10023CD
:1034A000C385026802F10C0353E8003F23F48073E4
:1034B0000C3242E800310029F3D1026802F1140312
:1034C00053E8003F23F00103143242E800310029A1
:1034D000F3D1026802F1140353E8003F23F04003E4
:1034E000143242E800310029F3D1202380F8423021
:1034F000036B012B07D000234363036B012B0FD019
:10350000FFF7CEFD08BD026802F10C0353E8003F4F
:1035100023F010030C3242E800310029F3D1EAE72E
:10352000818D01F0BDF9EDE730B583B00446134657
:103530008162828500254564222280F84220C26B88
:103540001F48D063E26B1F481064E26B1E48D064D2
:10355000E26B156520680A46011DE06BFEF7A2FAD2
:10356000019523681A6801925B680193019B2369A6
:103570005BB1226802F10C0353E8003F43F480730F
:103580000C3242E800310029F3D1226802F1140321
:1035900053E8003F43F00103143242E800310029B0
:1035A000F3D1226802F1140353E8003F43F04003D3
:1035B000143242E800310029F3D1002003B030BDBD
:1035C0008F34000871340008A530000890F84230AC
:1035D000202B29D110B582B0044639B312B901208D
:1035E00002B010BD0123036300234363FFF79CFF78
:1035F0000028F5D1236B012B01D00120F0E7002337
:10360000019323681A6801925B680193019B226809
:1036100002F10C0353E8003F43F010030C3242E880
:1036200000310029F3D1DBE7022070470120D7E702
:10363000842801D0033070470020704708B500F09F
:103640002FFD002008BD2DE9F04387B00E464469E8
:10365000C4B18569B5B14768D0F80080D0F8109042
:10366000B0F90800FFF7E4FF02950194009033469B
:103670004A464146384600F0A5FC0590059807B03B
:10368000BDE8F083446805680769B0F90800FFF7F2
:10369000CFFF05AB019300903346BAB229462046CE
:1036A00000F0CBFC0128E9D00020E8E708B500B91C
:1036B000012000F03FFE002008BD00F10803436038
:1036C0004FF0FF328260C3600361002303607047E4
:1036D00000230361704743684B609A688A605160B9
:1036E00099600861036801330360704730B40D6866
:1036F000B5F1FF3F11D000F108031C465B681A6862
:10370000AA42FAD963684B6099608C606160086175
:1037100003680133036030BC70470469F2E7036952
:10372000416882688A60416851605A68824206D066
:10373000002202611A68013A1A60186870478268AC
:103740005A60F5E782B0002301930D4B1B68B3F17B
:10375000FF3F08D04FF0500383F31188BFF36F8F02
:10376000BFF34F8FFEE74FF0500383F31188BFF391
:103770006F8FBFF34F8F019B002BFCD002B07047BF
:103780000C00002008480068006880F308884FF0AB
:10379000000080F3148862B661B6BFF34F8FBFF3A9
:1037A0006F8F00DF00BF000008ED00E0DFF80C00C5
:1037B000016841F4700101607047000088ED00E08D
:1037C0004FF0807340F8043C21F0010140F8081CE0
:1037D000054B40F80C3C40F8202C6FF0020340F8F9
:1037E000243C4438704700BF453700080000000003
:1037F000074B19680868B0E8F04F80F30988BFF3F9
:103800006F8F4FF0000080F311887047AFF3008096
:10381000744300204FF0500383F31188BFF36F8F80
:10382000BFF34F8F0B4A136801331360012B00D095
:1038300070474FF0E023D3F8043D13F0FF0FF7D0AB
:103840004FF0500383F31188BFF36F8FBFF34F8F97
:10385000FEE700BF0C000020094B1B6843B94FF086
:10386000500383F31188BFF36F8FBFF34F8FFEE7D1
:10387000013B034A13600BB983F31188704700BF03
:103880000C0000200000000000000000000000000C
:10389000EFF30980BFF36F8F154B1A681EF0100FFE
:1038A00008BF20ED108A20E9F04F10602DE90900D3
:1038B0004FF0500080F31188BFF34F8FBFF36F8F2D
:1038C00000F05EFD4FF0000080F3118809BC19681C
:1038D0000868B0E8F04F1EF0100F08BFB0EC108A77
:1038E00080F30988BFF36F8F704700BFAFF300808C
:1038F0007443002008B54FF0500383F31188BFF3E1
:103900006F8FBFF34F8F00F00DFC28B14FF0E02315
:103910004FF08052C3F8042D002383F3118808BDB3
:103920004FF0E022002313619361054B1B680549AA
:10393000A1FB03139B09013B5361072313617047EC
:1039400000000020D34D62104FF0E023D3F8002D8B
:103950003D4B9A421CD04FF0E023D3F8002D3B4B57
:103960009A421ED030B583B0394B1A78D2B2019248
:10397000FF221A701B78DBB28DF803309DF80330FC
:1039800003F05003334A1370334B07221A601BE0D5
:103990004FF0500383F31188BFF36F8FBFF34F8F46
:1039A000FEE74FF0500383F31188BFF36F8FBFF32F
:1039B0004F8FFEE7284A1368013B13609DF80330E0
:1039C0005B00DBB28DF803309DF8033013F0800FFD
:1039D000F0D1214B1B68032B08D04FF0500383F329
:1039E0001188BFF36F8FBFF34F8FFEE71B021A4A98
:1039F000136003F4E0631360019BDBB2144A13709D
:103A00004FF0E024D4F8203D43F47003C4F8203D87
:103A1000D4F8203D43F07043C4F8203DFFF780FF09
:103A200000250E4B1D60FFF7C1FED4F8343F43F074
:103A30004043C4F8343FFFF7A5FE00F0A1FCFFF7B8
:103A400081FE284603B030BD71C20F4170C20F41E4
:103A500000E400E028060020240600200C000020DE
:103A6000124A12F0070F1ED0D11D21F00701C1F537
:103A7000705313440A460E4802600021416013440B
:103A8000083B23F007030B48036059601960991A3B
:103A900051601360084B1960084B1960084B4FF0D8
:103AA00000421A6070474FF47053E4E74C06002060
:103AB0004406002040060020380600203C06002076
:103AC0002C060020164B1A461B688342FBD3516814
:103AD00002EB010C844509D0416800EB010C634501
:103AE00009D00360904219D01060704740680144CB
:103AF00051601046F0E710B40A4C2468A3420BD082
:103B00005B681944416013681B680360904200D0F1
:103B100010605DF8044B70470460F7E7704700BF22
:103B2000440600204006002038B5044600F0F2FAB2
:103B3000384B1B68B3B1384B1B681C4250D1002C6A
:103B400050D004F1080214F0070F02D022F007024F
:103B50000832002A55D0314B1B68934253D3304969
:103B60000C6804E0FFF77CFFE5E721461C4663682C
:103B7000934202D22368002BF7D1264B1B68A34245
:103B800043D00D68083523680B6063689B1A102BBF
:103B900010D9A01810F0070F08D04FF0500383F38E
:103BA0001188BFF36F8FBFF34F8FFEE743606260F2
:103BB000FFF788FF626819490B689B1A0B60194967
:103BC00009688B4201D217490B60134B1B681343E2
:103BD000636000232360144A13680133136002E01A
:103BE000002500E0002500F029FB15F0070F0ED09E
:103BF0004FF0500383F31188BFF36F8FBFF34F8FE4
:103C0000FEE70025EFE70025EDE70025EBE7284676
:103C100038BD00BF400600202C0600203C060020D6
:103C2000440600203806002034060020002834D046
:103C300038B50446A0F1080550F8043C174A12684C
:103C4000134208D14FF0500383F31188BFF36F8FF5
:103C5000BFF34F8FFEE750F8081C41B14FF05003FF
:103C600083F31188BFF36F8FBFF34F8FFEE723EA13
:103C7000020340F8043C00F04DFA54F8041C084AD2
:103C800013680B4413602846FFF71CFF054A1368AE
:103C90000133136000F0D2FA38BD70472C060020C3
:103CA0003C06002030060020084B1B681B6823B927
:103CB000074B4FF0FF321A607047044B1B68DB68FC
:103CC000DB685A68024B1A60704700BFBC42002094
:103CD000544200202DE9F04707469846089DDDF83C
:103CE00024900A9C266B02F18042013A06EB820680
:103CF00026F00706C1B308464FF0000CBCF10F0FC9
:103D000009D810F80C2004EB0C0383F8342012B10E
:103D10000CF1010CF2E7002384F84330062D00D9A2
:103D20000625E56265644FF0000AC4F848A0201D2E
:103D3000FFF7CEFC04F11800FFF7CAFC2461C5F1BF
:103D40000705A5616462C4F84CA084F850A04246FF
:103D500039463046FFF734FD2060B9F1000F01D03D
:103D6000C9F80040BDE8F087002384F83430D5E777
:103D700038B5002407E004EB840293000E48184491
:103D8000FFF79BFC0134062CF5D90C4D2846FFF7B4
:103D900094FC0B4C2046FFF790FC0A48FFF78DFC83
:103DA0000948FFF78AFC0948FFF787FC084B1D60AC
:103DB000084B1C6038BD00BFE8420020D442002000
:103DC000C0420020A44200209042002078420020FF
:103DD000BC420020B842002010B50446FFF71AFD8F
:103DE000214A136801331360204B1B685BB1204BE1
:103DF0001B686BB91D4B1B68DA6AE36A9A4207D8E5
:103E00001A4B1C6004E0194B1C601368012B28D06E
:103E1000184A136801331360E06A01238340164A8D
:103E200011680B43136000EB8000211D134B03EB63
:103E30008000FFF750FCFFF70FFD0D4B1B687BB1B7
:103E40000A4B1B68DA6AE36A9A4209D24FF0E02310
:103E50004FF08052C3F8042DBFF34F8FBFF36F8F25
:103E600010BDFFF785FFD3E77442002074430020A4
:103E700068420020584200206C420020E8420020A6
:103E800010B5044690F8513063B1012B11D0022BCC
:103E90000ED04FF0500383F31188BFF36F8FBFF341
:103EA0004F8FFEE7006BFFF7C1FE2046FFF7BEFE17
:103EB00010BDFFF7BBFEFBE70F4B1B68D3B110B57E
:103EC000FFF7A8FC0D4BDB68DC68201DFFF727FC23
:103ED0000B4A1368013B1360074A1368013B1360E8
:103EE000FFF7BAFC2046FFF7CBFF034B1B68002B04
:103EF000E6D110BD704700BF8C42002090420020E8
:103F00007442002008B5FFF7D7FF074B1B68012B51
:103F1000F9D94FF0E0234FF08052C3F8042DBFF3DE
:103F20004F8FBFF36F8FEEE7E842002070B5044675
:103F30000D461D4B1E681D4B18680430FFF7EFFB44
:103F400048B91A4B1B68DB6A01229A4018490B6872
:103F500023EA02030B60B4F1FF3F0DD03444134B4E
:103F60001B685C60A64210D9124B18680F4B196889
:103F70000431FFF7BBFB70BD002DEFD00B4B196870
:103F800004310D48FFF7A7FBF5E70C4B1868074B0A
:103F900019680431FFF7AAFB094B1B68A342EAD951
:103FA000074B1C60E7E700BF70420020744300200D
:103FB0006C420020B842002078420020BC42002021
:103FC0005442002030B587B00B9C7CB10C9DB5B13C
:103FD00054250495049D542D1AD04FF0500383F3BB
:103FE0001188BFF36F8FBFF34F8FFEE74FF0500381
:103FF00083F31188BFF36F8FBFF34F8FFEE74FF04E
:10400000500383F31188BFF36F8FBFF34F8FFEE729
:10401000049D0C9D2C63022485F8514000240394D8
:10402000029505AC01940A9C0094FFF753FE0C988E
:10403000FFF7D2FE059807B030BD2DE9F04385B0FB
:104040000746884614461E469000FFF76DFD08B3EC
:1040500081465420FFF768FD0546A8B1C0F83090AE
:10406000002380F85130039302900D9B01930C9B29
:1040700000933346224641463846FFF72BFE28463A
:10408000FFF7AAFE012007E04846FFF7CFFD4FF0FB
:10409000FF3001E04FF0FF3005B0BDE8F0830000D5
:1040A00010B588B000240594069407AA06A905A8AF
:1040B000FCF7B0FB059B0293069B019300942346FB
:1040C000079A0E490E48FFF77DFF0E4B186090B11E
:1040D0004FF0500383F31188BFF36F8FBFF34F8FFF
:1040E000094B4FF0FF321A60084B01221A60084B4F
:1040F0001C60FFF729FC08B010BD00BF4C5D000834
:10410000053F000850420020544200206842002031
:1041100070420020024A136801331360704700BFE9
:104120004C420020F8B53A4B1B68002B69D1394B43
:104130001D6801351D60C5B9374B1B681B6843B14D
:104140004FF0500383F31188BFF36F8FBFF34F8F8E
:10415000FEE7314A1168314B186810601960304A27
:10416000136801331360FFF79FFD2E4B1B68AB42B2
:104170003DD900272C4B1B68DB6A03EB83039A00B5
:104180002A4B9B58012B00D90127294B1B68002B78
:104190003CD001273AE001271F4B1B681B6843B343
:1041A0001D4B1B68DB68DC6863689D4226D3261DB7
:1041B0003046FFF7B4FAA36A1BB104F11800FFF709
:1041C000AEFAE36A01229A401A49086802430A607B
:1041D00003EB83039A00314614481044FFF77BFA3F
:1041E000E26A114B1B68DB6A9A42D4D2D4E70027FB
:1041F000D2E70C4B4FF0FF321A60BBE7094A13605D
:10420000B8E70D4A13680133136000273846F8BD3C
:104210004C42002070420020BC420020B8420020E6
:104220005C4200205442002074430020E8420020F9
:10423000604200206C4200206442002038B5354BBB
:104240001B6843B94FF0500383F31188BFF36F8F9E
:10425000BFF34F8FFEE7FFF7DDFA2E4B1A68013AE6
:104260001A601B68002B4FD12B4B1B680BB9002425
:104270004BE00024294B1B681BB3284BDB68DC6830
:1042800004F11800FFF74BFA251D2846FFF747FAFF
:10429000E06A01238340224A11680B43136000EB5C
:1042A000800029461F4B03EB8000FFF714FAE26AF7
:1042B0001D4B1B68DB6A9A42DCD31C4B01221A603F
:1042C000D8E70CB1FFF7F0FC194B1C6884B9174B09
:1042D0001C68D4B14FF0E0234FF08052C3F8042D96
:1042E000BFF34F8FBFF36F8F01240EE0013C07D067
:1042F000FFF718FF0028F9D00C4B01221A60F5E7F0
:104300000B4B00221A60E2E70024FFF7A5FA2046D3
:1043100038BD00BF4C42002074420020A44200205F
:104320006C420020E84200207443002060420020DC
:104330006442002010B5A8B10446104B1B6843B17D
:104340004FF0500383F31188BFF36F8FBFF34F8F8C
:10435000FEE7FFF7DFFE00212046FFF7E7FDFFF74E
:104360006DFF48B94FF0E0234FF08052C3F8042DA1
:10437000BFF34F8FBFF36F8F10BD00BF4C420020C3
:10438000204B1B681BB1204B01221A6070471E4B4B
:1043900000221A601D4B1B68B3FA83F3DBB2C3F132
:1043A0001F0303EB83018A0019498A5842B94FF071
:1043B000500383F31188BFF36F8FBFF34F8FFEE776
:1043C000134803EB83018A00024451684968516035
:1043D00003EB830C4FEA8C0208320244914209D06D
:1043E00003EB83039A000A4B13445B68DA68094BBA
:1043F0001A607047486862469100054A0A44506056
:10440000EEE700BF4C420020604200206C420020DA
:10441000E84200207443002008B50A4601460248DD
:1044200000F024F908BD00BF7843002008B500F073
:10443000C8F9024800F02EFA08BD00BF1944000870
:1044400030B58BB0012208920023069307920093A7
:10445000019302930393059304930E4C69462046FF
:10446000FCF79CFE2046FCF735FF02212046FDF7B5
:1044700089F80E230993059369462046FCF78EFEC2
:104480002046FCF727FF02212046FDF77BF80BB002
:1044900030BD00BFA401002010B588B013466A46A5
:1044A00000200090019040F2FF14029404900590C7
:1044B0000820069041FA00F08DF802008DF80310F4
:1044C000C3F307218DF80410DBB28DF805308DF8A9
:1044D00006108DF80730012302A90248FCF728FFD7
:1044E00008B010BDA4010020A0F580631BB2A0F2AB
:1044F000F23080B21C280ED9B3F5257F0EDC13F5FF
:10450000257F0EDB07EE903AF8EEE77A9FED067A0C
:1045100087EE870A70479FED050A7047B7EE000ADD
:104520007047BFEE000A70470000254400000000FD
:1045300040F2B523984205D940F24953984203D836
:10454000022070470120704703207047CB7D002B6D
:1045500040F08980012383754B788A7843EA0223EF
:10456000C3F30A0303838A78CB785B0143EAD2035F
:10457000C3F30A034383CA780B799B0043EA92137F
:104580004A7943EA8223C3F30A0383834A798B7906
:10459000DB0143EA5203C3F30A03C3838A79CB796D
:1045A0001B0143EA1213C3F30A030384CA790B7A8B
:1045B0005B0043EAD2134A7A43EA4223C3F30A0375
:1045C00043844A7A8B7A9B0143EA9203C3F30A033A
:1045D00083848A7ACB7ADB0043EA5213C3840B7B51
:1045E0004A7B43EA0223C3F30A0303854A7B8B7B9E
:1045F0005B0143EAD203C3F30A0343858A7BCB7B87
:104600009B0043EA92130A7C43EA8223C3F30A0322
:1046100083850A7C4B7CDB0143EA5203C3F30A0324
:10462000C3854A7C8B7C1B0143EA1213C3F30A0344
:1046300003868A7CCB7C5B0043EAD2130A7D43EA83
:104640004223C3F30A0343860A7D4B7D9B0143EA61
:104650009203C3F30A0383864A7D8B7DDB0043EA22
:104660005213C3867047002383757047192A00D000
:10467000704710B50446FFF769FFA37D2370DBB1D7
:10468000208BFFF731FF84ED010A608BFFF72CFFD1
:1046900084ED020AA08BFFF727FF84ED030AE08B6D
:1046A000FFF722FF84ED040A608CFFF741FF2075BD
:1046B000A08CFFF73DFF607510BD80ED000AC0EDD6
:1046C000010A80ED021AC0ED031A80ED042A70473A
:1046D00080ED050AC0ED060A90ED076A80ED086AD4
:1046E00070EE600AC0ED070AD0ED007A60EEA77A9E
:1046F000C0ED097A90ED0A7AD0ED016A60EEA66A03
:1047000037EE267A80ED0A7A90ED020A70EEC60A3C
:1047100020EE200A80ED0B0A77EE877A30EE270A2A
:1047200080ED0C0A7047000008B5DFED070A9FED29
:10473000072ADFED071AB0EE601AB1EE040A054849
:10474000FFF7BBFF08BD00BF0000000000A0FC4554
:1047500000803B453C44002008B52DED048B9FEDC7
:10476000119ADFED118A9FED118AB0EE492AF0EE21
:10477000681AB0EE481AF0EE480AB1EE040A0C4886
:10478000FFF79BFFB0EE492AF0EE681AB0EE481A28
:10479000F0EE480AB1EE040A0648FFF78EFFBDECC2
:1047A000048B08BD0000804600803B4500000000EF
:1047B00008440020D443002008B50120FEF776FF0E
:1047C000FBE708B500F01CF800F02EF800F04EF8FA
:1047D00008BD000008B5024B1B6803B1984708BD2F
:1047E0007044002010B58AB001AC234603AA002112
:1047F000FCF713FE21460398FFF7ECFF0AB010BD4B
:10480000074AD2F8FC3043F08073C2F8FC30054B05
:1048100000225A601A6842F001021A60704700BF15
:1048200000ED00E0001000E010B5074C002120462C
:10483000FEF7FAF904212046FEF7F6F90821204692
:10484000FEF7F2F910BD00BF8804002008B5024B46
:104850001B6803B1984708BD7844002008B5024B97
:104860001B6803B1984708BD7444002008B5322284
:1048700004490548FEF7AAFE7F2204490448FEF7D2
:10488000A5FE08BD7C450020900500207C4400204A
:10489000D8050020014B1860704700BF7844002005
:1048A000F8B504460D460268274B9A4208D02268A4
:1048B000264B9A4220D02268254B9A4227D0F8BD39
:1048C000FEF7DEFBC0B2022807D00028EFD132226B
:1048D00020492148FEF77AFEE9E71F4E3046FEF7F1
:1048E0008FFB1C4F29463846FFF7B0FF322239466E
:1048F0003046FEF76BFEDAE72046FEF7C1FBC0B29A
:104900000228D8D129461548FFF7A8FFD3E720464B
:10491000FEF7B6FBC0B2022807D00028CFD17F2215
:104920000F491048FEF752FEC9E70E4C2046FEF72D
:1049300067FB0B4E29463046FFF790FF7F2231463A
:104940002046FEF743FEBAE700480040001401404D
:10495000001001407C45002090050020FC44002010
:104960007C440020D805002008B503680C4A934217
:1049700003D00C4A934209D008BD002380F8403090
:10498000322209490948FEF721FEF5E7002380F8A5
:1049900040307F2206490748FEF718FEECE700BFCB
:1049A00000480040001001407C4500209005002098
:1049B0007C440020D80500202DE9F047089D0F46D3
:1049C00004468C46002B48D18A42164661D9B2FA79
:1049D00082F34BB1C3F1200201FA03FC20FA02F288
:1049E0009E4042EA0C0C9C404FEA164EB7B2BCFB0C
:1049F000FEF1220C0EFB11CC42EA0C4201FB07F047
:104A0000904209D9B21801F1FF3C80F0EE8090424B
:104A100040F2EB8002393244121AA4B2B2FBFEF02B
:104A20000EFB102244EA024400FB07F7A74209D913
:104A3000341900F1FF3280F0DA80A74240F2D780CB
:104A40003444023840EA0140E41B00211DB1DC403F
:104A50000023C5E90043BDE8F0878B4206D90DB1BC
:104A6000C5E9000100210846BDE8F087B3FA83F1EB
:104A7000002948D1BB4202D3824200F20781841A46
:104A800067EB030201209446002DE4D0C5E9004CF9
:104A9000E1E7002A00F09280B2FA82F3002B40F0A6
:104AA000A8808A1A4FEA164E1FFA86FC0121200CB4
:104AB000B2FBFEF70EFB172240EA02420CFB07F0A6
:104AC000904207D9B21807F1FF3802D2904200F2A3
:104AD000E2804746121AA4B2B2FBFEF00EFB10228F
:104AE00044EA02440CFB00FCA44507D9341900F148
:104AF000FF3202D2A44500F2CB801046A4EB0C0496
:104B000040EA0740A2E7C1F120068B4022FA06FCEA
:104B10004CEA030C07FA01F420FA06F3F7404FEAD7
:104B20001C49234300FA01F81FFA8CFEB7FBF9F089
:104B30001C0C09FB107744EA074400FB0EF7A74260
:104B400002FA01F20AD91CEB040400F1FF3A80F0EA
:104B50009B80A74240F2988002386444E41B9FB2D5
:104B6000B4FBF9F309FB134447EA044403FB0EFECC
:104B7000A64509D91CEB040403F1FF3780F08280BD
:104B8000A6457FD9023B644443EA0040A4EB0E04EF
:104B9000A0FB02E7BC427346B94663D360D05DB167
:104BA000B8EB030264EB090404FA06F622FA01F3F7
:104BB0001E43CC40C5E9006400214CE76208480868
:104BC00042EAC1710B0C43EA00438AB242EA034253
:104BD000B3FBF6F1E407B4463746B6461F23B0FBF5
:104BE000F6F0D21B41EA004161E7614614E7104646
:104BF00028E7C3F1200120FA01F29E4027FA01F1D3
:104C00009F403A434FEA164E1FFA86FCB1FBFEF76F
:104C10000EFB1710110C41EA004107FB0CF8884508
:104C200004FA03F43AD9711807F1FF3001D288452C
:104C30001FD8A1EB0801B1FBFEF808FB0CF70EFB37
:104C4000181192B242EA0142BA422FD2B21808F1C8
:104C5000FF31C6D2BA42C4D2A8F102013244C0E741
:104C6000F0459CD2BEEB020367EB0C070138B94656
:104C700095E7A6EB08084144B81EB1FBFEF808FB17
:104C80000CF7DCE73B467FE7504667E70846FBE664
:104C90003444023832E7023F32441BE7A1EB0801FB
:104CA0003846B1FBFEF808FB0CF7C8E7414698E729
:104CB00003685A004CBF43F0004323F000431844FC
:104CC000704700BF2DE9F04759B301F1FF380546A1
:104CD000164647464FF0000A0AEB070101EBD17177
:104CE000491005EBC1094846FFF7E2FF88454FEA46
:104CF000C104034610D004F10800B342284407D889
:104D0000FFF7D6FF0138B04208D201F1010AE3E70C
:104D10008A4506D04F1EDFE7B042F9D84846BDE8C5
:104D2000F0874FF000094846BDE8F087012806D01B
:104D3000022802D028B90448704704487047044844
:104D400070470020704700BF1D5400082D54000814
:104D50002554000830B5224B83B004468D1E43B362
:104D600001A92846AFF30080F0B101992A46FFF768
:104D7000A9FF0146C0B1FFF79BFF4B68A064012B60
:104D80002BD0002B01F1040025DBFFF791FF00235E
:104D900023650368E064002B12DBFFF789FF0346FD
:104DA0000020236103B030BD00230920236103B03C
:104DB00030BD0C4B0C49C91AC91018460191D5E7F2
:104DC000C3F30360FFF7B2FF031E0CBF09200020EE
:104DD000236103B030BD0123DAE700230520E0E7BB
:104DE00000000000A45D00085C5E00080368DA07AC
:104DF00010B5044606D49B0700F1500009D5FBF717
:104E0000F3F92368590709D51A070ED5DB0613D520
:104E100010BDFBF7E1F923685907F5D404F1D80078
:104E2000FBF7EAF923681A07F0D404F5AC70FBF736
:104E3000EBF92368DB06EBD404F5EC70BDE8104019
:104E4000FBF726BA0346006800B11844704700BF5C
:104E5000704700BF70B504460E46316C2046FFF720
:104E600079FF054688B9326C626123693246214672
:104E7000012098470828F0D0072806D12846316C31
:104E8000FFF7E6FF301DFBF79BF900F0E5FD00BFE3
:104E90002DE9F04F0D1DD0F80C90D0F818A0074662
:104EA00014460FCDADF5777D0DF10C0CACE80F007D
:104EB0000FCDACE80F000FCDACE80F0095E80F0068
:104EC00002AE4FF0000E8CE80F000DF5F878C6F832
:104ED00000E021E0336C7B614FF4F47231464046D0
:104EE000FBF746FA3B694246394658469847D8F898
:104EF0003830B3642146CDE9006A05463B460120BF
:104F00003A46C847044618BB4FF4F472414630464F
:104F1000FBF72EFA082D19D1316C3846FFF71AFF2E
:104F2000093405465FFA84FB0028D3D0B36BB36421
:104F30003A46CDE9006A3B464BF010010120C847D4
:104F400030B928460DF5777DBDE8F08F072D05D0E7
:104F5000092528460DF5777DBDE8F08F2046316C98
:104F6000FFF776FF03A8FBF72BF900BFF0B5CB6B7B
:104F7000FBB001F1040C0B640F460546BCE80F00C2
:104F800001AC0FC4BCE80F000FC4BCE80F000FC495
:104F90009CE80F004FF0FF3E84E80F006E46CDF80E
:104FA00000E006E02B693246294698470828044667
:104FB00008D1316C2846FFF7CDFE0028F2D0092039
:104FC0007BB0F0BD3046FFF711FF062CF7D1394614
:104FD0002846FFF73FFF00BFC160D96B82611964AB
:104FE00000221946FFF754BF70B5C66843690B64C9
:104FF000AEB903690A4604460D46014602209847A9
:10500000072805D008280FD129462046FFF722FFA0
:105010003046296CFFF71CFF281DFBF7D1F8012251
:10502000FFF736FF00F018FD00F016FDC26808B566
:1050300032B1CA6B0A64BDE808400022FFF728BFFE
:10504000FFF794FF092008BD052915D8DFE801F016
:105050000A031403030501207047009A436C136090
:105060000020704743B90F2A06D800EB82020020C7
:105070005368009A136070470220704700B585B0EE
:105080000A46002303A900911946FFF7DDFF0398A4
:1050900005B05DF804FB00BF052915D8DFE801F075
:1050A0000A031403030501207047009B1B68436437
:1050B0000020704743B90F2A06D8009B00EB8202FC
:1050C0001B685360002070470220704710B584B001
:1050D000002303AC039200940A461946FFF7DCFF55
:1050E00004B010BD2DE9F041D36BADF5107D02F198
:1050F000040C136407460E46BCE80F000DF15C0E6D
:10510000AEE80F00BCE80F00AEE80F00BCE80F00EF
:10511000AEE80F009CE80F0016AC4FF0FF388EE8A9
:105120000F006D46C4F8008010E0FFF7CFFF314656
:105130002046B847034622460820294683B92B69F2
:105140009847052880460DD0092809D0216C2846AB
:10515000FFF700FE03460C212A462046002BE4D030
:105160004FF009082046FFF741FE40460DF5107D3F
:10517000BDE8F0812DE9F04F1646CA6C89B00D46A6
:1051800052F8041B069200F0030CE3B10C0C8DF8EE
:105190001D400904E4B2059102EB840202218DF85E
:1051A0001C10296DBCF1020F08BFAA6B11F0010899
:1051B0000FD005A9304600F0CFFA002839D10820D9
:1051C00009B0BDE8F08F090205918DF81D3003216B
:1051D000E5E71768002FECD000F008010191E346E5
:1051E000CDF808809A46BAF1020F26D01788548865
:1051F00002F10409AA6C24F001030F21304603EBED
:105200000208FFF73BFF804515D827F0010202EBAB
:105210000803834294BF00230123640004F00204C6
:1052200007F001072743012F0BD0022F50D0002F8A
:1052300045D00920C4E70023EFE7546802F10809CC
:10524000D8E7BBF1000F73D1CBB1D9F80430D9F84E
:105250000020991C4FEAD272EBD005F158040133BB
:10526000049400F0CC8009F10400FFF7EBFD04ABDF
:1052700001462846AFF30080002840F0978009F1EE
:1052800008021768002FAED105A93046DDF8088066
:1052900000F062FA0028CCD1B8F1000F8FD00F21B6
:1052A0003046FFF7EBFE0E2102463046FFF70EFFB9
:1052B000594A0F213046FFF709FF072080E7BBF16D
:1052C000000F02D0002B40F0878009F10402D8E7DC
:1052D000D9F8004024F00048BBF1000F0FD12BB1EA
:1052E000019B002B3CD0B8F1000F39D0002C01DA23
:1052F00009F1040908F1010209EB8202C1E70D215D
:105300003046FFF7BBFE2F6A8742EFD1AB6A994563
:10531000ECD100240423C5E90B434B44C5F8288095
:105320006B63D9F80030A34270DB01230293E1E7FD
:105330000D213046FFF7A2FE2C6A84429FD1AB6A52
:1053400099459CD14846FFF7B3FC0F2102463046F1
:10535000FFF7BCFE2A4600213046FFF7B7FEACE758
:1053600005F15803CDF80CB009F10407B346002449
:105370001E460BE038460496FFF764FD0022014606
:1053800004AB2846AFF300800437F8B9444504F174
:105390000104EFD10D215846FFF770FE049BC5F8BC
:1053A00028900246C5E90823062009E704460D2196
:1053B0003046FFF763FE049E2862022C04BFEE62B3
:1053C00005F12C06C5E909690620F9E65E46D9F81B
:1053D0000040DDF80CB089E74846FFF769FC09F1A9
:1053E00004030446AB632846AFF3008000283FF473
:1053F00020AF22460F213046FFF768FE5DE73046BA
:105400000D21FFF73BFE26462862DBE708F101028B
:1054100009EB820097E700BF000000000023FFF7C0
:10542000A9BE00BF0123FFF7A5BE00BF0223FFF7FF
:10543000A1BE00BF2DE9F0410646C4B014460529BF
:1054400008D8DFE801F016300773980B3A19102AD4
:1054500040F2B780022044B0BDE8F081836B002C9D
:10546000F8D153F8042B42648363002044B0BDE8B4
:10547000F081002BEED1856B1FFA84FC012006F130
:10548000040E00FA03F111EA0C0F2A4604D052F878
:10549000041B4EF8231015460133102BF1D1A00444
:1054A000E3D4B563E1E7012B4FEA1447A4B2CDD0B2
:1054B000052BCFD107EB0408B8F1200FCAD80F2F66
:1054C00040F2BD80002CD0D002685107A04600F108
:1054D0001B81019302AC2046FAF792FED6F838C041
:1054E000019B102F4FF0FF3239464FF0020E38BFAC
:1054F000102118FB0E2E04EBC10184397246604660
:1055000050F8045B41F8045F013A551CF8D10CF1E6
:10551000040C012B0CEB8E0200F0D5800F2FB26330
:1055200040F2FA802046FAF767FE9EE7032B91D1FE
:10553000A7B207EB1443102B4FEA14448AD8036830
:10554000190700F1A38022AD2846FAF77FFE7A0002
:10555000B06B05EBC404531E42B1011B625844F802
:10556000042B013B5A1CF9D100EBC700B06328465D
:10557000FAF74AFE79E7002B7FF46CAF102C3FF668
:1055800069AF0368D80679D422AD2846FAF78AFEB7
:10559000B76B294600234FF0010C0CFA03F22242AC
:1055A000384603F1010303D050F8042B0A60074684
:1055B000042B01F10401F0D1B7632846FAF768FE25
:1055C00053E7102F3FF446AF0268D10708D53046A5
:1055D00022F0030240F8502B0193FAF701FE019BE1
:1055E000019322AD2846FAF7FBFDD6F838C0002C0F
:1055F0006BD0019B4FF0000802214FF0FF3214FBEB
:10560000012E05EBC70104397246604650F8044B81
:1056100041F8044F013A541CF8D10CF1040C0CEB86
:105620008E0CB8F1000F39D1012B4ED00F2FC6F8D8
:1056300038C03FF61AAF2846FAF7D6FD15E70268DC
:10564000B8F1100F02F001012AD851B1304622F012
:10565000010242F0020240F8502B0193FAF7C8FD14
:10566000019B019322AD2846FAF7C2FD019B002C55
:10567000E1D0D6F838C04FF00008BDE723F01003A2
:10568000336006F5EC70FAF70DFE7DE723F00803B2
:10569000036000F5AC70FAF7D9FD54E702AC20E7DF
:1056A000D1B9550726D422AD28460193FAF7A0FDBB
:1056B00002A8FAF7A5FDA8F11008D6F838C0019B9A
:1056C000C7F1100498E7944622AD0CF10403B363CC
:1056D0002846FAF781FDC8E622F0010242F00202F4
:1056E00040F8502B0193FAF783FD3268019B12F0CA
:1056F000040FD8D0304622F0040240F8D82B019392
:10570000FAF77EFD019BCEE722F0040240F8D82B89
:105710000193FAF775FDDDE622A8FAF765FD01E7CA
:10572000027A03467AB9427AA2B14168013A10B4CA
:105730004272086803220C1D1A7202025C60000E9D
:1057400010BC1A6070470068013A1A7202021A60AF
:10575000000E7047B02070472DE9F043064685B033
:105760000D4600272846FFF7DBFFB028044600F06F
:10577000218103065ED500F0F003A02B1DD033D8A5
:10578000802B00F08780902B2AD100F00D030D2B89
:1057900026D00DF10808002300F00F021946CDF8BD
:1057A00000803046FFF750FC0023CDF800800D222A
:1057B00019463046FFF770FCD4E7C34303F00703F4
:1057C0004FF47F621A41010702F47F6201D542F46F
:1057D0008042002319463046FFF72CFE0028C1D036
:1057E000092005B0BDE8F083B02B68D0C02B3FD1B5
:1057F000C62800F0CC80C72800F0DF8000F0F80356
:10580000C02B00F0EC80C82800F0F780C928E7D151
:105810002846FFF785FF020300F00F0002F4702214
:1058200001300243012105233046FFF703FE002823
:1058300098D0D5E78300DBB203F104080DF1080925
:1058400000231946CDF800900D223046FFF7FCFBEF
:10585000029ACDF8009060064CBFA2EB08024244C9
:105860000023029219460D223046FFF715FC79E716
:1058700000F0F803D02BB3D100F00702013205236A
:1058800042F4002201213046FFF7D4FD00283FF406
:1058900069AFA5E72846FFF743FF24022043B0F590
:1058A000004F9DD004010023A2B219463046FFF7F5
:1058B000C1FD002894D1C4F3C030074352E7A0F1E2
:1058C000B103042B00F2B580DFE803F05729160C72
:1058D000030003AA0023009219460D223046FFF769
:1058E000B3FB3FE700231A4605213046FFF7A2FD30
:1058F00000283FF437AF73E72846FFF711FF020394
:1059000000F00F00013002F4702201230243194617
:105910003046FFF78FFD00283FF424AF60E70023F7
:105920000DF108090D221946CDF800903046FFF719
:105930008BFB2846FFF7F4FE0206029C4FF002089C
:105940000CD500F07F0000FA08F0044428460294C9
:10595000FFF7E6FE030608F10708F2D400FA08F0A4
:1059600004F50174204400230290CDF800900D222C
:1059700019463046FFF790FBF4E62846FFF7D0FEC5
:10598000431EDBB20E2B02467FF623AF28E72846E4
:10599000FFF7C6FE020300F00F00013002F4702290
:1059A0000323024319463046FFF744FD00283FF425
:1059B000D9AE15E76FB3002013E72846FFF7B0FE16
:1059C000431EDBB20E2B02463FF60AAF0023042132
:1059D0003046FFF72FFD00283FF4C4AE00E700F08B
:1059E0000F020132032342F4202219463046FFF70A
:1059F00021FD00283FF4B6AEF2E62846FFF790FE00
:105A000000F0F00200F00F031032013343EA0232DB
:105A100008E702AC3B46394600940E223046FFF7B9
:105A200013FB0F2200943B4639463046FFF734FB08
:105A3000C1E700F0FC03B42B3FF4D2AE00F0070244
:105A40000132012342F4002219463046FFF7F2FCEE
:105A500000283FF487AEC3E608B5062000F052F8F0
:105A60000120FBF7EBF800BF830730B546D0841860
:105A7000844604E003F8011B9D0704D09C46A4451E
:105A80006346F7D130BD013A0244A2EB0C02032A6F
:105A900029D9CCB204EB04240F2A04EB04442FD9F7
:105AA000A2F1100C2CF00F0C03F11005AC44C3E96B
:105AB0000044C3E9024410336345F8D112F00C0FDF
:105AC00002F00F0E18D02EF0030C9C44AEF104052A
:105AD0001A4642F8044B6245FBD125F00304043317
